{
  "_format": "hh-sol-artifact-1",
  "contractName": "ProofVerifier",
  "sourceName": "contracts/ProofVerifier.sol",
  "abi": [
    {
      "inputs": [],
      "stateMutability": "nonpayable",
      "type": "constructor"
    },
    {
      "inputs": [
        {
          "internalType": "uint256",
          "name": "value",
          "type": "uint256"
        },
        {
          "internalType": "uint256",
          "name": "length",
          "type": "uint256"
        }
      ],
      "name": "StringsInsufficientHexLength",
      "type": "error"
    },
    {
      "anonymous": false,
      "inputs": [
        {
          "indexed": true,
          "internalType": "bytes32",
          "name": "role",
          "type": "bytes32"
        },
        {
          "indexed": true,
          "internalType": "bytes32",
          "name": "previousAdminRole",
          "type": "bytes32"
        },
        {
          "indexed": true,
          "internalType": "bytes32",
          "name": "newAdminRole",
          "type": "bytes32"
        }
      ],
      "name": "RoleAdminChanged",
      "type": "event"
    },
    {
      "anonymous": false,
      "inputs": [
        {
          "indexed": true,
          "internalType": "bytes32",
          "name": "role",
          "type": "bytes32"
        },
        {
          "indexed": true,
          "internalType": "address",
          "name": "account",
          "type": "address"
        },
        {
          "indexed": true,
          "internalType": "address",
          "name": "sender",
          "type": "address"
        }
      ],
      "name": "RoleGranted",
      "type": "event"
    },
    {
      "anonymous": false,
      "inputs": [
        {
          "indexed": true,
          "internalType": "bytes32",
          "name": "role",
          "type": "bytes32"
        },
        {
          "indexed": true,
          "internalType": "address",
          "name": "account",
          "type": "address"
        },
        {
          "indexed": true,
          "internalType": "address",
          "name": "sender",
          "type": "address"
        }
      ],
      "name": "RoleRevoked",
      "type": "event"
    },
    {
      "inputs": [],
      "name": "DEFAULT_ADMIN_ROLE",
      "outputs": [
        {
          "internalType": "bytes32",
          "name": "",
          "type": "bytes32"
        }
      ],
      "stateMutability": "view",
      "type": "function"
    },
    {
      "inputs": [],
      "name": "VERIFIER_ROLE",
      "outputs": [
        {
          "internalType": "bytes32",
          "name": "",
          "type": "bytes32"
        }
      ],
      "stateMutability": "view",
      "type": "function"
    },
    {
      "inputs": [
        {
          "internalType": "bytes32",
          "name": "role",
          "type": "bytes32"
        }
      ],
      "name": "getRoleAdmin",
      "outputs": [
        {
          "internalType": "bytes32",
          "name": "",
          "type": "bytes32"
        }
      ],
      "stateMutability": "view",
      "type": "function"
    },
    {
      "inputs": [
        {
          "internalType": "bytes32",
          "name": "role",
          "type": "bytes32"
        },
        {
          "internalType": "address",
          "name": "account",
          "type": "address"
        }
      ],
      "name": "grantRole",
      "outputs": [],
      "stateMutability": "nonpayable",
      "type": "function"
    },
    {
      "inputs": [
        {
          "internalType": "bytes32",
          "name": "role",
          "type": "bytes32"
        },
        {
          "internalType": "address",
          "name": "account",
          "type": "address"
        }
      ],
      "name": "hasRole",
      "outputs": [
        {
          "internalType": "bool",
          "name": "",
          "type": "bool"
        }
      ],
      "stateMutability": "view",
      "type": "function"
    },
    {
      "inputs": [
        {
          "internalType": "bytes32",
          "name": "role",
          "type": "bytes32"
        },
        {
          "internalType": "address",
          "name": "account",
          "type": "address"
        }
      ],
      "name": "renounceRole",
      "outputs": [],
      "stateMutability": "nonpayable",
      "type": "function"
    },
    {
      "inputs": [
        {
          "internalType": "bytes32",
          "name": "role",
          "type": "bytes32"
        },
        {
          "internalType": "address",
          "name": "account",
          "type": "address"
        }
      ],
      "name": "revokeRole",
      "outputs": [],
      "stateMutability": "nonpayable",
      "type": "function"
    },
    {
      "inputs": [
        {
          "internalType": "bytes4",
          "name": "interfaceId",
          "type": "bytes4"
        }
      ],
      "name": "supportsInterface",
      "outputs": [
        {
          "internalType": "bool",
          "name": "",
          "type": "bool"
        }
      ],
      "stateMutability": "view",
      "type": "function"
    },
    {
      "inputs": [],
      "name": "verifyProof",
      "outputs": [
        {
          "internalType": "bool",
          "name": "",
          "type": "bool"
        }
      ],
      "stateMutability": "pure",
      "type": "function"
    }
  ],
  "bytecode": "0x608060405234801561001057600080fd5b506100246000801b3361005960201b60201c565b6100547f0ce23c3e399818cfee81a7ab0880f714e53d7672b08df0fa62f2843416e1ea093361005960201b60201c565b6101cb565b610069828261006d60201b60201c565b5050565b61007d828261015960201b60201c565b61015557600160008084815260200190815260200160002060000160008373ffffffffffffffffffffffffffffffffffffffff1673ffffffffffffffffffffffffffffffffffffffff16815260200190815260200160002060006101000a81548160ff0219169083151502179055506100fa6101c360201b60201c565b73ffffffffffffffffffffffffffffffffffffffff168173ffffffffffffffffffffffffffffffffffffffff16837f2f8788117e7eff1d82e926ec794901d17c78024a50270940304540a733656f0d60405160405180910390a45b5050565b600080600084815260200190815260200160002060000160008373ffffffffffffffffffffffffffffffffffffffff1673ffffffffffffffffffffffffffffffffffffffff16815260200190815260200160002060009054906101000a900460ff16905092915050565b600033905090565b610ef2806101da6000396000f3fe608060405234801561001057600080fd5b50600436106100935760003560e01c806391d148541161006657806391d1485414610130578063963d263714610160578063a217fddf1461017e578063d547741f1461019c578063e7705db6146101b857610093565b806301ffc9a714610098578063248a9ca3146100c85780632f2ff15d146100f857806336568abe14610114575b600080fd5b6100b260048036038101906100ad919061096e565b6101d6565b6040516100bf91906109b6565b60405180910390f35b6100e260048036038101906100dd9190610a07565b610250565b6040516100ef9190610a43565b60405180910390f35b610112600480360381019061010d9190610abc565b61026f565b005b61012e60048036038101906101299190610abc565b610290565b005b61014a60048036038101906101459190610abc565b610313565b60405161015791906109b6565b60405180910390f35b61016861037d565b60405161017591906109b6565b60405180910390f35b610186610386565b6040516101939190610a43565b60405180910390f35b6101b660048036038101906101b19190610abc565b61038d565b005b6101c06103ae565b6040516101cd9190610a43565b60405180910390f35b60007f7965db0b000000000000000000000000000000000000000000000000000000007bffffffffffffffffffffffffffffffffffffffffffffffffffffffff1916827bffffffffffffffffffffffffffffffffffffffffffffffffffffffff191614806102495750610248826103d2565b5b9050919050565b6000806000838152602001908152602001600020600101549050919050565b61027882610250565b6102818161043c565b61028b8383610450565b505050565b610298610530565b73ffffffffffffffffffffffffffffffffffffffff168173ffffffffffffffffffffffffffffffffffffffff1614610305576040517f08c379a00000000000000000000000000000000000000000000000000000000081526004016102fc90610b7f565b60405180910390fd5b61030f8282610538565b5050565b600080600084815260200190815260200160002060000160008373ffffffffffffffffffffffffffffffffffffffff1673ffffffffffffffffffffffffffffffffffffffff16815260200190815260200160002060009054906101000a900460ff16905092915050565b60006001905090565b6000801b81565b61039682610250565b61039f8161043c565b6103a98383610538565b505050565b7f0ce23c3e399818cfee81a7ab0880f714e53d7672b08df0fa62f2843416e1ea0981565b60007f01ffc9a7000000000000000000000000000000000000000000000000000000007bffffffffffffffffffffffffffffffffffffffffffffffffffffffff1916827bffffffffffffffffffffffffffffffffffffffffffffffffffffffff1916149050919050565b61044d81610448610530565b610619565b50565b61045a8282610313565b61052c57600160008084815260200190815260200160002060000160008373ffffffffffffffffffffffffffffffffffffffff1673ffffffffffffffffffffffffffffffffffffffff16815260200190815260200160002060006101000a81548160ff0219169083151502179055506104d1610530565b73ffffffffffffffffffffffffffffffffffffffff168173ffffffffffffffffffffffffffffffffffffffff16837f2f8788117e7eff1d82e926ec794901d17c78024a50270940304540a733656f0d60405160405180910390a45b5050565b600033905090565b6105428282610313565b1561061557600080600084815260200190815260200160002060000160008373ffffffffffffffffffffffffffffffffffffffff1673ffffffffffffffffffffffffffffffffffffffff16815260200190815260200160002060006101000a81548160ff0219169083151502179055506105ba610530565b73ffffffffffffffffffffffffffffffffffffffff168173ffffffffffffffffffffffffffffffffffffffff16837ff6391f5c32d9c69d2a47ea670b442974b53935d1edc7fd64eb21e047a839171b60405160405180910390a45b5050565b6106238282610313565b61069a576106308161069e565b61063e8360001c60206106cb565b60405160200161064f929190610ca8565b6040516020818303038152906040526040517f08c379a00000000000000000000000000000000000000000000000000000000081526004016106919190610d2c565b60405180910390fd5b5050565b60606106c48273ffffffffffffffffffffffffffffffffffffffff16601460ff166106cb565b9050919050565b60606000839050600060028460026106e39190610d87565b6106ed9190610dc9565b67ffffffffffffffff81111561070657610705610dfd565b5b6040519080825280601f01601f1916602001820160405280156107385781602001600182028036833780820191505090505b5090507f3000000000000000000000000000000000000000000000000000000000000000816000815181106107705761076f610e2c565b5b60200101907effffffffffffffffffffffffffffffffffffffffffffffffffffffffffffff1916908160001a9053507f7800000000000000000000000000000000000000000000000000000000000000816001815181106107d4576107d3610e2c565b5b60200101907effffffffffffffffffffffffffffffffffffffffffffffffffffffffffffff1916908160001a905350600060018560026108149190610d87565b61081e9190610dc9565b90505b60018111156108be577f3031323334353637383961626364656600000000000000000000000000000000600f8416601081106108605761085f610e2c565b5b1a60f81b82828151811061087757610876610e2c565b5b60200101907effffffffffffffffffffffffffffffffffffffffffffffffffffffffffffff1916908160001a905350600483901c9250806108b790610e5b565b9050610821565b50600082146109065784846040517fe22e27eb0000000000000000000000000000000000000000000000000000000081526004016108fd929190610e93565b60405180910390fd5b809250505092915050565b600080fd5b60007fffffffff0000000000000000000000000000000000000000000000000000000082169050919050565b61094b81610916565b811461095657600080fd5b50565b60008135905061096881610942565b92915050565b60006020828403121561098457610983610911565b5b600061099284828501610959565b91505092915050565b60008115159050919050565b6109b08161099b565b82525050565b60006020820190506109cb60008301846109a7565b92915050565b6000819050919050565b6109e4816109d1565b81146109ef57600080fd5b50565b600081359050610a01816109db565b92915050565b600060208284031215610a1d57610a1c610911565b5b6000610a2b848285016109f2565b91505092915050565b610a3d816109d1565b82525050565b6000602082019050610a586000830184610a34565b92915050565b600073ffffffffffffffffffffffffffffffffffffffff82169050919050565b6000610a8982610a5e565b9050919050565b610a9981610a7e565b8114610aa457600080fd5b50565b600081359050610ab681610a90565b92915050565b60008060408385031215610ad357610ad2610911565b5b6000610ae1858286016109f2565b9250506020610af285828601610aa7565b9150509250929050565b600082825260208201905092915050565b7f416363657373436f6e74726f6c3a2063616e206f6e6c792072656e6f756e636560008201527f20726f6c657320666f722073656c660000000000000000000000000000000000602082015250565b6000610b69602f83610afc565b9150610b7482610b0d565b604082019050919050565b60006020820190508181036000830152610b9881610b5c565b9050919050565b600081905092915050565b7f416363657373436f6e74726f6c3a206163636f756e7420000000000000000000600082015250565b6000610be0601783610b9f565b9150610beb82610baa565b601782019050919050565b600081519050919050565b60005b83811015610c1f578082015181840152602081019050610c04565b60008484015250505050565b6000610c3682610bf6565b610c408185610b9f565b9350610c50818560208601610c01565b80840191505092915050565b7f206973206d697373696e6720726f6c6520000000000000000000000000000000600082015250565b6000610c92601183610b9f565b9150610c9d82610c5c565b601182019050919050565b6000610cb382610bd3565b9150610cbf8285610c2b565b9150610cca82610c85565b9150610cd68284610c2b565b91508190509392505050565b6000601f19601f8301169050919050565b6000610cfe82610bf6565b610d088185610afc565b9350610d18818560208601610c01565b610d2181610ce2565b840191505092915050565b60006020820190508181036000830152610d468184610cf3565b905092915050565b6000819050919050565b7f4e487b7100000000000000000000000000000000000000000000000000000000600052601160045260246000fd5b6000610d9282610d4e565b9150610d9d83610d4e565b9250828202610dab81610d4e565b91508282048414831517610dc257610dc1610d58565b5b5092915050565b6000610dd482610d4e565b9150610ddf83610d4e565b9250828201905080821115610df757610df6610d58565b5b92915050565b7f4e487b7100000000000000000000000000000000000000000000000000000000600052604160045260246000fd5b7f4e487b7100000000000000000000000000000000000000000000000000000000600052603260045260246000fd5b6000610e6682610d4e565b915060008203610e7957610e78610d58565b5b600182039050919050565b610e8d81610d4e565b82525050565b6000604082019050610ea86000830185610e84565b610eb56020830184610e84565b939250505056fea26469706673582212202e31aa7517c54011df28bf7100a6976794e4db30fec8a28ea1db0e83692b1d6364736f6c634300081a0033",
  "linkReferences": {},
  "deployedLinkReferences": {}
}