{
  "_format": "hh-sol-artifact-1",
  "contractName": "SchemaRegistry",
  "sourceName": "contracts/SchemaRegistry.sol",
  "abi": [
    {
      "inputs": [],
      "stateMutability": "nonpayable",
      "type": "constructor"
    },
    {
      "inputs": [
        {
          "internalType": "uint256",
          "name": "value",
          "type": "uint256"
        },
        {
          "internalType": "uint256",
          "name": "length",
          "type": "uint256"
        }
      ],
      "name": "StringsInsufficientHexLength",
      "type": "error"
    },
    {
      "anonymous": false,
      "inputs": [
        {
          "indexed": true,
          "internalType": "bytes32",
          "name": "role",
          "type": "bytes32"
        },
        {
          "indexed": true,
          "internalType": "bytes32",
          "name": "previousAdminRole",
          "type": "bytes32"
        },
        {
          "indexed": true,
          "internalType": "bytes32",
          "name": "newAdminRole",
          "type": "bytes32"
        }
      ],
      "name": "RoleAdminChanged",
      "type": "event"
    },
    {
      "anonymous": false,
      "inputs": [
        {
          "indexed": true,
          "internalType": "bytes32",
          "name": "role",
          "type": "bytes32"
        },
        {
          "indexed": true,
          "internalType": "address",
          "name": "account",
          "type": "address"
        },
        {
          "indexed": true,
          "internalType": "address",
          "name": "sender",
          "type": "address"
        }
      ],
      "name": "RoleGranted",
      "type": "event"
    },
    {
      "anonymous": false,
      "inputs": [
        {
          "indexed": true,
          "internalType": "bytes32",
          "name": "role",
          "type": "bytes32"
        },
        {
          "indexed": true,
          "internalType": "address",
          "name": "account",
          "type": "address"
        },
        {
          "indexed": true,
          "internalType": "address",
          "name": "sender",
          "type": "address"
        }
      ],
      "name": "RoleRevoked",
      "type": "event"
    },
    {
      "inputs": [],
      "name": "DEFAULT_ADMIN_ROLE",
      "outputs": [
        {
          "internalType": "bytes32",
          "name": "",
          "type": "bytes32"
        }
      ],
      "stateMutability": "view",
      "type": "function"
    },
    {
      "inputs": [],
      "name": "REGISTRAR_ROLE",
      "outputs": [
        {
          "internalType": "bytes32",
          "name": "",
          "type": "bytes32"
        }
      ],
      "stateMutability": "view",
      "type": "function"
    },
    {
      "inputs": [
        {
          "internalType": "bytes32",
          "name": "role",
          "type": "bytes32"
        }
      ],
      "name": "getRoleAdmin",
      "outputs": [
        {
          "internalType": "bytes32",
          "name": "",
          "type": "bytes32"
        }
      ],
      "stateMutability": "view",
      "type": "function"
    },
    {
      "inputs": [
        {
          "internalType": "bytes32",
          "name": "name",
          "type": "bytes32"
        }
      ],
      "name": "getSchema",
      "outputs": [
        {
          "components": [
            {
              "internalType": "bytes32",
              "name": "name",
              "type": "bytes32"
            },
            {
              "internalType": "string",
              "name": "schema",
              "type": "string"
            }
          ],
          "internalType": "struct SchemaRegistry.Schema",
          "name": "",
          "type": "tuple"
        }
      ],
      "stateMutability": "view",
      "type": "function"
    },
    {
      "inputs": [
        {
          "internalType": "bytes32",
          "name": "role",
          "type": "bytes32"
        },
        {
          "internalType": "address",
          "name": "account",
          "type": "address"
        }
      ],
      "name": "grantRole",
      "outputs": [],
      "stateMutability": "nonpayable",
      "type": "function"
    },
    {
      "inputs": [
        {
          "internalType": "bytes32",
          "name": "role",
          "type": "bytes32"
        },
        {
          "internalType": "address",
          "name": "account",
          "type": "address"
        }
      ],
      "name": "hasRole",
      "outputs": [
        {
          "internalType": "bool",
          "name": "",
          "type": "bool"
        }
      ],
      "stateMutability": "view",
      "type": "function"
    },
    {
      "inputs": [
        {
          "internalType": "bytes32",
          "name": "name",
          "type": "bytes32"
        },
        {
          "internalType": "string",
          "name": "schema",
          "type": "string"
        }
      ],
      "name": "registerSchema",
      "outputs": [],
      "stateMutability": "nonpayable",
      "type": "function"
    },
    {
      "inputs": [
        {
          "internalType": "bytes32",
          "name": "role",
          "type": "bytes32"
        },
        {
          "internalType": "address",
          "name": "account",
          "type": "address"
        }
      ],
      "name": "renounceRole",
      "outputs": [],
      "stateMutability": "nonpayable",
      "type": "function"
    },
    {
      "inputs": [
        {
          "internalType": "bytes32",
          "name": "role",
          "type": "bytes32"
        },
        {
          "internalType": "address",
          "name": "account",
          "type": "address"
        }
      ],
      "name": "revokeRole",
      "outputs": [],
      "stateMutability": "nonpayable",
      "type": "function"
    },
    {
      "inputs": [
        {
          "internalType": "bytes4",
          "name": "interfaceId",
          "type": "bytes4"
        }
      ],
      "name": "supportsInterface",
      "outputs": [
        {
          "internalType": "bool",
          "name": "",
          "type": "bool"
        }
      ],
      "stateMutability": "view",
      "type": "function"
    }
  ],
  "bytecode": "0x608060405234801561001057600080fd5b506100246000801b3361005960201b60201c565b6100547fedcc084d3dcd65a1f7f23c65c46722faca6953d28e43150a467cf43e5c3092383361005960201b60201c565b6101b7565b610069828261014560201b60201c565b61014157600160008084815260200190815260200160002060000160008373ffffffffffffffffffffffffffffffffffffffff1673ffffffffffffffffffffffffffffffffffffffff16815260200190815260200160002060006101000a81548160ff0219169083151502179055506100e66101af60201b60201c565b73ffffffffffffffffffffffffffffffffffffffff168173ffffffffffffffffffffffffffffffffffffffff16837f2f8788117e7eff1d82e926ec794901d17c78024a50270940304540a733656f0d60405160405180910390a45b5050565b600080600084815260200190815260200160002060000160008373ffffffffffffffffffffffffffffffffffffffff1673ffffffffffffffffffffffffffffffffffffffff16815260200190815260200160002060009054906101000a900460ff16905092915050565b600033905090565b611589806101c66000396000f3fe608060405234801561001057600080fd5b506004361061009e5760003560e01c806391d148541161006657806391d1485414610157578063a217fddf14610187578063a2ea7c6e146101a5578063d547741f146101d5578063f68e9553146101f15761009e565b806301ffc9a7146100a3578063248a9ca3146100d35780632f2ff15d1461010357806336568abe1461011f57806342952fa61461013b575b600080fd5b6100bd60048036038101906100b89190610b0d565b61020f565b6040516100ca9190610b55565b60405180910390f35b6100ed60048036038101906100e89190610ba6565b610289565b6040516100fa9190610be2565b60405180910390f35b61011d60048036038101906101189190610c5b565b6102a8565b005b61013960048036038101906101349190610c5b565b6102c9565b005b61015560048036038101906101509190610de1565b61034c565b005b610171600480360381019061016c9190610c5b565b6103c6565b60405161017e9190610b55565b60405180910390f35b61018f610430565b60405161019c9190610be2565b60405180910390f35b6101bf60048036038101906101ba9190610ba6565b610437565b6040516101cc9190610f08565b60405180910390f35b6101ef60048036038101906101ea9190610c5b565b610500565b005b6101f9610521565b6040516102069190610be2565b60405180910390f35b60007f7965db0b000000000000000000000000000000000000000000000000000000007bffffffffffffffffffffffffffffffffffffffffffffffffffffffff1916827bffffffffffffffffffffffffffffffffffffffffffffffffffffffff19161480610282575061028182610545565b5b9050919050565b6000806000838152602001908152602001600020600101549050919050565b6102b182610289565b6102ba816105af565b6102c483836105c3565b505050565b6102d16106a3565b73ffffffffffffffffffffffffffffffffffffffff168173ffffffffffffffffffffffffffffffffffffffff161461033e576040517f08c379a000000000000000000000000000000000000000000000000000000000815260040161033590610fad565b60405180910390fd5b61034882826106ab565b5050565b7fedcc084d3dcd65a1f7f23c65c46722faca6953d28e43150a467cf43e5c309238610376816105af565b604051806040016040528084815260200183815250600160008581526020019081526020016000206000820151816000015560208201518160010190816103bd91906111e3565b50905050505050565b600080600084815260200190815260200160002060000160008373ffffffffffffffffffffffffffffffffffffffff1673ffffffffffffffffffffffffffffffffffffffff16815260200190815260200160002060009054906101000a900460ff16905092915050565b6000801b81565b61043f610a84565b600160008381526020019081526020016000206040518060400160405290816000820154815260200160018201805461047790610ffc565b80601f01602080910402602001604051908101604052809291908181526020018280546104a390610ffc565b80156104f05780601f106104c5576101008083540402835291602001916104f0565b820191906000526020600020905b8154815290600101906020018083116104d357829003601f168201915b5050505050815250509050919050565b61050982610289565b610512816105af565b61051c83836106ab565b505050565b7fedcc084d3dcd65a1f7f23c65c46722faca6953d28e43150a467cf43e5c30923881565b60007f01ffc9a7000000000000000000000000000000000000000000000000000000007bffffffffffffffffffffffffffffffffffffffffffffffffffffffff1916827bffffffffffffffffffffffffffffffffffffffffffffffffffffffff1916149050919050565b6105c0816105bb6106a3565b61078c565b50565b6105cd82826103c6565b61069f57600160008084815260200190815260200160002060000160008373ffffffffffffffffffffffffffffffffffffffff1673ffffffffffffffffffffffffffffffffffffffff16815260200190815260200160002060006101000a81548160ff0219169083151502179055506106446106a3565b73ffffffffffffffffffffffffffffffffffffffff168173ffffffffffffffffffffffffffffffffffffffff16837f2f8788117e7eff1d82e926ec794901d17c78024a50270940304540a733656f0d60405160405180910390a45b5050565b600033905090565b6106b582826103c6565b1561078857600080600084815260200190815260200160002060000160008373ffffffffffffffffffffffffffffffffffffffff1673ffffffffffffffffffffffffffffffffffffffff16815260200190815260200160002060006101000a81548160ff02191690831515021790555061072d6106a3565b73ffffffffffffffffffffffffffffffffffffffff168173ffffffffffffffffffffffffffffffffffffffff16837ff6391f5c32d9c69d2a47ea670b442974b53935d1edc7fd64eb21e047a839171b60405160405180910390a45b5050565b61079682826103c6565b61080d576107a381610811565b6107b18360001c602061083e565b6040516020016107c2929190611389565b6040516020818303038152906040526040517f08c379a000000000000000000000000000000000000000000000000000000000815260040161080491906113fc565b60405180910390fd5b5050565b60606108378273ffffffffffffffffffffffffffffffffffffffff16601460ff1661083e565b9050919050565b6060600083905060006002846002610856919061144d565b610860919061148f565b67ffffffffffffffff81111561087957610878610cb6565b5b6040519080825280601f01601f1916602001820160405280156108ab5781602001600182028036833780820191505090505b5090507f3000000000000000000000000000000000000000000000000000000000000000816000815181106108e3576108e26114c3565b5b60200101907effffffffffffffffffffffffffffffffffffffffffffffffffffffffffffff1916908160001a9053507f780000000000000000000000000000000000000000000000000000000000000081600181518110610947576109466114c3565b5b60200101907effffffffffffffffffffffffffffffffffffffffffffffffffffffffffffff1916908160001a90535060006001856002610987919061144d565b610991919061148f565b90505b6001811115610a31577f3031323334353637383961626364656600000000000000000000000000000000600f8416601081106109d3576109d26114c3565b5b1a60f81b8282815181106109ea576109e96114c3565b5b60200101907effffffffffffffffffffffffffffffffffffffffffffffffffffffffffffff1916908160001a905350600483901c925080610a2a906114f2565b9050610994565b5060008214610a795784846040517fe22e27eb000000000000000000000000000000000000000000000000000000008152600401610a7092919061152a565b60405180910390fd5b809250505092915050565b604051806040016040528060008019168152602001606081525090565b6000604051905090565b600080fd5b600080fd5b60007fffffffff0000000000000000000000000000000000000000000000000000000082169050919050565b610aea81610ab5565b8114610af557600080fd5b50565b600081359050610b0781610ae1565b92915050565b600060208284031215610b2357610b22610aab565b5b6000610b3184828501610af8565b91505092915050565b60008115159050919050565b610b4f81610b3a565b82525050565b6000602082019050610b6a6000830184610b46565b92915050565b6000819050919050565b610b8381610b70565b8114610b8e57600080fd5b50565b600081359050610ba081610b7a565b92915050565b600060208284031215610bbc57610bbb610aab565b5b6000610bca84828501610b91565b91505092915050565b610bdc81610b70565b82525050565b6000602082019050610bf76000830184610bd3565b92915050565b600073ffffffffffffffffffffffffffffffffffffffff82169050919050565b6000610c2882610bfd565b9050919050565b610c3881610c1d565b8114610c4357600080fd5b50565b600081359050610c5581610c2f565b92915050565b60008060408385031215610c7257610c71610aab565b5b6000610c8085828601610b91565b9250506020610c9185828601610c46565b9150509250929050565b600080fd5b600080fd5b6000601f19601f8301169050919050565b7f4e487b7100000000000000000000000000000000000000000000000000000000600052604160045260246000fd5b610cee82610ca5565b810181811067ffffffffffffffff82111715610d0d57610d0c610cb6565b5b80604052505050565b6000610d20610aa1565b9050610d2c8282610ce5565b919050565b600067ffffffffffffffff821115610d4c57610d4b610cb6565b5b610d5582610ca5565b9050602081019050919050565b82818337600083830152505050565b6000610d84610d7f84610d31565b610d16565b905082815260208101848484011115610da057610d9f610ca0565b5b610dab848285610d62565b509392505050565b600082601f830112610dc857610dc7610c9b565b5b8135610dd8848260208601610d71565b91505092915050565b60008060408385031215610df857610df7610aab565b5b6000610e0685828601610b91565b925050602083013567ffffffffffffffff811115610e2757610e26610ab0565b5b610e3385828601610db3565b9150509250929050565b610e4681610b70565b82525050565b600081519050919050565b600082825260208201905092915050565b60005b83811015610e86578082015181840152602081019050610e6b565b60008484015250505050565b6000610e9d82610e4c565b610ea78185610e57565b9350610eb7818560208601610e68565b610ec081610ca5565b840191505092915050565b6000604083016000830151610ee36000860182610e3d565b5060208301518482036020860152610efb8282610e92565b9150508091505092915050565b60006020820190508181036000830152610f228184610ecb565b905092915050565b600082825260208201905092915050565b7f416363657373436f6e74726f6c3a2063616e206f6e6c792072656e6f756e636560008201527f20726f6c657320666f722073656c660000000000000000000000000000000000602082015250565b6000610f97602f83610f2a565b9150610fa282610f3b565b604082019050919050565b60006020820190508181036000830152610fc681610f8a565b9050919050565b7f4e487b7100000000000000000000000000000000000000000000000000000000600052602260045260246000fd5b6000600282049050600182168061101457607f821691505b60208210810361102757611026610fcd565b5b50919050565b60008190508160005260206000209050919050565b60006020601f8301049050919050565b600082821b905092915050565b60006008830261108f7fffffffffffffffffffffffffffffffffffffffffffffffffffffffffffffffff82611052565b6110998683611052565b95508019841693508086168417925050509392505050565b6000819050919050565b6000819050919050565b60006110e06110db6110d6846110b1565b6110bb565b6110b1565b9050919050565b6000819050919050565b6110fa836110c5565b61110e611106826110e7565b84845461105f565b825550505050565b600090565b611123611116565b61112e8184846110f1565b505050565b5b818110156111525761114760008261111b565b600181019050611134565b5050565b601f821115611197576111688161102d565b61117184611042565b81016020851015611180578190505b61119461118c85611042565b830182611133565b50505b505050565b600082821c905092915050565b60006111ba6000198460080261119c565b1980831691505092915050565b60006111d383836111a9565b9150826002028217905092915050565b6111ec82610e4c565b67ffffffffffffffff81111561120557611204610cb6565b5b61120f8254610ffc565b61121a828285611156565b600060209050601f83116001811461124d576000841561123b578287015190505b61124585826111c7565b8655506112ad565b601f19841661125b8661102d565b60005b828110156112835784890151825560018201915060208501945060208101905061125e565b868310156112a0578489015161129c601f8916826111a9565b8355505b6001600288020188555050505b505050505050565b600081905092915050565b7f416363657373436f6e74726f6c3a206163636f756e7420000000000000000000600082015250565b60006112f66017836112b5565b9150611301826112c0565b601782019050919050565b600061131782610e4c565b61132181856112b5565b9350611331818560208601610e68565b80840191505092915050565b7f206973206d697373696e6720726f6c6520000000000000000000000000000000600082015250565b60006113736011836112b5565b915061137e8261133d565b601182019050919050565b6000611394826112e9565b91506113a0828561130c565b91506113ab82611366565b91506113b7828461130c565b91508190509392505050565b60006113ce82610e4c565b6113d88185610f2a565b93506113e8818560208601610e68565b6113f181610ca5565b840191505092915050565b6000602082019050818103600083015261141681846113c3565b905092915050565b7f4e487b7100000000000000000000000000000000000000000000000000000000600052601160045260246000fd5b6000611458826110b1565b9150611463836110b1565b9250828202611471816110b1565b915082820484148315176114885761148761141e565b5b5092915050565b600061149a826110b1565b91506114a5836110b1565b92508282019050808211156114bd576114bc61141e565b5b92915050565b7f4e487b7100000000000000000000000000000000000000000000000000000000600052603260045260246000fd5b60006114fd826110b1565b9150600082036115105761150f61141e565b5b600182039050919050565b611524816110b1565b82525050565b600060408201905061153f600083018561151b565b61154c602083018461151b565b939250505056fea2646970667358221220bc0bb3833ce7ed5dd1854a6e6820b01ce1288a6b43951ae61fa309d8f568581a64736f6c634300081a0033",
  "linkReferences": {},
  "deployedLinkReferences": {}
}