{
  "_format": "hh-sol-artifact-1",
  "contractName": "ProjectRegistry",
  "sourceName": "contracts/ProjectRegistry.sol",
  "abi": [
    {
      "inputs": [],
      "stateMutability": "nonpayable",
      "type": "constructor"
    },
    {
      "inputs": [
        {
          "internalType": "uint256",
          "name": "value",
          "type": "uint256"
        },
        {
          "internalType": "uint256",
          "name": "length",
          "type": "uint256"
        }
      ],
      "name": "StringsInsufficientHexLength",
      "type": "error"
    },
    {
      "anonymous": false,
      "inputs": [
        {
          "indexed": true,
          "internalType": "bytes32",
          "name": "role",
          "type": "bytes32"
        },
        {
          "indexed": true,
          "internalType": "bytes32",
          "name": "previousAdminRole",
          "type": "bytes32"
        },
        {
          "indexed": true,
          "internalType": "bytes32",
          "name": "newAdminRole",
          "type": "bytes32"
        }
      ],
      "name": "RoleAdminChanged",
      "type": "event"
    },
    {
      "anonymous": false,
      "inputs": [
        {
          "indexed": true,
          "internalType": "bytes32",
          "name": "role",
          "type": "bytes32"
        },
        {
          "indexed": true,
          "internalType": "address",
          "name": "account",
          "type": "address"
        },
        {
          "indexed": true,
          "internalType": "address",
          "name": "sender",
          "type": "address"
        }
      ],
      "name": "RoleGranted",
      "type": "event"
    },
    {
      "anonymous": false,
      "inputs": [
        {
          "indexed": true,
          "internalType": "bytes32",
          "name": "role",
          "type": "bytes32"
        },
        {
          "indexed": true,
          "internalType": "address",
          "name": "account",
          "type": "address"
        },
        {
          "indexed": true,
          "internalType": "address",
          "name": "sender",
          "type": "address"
        }
      ],
      "name": "RoleRevoked",
      "type": "event"
    },
    {
      "inputs": [],
      "name": "DEFAULT_ADMIN_ROLE",
      "outputs": [
        {
          "internalType": "bytes32",
          "name": "",
          "type": "bytes32"
        }
      ],
      "stateMutability": "view",
      "type": "function"
    },
    {
      "inputs": [],
      "name": "REGISTRAR_ROLE",
      "outputs": [
        {
          "internalType": "bytes32",
          "name": "",
          "type": "bytes32"
        }
      ],
      "stateMutability": "view",
      "type": "function"
    },
    {
      "inputs": [
        {
          "internalType": "bytes32",
          "name": "name",
          "type": "bytes32"
        }
      ],
      "name": "getProject",
      "outputs": [
        {
          "components": [
            {
              "internalType": "bytes32",
              "name": "name",
              "type": "bytes32"
            },
            {
              "internalType": "address",
              "name": "owner",
              "type": "address"
            }
          ],
          "internalType": "struct ProjectRegistry.Project",
          "name": "",
          "type": "tuple"
        }
      ],
      "stateMutability": "view",
      "type": "function"
    },
    {
      "inputs": [
        {
          "internalType": "bytes32",
          "name": "role",
          "type": "bytes32"
        }
      ],
      "name": "getRoleAdmin",
      "outputs": [
        {
          "internalType": "bytes32",
          "name": "",
          "type": "bytes32"
        }
      ],
      "stateMutability": "view",
      "type": "function"
    },
    {
      "inputs": [
        {
          "internalType": "bytes32",
          "name": "role",
          "type": "bytes32"
        },
        {
          "internalType": "address",
          "name": "account",
          "type": "address"
        }
      ],
      "name": "grantRole",
      "outputs": [],
      "stateMutability": "nonpayable",
      "type": "function"
    },
    {
      "inputs": [
        {
          "internalType": "bytes32",
          "name": "role",
          "type": "bytes32"
        },
        {
          "internalType": "address",
          "name": "account",
          "type": "address"
        }
      ],
      "name": "hasRole",
      "outputs": [
        {
          "internalType": "bool",
          "name": "",
          "type": "bool"
        }
      ],
      "stateMutability": "view",
      "type": "function"
    },
    {
      "inputs": [
        {
          "internalType": "bytes32",
          "name": "name",
          "type": "bytes32"
        },
        {
          "internalType": "address",
          "name": "owner",
          "type": "address"
        }
      ],
      "name": "registerProject",
      "outputs": [],
      "stateMutability": "nonpayable",
      "type": "function"
    },
    {
      "inputs": [
        {
          "internalType": "bytes32",
          "name": "role",
          "type": "bytes32"
        },
        {
          "internalType": "address",
          "name": "account",
          "type": "address"
        }
      ],
      "name": "renounceRole",
      "outputs": [],
      "stateMutability": "nonpayable",
      "type": "function"
    },
    {
      "inputs": [
        {
          "internalType": "bytes32",
          "name": "role",
          "type": "bytes32"
        },
        {
          "internalType": "address",
          "name": "account",
          "type": "address"
        }
      ],
      "name": "revokeRole",
      "outputs": [],
      "stateMutability": "nonpayable",
      "type": "function"
    },
    {
      "inputs": [
        {
          "internalType": "bytes4",
          "name": "interfaceId",
          "type": "bytes4"
        }
      ],
      "name": "supportsInterface",
      "outputs": [
        {
          "internalType": "bool",
          "name": "",
          "type": "bool"
        }
      ],
      "stateMutability": "view",
      "type": "function"
    }
  ],
  "bytecode": "0x608060405234801561001057600080fd5b506100246000801b3361005960201b60201c565b6100547fedcc084d3dcd65a1f7f23c65c46722faca6953d28e43150a467cf43e5c3092383361005960201b60201c565b6101cb565b610069828261006d60201b60201c565b5050565b61007d828261015960201b60201c565b61015557600160008084815260200190815260200160002060000160008373ffffffffffffffffffffffffffffffffffffffff1673ffffffffffffffffffffffffffffffffffffffff16815260200190815260200160002060006101000a81548160ff0219169083151502179055506100fa6101c360201b60201c565b73ffffffffffffffffffffffffffffffffffffffff168173ffffffffffffffffffffffffffffffffffffffff16837f2f8788117e7eff1d82e926ec794901d17c78024a50270940304540a733656f0d60405160405180910390a45b5050565b600080600084815260200190815260200160002060000160008373ffffffffffffffffffffffffffffffffffffffff1673ffffffffffffffffffffffffffffffffffffffff16815260200190815260200160002060009054906101000a900460ff16905092915050565b600033905090565b61110b806101da6000396000f3fe608060405234801561001057600080fd5b506004361061009e5760003560e01c80634b5f748a116100665780634b5f748a1461015757806391d1485414610187578063a217fddf146101b7578063d547741f146101d5578063f68e9553146101f15761009e565b806301ffc9a7146100a35780630c1e2463146100d3578063248a9ca3146100ef5780632f2ff15d1461011f57806336568abe1461013b575b600080fd5b6100bd60048036038101906100b89190610b1f565b61020f565b6040516100ca9190610b67565b60405180910390f35b6100ed60048036038101906100e89190610c16565b610289565b005b61010960048036038101906101049190610c56565b61034a565b6040516101169190610c92565b60405180910390f35b61013960048036038101906101349190610c16565b610369565b005b61015560048036038101906101509190610c16565b61038a565b005b610171600480360381019061016c9190610c56565b61040d565b60405161017e9190610cfa565b60405180910390f35b6101a1600480360381019061019c9190610c16565b61049a565b6040516101ae9190610b67565b60405180910390f35b6101bf610504565b6040516101cc9190610c92565b60405180910390f35b6101ef60048036038101906101ea9190610c16565b61050b565b005b6101f961052c565b6040516102069190610c92565b60405180910390f35b60007f7965db0b000000000000000000000000000000000000000000000000000000007bffffffffffffffffffffffffffffffffffffffffffffffffffffffff1916827bffffffffffffffffffffffffffffffffffffffffffffffffffffffff19161480610282575061028182610550565b5b9050919050565b7fedcc084d3dcd65a1f7f23c65c46722faca6953d28e43150a467cf43e5c3092386102b3816105ba565b60405180604001604052808481526020018373ffffffffffffffffffffffffffffffffffffffff16815250600160008581526020019081526020016000206000820151816000015560208201518160010160006101000a81548173ffffffffffffffffffffffffffffffffffffffff021916908373ffffffffffffffffffffffffffffffffffffffff160217905550905050505050565b6000806000838152602001908152602001600020600101549050919050565b6103728261034a565b61037b816105ba565b61038583836105ce565b505050565b6103926106ae565b73ffffffffffffffffffffffffffffffffffffffff168173ffffffffffffffffffffffffffffffffffffffff16146103ff576040517f08c379a00000000000000000000000000000000000000000000000000000000081526004016103f690610d98565b60405180910390fd5b61040982826106b6565b5050565b610415610a8f565b60016000838152602001908152602001600020604051806040016040529081600082015481526020016001820160009054906101000a900473ffffffffffffffffffffffffffffffffffffffff1673ffffffffffffffffffffffffffffffffffffffff1673ffffffffffffffffffffffffffffffffffffffff16815250509050919050565b600080600084815260200190815260200160002060000160008373ffffffffffffffffffffffffffffffffffffffff1673ffffffffffffffffffffffffffffffffffffffff16815260200190815260200160002060009054906101000a900460ff16905092915050565b6000801b81565b6105148261034a565b61051d816105ba565b61052783836106b6565b505050565b7fedcc084d3dcd65a1f7f23c65c46722faca6953d28e43150a467cf43e5c30923881565b60007f01ffc9a7000000000000000000000000000000000000000000000000000000007bffffffffffffffffffffffffffffffffffffffffffffffffffffffff1916827bffffffffffffffffffffffffffffffffffffffffffffffffffffffff1916149050919050565b6105cb816105c66106ae565b610797565b50565b6105d8828261049a565b6106aa57600160008084815260200190815260200160002060000160008373ffffffffffffffffffffffffffffffffffffffff1673ffffffffffffffffffffffffffffffffffffffff16815260200190815260200160002060006101000a81548160ff02191690831515021790555061064f6106ae565b73ffffffffffffffffffffffffffffffffffffffff168173ffffffffffffffffffffffffffffffffffffffff16837f2f8788117e7eff1d82e926ec794901d17c78024a50270940304540a733656f0d60405160405180910390a45b5050565b600033905090565b6106c0828261049a565b1561079357600080600084815260200190815260200160002060000160008373ffffffffffffffffffffffffffffffffffffffff1673ffffffffffffffffffffffffffffffffffffffff16815260200190815260200160002060006101000a81548160ff0219169083151502179055506107386106ae565b73ffffffffffffffffffffffffffffffffffffffff168173ffffffffffffffffffffffffffffffffffffffff16837ff6391f5c32d9c69d2a47ea670b442974b53935d1edc7fd64eb21e047a839171b60405160405180910390a45b5050565b6107a1828261049a565b610818576107ae8161081c565b6107bc8360001c6020610849565b6040516020016107cd929190610ec1565b6040516020818303038152906040526040517f08c379a000000000000000000000000000000000000000000000000000000000815260040161080f9190610f45565b60405180910390fd5b5050565b60606108428273ffffffffffffffffffffffffffffffffffffffff16601460ff16610849565b9050919050565b60606000839050600060028460026108619190610fa0565b61086b9190610fe2565b67ffffffffffffffff81111561088457610883611016565b5b6040519080825280601f01601f1916602001820160405280156108b65781602001600182028036833780820191505090505b5090507f3000000000000000000000000000000000000000000000000000000000000000816000815181106108ee576108ed611045565b5b60200101907effffffffffffffffffffffffffffffffffffffffffffffffffffffffffffff1916908160001a9053507f78000000000000000000000000000000000000000000000000000000000000008160018151811061095257610951611045565b5b60200101907effffffffffffffffffffffffffffffffffffffffffffffffffffffffffffff1916908160001a905350600060018560026109929190610fa0565b61099c9190610fe2565b90505b6001811115610a3c577f3031323334353637383961626364656600000000000000000000000000000000600f8416601081106109de576109dd611045565b5b1a60f81b8282815181106109f5576109f4611045565b5b60200101907effffffffffffffffffffffffffffffffffffffffffffffffffffffffffffff1916908160001a905350600483901c925080610a3590611074565b905061099f565b5060008214610a845784846040517fe22e27eb000000000000000000000000000000000000000000000000000000008152600401610a7b9291906110ac565b60405180910390fd5b809250505092915050565b604051806040016040528060008019168152602001600073ffffffffffffffffffffffffffffffffffffffff1681525090565b600080fd5b60007fffffffff0000000000000000000000000000000000000000000000000000000082169050919050565b610afc81610ac7565b8114610b0757600080fd5b50565b600081359050610b1981610af3565b92915050565b600060208284031215610b3557610b34610ac2565b5b6000610b4384828501610b0a565b91505092915050565b60008115159050919050565b610b6181610b4c565b82525050565b6000602082019050610b7c6000830184610b58565b92915050565b6000819050919050565b610b9581610b82565b8114610ba057600080fd5b50565b600081359050610bb281610b8c565b92915050565b600073ffffffffffffffffffffffffffffffffffffffff82169050919050565b6000610be382610bb8565b9050919050565b610bf381610bd8565b8114610bfe57600080fd5b50565b600081359050610c1081610bea565b92915050565b60008060408385031215610c2d57610c2c610ac2565b5b6000610c3b85828601610ba3565b9250506020610c4c85828601610c01565b9150509250929050565b600060208284031215610c6c57610c6b610ac2565b5b6000610c7a84828501610ba3565b91505092915050565b610c8c81610b82565b82525050565b6000602082019050610ca76000830184610c83565b92915050565b610cb681610b82565b82525050565b610cc581610bd8565b82525050565b604082016000820151610ce16000850182610cad565b506020820151610cf46020850182610cbc565b50505050565b6000604082019050610d0f6000830184610ccb565b92915050565b600082825260208201905092915050565b7f416363657373436f6e74726f6c3a2063616e206f6e6c792072656e6f756e636560008201527f20726f6c657320666f722073656c660000000000000000000000000000000000602082015250565b6000610d82602f83610d15565b9150610d8d82610d26565b604082019050919050565b60006020820190508181036000830152610db181610d75565b9050919050565b600081905092915050565b7f416363657373436f6e74726f6c3a206163636f756e7420000000000000000000600082015250565b6000610df9601783610db8565b9150610e0482610dc3565b601782019050919050565b600081519050919050565b60005b83811015610e38578082015181840152602081019050610e1d565b60008484015250505050565b6000610e4f82610e0f565b610e598185610db8565b9350610e69818560208601610e1a565b80840191505092915050565b7f206973206d697373696e6720726f6c6520000000000000000000000000000000600082015250565b6000610eab601183610db8565b9150610eb682610e75565b601182019050919050565b6000610ecc82610dec565b9150610ed88285610e44565b9150610ee382610e9e565b9150610eef8284610e44565b91508190509392505050565b6000601f19601f8301169050919050565b6000610f1782610e0f565b610f218185610d15565b9350610f31818560208601610e1a565b610f3a81610efb565b840191505092915050565b60006020820190508181036000830152610f5f8184610f0c565b905092915050565b6000819050919050565b7f4e487b7100000000000000000000000000000000000000000000000000000000600052601160045260246000fd5b6000610fab82610f67565b9150610fb683610f67565b9250828202610fc481610f67565b91508282048414831517610fdb57610fda610f71565b5b5092915050565b6000610fed82610f67565b9150610ff883610f67565b92508282019050808211156110105761100f610f71565b5b92915050565b7f4e487b7100000000000000000000000000000000000000000000000000000000600052604160045260246000fd5b7f4e487b7100000000000000000000000000000000000000000000000000000000600052603260045260246000fd5b600061107f82610f67565b91506000820361109257611091610f71565b5b600182039050919050565b6110a681610f67565b82525050565b60006040820190506110c1600083018561109d565b6110ce602083018461109d565b939250505056fea264697066735822122051a206e721cd11b186cdb5fe3fded5b1f9da257a256bcb4be3c44b2eb674c2da64736f6c634300081a0033",
  "linkReferences": {},
  "deployedLinkReferences": {}
}