{
  "_format": "hh-sol-artifact-1",
  "contractName": "ResolverImplementation",
  "sourceName": "contracts/ResolverImplementation.sol",
  "abi": [
    {
      "inputs": [
        {
          "internalType": "bytes32",
          "name": "hash",
          "type": "bytes32"
        },
        {
          "internalType": "address",
          "name": "addr",
          "type": "address"
        },
        {
          "internalType": "string",
          "name": "detail",
          "type": "string"
        }
      ],
      "name": "addAddress",
      "outputs": [],
      "stateMutability": "nonpayable",
      "type": "function"
    },
    {
      "inputs": [
        {
          "internalType": "bytes32",
          "name": "hash",
          "type": "bytes32"
        },
        {
          "internalType": "address",
          "name": "addr",
          "type": "address"
        }
      ],
      "name": "getAddressDetails",
      "outputs": [
        {
          "internalType": "string",
          "name": "",
          "type": "string"
        }
      ],
      "stateMutability": "view",
      "type": "function"
    }
  ],
  "bytecode": "0x6080604052348015600f57600080fd5b506108278061001f6000396000f3fe608060405234801561001057600080fd5b50600436106100365760003560e01c8063317c0dae1461003b578063fcbd17b514610057575b600080fd5b610055600480360381019061005091906103b9565b610087565b005b610071600480360381019061006c9190610428565b6100e9565b60405161007e91906104e7565b60405180910390f35b8060008085815260200190815260200160002060008473ffffffffffffffffffffffffffffffffffffffff1673ffffffffffffffffffffffffffffffffffffffff16815260200190815260200160002090816100e3919061071f565b50505050565b606060008084815260200190815260200160002060008373ffffffffffffffffffffffffffffffffffffffff1673ffffffffffffffffffffffffffffffffffffffff168152602001908152602001600020805461014590610538565b80601f016020809104026020016040519081016040528092919081815260200182805461017190610538565b80156101be5780601f10610193576101008083540402835291602001916101be565b820191906000526020600020905b8154815290600101906020018083116101a157829003601f168201915b5050505050905092915050565b6000604051905090565b600080fd5b600080fd5b6000819050919050565b6101f2816101df565b81146101fd57600080fd5b50565b60008135905061020f816101e9565b92915050565b600073ffffffffffffffffffffffffffffffffffffffff82169050919050565b600061024082610215565b9050919050565b61025081610235565b811461025b57600080fd5b50565b60008135905061026d81610247565b92915050565b600080fd5b600080fd5b6000601f19601f8301169050919050565b7f4e487b7100000000000000000000000000000000000000000000000000000000600052604160045260246000fd5b6102c68261027d565b810181811067ffffffffffffffff821117156102e5576102e461028e565b5b80604052505050565b60006102f86101cb565b905061030482826102bd565b919050565b600067ffffffffffffffff8211156103245761032361028e565b5b61032d8261027d565b9050602081019050919050565b82818337600083830152505050565b600061035c61035784610309565b6102ee565b90508281526020810184848401111561037857610377610278565b5b61038384828561033a565b509392505050565b600082601f8301126103a05761039f610273565b5b81356103b0848260208601610349565b91505092915050565b6000806000606084860312156103d2576103d16101d5565b5b60006103e086828701610200565b93505060206103f18682870161025e565b925050604084013567ffffffffffffffff811115610412576104116101da565b5b61041e8682870161038b565b9150509250925092565b6000806040838503121561043f5761043e6101d5565b5b600061044d85828601610200565b925050602061045e8582860161025e565b9150509250929050565b600081519050919050565b600082825260208201905092915050565b60005b838110156104a2578082015181840152602081019050610487565b60008484015250505050565b60006104b982610468565b6104c38185610473565b93506104d3818560208601610484565b6104dc8161027d565b840191505092915050565b6000602082019050818103600083015261050181846104ae565b905092915050565b7f4e487b7100000000000000000000000000000000000000000000000000000000600052602260045260246000fd5b6000600282049050600182168061055057607f821691505b60208210810361056357610562610509565b5b50919050565b60008190508160005260206000209050919050565b60006020601f8301049050919050565b600082821b905092915050565b6000600883026105cb7fffffffffffffffffffffffffffffffffffffffffffffffffffffffffffffffff8261058e565b6105d5868361058e565b95508019841693508086168417925050509392505050565b6000819050919050565b6000819050919050565b600061061c610617610612846105ed565b6105f7565b6105ed565b9050919050565b6000819050919050565b61063683610601565b61064a61064282610623565b84845461059b565b825550505050565b600090565b61065f610652565b61066a81848461062d565b505050565b5b8181101561068e57610683600082610657565b600181019050610670565b5050565b601f8211156106d3576106a481610569565b6106ad8461057e565b810160208510156106bc578190505b6106d06106c88561057e565b83018261066f565b50505b505050565b600082821c905092915050565b60006106f6600019846008026106d8565b1980831691505092915050565b600061070f83836106e5565b9150826002028217905092915050565b61072882610468565b67ffffffffffffffff8111156107415761074061028e565b5b61074b8254610538565b610756828285610692565b600060209050601f8311600181146107895760008415610777578287015190505b6107818582610703565b8655506107e9565b601f19841661079786610569565b60005b828110156107bf5784890151825560018201915060208501945060208101905061079a565b868310156107dc57848901516107d8601f8916826106e5565b8355505b6001600288020188555050505b50505050505056fea2646970667358221220d6b72b0595920147f9a5b7e46e5bb9b7af325a414d119e7beade3116366e6efb64736f6c634300081a0033",
  "linkReferences": {},
  "deployedLinkReferences": {}
}