{
  "_format": "hh-sol-artifact-1",
  "contractName": "CCIPCrossChainBridge",
  "sourceName": "contracts/CCIPCrossChainBridge.sol",
  "abi": [
    {
      "inputs": [
        {
          "internalType": "uint256",
          "name": "value",
          "type": "uint256"
        },
        {
          "internalType": "uint256",
          "name": "length",
          "type": "uint256"
        }
      ],
      "name": "StringsInsufficientHexLength",
      "type": "error"
    },
    {
      "anonymous": false,
      "inputs": [
        {
          "indexed": true,
          "internalType": "address",
          "name": "destinationChain",
          "type": "address"
        },
        {
          "indexed": false,
          "internalType": "address",
          "name": "bridgeAddress",
          "type": "address"
        }
      ],
      "name": "BridgeAddressSet",
      "type": "event"
    },
    {
      "anonymous": false,
      "inputs": [
        {
          "indexed": true,
          "internalType": "address",
          "name": "destinationChain",
          "type": "address"
        },
        {
          "indexed": false,
          "internalType": "uint256",
          "name": "fee",
          "type": "uint256"
        }
      ],
      "name": "BridgeFeeSet",
      "type": "event"
    },
    {
      "anonymous": false,
      "inputs": [
        {
          "indexed": true,
          "internalType": "address",
          "name": "sourceChain",
          "type": "address"
        },
        {
          "indexed": false,
          "internalType": "bytes",
          "name": "data",
          "type": "bytes"
        }
      ],
      "name": "DataReceived",
      "type": "event"
    },
    {
      "anonymous": false,
      "inputs": [
        {
          "indexed": true,
          "internalType": "address",
          "name": "destinationChain",
          "type": "address"
        },
        {
          "indexed": false,
          "internalType": "bytes",
          "name": "data",
          "type": "bytes"
        }
      ],
      "name": "DataSent",
      "type": "event"
    },
    {
      "anonymous": false,
      "inputs": [
        {
          "indexed": true,
          "internalType": "address",
          "name": "destinationChain",
          "type": "address"
        },
        {
          "indexed": false,
          "internalType": "address",
          "name": "externalBridgeContract",
          "type": "address"
        }
      ],
      "name": "ExternalBridgeContractSet",
      "type": "event"
    },
    {
      "anonymous": false,
      "inputs": [
        {
          "indexed": true,
          "internalType": "bytes32",
          "name": "role",
          "type": "bytes32"
        },
        {
          "indexed": true,
          "internalType": "bytes32",
          "name": "previousAdminRole",
          "type": "bytes32"
        },
        {
          "indexed": true,
          "internalType": "bytes32",
          "name": "newAdminRole",
          "type": "bytes32"
        }
      ],
      "name": "RoleAdminChanged",
      "type": "event"
    },
    {
      "anonymous": false,
      "inputs": [
        {
          "indexed": true,
          "internalType": "bytes32",
          "name": "role",
          "type": "bytes32"
        },
        {
          "indexed": true,
          "internalType": "address",
          "name": "account",
          "type": "address"
        },
        {
          "indexed": true,
          "internalType": "address",
          "name": "sender",
          "type": "address"
        }
      ],
      "name": "RoleGranted",
      "type": "event"
    },
    {
      "anonymous": false,
      "inputs": [
        {
          "indexed": true,
          "internalType": "bytes32",
          "name": "role",
          "type": "bytes32"
        },
        {
          "indexed": true,
          "internalType": "address",
          "name": "account",
          "type": "address"
        },
        {
          "indexed": true,
          "internalType": "address",
          "name": "sender",
          "type": "address"
        }
      ],
      "name": "RoleRevoked",
      "type": "event"
    },
    {
      "anonymous": false,
      "inputs": [
        {
          "indexed": true,
          "internalType": "address",
          "name": "destinationChain",
          "type": "address"
        },
        {
          "indexed": false,
          "internalType": "address",
          "name": "tokenAddress",
          "type": "address"
        }
      ],
      "name": "SupportedTokenAdded",
      "type": "event"
    },
    {
      "anonymous": false,
      "inputs": [
        {
          "indexed": true,
          "internalType": "uint256",
          "name": "transferId",
          "type": "uint256"
        }
      ],
      "name": "TransferCompleted",
      "type": "event"
    },
    {
      "inputs": [],
      "name": "BRIDGE_ADMIN_ROLE",
      "outputs": [
        {
          "internalType": "bytes32",
          "name": "",
          "type": "bytes32"
        }
      ],
      "stateMutability": "view",
      "type": "function"
    },
    {
      "inputs": [],
      "name": "BRIDGE_OPERATOR_ROLE",
      "outputs": [
        {
          "internalType": "bytes32",
          "name": "",
          "type": "bytes32"
        }
      ],
      "stateMutability": "view",
      "type": "function"
    },
    {
      "inputs": [],
      "name": "DEFAULT_ADMIN_ROLE",
      "outputs": [
        {
          "internalType": "bytes32",
          "name": "",
          "type": "bytes32"
        }
      ],
      "stateMutability": "view",
      "type": "function"
    },
    {
      "inputs": [
        {
          "internalType": "address",
          "name": "",
          "type": "address"
        }
      ],
      "name": "bridgeAddresses",
      "outputs": [
        {
          "internalType": "address",
          "name": "",
          "type": "address"
        }
      ],
      "stateMutability": "view",
      "type": "function"
    },
    {
      "inputs": [
        {
          "internalType": "address",
          "name": "",
          "type": "address"
        }
      ],
      "name": "bridgeFees",
      "outputs": [
        {
          "internalType": "uint256",
          "name": "",
          "type": "uint256"
        }
      ],
      "stateMutability": "view",
      "type": "function"
    },
    {
      "inputs": [
        {
          "internalType": "address",
          "name": "token",
          "type": "address"
        },
        {
          "internalType": "uint256",
          "name": "amount",
          "type": "uint256"
        },
        {
          "internalType": "address",
          "name": "recipient",
          "type": "address"
        },
        {
          "internalType": "uint256",
          "name": "destinationChainId",
          "type": "uint256"
        }
      ],
      "name": "bridgeTokens",
      "outputs": [],
      "stateMutability": "nonpayable",
      "type": "function"
    },
    {
      "inputs": [],
      "name": "chainlink",
      "outputs": [
        {
          "internalType": "contract IChainlinkCCIP",
          "name": "",
          "type": "address"
        }
      ],
      "stateMutability": "view",
      "type": "function"
    },
    {
      "inputs": [
        {
          "internalType": "address",
          "name": "",
          "type": "address"
        }
      ],
      "name": "externalBridgeContracts",
      "outputs": [
        {
          "internalType": "contract IExternalBridge",
          "name": "",
          "type": "address"
        }
      ],
      "stateMutability": "view",
      "type": "function"
    },
    {
      "inputs": [
        {
          "internalType": "bytes32",
          "name": "role",
          "type": "bytes32"
        }
      ],
      "name": "getRoleAdmin",
      "outputs": [
        {
          "internalType": "bytes32",
          "name": "",
          "type": "bytes32"
        }
      ],
      "stateMutability": "view",
      "type": "function"
    },
    {
      "inputs": [
        {
          "internalType": "bytes32",
          "name": "role",
          "type": "bytes32"
        },
        {
          "internalType": "address",
          "name": "account",
          "type": "address"
        }
      ],
      "name": "grantRole",
      "outputs": [],
      "stateMutability": "nonpayable",
      "type": "function"
    },
    {
      "inputs": [
        {
          "internalType": "bytes32",
          "name": "role",
          "type": "bytes32"
        },
        {
          "internalType": "address",
          "name": "account",
          "type": "address"
        }
      ],
      "name": "hasRole",
      "outputs": [
        {
          "internalType": "bool",
          "name": "",
          "type": "bool"
        }
      ],
      "stateMutability": "view",
      "type": "function"
    },
    {
      "inputs": [
        {
          "internalType": "address",
          "name": "",
          "type": "address"
        },
        {
          "internalType": "address",
          "name": "",
          "type": "address"
        }
      ],
      "name": "maxTransferAmounts",
      "outputs": [
        {
          "internalType": "uint256",
          "name": "",
          "type": "uint256"
        }
      ],
      "stateMutability": "view",
      "type": "function"
    },
    {
      "inputs": [
        {
          "internalType": "bytes32",
          "name": "role",
          "type": "bytes32"
        },
        {
          "internalType": "address",
          "name": "account",
          "type": "address"
        }
      ],
      "name": "renounceRole",
      "outputs": [],
      "stateMutability": "nonpayable",
      "type": "function"
    },
    {
      "inputs": [
        {
          "internalType": "bytes32",
          "name": "role",
          "type": "bytes32"
        },
        {
          "internalType": "address",
          "name": "account",
          "type": "address"
        }
      ],
      "name": "revokeRole",
      "outputs": [],
      "stateMutability": "nonpayable",
      "type": "function"
    },
    {
      "inputs": [
        {
          "internalType": "address",
          "name": "",
          "type": "address"
        },
        {
          "internalType": "uint256",
          "name": "",
          "type": "uint256"
        }
      ],
      "name": "supportedTokens",
      "outputs": [
        {
          "internalType": "address",
          "name": "",
          "type": "address"
        }
      ],
      "stateMutability": "view",
      "type": "function"
    },
    {
      "inputs": [
        {
          "internalType": "bytes4",
          "name": "interfaceId",
          "type": "bytes4"
        }
      ],
      "name": "supportsInterface",
      "outputs": [
        {
          "internalType": "bool",
          "name": "",
          "type": "bool"
        }
      ],
      "stateMutability": "view",
      "type": "function"
    },
    {
      "inputs": [
        {
          "internalType": "address",
          "name": "",
          "type": "address"
        },
        {
          "internalType": "uint256",
          "name": "",
          "type": "uint256"
        }
      ],
      "name": "transferHistory",
      "outputs": [
        {
          "internalType": "uint256",
          "name": "transferId",
          "type": "uint256"
        },
        {
          "internalType": "address",
          "name": "sender",
          "type": "address"
        },
        {
          "internalType": "address",
          "name": "destinationChain",
          "type": "address"
        },
        {
          "internalType": "address",
          "name": "token",
          "type": "address"
        },
        {
          "internalType": "uint256",
          "name": "amount",
          "type": "uint256"
        },
        {
          "internalType": "bytes",
          "name": "data",
          "type": "bytes"
        },
        {
          "internalType": "bool",
          "name": "completed",
          "type": "bool"
        }
      ],
      "stateMutability": "view",
      "type": "function"
    }
  ],
  "bytecode": "0x60a0604052348015600f57600080fd5b50600180819055506080516116aa610032600039600061069601526116aa6000f3fe608060405234801561001057600080fd5b506004361061010b5760003560e01c806358db2eef116100a257806391d148541161007157806391d14854146102f05780639c3feeb714610320578063a217fddf1461033e578063d1fb44541461035c578063d547741f146103925761010b565b806358db2eef14610230578063635102df1461026057806372066df3146102905780638389222a146102c05761010b565b80632f99492f116100de5780632f99492f146101aa5780633081e06f146101c657806336568abe146101f65780634be40fd1146102125761010b565b806301ffc9a714610110578063118c38c714610140578063248a9ca31461015e5780632f2ff15d1461018e575b600080fd5b61012a60048036038101906101259190610dc0565b6103ae565b6040516101379190610e08565b60405180910390f35b610148610428565b6040516101559190610e3c565b60405180910390f35b61017860048036038101906101739190610e83565b61044c565b6040516101859190610e3c565b60405180910390f35b6101a860048036038101906101a39190610f0e565b61046b565b005b6101c460048036038101906101bf9190610f84565b61048c565b005b6101e060048036038101906101db9190610feb565b610492565b6040516101ed919061103a565b60405180910390f35b610210600480360381019061020b9190610f0e565b6104e0565b005b61021a610563565b6040516102279190610e3c565b60405180910390f35b61024a60048036038101906102459190611055565b610587565b6040516102579190611091565b60405180910390f35b61027a600480360381019061027591906110ac565b61059f565b6040516102879190611091565b60405180910390f35b6102aa60048036038101906102a59190611055565b6105c4565b6040516102b7919061103a565b60405180910390f35b6102da60048036038101906102d59190611055565b6105f7565b6040516102e7919061114b565b60405180910390f35b61030a60048036038101906103059190610f0e565b61062a565b6040516103179190610e08565b60405180910390f35b610328610694565b6040516103359190611187565b60405180910390f35b6103466106b8565b6040516103539190610e3c565b60405180910390f35b61037660048036038101906103719190610feb565b6106bf565b6040516103899796959493929190611232565b60405180910390f35b6103ac60048036038101906103a79190610f0e565b610803565b005b60007f7965db0b000000000000000000000000000000000000000000000000000000007bffffffffffffffffffffffffffffffffffffffffffffffffffffffff1916827bffffffffffffffffffffffffffffffffffffffffffffffffffffffff19161480610421575061042082610824565b5b9050919050565b7f751b795d24b92e3d92d1d0d8f2885f4e9c9c269da350af36ae6b49069babf4bf81565b6000806000838152602001908152602001600020600101549050919050565b6104748261044c565b61047d8161088e565b61048783836108a2565b505050565b50505050565b600560205281600052604060002081815481106104ae57600080fd5b906000526020600020016000915091509054906101000a900473ffffffffffffffffffffffffffffffffffffffff1681565b6104e8610982565b73ffffffffffffffffffffffffffffffffffffffff168173ffffffffffffffffffffffffffffffffffffffff1614610555576040517f08c379a000000000000000000000000000000000000000000000000000000000815260040161054c9061132b565b60405180910390fd5b61055f828261098a565b5050565b7f7045adfe67d5f94dbfddcdb901e44bef55baacabb398c7cddda1bfd7620b156881565b60046020528060005260406000206000915090505481565b6006602052816000526040600020602052806000526040600020600091509150505481565b60026020528060005260406000206000915054906101000a900473ffffffffffffffffffffffffffffffffffffffff1681565b60036020528060005260406000206000915054906101000a900473ffffffffffffffffffffffffffffffffffffffff1681565b600080600084815260200190815260200160002060000160008373ffffffffffffffffffffffffffffffffffffffff1673ffffffffffffffffffffffffffffffffffffffff16815260200190815260200160002060009054906101000a900460ff16905092915050565b7f000000000000000000000000000000000000000000000000000000000000000081565b6000801b81565b6007602052816000526040600020602052806000526040600020600091509150508060000154908060010160009054906101000a900473ffffffffffffffffffffffffffffffffffffffff16908060020160009054906101000a900473ffffffffffffffffffffffffffffffffffffffff16908060030160009054906101000a900473ffffffffffffffffffffffffffffffffffffffff169080600401549080600501805461076d9061137a565b80601f01602080910402602001604051908101604052809291908181526020018280546107999061137a565b80156107e65780601f106107bb576101008083540402835291602001916107e6565b820191906000526020600020905b8154815290600101906020018083116107c957829003601f168201915b5050505050908060060160009054906101000a900460ff16905087565b61080c8261044c565b6108158161088e565b61081f838361098a565b505050565b60007f01ffc9a7000000000000000000000000000000000000000000000000000000007bffffffffffffffffffffffffffffffffffffffffffffffffffffffff1916827bffffffffffffffffffffffffffffffffffffffffffffffffffffffff1916149050919050565b61089f8161089a610982565b610a6b565b50565b6108ac828261062a565b61097e57600160008084815260200190815260200160002060000160008373ffffffffffffffffffffffffffffffffffffffff1673ffffffffffffffffffffffffffffffffffffffff16815260200190815260200160002060006101000a81548160ff021916908315150217905550610923610982565b73ffffffffffffffffffffffffffffffffffffffff168173ffffffffffffffffffffffffffffffffffffffff16837f2f8788117e7eff1d82e926ec794901d17c78024a50270940304540a733656f0d60405160405180910390a45b5050565b600033905090565b610994828261062a565b15610a6757600080600084815260200190815260200160002060000160008373ffffffffffffffffffffffffffffffffffffffff1673ffffffffffffffffffffffffffffffffffffffff16815260200190815260200160002060006101000a81548160ff021916908315150217905550610a0c610982565b73ffffffffffffffffffffffffffffffffffffffff168173ffffffffffffffffffffffffffffffffffffffff16837ff6391f5c32d9c69d2a47ea670b442974b53935d1edc7fd64eb21e047a839171b60405160405180910390a45b5050565b610a75828261062a565b610aec57610a8281610af0565b610a908360001c6020610b1d565b604051602001610aa192919061148a565b6040516020818303038152906040526040517f08c379a0000000000000000000000000000000000000000000000000000000008152600401610ae391906114fd565b60405180910390fd5b5050565b6060610b168273ffffffffffffffffffffffffffffffffffffffff16601460ff16610b1d565b9050919050565b6060600083905060006002846002610b35919061154e565b610b3f9190611590565b67ffffffffffffffff811115610b5857610b576115c4565b5b6040519080825280601f01601f191660200182016040528015610b8a5781602001600182028036833780820191505090505b5090507f300000000000000000000000000000000000000000000000000000000000000081600081518110610bc257610bc16115f3565b5b60200101907effffffffffffffffffffffffffffffffffffffffffffffffffffffffffffff1916908160001a9053507f780000000000000000000000000000000000000000000000000000000000000081600181518110610c2657610c256115f3565b5b60200101907effffffffffffffffffffffffffffffffffffffffffffffffffffffffffffff1916908160001a90535060006001856002610c66919061154e565b610c709190611590565b90505b6001811115610d10577f3031323334353637383961626364656600000000000000000000000000000000600f841660108110610cb257610cb16115f3565b5b1a60f81b828281518110610cc957610cc86115f3565b5b60200101907effffffffffffffffffffffffffffffffffffffffffffffffffffffffffffff1916908160001a905350600483901c925080610d0990611622565b9050610c73565b5060008214610d585784846040517fe22e27eb000000000000000000000000000000000000000000000000000000008152600401610d4f92919061164b565b60405180910390fd5b809250505092915050565b600080fd5b60007fffffffff0000000000000000000000000000000000000000000000000000000082169050919050565b610d9d81610d68565b8114610da857600080fd5b50565b600081359050610dba81610d94565b92915050565b600060208284031215610dd657610dd5610d63565b5b6000610de484828501610dab565b91505092915050565b60008115159050919050565b610e0281610ded565b82525050565b6000602082019050610e1d6000830184610df9565b92915050565b6000819050919050565b610e3681610e23565b82525050565b6000602082019050610e516000830184610e2d565b92915050565b610e6081610e23565b8114610e6b57600080fd5b50565b600081359050610e7d81610e57565b92915050565b600060208284031215610e9957610e98610d63565b5b6000610ea784828501610e6e565b91505092915050565b600073ffffffffffffffffffffffffffffffffffffffff82169050919050565b6000610edb82610eb0565b9050919050565b610eeb81610ed0565b8114610ef657600080fd5b50565b600081359050610f0881610ee2565b92915050565b60008060408385031215610f2557610f24610d63565b5b6000610f3385828601610e6e565b9250506020610f4485828601610ef9565b9150509250929050565b6000819050919050565b610f6181610f4e565b8114610f6c57600080fd5b50565b600081359050610f7e81610f58565b92915050565b60008060008060808587031215610f9e57610f9d610d63565b5b6000610fac87828801610ef9565b9450506020610fbd87828801610f6f565b9350506040610fce87828801610ef9565b9250506060610fdf87828801610f6f565b91505092959194509250565b6000806040838503121561100257611001610d63565b5b600061101085828601610ef9565b925050602061102185828601610f6f565b9150509250929050565b61103481610ed0565b82525050565b600060208201905061104f600083018461102b565b92915050565b60006020828403121561106b5761106a610d63565b5b600061107984828501610ef9565b91505092915050565b61108b81610f4e565b82525050565b60006020820190506110a66000830184611082565b92915050565b600080604083850312156110c3576110c2610d63565b5b60006110d185828601610ef9565b92505060206110e285828601610ef9565b9150509250929050565b6000819050919050565b600061111161110c61110784610eb0565b6110ec565b610eb0565b9050919050565b6000611123826110f6565b9050919050565b600061113582611118565b9050919050565b6111458161112a565b82525050565b6000602082019050611160600083018461113c565b92915050565b600061117182611118565b9050919050565b61118181611166565b82525050565b600060208201905061119c6000830184611178565b92915050565b600081519050919050565b600082825260208201905092915050565b60005b838110156111dc5780820151818401526020810190506111c1565b60008484015250505050565b6000601f19601f8301169050919050565b6000611204826111a2565b61120e81856111ad565b935061121e8185602086016111be565b611227816111e8565b840191505092915050565b600060e082019050611247600083018a611082565b611254602083018961102b565b611261604083018861102b565b61126e606083018761102b565b61127b6080830186611082565b81810360a083015261128d81856111f9565b905061129c60c0830184610df9565b98975050505050505050565b600082825260208201905092915050565b7f416363657373436f6e74726f6c3a2063616e206f6e6c792072656e6f756e636560008201527f20726f6c657320666f722073656c660000000000000000000000000000000000602082015250565b6000611315602f836112a8565b9150611320826112b9565b604082019050919050565b6000602082019050818103600083015261134481611308565b9050919050565b7f4e487b7100000000000000000000000000000000000000000000000000000000600052602260045260246000fd5b6000600282049050600182168061139257607f821691505b6020821081036113a5576113a461134b565b5b50919050565b600081905092915050565b7f416363657373436f6e74726f6c3a206163636f756e7420000000000000000000600082015250565b60006113ec6017836113ab565b91506113f7826113b6565b601782019050919050565b600081519050919050565b600061141882611402565b61142281856113ab565b93506114328185602086016111be565b80840191505092915050565b7f206973206d697373696e6720726f6c6520000000000000000000000000000000600082015250565b60006114746011836113ab565b915061147f8261143e565b601182019050919050565b6000611495826113df565b91506114a1828561140d565b91506114ac82611467565b91506114b8828461140d565b91508190509392505050565b60006114cf82611402565b6114d981856112a8565b93506114e98185602086016111be565b6114f2816111e8565b840191505092915050565b6000602082019050818103600083015261151781846114c4565b905092915050565b7f4e487b7100000000000000000000000000000000000000000000000000000000600052601160045260246000fd5b600061155982610f4e565b915061156483610f4e565b925082820261157281610f4e565b915082820484148315176115895761158861151f565b5b5092915050565b600061159b82610f4e565b91506115a683610f4e565b92508282019050808211156115be576115bd61151f565b5b92915050565b7f4e487b7100000000000000000000000000000000000000000000000000000000600052604160045260246000fd5b7f4e487b7100000000000000000000000000000000000000000000000000000000600052603260045260246000fd5b600061162d82610f4e565b9150600082036116405761163f61151f565b5b600182039050919050565b60006040820190506116606000830185611082565b61166d6020830184611082565b939250505056fea26469706673582212209178a581b9255e0ba11fa81ad1694278a1dca12432c90a9f981b66dc9a1f3cc564736f6c634300081a0033",
  "linkReferences": {},
  "deployedLinkReferences": {}
}