{
	"contracts/ChainlinkCCIPImplementation.sol": {
		"ChainlinkCCIPImplementation": {
			"abi": [
				{
					"inputs": [
						{
							"internalType": "bytes32",
							"name": "_requestId",
							"type": "bytes32"
						}
					],
					"name": "getResponse",
					"outputs": [
						{
							"internalType": "string",
							"name": "",
							"type": "string"
						}
					],
					"stateMutability": "view",
					"type": "function"
				},
				{
					"inputs": [
						{
							"internalType": "bytes",
							"name": "data",
							"type": "bytes"
						}
					],
					"name": "receiveData",
					"outputs": [],
					"stateMutability": "nonpayable",
					"type": "function"
				},
				{
					"inputs": [
						{
							"internalType": "string",
							"name": "_data",
							"type": "string"
						}
					],
					"name": "request",
					"outputs": [
						{
							"internalType": "bytes32",
							"name": "",
							"type": "bytes32"
						}
					],
					"stateMutability": "nonpayable",
					"type": "function"
				},
				{
					"inputs": [
						{
							"internalType": "address",
							"name": "destinationChain",
							"type": "address"
						},
						{
							"internalType": "bytes",
							"name": "data",
							"type": "bytes"
						}
					],
					"name": "sendData",
					"outputs": [],
					"stateMutability": "nonpayable",
					"type": "function"
				}
			],
			"devdoc": {
				"kind": "dev",
				"methods": {},
				"version": 1
			},
			"evm": {
				"assembly": "    /* \"contracts/ChainlinkCCIPImplementation.sol\":90:809  contract ChainlinkCCIPImplementation is IChainlinkCCIP {... */\n  mstore(0x40, 0x80)\n  callvalue\n  dup1\n  iszero\n  tag_1\n  jumpi\n  0x00\n  dup1\n  revert\ntag_1:\n  pop\n  dataSize(sub_0)\n  dup1\n  dataOffset(sub_0)\n  0x00\n  codecopy\n  0x00\n  return\nstop\n\nsub_0: assembly {\n        /* \"contracts/ChainlinkCCIPImplementation.sol\":90:809  contract ChainlinkCCIPImplementation is IChainlinkCCIP {... */\n      mstore(0x40, 0x80)\n      callvalue\n      dup1\n      iszero\n      tag_1\n      jumpi\n      0x00\n      dup1\n      revert\n    tag_1:\n      pop\n      jumpi(tag_2, lt(calldatasize, 0x04))\n      shr(0xe0, calldataload(0x00))\n      dup1\n      0x2c199889\n      eq\n      tag_3\n      jumpi\n      dup1\n      0x415a2bc1\n      eq\n      tag_4\n      jumpi\n      dup1\n      0x8823d224\n      eq\n      tag_5\n      jumpi\n      dup1\n      0xb410f645\n      eq\n      tag_6\n      jumpi\n    tag_2:\n      0x00\n      dup1\n      revert\n        /* \"contracts/ChainlinkCCIPImplementation.sol\":202:417  function request(string memory _data) public returns (bytes32) {... */\n    tag_3:\n      tag_7\n      0x04\n      dup1\n      calldatasize\n      sub\n      dup2\n      add\n      swap1\n      tag_8\n      swap2\n      swap1\n      tag_9\n      jump\t// in\n    tag_8:\n      tag_10\n      jump\t// in\n    tag_7:\n      mload(0x40)\n      tag_11\n      swap2\n      swap1\n      tag_12\n      jump\t// in\n    tag_11:\n      mload(0x40)\n      dup1\n      swap2\n      sub\n      swap1\n      return\n        /* \"contracts/ChainlinkCCIPImplementation.sol\":423:545  function getResponse(bytes32 _requestId) public view returns (string memory) {... */\n    tag_4:\n      tag_13\n      0x04\n      dup1\n      calldatasize\n      sub\n      dup2\n      add\n      swap1\n      tag_14\n      swap2\n      swap1\n      tag_15\n      jump\t// in\n    tag_14:\n      tag_16\n      jump\t// in\n    tag_13:\n      mload(0x40)\n      tag_17\n      swap2\n      swap1\n      tag_18\n      jump\t// in\n    tag_17:\n      mload(0x40)\n      dup1\n      swap2\n      sub\n      swap1\n      return\n        /* \"contracts/ChainlinkCCIPImplementation.sol\":551:686  function sendData(address destinationChain, bytes calldata data) external {... */\n    tag_5:\n      tag_19\n      0x04\n      dup1\n      calldatasize\n      sub\n      dup2\n      add\n      swap1\n      tag_20\n      swap2\n      swap1\n      tag_21\n      jump\t// in\n    tag_20:\n      tag_22\n      jump\t// in\n    tag_19:\n      stop\n        /* \"contracts/ChainlinkCCIPImplementation.sol\":692:807  function receiveData(bytes calldata data) external {... */\n    tag_6:\n      tag_23\n      0x04\n      dup1\n      calldatasize\n      sub\n      dup2\n      add\n      swap1\n      tag_24\n      swap2\n      swap1\n      tag_25\n      jump\t// in\n    tag_24:\n      tag_26\n      jump\t// in\n    tag_23:\n      stop\n        /* \"contracts/ChainlinkCCIPImplementation.sol\":202:417  function request(string memory _data) public returns (bytes32) {... */\n    tag_10:\n        /* \"contracts/ChainlinkCCIPImplementation.sol\":256:263  bytes32 */\n      0x00\n        /* \"contracts/ChainlinkCCIPImplementation.sol\":275:292  bytes32 requestId */\n      dup1\n        /* \"contracts/ChainlinkCCIPImplementation.sol\":322:327  _data */\n      dup3\n        /* \"contracts/ChainlinkCCIPImplementation.sol\":329:344  block.timestamp */\n      timestamp\n        /* \"contracts/ChainlinkCCIPImplementation.sol\":305:345  abi.encodePacked(_data, block.timestamp) */\n      add(0x20, mload(0x40))\n      tag_28\n      swap3\n      swap2\n      swap1\n      tag_29\n      jump\t// in\n    tag_28:\n      mload(0x40)\n      0x20\n      dup2\n      dup4\n      sub\n      sub\n      dup2\n      mstore\n      swap1\n      0x40\n      mstore\n        /* \"contracts/ChainlinkCCIPImplementation.sol\":295:346  keccak256(abi.encodePacked(_data, block.timestamp)) */\n      dup1\n      mload\n      swap1\n      0x20\n      add\n      keccak256\n        /* \"contracts/ChainlinkCCIPImplementation.sol\":275:346  bytes32 requestId = keccak256(abi.encodePacked(_data, block.timestamp)) */\n      swap1\n      pop\n        /* \"contracts/ChainlinkCCIPImplementation.sol\":379:384  _data */\n      dup3\n        /* \"contracts/ChainlinkCCIPImplementation.sol\":356:365  responses */\n      0x00\n        /* \"contracts/ChainlinkCCIPImplementation.sol\":356:376  responses[requestId] */\n      dup1\n        /* \"contracts/ChainlinkCCIPImplementation.sol\":366:375  requestId */\n      dup4\n        /* \"contracts/ChainlinkCCIPImplementation.sol\":356:376  responses[requestId] */\n      dup2\n      mstore\n      0x20\n      add\n      swap1\n      dup2\n      mstore\n      0x20\n      add\n      0x00\n      keccak256\n        /* \"contracts/ChainlinkCCIPImplementation.sol\":356:384  responses[requestId] = _data */\n      swap1\n      dup2\n      tag_30\n      swap2\n      swap1\n      tag_31\n      jump\t// in\n    tag_30:\n      pop\n        /* \"contracts/ChainlinkCCIPImplementation.sol\":401:410  requestId */\n      dup1\n        /* \"contracts/ChainlinkCCIPImplementation.sol\":394:410  return requestId */\n      swap2\n      pop\n      pop\n        /* \"contracts/ChainlinkCCIPImplementation.sol\":202:417  function request(string memory _data) public returns (bytes32) {... */\n      swap2\n      swap1\n      pop\n      jump\t// out\n        /* \"contracts/ChainlinkCCIPImplementation.sol\":423:545  function getResponse(bytes32 _requestId) public view returns (string memory) {... */\n    tag_16:\n        /* \"contracts/ChainlinkCCIPImplementation.sol\":485:498  string memory */\n      0x60\n        /* \"contracts/ChainlinkCCIPImplementation.sol\":517:526  responses */\n      0x00\n        /* \"contracts/ChainlinkCCIPImplementation.sol\":517:538  responses[_requestId] */\n      dup1\n        /* \"contracts/ChainlinkCCIPImplementation.sol\":527:537  _requestId */\n      dup4\n        /* \"contracts/ChainlinkCCIPImplementation.sol\":517:538  responses[_requestId] */\n      dup2\n      mstore\n      0x20\n      add\n      swap1\n      dup2\n      mstore\n      0x20\n      add\n      0x00\n      keccak256\n        /* \"contracts/ChainlinkCCIPImplementation.sol\":510:538  return responses[_requestId] */\n      dup1\n      sload\n      tag_33\n      swap1\n      tag_34\n      jump\t// in\n    tag_33:\n      dup1\n      0x1f\n      add\n      0x20\n      dup1\n      swap2\n      div\n      mul\n      0x20\n      add\n      mload(0x40)\n      swap1\n      dup2\n      add\n      0x40\n      mstore\n      dup1\n      swap3\n      swap2\n      swap1\n      dup2\n      dup2\n      mstore\n      0x20\n      add\n      dup3\n      dup1\n      sload\n      tag_35\n      swap1\n      tag_34\n      jump\t// in\n    tag_35:\n      dup1\n      iszero\n      tag_36\n      jumpi\n      dup1\n      0x1f\n      lt\n      tag_37\n      jumpi\n      0x0100\n      dup1\n      dup4\n      sload\n      div\n      mul\n      dup4\n      mstore\n      swap2\n      0x20\n      add\n      swap2\n      jump(tag_36)\n    tag_37:\n      dup3\n      add\n      swap2\n      swap1\n      0x00\n      mstore\n      keccak256(0x00, 0x20)\n      swap1\n    tag_38:\n      dup2\n      sload\n      dup2\n      mstore\n      swap1\n      0x01\n      add\n      swap1\n      0x20\n      add\n      dup1\n      dup4\n      gt\n      tag_38\n      jumpi\n      dup3\n      swap1\n      sub\n      0x1f\n      and\n      dup3\n      add\n      swap2\n    tag_36:\n      pop\n      pop\n      pop\n      pop\n      pop\n      swap1\n      pop\n        /* \"contracts/ChainlinkCCIPImplementation.sol\":423:545  function getResponse(bytes32 _requestId) public view returns (string memory) {... */\n      swap2\n      swap1\n      pop\n      jump\t// out\n        /* \"contracts/ChainlinkCCIPImplementation.sol\":551:686  function sendData(address destinationChain, bytes calldata data) external {... */\n    tag_22:\n      pop\n      pop\n      pop\n      jump\t// out\n        /* \"contracts/ChainlinkCCIPImplementation.sol\":692:807  function receiveData(bytes calldata data) external {... */\n    tag_26:\n      pop\n      pop\n      jump\t// out\n        /* \"#utility.yul\":7:82   */\n    tag_41:\n        /* \"#utility.yul\":40:46   */\n      0x00\n        /* \"#utility.yul\":73:75   */\n      0x40\n        /* \"#utility.yul\":67:76   */\n      mload\n        /* \"#utility.yul\":57:76   */\n      swap1\n      pop\n        /* \"#utility.yul\":7:82   */\n      swap1\n      jump\t// out\n        /* \"#utility.yul\":88:205   */\n    tag_42:\n        /* \"#utility.yul\":197:198   */\n      0x00\n        /* \"#utility.yul\":194:195   */\n      dup1\n        /* \"#utility.yul\":187:199   */\n      revert\n        /* \"#utility.yul\":211:328   */\n    tag_43:\n        /* \"#utility.yul\":320:321   */\n      0x00\n        /* \"#utility.yul\":317:318   */\n      dup1\n        /* \"#utility.yul\":310:322   */\n      revert\n        /* \"#utility.yul\":334:451   */\n    tag_44:\n        /* \"#utility.yul\":443:444   */\n      0x00\n        /* \"#utility.yul\":440:441   */\n      dup1\n        /* \"#utility.yul\":433:445   */\n      revert\n        /* \"#utility.yul\":457:574   */\n    tag_45:\n        /* \"#utility.yul\":566:567   */\n      0x00\n        /* \"#utility.yul\":563:564   */\n      dup1\n        /* \"#utility.yul\":556:568   */\n      revert\n        /* \"#utility.yul\":580:682   */\n    tag_46:\n        /* \"#utility.yul\":621:627   */\n      0x00\n        /* \"#utility.yul\":672:674   */\n      0x1f\n        /* \"#utility.yul\":668:675   */\n      not\n        /* \"#utility.yul\":663:665   */\n      0x1f\n        /* \"#utility.yul\":656:661   */\n      dup4\n        /* \"#utility.yul\":652:666   */\n      add\n        /* \"#utility.yul\":648:676   */\n      and\n        /* \"#utility.yul\":638:676   */\n      swap1\n      pop\n        /* \"#utility.yul\":580:682   */\n      swap2\n      swap1\n      pop\n      jump\t// out\n        /* \"#utility.yul\":688:868   */\n    tag_47:\n        /* \"#utility.yul\":736:813   */\n      0x4e487b7100000000000000000000000000000000000000000000000000000000\n        /* \"#utility.yul\":733:734   */\n      0x00\n        /* \"#utility.yul\":726:814   */\n      mstore\n        /* \"#utility.yul\":833:837   */\n      0x41\n        /* \"#utility.yul\":830:831   */\n      0x04\n        /* \"#utility.yul\":823:838   */\n      mstore\n        /* \"#utility.yul\":857:861   */\n      0x24\n        /* \"#utility.yul\":854:855   */\n      0x00\n        /* \"#utility.yul\":847:862   */\n      revert\n        /* \"#utility.yul\":874:1155   */\n    tag_48:\n        /* \"#utility.yul\":957:984   */\n      tag_99\n        /* \"#utility.yul\":979:983   */\n      dup3\n        /* \"#utility.yul\":957:984   */\n      tag_46\n      jump\t// in\n    tag_99:\n        /* \"#utility.yul\":949:955   */\n      dup2\n        /* \"#utility.yul\":945:985   */\n      add\n        /* \"#utility.yul\":1087:1093   */\n      dup2\n        /* \"#utility.yul\":1075:1085   */\n      dup2\n        /* \"#utility.yul\":1072:1094   */\n      lt\n        /* \"#utility.yul\":1051:1069   */\n      0xffffffffffffffff\n        /* \"#utility.yul\":1039:1049   */\n      dup3\n        /* \"#utility.yul\":1036:1070   */\n      gt\n        /* \"#utility.yul\":1033:1095   */\n      or\n        /* \"#utility.yul\":1030:1118   */\n      iszero\n      tag_100\n      jumpi\n        /* \"#utility.yul\":1098:1116   */\n      tag_101\n      tag_47\n      jump\t// in\n    tag_101:\n        /* \"#utility.yul\":1030:1118   */\n    tag_100:\n        /* \"#utility.yul\":1138:1148   */\n      dup1\n        /* \"#utility.yul\":1134:1136   */\n      0x40\n        /* \"#utility.yul\":1127:1149   */\n      mstore\n        /* \"#utility.yul\":917:1155   */\n      pop\n        /* \"#utility.yul\":874:1155   */\n      pop\n      pop\n      jump\t// out\n        /* \"#utility.yul\":1161:1290   */\n    tag_49:\n        /* \"#utility.yul\":1195:1201   */\n      0x00\n        /* \"#utility.yul\":1222:1242   */\n      tag_103\n      tag_41\n      jump\t// in\n    tag_103:\n        /* \"#utility.yul\":1212:1242   */\n      swap1\n      pop\n        /* \"#utility.yul\":1251:1284   */\n      tag_104\n        /* \"#utility.yul\":1279:1283   */\n      dup3\n        /* \"#utility.yul\":1271:1277   */\n      dup3\n        /* \"#utility.yul\":1251:1284   */\n      tag_48\n      jump\t// in\n    tag_104:\n        /* \"#utility.yul\":1161:1290   */\n      swap2\n      swap1\n      pop\n      jump\t// out\n        /* \"#utility.yul\":1296:1604   */\n    tag_50:\n        /* \"#utility.yul\":1358:1362   */\n      0x00\n        /* \"#utility.yul\":1448:1466   */\n      0xffffffffffffffff\n        /* \"#utility.yul\":1440:1446   */\n      dup3\n        /* \"#utility.yul\":1437:1467   */\n      gt\n        /* \"#utility.yul\":1434:1490   */\n      iszero\n      tag_106\n      jumpi\n        /* \"#utility.yul\":1470:1488   */\n      tag_107\n      tag_47\n      jump\t// in\n    tag_107:\n        /* \"#utility.yul\":1434:1490   */\n    tag_106:\n        /* \"#utility.yul\":1508:1537   */\n      tag_108\n        /* \"#utility.yul\":1530:1536   */\n      dup3\n        /* \"#utility.yul\":1508:1537   */\n      tag_46\n      jump\t// in\n    tag_108:\n        /* \"#utility.yul\":1500:1537   */\n      swap1\n      pop\n        /* \"#utility.yul\":1592:1596   */\n      0x20\n        /* \"#utility.yul\":1586:1590   */\n      dup2\n        /* \"#utility.yul\":1582:1597   */\n      add\n        /* \"#utility.yul\":1574:1597   */\n      swap1\n      pop\n        /* \"#utility.yul\":1296:1604   */\n      swap2\n      swap1\n      pop\n      jump\t// out\n        /* \"#utility.yul\":1610:1756   */\n    tag_51:\n        /* \"#utility.yul\":1707:1713   */\n      dup3\n        /* \"#utility.yul\":1702:1705   */\n      dup2\n        /* \"#utility.yul\":1697:1700   */\n      dup4\n        /* \"#utility.yul\":1684:1714   */\n      calldatacopy\n        /* \"#utility.yul\":1748:1749   */\n      0x00\n        /* \"#utility.yul\":1739:1745   */\n      dup4\n        /* \"#utility.yul\":1734:1737   */\n      dup4\n        /* \"#utility.yul\":1730:1746   */\n      add\n        /* \"#utility.yul\":1723:1750   */\n      mstore\n        /* \"#utility.yul\":1610:1756   */\n      pop\n      pop\n      pop\n      jump\t// out\n        /* \"#utility.yul\":1762:2187   */\n    tag_52:\n        /* \"#utility.yul\":1840:1845   */\n      0x00\n        /* \"#utility.yul\":1865:1931   */\n      tag_111\n        /* \"#utility.yul\":1881:1930   */\n      tag_112\n        /* \"#utility.yul\":1923:1929   */\n      dup5\n        /* \"#utility.yul\":1881:1930   */\n      tag_50\n      jump\t// in\n    tag_112:\n        /* \"#utility.yul\":1865:1931   */\n      tag_49\n      jump\t// in\n    tag_111:\n        /* \"#utility.yul\":1856:1931   */\n      swap1\n      pop\n        /* \"#utility.yul\":1954:1960   */\n      dup3\n        /* \"#utility.yul\":1947:1952   */\n      dup2\n        /* \"#utility.yul\":1940:1961   */\n      mstore\n        /* \"#utility.yul\":1992:1996   */\n      0x20\n        /* \"#utility.yul\":1985:1990   */\n      dup2\n        /* \"#utility.yul\":1981:1997   */\n      add\n        /* \"#utility.yul\":2030:2033   */\n      dup5\n        /* \"#utility.yul\":2021:2027   */\n      dup5\n        /* \"#utility.yul\":2016:2019   */\n      dup5\n        /* \"#utility.yul\":2012:2028   */\n      add\n        /* \"#utility.yul\":2009:2034   */\n      gt\n        /* \"#utility.yul\":2006:2118   */\n      iszero\n      tag_113\n      jumpi\n        /* \"#utility.yul\":2037:2116   */\n      tag_114\n      tag_45\n      jump\t// in\n    tag_114:\n        /* \"#utility.yul\":2006:2118   */\n    tag_113:\n        /* \"#utility.yul\":2127:2181   */\n      tag_115\n        /* \"#utility.yul\":2174:2180   */\n      dup5\n        /* \"#utility.yul\":2169:2172   */\n      dup3\n        /* \"#utility.yul\":2164:2167   */\n      dup6\n        /* \"#utility.yul\":2127:2181   */\n      tag_51\n      jump\t// in\n    tag_115:\n        /* \"#utility.yul\":1846:2187   */\n      pop\n        /* \"#utility.yul\":1762:2187   */\n      swap4\n      swap3\n      pop\n      pop\n      pop\n      jump\t// out\n        /* \"#utility.yul\":2207:2547   */\n    tag_53:\n        /* \"#utility.yul\":2263:2268   */\n      0x00\n        /* \"#utility.yul\":2312:2315   */\n      dup3\n        /* \"#utility.yul\":2305:2309   */\n      0x1f\n        /* \"#utility.yul\":2297:2303   */\n      dup4\n        /* \"#utility.yul\":2293:2310   */\n      add\n        /* \"#utility.yul\":2289:2316   */\n      slt\n        /* \"#utility.yul\":2279:2401   */\n      tag_117\n      jumpi\n        /* \"#utility.yul\":2320:2399   */\n      tag_118\n      tag_44\n      jump\t// in\n    tag_118:\n        /* \"#utility.yul\":2279:2401   */\n    tag_117:\n        /* \"#utility.yul\":2437:2443   */\n      dup2\n        /* \"#utility.yul\":2424:2444   */\n      calldataload\n        /* \"#utility.yul\":2462:2541   */\n      tag_119\n        /* \"#utility.yul\":2537:2540   */\n      dup5\n        /* \"#utility.yul\":2529:2535   */\n      dup3\n        /* \"#utility.yul\":2522:2526   */\n      0x20\n        /* \"#utility.yul\":2514:2520   */\n      dup7\n        /* \"#utility.yul\":2510:2527   */\n      add\n        /* \"#utility.yul\":2462:2541   */\n      tag_52\n      jump\t// in\n    tag_119:\n        /* \"#utility.yul\":2453:2541   */\n      swap2\n      pop\n        /* \"#utility.yul\":2269:2547   */\n      pop\n        /* \"#utility.yul\":2207:2547   */\n      swap3\n      swap2\n      pop\n      pop\n      jump\t// out\n        /* \"#utility.yul\":2553:3062   */\n    tag_9:\n        /* \"#utility.yul\":2622:2628   */\n      0x00\n        /* \"#utility.yul\":2671:2673   */\n      0x20\n        /* \"#utility.yul\":2659:2668   */\n      dup3\n        /* \"#utility.yul\":2650:2657   */\n      dup5\n        /* \"#utility.yul\":2646:2669   */\n      sub\n        /* \"#utility.yul\":2642:2674   */\n      slt\n        /* \"#utility.yul\":2639:2758   */\n      iszero\n      tag_121\n      jumpi\n        /* \"#utility.yul\":2677:2756   */\n      tag_122\n      tag_42\n      jump\t// in\n    tag_122:\n        /* \"#utility.yul\":2639:2758   */\n    tag_121:\n        /* \"#utility.yul\":2825:2826   */\n      0x00\n        /* \"#utility.yul\":2814:2823   */\n      dup3\n        /* \"#utility.yul\":2810:2827   */\n      add\n        /* \"#utility.yul\":2797:2828   */\n      calldataload\n        /* \"#utility.yul\":2855:2873   */\n      0xffffffffffffffff\n        /* \"#utility.yul\":2847:2853   */\n      dup2\n        /* \"#utility.yul\":2844:2874   */\n      gt\n        /* \"#utility.yul\":2841:2958   */\n      iszero\n      tag_123\n      jumpi\n        /* \"#utility.yul\":2877:2956   */\n      tag_124\n      tag_43\n      jump\t// in\n    tag_124:\n        /* \"#utility.yul\":2841:2958   */\n    tag_123:\n        /* \"#utility.yul\":2982:3045   */\n      tag_125\n        /* \"#utility.yul\":3037:3044   */\n      dup5\n        /* \"#utility.yul\":3028:3034   */\n      dup3\n        /* \"#utility.yul\":3017:3026   */\n      dup6\n        /* \"#utility.yul\":3013:3035   */\n      add\n        /* \"#utility.yul\":2982:3045   */\n      tag_53\n      jump\t// in\n    tag_125:\n        /* \"#utility.yul\":2972:3045   */\n      swap2\n      pop\n        /* \"#utility.yul\":2768:3055   */\n      pop\n        /* \"#utility.yul\":2553:3062   */\n      swap3\n      swap2\n      pop\n      pop\n      jump\t// out\n        /* \"#utility.yul\":3068:3145   */\n    tag_54:\n        /* \"#utility.yul\":3105:3112   */\n      0x00\n        /* \"#utility.yul\":3134:3139   */\n      dup2\n        /* \"#utility.yul\":3123:3139   */\n      swap1\n      pop\n        /* \"#utility.yul\":3068:3145   */\n      swap2\n      swap1\n      pop\n      jump\t// out\n        /* \"#utility.yul\":3151:3269   */\n    tag_55:\n        /* \"#utility.yul\":3238:3262   */\n      tag_128\n        /* \"#utility.yul\":3256:3261   */\n      dup2\n        /* \"#utility.yul\":3238:3262   */\n      tag_54\n      jump\t// in\n    tag_128:\n        /* \"#utility.yul\":3233:3236   */\n      dup3\n        /* \"#utility.yul\":3226:3263   */\n      mstore\n        /* \"#utility.yul\":3151:3269   */\n      pop\n      pop\n      jump\t// out\n        /* \"#utility.yul\":3275:3497   */\n    tag_12:\n        /* \"#utility.yul\":3368:3372   */\n      0x00\n        /* \"#utility.yul\":3406:3408   */\n      0x20\n        /* \"#utility.yul\":3395:3404   */\n      dup3\n        /* \"#utility.yul\":3391:3409   */\n      add\n        /* \"#utility.yul\":3383:3409   */\n      swap1\n      pop\n        /* \"#utility.yul\":3419:3490   */\n      tag_130\n        /* \"#utility.yul\":3487:3488   */\n      0x00\n        /* \"#utility.yul\":3476:3485   */\n      dup4\n        /* \"#utility.yul\":3472:3489   */\n      add\n        /* \"#utility.yul\":3463:3469   */\n      dup5\n        /* \"#utility.yul\":3419:3490   */\n      tag_55\n      jump\t// in\n    tag_130:\n        /* \"#utility.yul\":3275:3497   */\n      swap3\n      swap2\n      pop\n      pop\n      jump\t// out\n        /* \"#utility.yul\":3503:3625   */\n    tag_56:\n        /* \"#utility.yul\":3576:3600   */\n      tag_132\n        /* \"#utility.yul\":3594:3599   */\n      dup2\n        /* \"#utility.yul\":3576:3600   */\n      tag_54\n      jump\t// in\n    tag_132:\n        /* \"#utility.yul\":3569:3574   */\n      dup2\n        /* \"#utility.yul\":3566:3601   */\n      eq\n        /* \"#utility.yul\":3556:3619   */\n      tag_133\n      jumpi\n        /* \"#utility.yul\":3615:3616   */\n      0x00\n        /* \"#utility.yul\":3612:3613   */\n      dup1\n        /* \"#utility.yul\":3605:3617   */\n      revert\n        /* \"#utility.yul\":3556:3619   */\n    tag_133:\n        /* \"#utility.yul\":3503:3625   */\n      pop\n      jump\t// out\n        /* \"#utility.yul\":3631:3770   */\n    tag_57:\n        /* \"#utility.yul\":3677:3682   */\n      0x00\n        /* \"#utility.yul\":3715:3721   */\n      dup2\n        /* \"#utility.yul\":3702:3722   */\n      calldataload\n        /* \"#utility.yul\":3693:3722   */\n      swap1\n      pop\n        /* \"#utility.yul\":3731:3764   */\n      tag_135\n        /* \"#utility.yul\":3758:3763   */\n      dup2\n        /* \"#utility.yul\":3731:3764   */\n      tag_56\n      jump\t// in\n    tag_135:\n        /* \"#utility.yul\":3631:3770   */\n      swap3\n      swap2\n      pop\n      pop\n      jump\t// out\n        /* \"#utility.yul\":3776:4105   */\n    tag_15:\n        /* \"#utility.yul\":3835:3841   */\n      0x00\n        /* \"#utility.yul\":3884:3886   */\n      0x20\n        /* \"#utility.yul\":3872:3881   */\n      dup3\n        /* \"#utility.yul\":3863:3870   */\n      dup5\n        /* \"#utility.yul\":3859:3882   */\n      sub\n        /* \"#utility.yul\":3855:3887   */\n      slt\n        /* \"#utility.yul\":3852:3971   */\n      iszero\n      tag_137\n      jumpi\n        /* \"#utility.yul\":3890:3969   */\n      tag_138\n      tag_42\n      jump\t// in\n    tag_138:\n        /* \"#utility.yul\":3852:3971   */\n    tag_137:\n        /* \"#utility.yul\":4010:4011   */\n      0x00\n        /* \"#utility.yul\":4035:4088   */\n      tag_139\n        /* \"#utility.yul\":4080:4087   */\n      dup5\n        /* \"#utility.yul\":4071:4077   */\n      dup3\n        /* \"#utility.yul\":4060:4069   */\n      dup6\n        /* \"#utility.yul\":4056:4078   */\n      add\n        /* \"#utility.yul\":4035:4088   */\n      tag_57\n      jump\t// in\n    tag_139:\n        /* \"#utility.yul\":4025:4088   */\n      swap2\n      pop\n        /* \"#utility.yul\":3981:4098   */\n      pop\n        /* \"#utility.yul\":3776:4105   */\n      swap3\n      swap2\n      pop\n      pop\n      jump\t// out\n        /* \"#utility.yul\":4111:4210   */\n    tag_58:\n        /* \"#utility.yul\":4163:4169   */\n      0x00\n        /* \"#utility.yul\":4197:4202   */\n      dup2\n        /* \"#utility.yul\":4191:4203   */\n      mload\n        /* \"#utility.yul\":4181:4203   */\n      swap1\n      pop\n        /* \"#utility.yul\":4111:4210   */\n      swap2\n      swap1\n      pop\n      jump\t// out\n        /* \"#utility.yul\":4216:4385   */\n    tag_59:\n        /* \"#utility.yul\":4300:4311   */\n      0x00\n        /* \"#utility.yul\":4334:4340   */\n      dup3\n        /* \"#utility.yul\":4329:4332   */\n      dup3\n        /* \"#utility.yul\":4322:4341   */\n      mstore\n        /* \"#utility.yul\":4374:4378   */\n      0x20\n        /* \"#utility.yul\":4369:4372   */\n      dup3\n        /* \"#utility.yul\":4365:4379   */\n      add\n        /* \"#utility.yul\":4350:4379   */\n      swap1\n      pop\n        /* \"#utility.yul\":4216:4385   */\n      swap3\n      swap2\n      pop\n      pop\n      jump\t// out\n        /* \"#utility.yul\":4391:4637   */\n    tag_60:\n        /* \"#utility.yul\":4472:4473   */\n      0x00\n        /* \"#utility.yul\":4482:4595   */\n    tag_143:\n        /* \"#utility.yul\":4496:4502   */\n      dup4\n        /* \"#utility.yul\":4493:4494   */\n      dup2\n        /* \"#utility.yul\":4490:4503   */\n      lt\n        /* \"#utility.yul\":4482:4595   */\n      iszero\n      tag_145\n      jumpi\n        /* \"#utility.yul\":4581:4582   */\n      dup1\n        /* \"#utility.yul\":4576:4579   */\n      dup3\n        /* \"#utility.yul\":4572:4583   */\n      add\n        /* \"#utility.yul\":4566:4584   */\n      mload\n        /* \"#utility.yul\":4562:4563   */\n      dup2\n        /* \"#utility.yul\":4557:4560   */\n      dup5\n        /* \"#utility.yul\":4553:4564   */\n      add\n        /* \"#utility.yul\":4546:4585   */\n      mstore\n        /* \"#utility.yul\":4518:4520   */\n      0x20\n        /* \"#utility.yul\":4515:4516   */\n      dup2\n        /* \"#utility.yul\":4511:4521   */\n      add\n        /* \"#utility.yul\":4506:4521   */\n      swap1\n      pop\n        /* \"#utility.yul\":4482:4595   */\n      jump(tag_143)\n    tag_145:\n        /* \"#utility.yul\":4629:4630   */\n      0x00\n        /* \"#utility.yul\":4620:4626   */\n      dup5\n        /* \"#utility.yul\":4615:4618   */\n      dup5\n        /* \"#utility.yul\":4611:4627   */\n      add\n        /* \"#utility.yul\":4604:4631   */\n      mstore\n        /* \"#utility.yul\":4453:4637   */\n      pop\n        /* \"#utility.yul\":4391:4637   */\n      pop\n      pop\n      pop\n      jump\t// out\n        /* \"#utility.yul\":4643:5020   */\n    tag_61:\n        /* \"#utility.yul\":4731:4734   */\n      0x00\n        /* \"#utility.yul\":4759:4798   */\n      tag_147\n        /* \"#utility.yul\":4792:4797   */\n      dup3\n        /* \"#utility.yul\":4759:4798   */\n      tag_58\n      jump\t// in\n    tag_147:\n        /* \"#utility.yul\":4814:4885   */\n      tag_148\n        /* \"#utility.yul\":4878:4884   */\n      dup2\n        /* \"#utility.yul\":4873:4876   */\n      dup6\n        /* \"#utility.yul\":4814:4885   */\n      tag_59\n      jump\t// in\n    tag_148:\n        /* \"#utility.yul\":4807:4885   */\n      swap4\n      pop\n        /* \"#utility.yul\":4894:4959   */\n      tag_149\n        /* \"#utility.yul\":4952:4958   */\n      dup2\n        /* \"#utility.yul\":4947:4950   */\n      dup6\n        /* \"#utility.yul\":4940:4944   */\n      0x20\n        /* \"#utility.yul\":4933:4938   */\n      dup7\n        /* \"#utility.yul\":4929:4945   */\n      add\n        /* \"#utility.yul\":4894:4959   */\n      tag_60\n      jump\t// in\n    tag_149:\n        /* \"#utility.yul\":4984:5013   */\n      tag_150\n        /* \"#utility.yul\":5006:5012   */\n      dup2\n        /* \"#utility.yul\":4984:5013   */\n      tag_46\n      jump\t// in\n    tag_150:\n        /* \"#utility.yul\":4979:4982   */\n      dup5\n        /* \"#utility.yul\":4975:5014   */\n      add\n        /* \"#utility.yul\":4968:5014   */\n      swap2\n      pop\n        /* \"#utility.yul\":4735:5020   */\n      pop\n        /* \"#utility.yul\":4643:5020   */\n      swap3\n      swap2\n      pop\n      pop\n      jump\t// out\n        /* \"#utility.yul\":5026:5339   */\n    tag_18:\n        /* \"#utility.yul\":5139:5143   */\n      0x00\n        /* \"#utility.yul\":5177:5179   */\n      0x20\n        /* \"#utility.yul\":5166:5175   */\n      dup3\n        /* \"#utility.yul\":5162:5180   */\n      add\n        /* \"#utility.yul\":5154:5180   */\n      swap1\n      pop\n        /* \"#utility.yul\":5226:5235   */\n      dup2\n        /* \"#utility.yul\":5220:5224   */\n      dup2\n        /* \"#utility.yul\":5216:5236   */\n      sub\n        /* \"#utility.yul\":5212:5213   */\n      0x00\n        /* \"#utility.yul\":5201:5210   */\n      dup4\n        /* \"#utility.yul\":5197:5214   */\n      add\n        /* \"#utility.yul\":5190:5237   */\n      mstore\n        /* \"#utility.yul\":5254:5332   */\n      tag_152\n        /* \"#utility.yul\":5327:5331   */\n      dup2\n        /* \"#utility.yul\":5318:5324   */\n      dup5\n        /* \"#utility.yul\":5254:5332   */\n      tag_61\n      jump\t// in\n    tag_152:\n        /* \"#utility.yul\":5246:5332   */\n      swap1\n      pop\n        /* \"#utility.yul\":5026:5339   */\n      swap3\n      swap2\n      pop\n      pop\n      jump\t// out\n        /* \"#utility.yul\":5345:5471   */\n    tag_62:\n        /* \"#utility.yul\":5382:5389   */\n      0x00\n        /* \"#utility.yul\":5422:5464   */\n      0xffffffffffffffffffffffffffffffffffffffff\n        /* \"#utility.yul\":5415:5420   */\n      dup3\n        /* \"#utility.yul\":5411:5465   */\n      and\n        /* \"#utility.yul\":5400:5465   */\n      swap1\n      pop\n        /* \"#utility.yul\":5345:5471   */\n      swap2\n      swap1\n      pop\n      jump\t// out\n        /* \"#utility.yul\":5477:5573   */\n    tag_63:\n        /* \"#utility.yul\":5514:5521   */\n      0x00\n        /* \"#utility.yul\":5543:5567   */\n      tag_155\n        /* \"#utility.yul\":5561:5566   */\n      dup3\n        /* \"#utility.yul\":5543:5567   */\n      tag_62\n      jump\t// in\n    tag_155:\n        /* \"#utility.yul\":5532:5567   */\n      swap1\n      pop\n        /* \"#utility.yul\":5477:5573   */\n      swap2\n      swap1\n      pop\n      jump\t// out\n        /* \"#utility.yul\":5579:5701   */\n    tag_64:\n        /* \"#utility.yul\":5652:5676   */\n      tag_157\n        /* \"#utility.yul\":5670:5675   */\n      dup2\n        /* \"#utility.yul\":5652:5676   */\n      tag_63\n      jump\t// in\n    tag_157:\n        /* \"#utility.yul\":5645:5650   */\n      dup2\n        /* \"#utility.yul\":5642:5677   */\n      eq\n        /* \"#utility.yul\":5632:5695   */\n      tag_158\n      jumpi\n        /* \"#utility.yul\":5691:5692   */\n      0x00\n        /* \"#utility.yul\":5688:5689   */\n      dup1\n        /* \"#utility.yul\":5681:5693   */\n      revert\n        /* \"#utility.yul\":5632:5695   */\n    tag_158:\n        /* \"#utility.yul\":5579:5701   */\n      pop\n      jump\t// out\n        /* \"#utility.yul\":5707:5846   */\n    tag_65:\n        /* \"#utility.yul\":5753:5758   */\n      0x00\n        /* \"#utility.yul\":5791:5797   */\n      dup2\n        /* \"#utility.yul\":5778:5798   */\n      calldataload\n        /* \"#utility.yul\":5769:5798   */\n      swap1\n      pop\n        /* \"#utility.yul\":5807:5840   */\n      tag_160\n        /* \"#utility.yul\":5834:5839   */\n      dup2\n        /* \"#utility.yul\":5807:5840   */\n      tag_64\n      jump\t// in\n    tag_160:\n        /* \"#utility.yul\":5707:5846   */\n      swap3\n      swap2\n      pop\n      pop\n      jump\t// out\n        /* \"#utility.yul\":5852:5969   */\n    tag_66:\n        /* \"#utility.yul\":5961:5962   */\n      0x00\n        /* \"#utility.yul\":5958:5959   */\n      dup1\n        /* \"#utility.yul\":5951:5963   */\n      revert\n        /* \"#utility.yul\":5975:6092   */\n    tag_67:\n        /* \"#utility.yul\":6084:6085   */\n      0x00\n        /* \"#utility.yul\":6081:6082   */\n      dup1\n        /* \"#utility.yul\":6074:6086   */\n      revert\n        /* \"#utility.yul\":6111:6663   */\n    tag_68:\n        /* \"#utility.yul\":6168:6176   */\n      0x00\n        /* \"#utility.yul\":6178:6184   */\n      dup1\n        /* \"#utility.yul\":6228:6231   */\n      dup4\n        /* \"#utility.yul\":6221:6225   */\n      0x1f\n        /* \"#utility.yul\":6213:6219   */\n      dup5\n        /* \"#utility.yul\":6209:6226   */\n      add\n        /* \"#utility.yul\":6205:6232   */\n      slt\n        /* \"#utility.yul\":6195:6317   */\n      tag_164\n      jumpi\n        /* \"#utility.yul\":6236:6315   */\n      tag_165\n      tag_44\n      jump\t// in\n    tag_165:\n        /* \"#utility.yul\":6195:6317   */\n    tag_164:\n        /* \"#utility.yul\":6349:6355   */\n      dup3\n        /* \"#utility.yul\":6336:6356   */\n      calldataload\n        /* \"#utility.yul\":6326:6356   */\n      swap1\n      pop\n        /* \"#utility.yul\":6379:6397   */\n      0xffffffffffffffff\n        /* \"#utility.yul\":6371:6377   */\n      dup2\n        /* \"#utility.yul\":6368:6398   */\n      gt\n        /* \"#utility.yul\":6365:6482   */\n      iszero\n      tag_166\n      jumpi\n        /* \"#utility.yul\":6401:6480   */\n      tag_167\n      tag_66\n      jump\t// in\n    tag_167:\n        /* \"#utility.yul\":6365:6482   */\n    tag_166:\n        /* \"#utility.yul\":6515:6519   */\n      0x20\n        /* \"#utility.yul\":6507:6513   */\n      dup4\n        /* \"#utility.yul\":6503:6520   */\n      add\n        /* \"#utility.yul\":6491:6520   */\n      swap2\n      pop\n        /* \"#utility.yul\":6569:6572   */\n      dup4\n        /* \"#utility.yul\":6561:6565   */\n      0x01\n        /* \"#utility.yul\":6553:6559   */\n      dup3\n        /* \"#utility.yul\":6549:6566   */\n      mul\n        /* \"#utility.yul\":6539:6547   */\n      dup4\n        /* \"#utility.yul\":6535:6567   */\n      add\n        /* \"#utility.yul\":6532:6573   */\n      gt\n        /* \"#utility.yul\":6529:6657   */\n      iszero\n      tag_168\n      jumpi\n        /* \"#utility.yul\":6576:6655   */\n      tag_169\n      tag_67\n      jump\t// in\n    tag_169:\n        /* \"#utility.yul\":6529:6657   */\n    tag_168:\n        /* \"#utility.yul\":6111:6663   */\n      swap3\n      pop\n      swap3\n      swap1\n      pop\n      jump\t// out\n        /* \"#utility.yul\":6669:7341   */\n    tag_21:\n        /* \"#utility.yul\":6748:6754   */\n      0x00\n        /* \"#utility.yul\":6756:6762   */\n      dup1\n        /* \"#utility.yul\":6764:6770   */\n      0x00\n        /* \"#utility.yul\":6813:6815   */\n      0x40\n        /* \"#utility.yul\":6801:6810   */\n      dup5\n        /* \"#utility.yul\":6792:6799   */\n      dup7\n        /* \"#utility.yul\":6788:6811   */\n      sub\n        /* \"#utility.yul\":6784:6816   */\n      slt\n        /* \"#utility.yul\":6781:6900   */\n      iszero\n      tag_171\n      jumpi\n        /* \"#utility.yul\":6819:6898   */\n      tag_172\n      tag_42\n      jump\t// in\n    tag_172:\n        /* \"#utility.yul\":6781:6900   */\n    tag_171:\n        /* \"#utility.yul\":6939:6940   */\n      0x00\n        /* \"#utility.yul\":6964:7017   */\n      tag_173\n        /* \"#utility.yul\":7009:7016   */\n      dup7\n        /* \"#utility.yul\":7000:7006   */\n      dup3\n        /* \"#utility.yul\":6989:6998   */\n      dup8\n        /* \"#utility.yul\":6985:7007   */\n      add\n        /* \"#utility.yul\":6964:7017   */\n      tag_65\n      jump\t// in\n    tag_173:\n        /* \"#utility.yul\":6954:7017   */\n      swap4\n      pop\n        /* \"#utility.yul\":6910:7027   */\n      pop\n        /* \"#utility.yul\":7094:7096   */\n      0x20\n        /* \"#utility.yul\":7083:7092   */\n      dup5\n        /* \"#utility.yul\":7079:7097   */\n      add\n        /* \"#utility.yul\":7066:7098   */\n      calldataload\n        /* \"#utility.yul\":7125:7143   */\n      0xffffffffffffffff\n        /* \"#utility.yul\":7117:7123   */\n      dup2\n        /* \"#utility.yul\":7114:7144   */\n      gt\n        /* \"#utility.yul\":7111:7228   */\n      iszero\n      tag_174\n      jumpi\n        /* \"#utility.yul\":7147:7226   */\n      tag_175\n      tag_43\n      jump\t// in\n    tag_175:\n        /* \"#utility.yul\":7111:7228   */\n    tag_174:\n        /* \"#utility.yul\":7260:7324   */\n      tag_176\n        /* \"#utility.yul\":7316:7323   */\n      dup7\n        /* \"#utility.yul\":7307:7313   */\n      dup3\n        /* \"#utility.yul\":7296:7305   */\n      dup8\n        /* \"#utility.yul\":7292:7314   */\n      add\n        /* \"#utility.yul\":7260:7324   */\n      tag_68\n      jump\t// in\n    tag_176:\n        /* \"#utility.yul\":7242:7324   */\n      swap3\n      pop\n      swap3\n      pop\n        /* \"#utility.yul\":7037:7334   */\n      pop\n        /* \"#utility.yul\":6669:7341   */\n      swap3\n      pop\n      swap3\n      pop\n      swap3\n      jump\t// out\n        /* \"#utility.yul\":7347:7874   */\n    tag_25:\n        /* \"#utility.yul\":7417:7423   */\n      0x00\n        /* \"#utility.yul\":7425:7431   */\n      dup1\n        /* \"#utility.yul\":7474:7476   */\n      0x20\n        /* \"#utility.yul\":7462:7471   */\n      dup4\n        /* \"#utility.yul\":7453:7460   */\n      dup6\n        /* \"#utility.yul\":7449:7472   */\n      sub\n        /* \"#utility.yul\":7445:7477   */\n      slt\n        /* \"#utility.yul\":7442:7561   */\n      iszero\n      tag_178\n      jumpi\n        /* \"#utility.yul\":7480:7559   */\n      tag_179\n      tag_42\n      jump\t// in\n    tag_179:\n        /* \"#utility.yul\":7442:7561   */\n    tag_178:\n        /* \"#utility.yul\":7628:7629   */\n      0x00\n        /* \"#utility.yul\":7617:7626   */\n      dup4\n        /* \"#utility.yul\":7613:7630   */\n      add\n        /* \"#utility.yul\":7600:7631   */\n      calldataload\n        /* \"#utility.yul\":7658:7676   */\n      0xffffffffffffffff\n        /* \"#utility.yul\":7650:7656   */\n      dup2\n        /* \"#utility.yul\":7647:7677   */\n      gt\n        /* \"#utility.yul\":7644:7761   */\n      iszero\n      tag_180\n      jumpi\n        /* \"#utility.yul\":7680:7759   */\n      tag_181\n      tag_43\n      jump\t// in\n    tag_181:\n        /* \"#utility.yul\":7644:7761   */\n    tag_180:\n        /* \"#utility.yul\":7793:7857   */\n      tag_182\n        /* \"#utility.yul\":7849:7856   */\n      dup6\n        /* \"#utility.yul\":7840:7846   */\n      dup3\n        /* \"#utility.yul\":7829:7838   */\n      dup7\n        /* \"#utility.yul\":7825:7847   */\n      add\n        /* \"#utility.yul\":7793:7857   */\n      tag_68\n      jump\t// in\n    tag_182:\n        /* \"#utility.yul\":7775:7857   */\n      swap3\n      pop\n      swap3\n      pop\n        /* \"#utility.yul\":7571:7867   */\n      pop\n        /* \"#utility.yul\":7347:7874   */\n      swap3\n      pop\n      swap3\n      swap1\n      pop\n      jump\t// out\n        /* \"#utility.yul\":7880:8028   */\n    tag_69:\n        /* \"#utility.yul\":7982:7993   */\n      0x00\n        /* \"#utility.yul\":8019:8022   */\n      dup2\n        /* \"#utility.yul\":8004:8022   */\n      swap1\n      pop\n        /* \"#utility.yul\":7880:8028   */\n      swap3\n      swap2\n      pop\n      pop\n      jump\t// out\n        /* \"#utility.yul\":8034:8424   */\n    tag_70:\n        /* \"#utility.yul\":8140:8143   */\n      0x00\n        /* \"#utility.yul\":8168:8207   */\n      tag_185\n        /* \"#utility.yul\":8201:8206   */\n      dup3\n        /* \"#utility.yul\":8168:8207   */\n      tag_58\n      jump\t// in\n    tag_185:\n        /* \"#utility.yul\":8223:8312   */\n      tag_186\n        /* \"#utility.yul\":8305:8311   */\n      dup2\n        /* \"#utility.yul\":8300:8303   */\n      dup6\n        /* \"#utility.yul\":8223:8312   */\n      tag_69\n      jump\t// in\n    tag_186:\n        /* \"#utility.yul\":8216:8312   */\n      swap4\n      pop\n        /* \"#utility.yul\":8321:8386   */\n      tag_187\n        /* \"#utility.yul\":8379:8385   */\n      dup2\n        /* \"#utility.yul\":8374:8377   */\n      dup6\n        /* \"#utility.yul\":8367:8371   */\n      0x20\n        /* \"#utility.yul\":8360:8365   */\n      dup7\n        /* \"#utility.yul\":8356:8372   */\n      add\n        /* \"#utility.yul\":8321:8386   */\n      tag_60\n      jump\t// in\n    tag_187:\n        /* \"#utility.yul\":8411:8417   */\n      dup1\n        /* \"#utility.yul\":8406:8409   */\n      dup5\n        /* \"#utility.yul\":8402:8418   */\n      add\n        /* \"#utility.yul\":8395:8418   */\n      swap2\n      pop\n        /* \"#utility.yul\":8144:8424   */\n      pop\n        /* \"#utility.yul\":8034:8424   */\n      swap3\n      swap2\n      pop\n      pop\n      jump\t// out\n        /* \"#utility.yul\":8430:8507   */\n    tag_71:\n        /* \"#utility.yul\":8467:8474   */\n      0x00\n        /* \"#utility.yul\":8496:8501   */\n      dup2\n        /* \"#utility.yul\":8485:8501   */\n      swap1\n      pop\n        /* \"#utility.yul\":8430:8507   */\n      swap2\n      swap1\n      pop\n      jump\t// out\n        /* \"#utility.yul\":8513:8592   */\n    tag_72:\n        /* \"#utility.yul\":8552:8559   */\n      0x00\n        /* \"#utility.yul\":8581:8586   */\n      dup2\n        /* \"#utility.yul\":8570:8586   */\n      swap1\n      pop\n        /* \"#utility.yul\":8513:8592   */\n      swap2\n      swap1\n      pop\n      jump\t// out\n        /* \"#utility.yul\":8598:8755   */\n    tag_73:\n        /* \"#utility.yul\":8703:8748   */\n      tag_191\n        /* \"#utility.yul\":8723:8747   */\n      tag_192\n        /* \"#utility.yul\":8741:8746   */\n      dup3\n        /* \"#utility.yul\":8723:8747   */\n      tag_71\n      jump\t// in\n    tag_192:\n        /* \"#utility.yul\":8703:8748   */\n      tag_72\n      jump\t// in\n    tag_191:\n        /* \"#utility.yul\":8698:8701   */\n      dup3\n        /* \"#utility.yul\":8691:8749   */\n      mstore\n        /* \"#utility.yul\":8598:8755   */\n      pop\n      pop\n      jump\t// out\n        /* \"#utility.yul\":8761:9177   */\n    tag_29:\n        /* \"#utility.yul\":8921:8924   */\n      0x00\n        /* \"#utility.yul\":8943:9038   */\n      tag_194\n        /* \"#utility.yul\":9034:9037   */\n      dup3\n        /* \"#utility.yul\":9025:9031   */\n      dup6\n        /* \"#utility.yul\":8943:9038   */\n      tag_70\n      jump\t// in\n    tag_194:\n        /* \"#utility.yul\":8936:9038   */\n      swap2\n      pop\n        /* \"#utility.yul\":9048:9123   */\n      tag_195\n        /* \"#utility.yul\":9119:9122   */\n      dup3\n        /* \"#utility.yul\":9110:9116   */\n      dup5\n        /* \"#utility.yul\":9048:9123   */\n      tag_73\n      jump\t// in\n    tag_195:\n        /* \"#utility.yul\":9148:9150   */\n      0x20\n        /* \"#utility.yul\":9143:9146   */\n      dup3\n        /* \"#utility.yul\":9139:9151   */\n      add\n        /* \"#utility.yul\":9132:9151   */\n      swap2\n      pop\n        /* \"#utility.yul\":9168:9171   */\n      dup2\n        /* \"#utility.yul\":9161:9171   */\n      swap1\n      pop\n        /* \"#utility.yul\":8761:9177   */\n      swap4\n      swap3\n      pop\n      pop\n      pop\n      jump\t// out\n        /* \"#utility.yul\":9183:9363   */\n    tag_74:\n        /* \"#utility.yul\":9231:9308   */\n      0x4e487b7100000000000000000000000000000000000000000000000000000000\n        /* \"#utility.yul\":9228:9229   */\n      0x00\n        /* \"#utility.yul\":9221:9309   */\n      mstore\n        /* \"#utility.yul\":9328:9332   */\n      0x22\n        /* \"#utility.yul\":9325:9326   */\n      0x04\n        /* \"#utility.yul\":9318:9333   */\n      mstore\n        /* \"#utility.yul\":9352:9356   */\n      0x24\n        /* \"#utility.yul\":9349:9350   */\n      0x00\n        /* \"#utility.yul\":9342:9357   */\n      revert\n        /* \"#utility.yul\":9369:9689   */\n    tag_34:\n        /* \"#utility.yul\":9413:9419   */\n      0x00\n        /* \"#utility.yul\":9450:9451   */\n      0x02\n        /* \"#utility.yul\":9444:9448   */\n      dup3\n        /* \"#utility.yul\":9440:9452   */\n      div\n        /* \"#utility.yul\":9430:9452   */\n      swap1\n      pop\n        /* \"#utility.yul\":9497:9498   */\n      0x01\n        /* \"#utility.yul\":9491:9495   */\n      dup3\n        /* \"#utility.yul\":9487:9499   */\n      and\n        /* \"#utility.yul\":9518:9536   */\n      dup1\n        /* \"#utility.yul\":9508:9589   */\n      tag_198\n      jumpi\n        /* \"#utility.yul\":9574:9578   */\n      0x7f\n        /* \"#utility.yul\":9566:9572   */\n      dup3\n        /* \"#utility.yul\":9562:9579   */\n      and\n        /* \"#utility.yul\":9552:9579   */\n      swap2\n      pop\n        /* \"#utility.yul\":9508:9589   */\n    tag_198:\n        /* \"#utility.yul\":9636:9638   */\n      0x20\n        /* \"#utility.yul\":9628:9634   */\n      dup3\n        /* \"#utility.yul\":9625:9639   */\n      lt\n        /* \"#utility.yul\":9605:9623   */\n      dup2\n        /* \"#utility.yul\":9602:9640   */\n      sub\n        /* \"#utility.yul\":9599:9683   */\n      tag_199\n      jumpi\n        /* \"#utility.yul\":9655:9673   */\n      tag_200\n      tag_74\n      jump\t// in\n    tag_200:\n        /* \"#utility.yul\":9599:9683   */\n    tag_199:\n        /* \"#utility.yul\":9420:9689   */\n      pop\n        /* \"#utility.yul\":9369:9689   */\n      swap2\n      swap1\n      pop\n      jump\t// out\n        /* \"#utility.yul\":9695:9836   */\n    tag_75:\n        /* \"#utility.yul\":9744:9748   */\n      0x00\n        /* \"#utility.yul\":9767:9770   */\n      dup2\n        /* \"#utility.yul\":9759:9770   */\n      swap1\n      pop\n        /* \"#utility.yul\":9790:9793   */\n      dup2\n        /* \"#utility.yul\":9787:9788   */\n      0x00\n        /* \"#utility.yul\":9780:9794   */\n      mstore\n        /* \"#utility.yul\":9824:9828   */\n      0x20\n        /* \"#utility.yul\":9821:9822   */\n      0x00\n        /* \"#utility.yul\":9811:9829   */\n      keccak256\n        /* \"#utility.yul\":9803:9829   */\n      swap1\n      pop\n        /* \"#utility.yul\":9695:9836   */\n      swap2\n      swap1\n      pop\n      jump\t// out\n        /* \"#utility.yul\":9842:9935   */\n    tag_76:\n        /* \"#utility.yul\":9879:9885   */\n      0x00\n        /* \"#utility.yul\":9926:9928   */\n      0x20\n        /* \"#utility.yul\":9921:9923   */\n      0x1f\n        /* \"#utility.yul\":9914:9919   */\n      dup4\n        /* \"#utility.yul\":9910:9924   */\n      add\n        /* \"#utility.yul\":9906:9929   */\n      div\n        /* \"#utility.yul\":9896:9929   */\n      swap1\n      pop\n        /* \"#utility.yul\":9842:9935   */\n      swap2\n      swap1\n      pop\n      jump\t// out\n        /* \"#utility.yul\":9941:10048   */\n    tag_77:\n        /* \"#utility.yul\":9985:9993   */\n      0x00\n        /* \"#utility.yul\":10035:10040   */\n      dup3\n        /* \"#utility.yul\":10029:10033   */\n      dup3\n        /* \"#utility.yul\":10025:10041   */\n      shl\n        /* \"#utility.yul\":10004:10041   */\n      swap1\n      pop\n        /* \"#utility.yul\":9941:10048   */\n      swap3\n      swap2\n      pop\n      pop\n      jump\t// out\n        /* \"#utility.yul\":10054:10447   */\n    tag_78:\n        /* \"#utility.yul\":10123:10129   */\n      0x00\n        /* \"#utility.yul\":10173:10174   */\n      0x08\n        /* \"#utility.yul\":10161:10171   */\n      dup4\n        /* \"#utility.yul\":10157:10175   */\n      mul\n        /* \"#utility.yul\":10196:10293   */\n      tag_205\n        /* \"#utility.yul\":10226:10292   */\n      0xffffffffffffffffffffffffffffffffffffffffffffffffffffffffffffffff\n        /* \"#utility.yul\":10215:10224   */\n      dup3\n        /* \"#utility.yul\":10196:10293   */\n      tag_77\n      jump\t// in\n    tag_205:\n        /* \"#utility.yul\":10314:10353   */\n      tag_206\n        /* \"#utility.yul\":10344:10352   */\n      dup7\n        /* \"#utility.yul\":10333:10342   */\n      dup4\n        /* \"#utility.yul\":10314:10353   */\n      tag_77\n      jump\t// in\n    tag_206:\n        /* \"#utility.yul\":10302:10353   */\n      swap6\n      pop\n        /* \"#utility.yul\":10386:10390   */\n      dup1\n        /* \"#utility.yul\":10382:10391   */\n      not\n        /* \"#utility.yul\":10375:10380   */\n      dup5\n        /* \"#utility.yul\":10371:10392   */\n      and\n        /* \"#utility.yul\":10362:10392   */\n      swap4\n      pop\n        /* \"#utility.yul\":10435:10439   */\n      dup1\n        /* \"#utility.yul\":10425:10433   */\n      dup7\n        /* \"#utility.yul\":10421:10440   */\n      and\n        /* \"#utility.yul\":10414:10419   */\n      dup5\n        /* \"#utility.yul\":10411:10441   */\n      or\n        /* \"#utility.yul\":10401:10441   */\n      swap3\n      pop\n        /* \"#utility.yul\":10130:10447   */\n      pop\n      pop\n        /* \"#utility.yul\":10054:10447   */\n      swap4\n      swap3\n      pop\n      pop\n      pop\n      jump\t// out\n        /* \"#utility.yul\":10453:10513   */\n    tag_79:\n        /* \"#utility.yul\":10481:10484   */\n      0x00\n        /* \"#utility.yul\":10502:10507   */\n      dup2\n        /* \"#utility.yul\":10495:10507   */\n      swap1\n      pop\n        /* \"#utility.yul\":10453:10513   */\n      swap2\n      swap1\n      pop\n      jump\t// out\n        /* \"#utility.yul\":10519:10661   */\n    tag_80:\n        /* \"#utility.yul\":10569:10578   */\n      0x00\n        /* \"#utility.yul\":10602:10655   */\n      tag_209\n        /* \"#utility.yul\":10620:10654   */\n      tag_210\n        /* \"#utility.yul\":10629:10653   */\n      tag_211\n        /* \"#utility.yul\":10647:10652   */\n      dup5\n        /* \"#utility.yul\":10629:10653   */\n      tag_71\n      jump\t// in\n    tag_211:\n        /* \"#utility.yul\":10620:10654   */\n      tag_79\n      jump\t// in\n    tag_210:\n        /* \"#utility.yul\":10602:10655   */\n      tag_71\n      jump\t// in\n    tag_209:\n        /* \"#utility.yul\":10589:10655   */\n      swap1\n      pop\n        /* \"#utility.yul\":10519:10661   */\n      swap2\n      swap1\n      pop\n      jump\t// out\n        /* \"#utility.yul\":10667:10742   */\n    tag_81:\n        /* \"#utility.yul\":10710:10713   */\n      0x00\n        /* \"#utility.yul\":10731:10736   */\n      dup2\n        /* \"#utility.yul\":10724:10736   */\n      swap1\n      pop\n        /* \"#utility.yul\":10667:10742   */\n      swap2\n      swap1\n      pop\n      jump\t// out\n        /* \"#utility.yul\":10748:11017   */\n    tag_82:\n        /* \"#utility.yul\":10858:10897   */\n      tag_214\n        /* \"#utility.yul\":10889:10896   */\n      dup4\n        /* \"#utility.yul\":10858:10897   */\n      tag_80\n      jump\t// in\n    tag_214:\n        /* \"#utility.yul\":10919:11010   */\n      tag_215\n        /* \"#utility.yul\":10968:11009   */\n      tag_216\n        /* \"#utility.yul\":10992:11008   */\n      dup3\n        /* \"#utility.yul\":10968:11009   */\n      tag_81\n      jump\t// in\n    tag_216:\n        /* \"#utility.yul\":10960:10966   */\n      dup5\n        /* \"#utility.yul\":10953:10957   */\n      dup5\n        /* \"#utility.yul\":10947:10958   */\n      sload\n        /* \"#utility.yul\":10919:11010   */\n      tag_78\n      jump\t// in\n    tag_215:\n        /* \"#utility.yul\":10913:10917   */\n      dup3\n        /* \"#utility.yul\":10906:11011   */\n      sstore\n        /* \"#utility.yul\":10824:11017   */\n      pop\n        /* \"#utility.yul\":10748:11017   */\n      pop\n      pop\n      pop\n      jump\t// out\n        /* \"#utility.yul\":11023:11096   */\n    tag_83:\n        /* \"#utility.yul\":11068:11071   */\n      0x00\n        /* \"#utility.yul\":11023:11096   */\n      swap1\n      jump\t// out\n        /* \"#utility.yul\":11102:11291   */\n    tag_84:\n        /* \"#utility.yul\":11179:11211   */\n      tag_219\n      tag_83\n      jump\t// in\n    tag_219:\n        /* \"#utility.yul\":11220:11285   */\n      tag_220\n        /* \"#utility.yul\":11278:11284   */\n      dup2\n        /* \"#utility.yul\":11270:11276   */\n      dup5\n        /* \"#utility.yul\":11264:11268   */\n      dup5\n        /* \"#utility.yul\":11220:11285   */\n      tag_82\n      jump\t// in\n    tag_220:\n        /* \"#utility.yul\":11155:11291   */\n      pop\n        /* \"#utility.yul\":11102:11291   */\n      pop\n      pop\n      jump\t// out\n        /* \"#utility.yul\":11297:11483   */\n    tag_85:\n        /* \"#utility.yul\":11357:11477   */\n    tag_222:\n        /* \"#utility.yul\":11374:11377   */\n      dup2\n        /* \"#utility.yul\":11367:11372   */\n      dup2\n        /* \"#utility.yul\":11364:11378   */\n      lt\n        /* \"#utility.yul\":11357:11477   */\n      iszero\n      tag_224\n      jumpi\n        /* \"#utility.yul\":11428:11467   */\n      tag_225\n        /* \"#utility.yul\":11465:11466   */\n      0x00\n        /* \"#utility.yul\":11458:11463   */\n      dup3\n        /* \"#utility.yul\":11428:11467   */\n      tag_84\n      jump\t// in\n    tag_225:\n        /* \"#utility.yul\":11401:11402   */\n      0x01\n        /* \"#utility.yul\":11394:11399   */\n      dup2\n        /* \"#utility.yul\":11390:11403   */\n      add\n        /* \"#utility.yul\":11381:11403   */\n      swap1\n      pop\n        /* \"#utility.yul\":11357:11477   */\n      jump(tag_222)\n    tag_224:\n        /* \"#utility.yul\":11297:11483   */\n      pop\n      pop\n      jump\t// out\n        /* \"#utility.yul\":11489:12032   */\n    tag_86:\n        /* \"#utility.yul\":11590:11592   */\n      0x1f\n        /* \"#utility.yul\":11585:11588   */\n      dup3\n        /* \"#utility.yul\":11582:11593   */\n      gt\n        /* \"#utility.yul\":11579:12025   */\n      iszero\n      tag_227\n      jumpi\n        /* \"#utility.yul\":11624:11662   */\n      tag_228\n        /* \"#utility.yul\":11656:11661   */\n      dup2\n        /* \"#utility.yul\":11624:11662   */\n      tag_75\n      jump\t// in\n    tag_228:\n        /* \"#utility.yul\":11708:11737   */\n      tag_229\n        /* \"#utility.yul\":11726:11736   */\n      dup5\n        /* \"#utility.yul\":11708:11737   */\n      tag_76\n      jump\t// in\n    tag_229:\n        /* \"#utility.yul\":11698:11706   */\n      dup2\n        /* \"#utility.yul\":11694:11738   */\n      add\n        /* \"#utility.yul\":11891:11893   */\n      0x20\n        /* \"#utility.yul\":11879:11889   */\n      dup6\n        /* \"#utility.yul\":11876:11894   */\n      lt\n        /* \"#utility.yul\":11873:11922   */\n      iszero\n      tag_230\n      jumpi\n        /* \"#utility.yul\":11912:11920   */\n      dup2\n        /* \"#utility.yul\":11897:11920   */\n      swap1\n      pop\n        /* \"#utility.yul\":11873:11922   */\n    tag_230:\n        /* \"#utility.yul\":11935:12015   */\n      tag_231\n        /* \"#utility.yul\":11991:12013   */\n      tag_232\n        /* \"#utility.yul\":12009:12012   */\n      dup6\n        /* \"#utility.yul\":11991:12013   */\n      tag_76\n      jump\t// in\n    tag_232:\n        /* \"#utility.yul\":11981:11989   */\n      dup4\n        /* \"#utility.yul\":11977:12014   */\n      add\n        /* \"#utility.yul\":11964:11975   */\n      dup3\n        /* \"#utility.yul\":11935:12015   */\n      tag_85\n      jump\t// in\n    tag_231:\n        /* \"#utility.yul\":11594:12025   */\n      pop\n      pop\n        /* \"#utility.yul\":11579:12025   */\n    tag_227:\n        /* \"#utility.yul\":11489:12032   */\n      pop\n      pop\n      pop\n      jump\t// out\n        /* \"#utility.yul\":12038:12155   */\n    tag_87:\n        /* \"#utility.yul\":12092:12100   */\n      0x00\n        /* \"#utility.yul\":12142:12147   */\n      dup3\n        /* \"#utility.yul\":12136:12140   */\n      dup3\n        /* \"#utility.yul\":12132:12148   */\n      shr\n        /* \"#utility.yul\":12111:12148   */\n      swap1\n      pop\n        /* \"#utility.yul\":12038:12155   */\n      swap3\n      swap2\n      pop\n      pop\n      jump\t// out\n        /* \"#utility.yul\":12161:12330   */\n    tag_88:\n        /* \"#utility.yul\":12205:12211   */\n      0x00\n        /* \"#utility.yul\":12238:12289   */\n      tag_235\n        /* \"#utility.yul\":12286:12287   */\n      0x00\n        /* \"#utility.yul\":12282:12288   */\n      not\n        /* \"#utility.yul\":12274:12279   */\n      dup5\n        /* \"#utility.yul\":12271:12272   */\n      0x08\n        /* \"#utility.yul\":12267:12280   */\n      mul\n        /* \"#utility.yul\":12238:12289   */\n      tag_87\n      jump\t// in\n    tag_235:\n        /* \"#utility.yul\":12234:12290   */\n      not\n        /* \"#utility.yul\":12319:12323   */\n      dup1\n        /* \"#utility.yul\":12313:12317   */\n      dup4\n        /* \"#utility.yul\":12309:12324   */\n      and\n        /* \"#utility.yul\":12299:12324   */\n      swap2\n      pop\n        /* \"#utility.yul\":12212:12330   */\n      pop\n        /* \"#utility.yul\":12161:12330   */\n      swap3\n      swap2\n      pop\n      pop\n      jump\t// out\n        /* \"#utility.yul\":12335:12630   */\n    tag_89:\n        /* \"#utility.yul\":12411:12415   */\n      0x00\n        /* \"#utility.yul\":12557:12586   */\n      tag_237\n        /* \"#utility.yul\":12582:12585   */\n      dup4\n        /* \"#utility.yul\":12576:12580   */\n      dup4\n        /* \"#utility.yul\":12557:12586   */\n      tag_88\n      jump\t// in\n    tag_237:\n        /* \"#utility.yul\":12549:12586   */\n      swap2\n      pop\n        /* \"#utility.yul\":12619:12622   */\n      dup3\n        /* \"#utility.yul\":12616:12617   */\n      0x02\n        /* \"#utility.yul\":12612:12623   */\n      mul\n        /* \"#utility.yul\":12606:12610   */\n      dup3\n        /* \"#utility.yul\":12603:12624   */\n      or\n        /* \"#utility.yul\":12595:12624   */\n      swap1\n      pop\n        /* \"#utility.yul\":12335:12630   */\n      swap3\n      swap2\n      pop\n      pop\n      jump\t// out\n        /* \"#utility.yul\":12635:14030   */\n    tag_31:\n        /* \"#utility.yul\":12752:12789   */\n      tag_239\n        /* \"#utility.yul\":12785:12788   */\n      dup3\n        /* \"#utility.yul\":12752:12789   */\n      tag_58\n      jump\t// in\n    tag_239:\n        /* \"#utility.yul\":12854:12872   */\n      0xffffffffffffffff\n        /* \"#utility.yul\":12846:12852   */\n      dup2\n        /* \"#utility.yul\":12843:12873   */\n      gt\n        /* \"#utility.yul\":12840:12896   */\n      iszero\n      tag_240\n      jumpi\n        /* \"#utility.yul\":12876:12894   */\n      tag_241\n      tag_47\n      jump\t// in\n    tag_241:\n        /* \"#utility.yul\":12840:12896   */\n    tag_240:\n        /* \"#utility.yul\":12920:12958   */\n      tag_242\n        /* \"#utility.yul\":12952:12956   */\n      dup3\n        /* \"#utility.yul\":12946:12957   */\n      sload\n        /* \"#utility.yul\":12920:12958   */\n      tag_34\n      jump\t// in\n    tag_242:\n        /* \"#utility.yul\":13005:13072   */\n      tag_243\n        /* \"#utility.yul\":13065:13071   */\n      dup3\n        /* \"#utility.yul\":13057:13063   */\n      dup3\n        /* \"#utility.yul\":13051:13055   */\n      dup6\n        /* \"#utility.yul\":13005:13072   */\n      tag_86\n      jump\t// in\n    tag_243:\n        /* \"#utility.yul\":13099:13100   */\n      0x00\n        /* \"#utility.yul\":13123:13127   */\n      0x20\n        /* \"#utility.yul\":13110:13127   */\n      swap1\n      pop\n        /* \"#utility.yul\":13155:13157   */\n      0x1f\n        /* \"#utility.yul\":13147:13153   */\n      dup4\n        /* \"#utility.yul\":13144:13158   */\n      gt\n        /* \"#utility.yul\":13172:13173   */\n      0x01\n        /* \"#utility.yul\":13167:13785   */\n      dup2\n      eq\n      tag_245\n      jumpi\n        /* \"#utility.yul\":13829:13830   */\n      0x00\n        /* \"#utility.yul\":13846:13852   */\n      dup5\n        /* \"#utility.yul\":13843:13920   */\n      iszero\n      tag_246\n      jumpi\n        /* \"#utility.yul\":13895:13904   */\n      dup3\n        /* \"#utility.yul\":13890:13893   */\n      dup8\n        /* \"#utility.yul\":13886:13905   */\n      add\n        /* \"#utility.yul\":13880:13906   */\n      mload\n        /* \"#utility.yul\":13871:13906   */\n      swap1\n      pop\n        /* \"#utility.yul\":13843:13920   */\n    tag_246:\n        /* \"#utility.yul\":13946:14013   */\n      tag_247\n        /* \"#utility.yul\":14006:14012   */\n      dup6\n        /* \"#utility.yul\":13999:14004   */\n      dup3\n        /* \"#utility.yul\":13946:14013   */\n      tag_89\n      jump\t// in\n    tag_247:\n        /* \"#utility.yul\":13940:13944   */\n      dup7\n        /* \"#utility.yul\":13933:14014   */\n      sstore\n        /* \"#utility.yul\":13802:14024   */\n      pop\n        /* \"#utility.yul\":13137:14024   */\n      jump(tag_244)\n        /* \"#utility.yul\":13167:13785   */\n    tag_245:\n        /* \"#utility.yul\":13219:13223   */\n      0x1f\n        /* \"#utility.yul\":13215:13224   */\n      not\n        /* \"#utility.yul\":13207:13213   */\n      dup5\n        /* \"#utility.yul\":13203:13225   */\n      and\n        /* \"#utility.yul\":13253:13290   */\n      tag_248\n        /* \"#utility.yul\":13285:13289   */\n      dup7\n        /* \"#utility.yul\":13253:13290   */\n      tag_75\n      jump\t// in\n    tag_248:\n        /* \"#utility.yul\":13312:13313   */\n      0x00\n        /* \"#utility.yul\":13326:13534   */\n    tag_249:\n        /* \"#utility.yul\":13340:13347   */\n      dup3\n        /* \"#utility.yul\":13337:13338   */\n      dup2\n        /* \"#utility.yul\":13334:13348   */\n      lt\n        /* \"#utility.yul\":13326:13534   */\n      iszero\n      tag_251\n      jumpi\n        /* \"#utility.yul\":13419:13428   */\n      dup5\n        /* \"#utility.yul\":13414:13417   */\n      dup10\n        /* \"#utility.yul\":13410:13429   */\n      add\n        /* \"#utility.yul\":13404:13430   */\n      mload\n        /* \"#utility.yul\":13396:13402   */\n      dup3\n        /* \"#utility.yul\":13389:13431   */\n      sstore\n        /* \"#utility.yul\":13470:13471   */\n      0x01\n        /* \"#utility.yul\":13462:13468   */\n      dup3\n        /* \"#utility.yul\":13458:13472   */\n      add\n        /* \"#utility.yul\":13448:13472   */\n      swap2\n      pop\n        /* \"#utility.yul\":13517:13519   */\n      0x20\n        /* \"#utility.yul\":13506:13515   */\n      dup6\n        /* \"#utility.yul\":13502:13520   */\n      add\n        /* \"#utility.yul\":13489:13520   */\n      swap5\n      pop\n        /* \"#utility.yul\":13363:13367   */\n      0x20\n        /* \"#utility.yul\":13360:13361   */\n      dup2\n        /* \"#utility.yul\":13356:13368   */\n      add\n        /* \"#utility.yul\":13351:13368   */\n      swap1\n      pop\n        /* \"#utility.yul\":13326:13534   */\n      jump(tag_249)\n    tag_251:\n        /* \"#utility.yul\":13562:13568   */\n      dup7\n        /* \"#utility.yul\":13553:13560   */\n      dup4\n        /* \"#utility.yul\":13550:13569   */\n      lt\n        /* \"#utility.yul\":13547:13726   */\n      iszero\n      tag_252\n      jumpi\n        /* \"#utility.yul\":13620:13629   */\n      dup5\n        /* \"#utility.yul\":13615:13618   */\n      dup10\n        /* \"#utility.yul\":13611:13630   */\n      add\n        /* \"#utility.yul\":13605:13631   */\n      mload\n        /* \"#utility.yul\":13663:13711   */\n      tag_253\n        /* \"#utility.yul\":13705:13709   */\n      0x1f\n        /* \"#utility.yul\":13697:13703   */\n      dup10\n        /* \"#utility.yul\":13693:13710   */\n      and\n        /* \"#utility.yul\":13682:13691   */\n      dup3\n        /* \"#utility.yul\":13663:13711   */\n      tag_88\n      jump\t// in\n    tag_253:\n        /* \"#utility.yul\":13655:13661   */\n      dup4\n        /* \"#utility.yul\":13648:13712   */\n      sstore\n        /* \"#utility.yul\":13570:13726   */\n      pop\n        /* \"#utility.yul\":13547:13726   */\n    tag_252:\n        /* \"#utility.yul\":13772:13773   */\n      0x01\n        /* \"#utility.yul\":13768:13769   */\n      0x02\n        /* \"#utility.yul\":13760:13766   */\n      dup9\n        /* \"#utility.yul\":13756:13770   */\n      mul\n        /* \"#utility.yul\":13752:13774   */\n      add\n        /* \"#utility.yul\":13746:13750   */\n      dup9\n        /* \"#utility.yul\":13739:13775   */\n      sstore\n        /* \"#utility.yul\":13174:13785   */\n      pop\n      pop\n      pop\n        /* \"#utility.yul\":13137:14024   */\n    tag_244:\n      pop\n        /* \"#utility.yul\":12727:14030   */\n      pop\n      pop\n      pop\n        /* \"#utility.yul\":12635:14030   */\n      pop\n      pop\n      jump\t// out\n\n    auxdata: 0xa2646970667358221220472784a13d14b7547f382d73167a32a49eeb3ccced60d6c5e098ca3e401c8d8964736f6c63430008100033\n}\n",
				"bytecode": {
					"linkReferences": {},
					"object": "608060405234801561001057600080fd5b506109cc806100206000396000f3fe608060405234801561001057600080fd5b506004361061004c5760003560e01c80632c19988914610051578063415a2bc1146100815780638823d224146100b1578063b410f645146100cd575b600080fd5b61006b60048036038101906100669190610347565b6100e9565b60405161007891906103a9565b60405180910390f35b61009b600480360381019061009691906103f0565b610140565b6040516100a8919061049c565b60405180910390f35b6100cb60048036038101906100c6919061057c565b6101e4565b005b6100e760048036038101906100e291906105dc565b6101e9565b005b60008082426040516020016100ff929190610690565b60405160208183030381529060405280519060200120905082600080838152602001908152602001600020908161013691906108c4565b5080915050919050565b6060600080838152602001908152602001600020805461015f906106e7565b80601f016020809104026020016040519081016040528092919081815260200182805461018b906106e7565b80156101d85780601f106101ad576101008083540402835291602001916101d8565b820191906000526020600020905b8154815290600101906020018083116101bb57829003601f168201915b50505050509050919050565b505050565b5050565b6000604051905090565b600080fd5b600080fd5b600080fd5b600080fd5b6000601f19601f8301169050919050565b7f4e487b7100000000000000000000000000000000000000000000000000000000600052604160045260246000fd5b6102548261020b565b810181811067ffffffffffffffff821117156102735761027261021c565b5b80604052505050565b60006102866101ed565b9050610292828261024b565b919050565b600067ffffffffffffffff8211156102b2576102b161021c565b5b6102bb8261020b565b9050602081019050919050565b82818337600083830152505050565b60006102ea6102e584610297565b61027c565b90508281526020810184848401111561030657610305610206565b5b6103118482856102c8565b509392505050565b600082601f83011261032e5761032d610201565b5b813561033e8482602086016102d7565b91505092915050565b60006020828403121561035d5761035c6101f7565b5b600082013567ffffffffffffffff81111561037b5761037a6101fc565b5b61038784828501610319565b91505092915050565b6000819050919050565b6103a381610390565b82525050565b60006020820190506103be600083018461039a565b92915050565b6103cd81610390565b81146103d857600080fd5b50565b6000813590506103ea816103c4565b92915050565b600060208284031215610406576104056101f7565b5b6000610414848285016103db565b91505092915050565b600081519050919050565b600082825260208201905092915050565b60005b8381101561045757808201518184015260208101905061043c565b60008484015250505050565b600061046e8261041d565b6104788185610428565b9350610488818560208601610439565b6104918161020b565b840191505092915050565b600060208201905081810360008301526104b68184610463565b905092915050565b600073ffffffffffffffffffffffffffffffffffffffff82169050919050565b60006104e9826104be565b9050919050565b6104f9816104de565b811461050457600080fd5b50565b600081359050610516816104f0565b92915050565b600080fd5b600080fd5b60008083601f84011261053c5761053b610201565b5b8235905067ffffffffffffffff8111156105595761055861051c565b5b60208301915083600182028301111561057557610574610521565b5b9250929050565b600080600060408486031215610595576105946101f7565b5b60006105a386828701610507565b935050602084013567ffffffffffffffff8111156105c4576105c36101fc565b5b6105d086828701610526565b92509250509250925092565b600080602083850312156105f3576105f26101f7565b5b600083013567ffffffffffffffff811115610611576106106101fc565b5b61061d85828601610526565b92509250509250929050565b600081905092915050565b600061063f8261041d565b6106498185610629565b9350610659818560208601610439565b80840191505092915050565b6000819050919050565b6000819050919050565b61068a61068582610665565b61066f565b82525050565b600061069c8285610634565b91506106a88284610679565b6020820191508190509392505050565b7f4e487b7100000000000000000000000000000000000000000000000000000000600052602260045260246000fd5b600060028204905060018216806106ff57607f821691505b602082108103610712576107116106b8565b5b50919050565b60008190508160005260206000209050919050565b60006020601f8301049050919050565b600082821b905092915050565b60006008830261077a7fffffffffffffffffffffffffffffffffffffffffffffffffffffffffffffffff8261073d565b610784868361073d565b95508019841693508086168417925050509392505050565b6000819050919050565b60006107c16107bc6107b784610665565b61079c565b610665565b9050919050565b6000819050919050565b6107db836107a6565b6107ef6107e7826107c8565b84845461074a565b825550505050565b600090565b6108046107f7565b61080f8184846107d2565b505050565b5b81811015610833576108286000826107fc565b600181019050610815565b5050565b601f8211156108785761084981610718565b6108528461072d565b81016020851015610861578190505b61087561086d8561072d565b830182610814565b50505b505050565b600082821c905092915050565b600061089b6000198460080261087d565b1980831691505092915050565b60006108b4838361088a565b9150826002028217905092915050565b6108cd8261041d565b67ffffffffffffffff8111156108e6576108e561021c565b5b6108f082546106e7565b6108fb828285610837565b600060209050601f83116001811461092e576000841561091c578287015190505b61092685826108a8565b86555061098e565b601f19841661093c86610718565b60005b828110156109645784890151825560018201915060208501945060208101905061093f565b86831015610981578489015161097d601f89168261088a565b8355505b6001600288020188555050505b50505050505056fea2646970667358221220472784a13d14b7547f382d73167a32a49eeb3ccced60d6c5e098ca3e401c8d8964736f6c63430008100033",
					"opcodes": "PUSH1 0x80 PUSH1 0x40 MSTORE CALLVALUE DUP1 ISZERO PUSH2 0x10 JUMPI PUSH1 0x0 DUP1 REVERT JUMPDEST POP PUSH2 0x9CC DUP1 PUSH2 0x20 PUSH1 0x0 CODECOPY PUSH1 0x0 RETURN INVALID PUSH1 0x80 PUSH1 0x40 MSTORE CALLVALUE DUP1 ISZERO PUSH2 0x10 JUMPI PUSH1 0x0 DUP1 REVERT JUMPDEST POP PUSH1 0x4 CALLDATASIZE LT PUSH2 0x4C JUMPI PUSH1 0x0 CALLDATALOAD PUSH1 0xE0 SHR DUP1 PUSH4 0x2C199889 EQ PUSH2 0x51 JUMPI DUP1 PUSH4 0x415A2BC1 EQ PUSH2 0x81 JUMPI DUP1 PUSH4 0x8823D224 EQ PUSH2 0xB1 JUMPI DUP1 PUSH4 0xB410F645 EQ PUSH2 0xCD JUMPI JUMPDEST PUSH1 0x0 DUP1 REVERT JUMPDEST PUSH2 0x6B PUSH1 0x4 DUP1 CALLDATASIZE SUB DUP2 ADD SWAP1 PUSH2 0x66 SWAP2 SWAP1 PUSH2 0x347 JUMP JUMPDEST PUSH2 0xE9 JUMP JUMPDEST PUSH1 0x40 MLOAD PUSH2 0x78 SWAP2 SWAP1 PUSH2 0x3A9 JUMP JUMPDEST PUSH1 0x40 MLOAD DUP1 SWAP2 SUB SWAP1 RETURN JUMPDEST PUSH2 0x9B PUSH1 0x4 DUP1 CALLDATASIZE SUB DUP2 ADD SWAP1 PUSH2 0x96 SWAP2 SWAP1 PUSH2 0x3F0 JUMP JUMPDEST PUSH2 0x140 JUMP JUMPDEST PUSH1 0x40 MLOAD PUSH2 0xA8 SWAP2 SWAP1 PUSH2 0x49C JUMP JUMPDEST PUSH1 0x40 MLOAD DUP1 SWAP2 SUB SWAP1 RETURN JUMPDEST PUSH2 0xCB PUSH1 0x4 DUP1 CALLDATASIZE SUB DUP2 ADD SWAP1 PUSH2 0xC6 SWAP2 SWAP1 PUSH2 0x57C JUMP JUMPDEST PUSH2 0x1E4 JUMP JUMPDEST STOP JUMPDEST PUSH2 0xE7 PUSH1 0x4 DUP1 CALLDATASIZE SUB DUP2 ADD SWAP1 PUSH2 0xE2 SWAP2 SWAP1 PUSH2 0x5DC JUMP JUMPDEST PUSH2 0x1E9 JUMP JUMPDEST STOP JUMPDEST PUSH1 0x0 DUP1 DUP3 TIMESTAMP PUSH1 0x40 MLOAD PUSH1 0x20 ADD PUSH2 0xFF SWAP3 SWAP2 SWAP1 PUSH2 0x690 JUMP JUMPDEST PUSH1 0x40 MLOAD PUSH1 0x20 DUP2 DUP4 SUB SUB DUP2 MSTORE SWAP1 PUSH1 0x40 MSTORE DUP1 MLOAD SWAP1 PUSH1 0x20 ADD KECCAK256 SWAP1 POP DUP3 PUSH1 0x0 DUP1 DUP4 DUP2 MSTORE PUSH1 0x20 ADD SWAP1 DUP2 MSTORE PUSH1 0x20 ADD PUSH1 0x0 KECCAK256 SWAP1 DUP2 PUSH2 0x136 SWAP2 SWAP1 PUSH2 0x8C4 JUMP JUMPDEST POP DUP1 SWAP2 POP POP SWAP2 SWAP1 POP JUMP JUMPDEST PUSH1 0x60 PUSH1 0x0 DUP1 DUP4 DUP2 MSTORE PUSH1 0x20 ADD SWAP1 DUP2 MSTORE PUSH1 0x20 ADD PUSH1 0x0 KECCAK256 DUP1 SLOAD PUSH2 0x15F SWAP1 PUSH2 0x6E7 JUMP JUMPDEST DUP1 PUSH1 0x1F ADD PUSH1 0x20 DUP1 SWAP2 DIV MUL PUSH1 0x20 ADD PUSH1 0x40 MLOAD SWAP1 DUP2 ADD PUSH1 0x40 MSTORE DUP1 SWAP3 SWAP2 SWAP1 DUP2 DUP2 MSTORE PUSH1 0x20 ADD DUP3 DUP1 SLOAD PUSH2 0x18B SWAP1 PUSH2 0x6E7 JUMP JUMPDEST DUP1 ISZERO PUSH2 0x1D8 JUMPI DUP1 PUSH1 0x1F LT PUSH2 0x1AD JUMPI PUSH2 0x100 DUP1 DUP4 SLOAD DIV MUL DUP4 MSTORE SWAP2 PUSH1 0x20 ADD SWAP2 PUSH2 0x1D8 JUMP JUMPDEST DUP3 ADD SWAP2 SWAP1 PUSH1 0x0 MSTORE PUSH1 0x20 PUSH1 0x0 KECCAK256 SWAP1 JUMPDEST DUP2 SLOAD DUP2 MSTORE SWAP1 PUSH1 0x1 ADD SWAP1 PUSH1 0x20 ADD DUP1 DUP4 GT PUSH2 0x1BB JUMPI DUP3 SWAP1 SUB PUSH1 0x1F AND DUP3 ADD SWAP2 JUMPDEST POP POP POP POP POP SWAP1 POP SWAP2 SWAP1 POP JUMP JUMPDEST POP POP POP JUMP JUMPDEST POP POP JUMP JUMPDEST PUSH1 0x0 PUSH1 0x40 MLOAD SWAP1 POP SWAP1 JUMP JUMPDEST PUSH1 0x0 DUP1 REVERT JUMPDEST PUSH1 0x0 DUP1 REVERT JUMPDEST PUSH1 0x0 DUP1 REVERT JUMPDEST PUSH1 0x0 DUP1 REVERT JUMPDEST PUSH1 0x0 PUSH1 0x1F NOT PUSH1 0x1F DUP4 ADD AND SWAP1 POP SWAP2 SWAP1 POP JUMP JUMPDEST PUSH32 0x4E487B7100000000000000000000000000000000000000000000000000000000 PUSH1 0x0 MSTORE PUSH1 0x41 PUSH1 0x4 MSTORE PUSH1 0x24 PUSH1 0x0 REVERT JUMPDEST PUSH2 0x254 DUP3 PUSH2 0x20B JUMP JUMPDEST DUP2 ADD DUP2 DUP2 LT PUSH8 0xFFFFFFFFFFFFFFFF DUP3 GT OR ISZERO PUSH2 0x273 JUMPI PUSH2 0x272 PUSH2 0x21C JUMP JUMPDEST JUMPDEST DUP1 PUSH1 0x40 MSTORE POP POP POP JUMP JUMPDEST PUSH1 0x0 PUSH2 0x286 PUSH2 0x1ED JUMP JUMPDEST SWAP1 POP PUSH2 0x292 DUP3 DUP3 PUSH2 0x24B JUMP JUMPDEST SWAP2 SWAP1 POP JUMP JUMPDEST PUSH1 0x0 PUSH8 0xFFFFFFFFFFFFFFFF DUP3 GT ISZERO PUSH2 0x2B2 JUMPI PUSH2 0x2B1 PUSH2 0x21C JUMP JUMPDEST JUMPDEST PUSH2 0x2BB DUP3 PUSH2 0x20B JUMP JUMPDEST SWAP1 POP PUSH1 0x20 DUP2 ADD SWAP1 POP SWAP2 SWAP1 POP JUMP JUMPDEST DUP3 DUP2 DUP4 CALLDATACOPY PUSH1 0x0 DUP4 DUP4 ADD MSTORE POP POP POP JUMP JUMPDEST PUSH1 0x0 PUSH2 0x2EA PUSH2 0x2E5 DUP5 PUSH2 0x297 JUMP JUMPDEST PUSH2 0x27C JUMP JUMPDEST SWAP1 POP DUP3 DUP2 MSTORE PUSH1 0x20 DUP2 ADD DUP5 DUP5 DUP5 ADD GT ISZERO PUSH2 0x306 JUMPI PUSH2 0x305 PUSH2 0x206 JUMP JUMPDEST JUMPDEST PUSH2 0x311 DUP5 DUP3 DUP6 PUSH2 0x2C8 JUMP JUMPDEST POP SWAP4 SWAP3 POP POP POP JUMP JUMPDEST PUSH1 0x0 DUP3 PUSH1 0x1F DUP4 ADD SLT PUSH2 0x32E JUMPI PUSH2 0x32D PUSH2 0x201 JUMP JUMPDEST JUMPDEST DUP2 CALLDATALOAD PUSH2 0x33E DUP5 DUP3 PUSH1 0x20 DUP7 ADD PUSH2 0x2D7 JUMP JUMPDEST SWAP2 POP POP SWAP3 SWAP2 POP POP JUMP JUMPDEST PUSH1 0x0 PUSH1 0x20 DUP3 DUP5 SUB SLT ISZERO PUSH2 0x35D JUMPI PUSH2 0x35C PUSH2 0x1F7 JUMP JUMPDEST JUMPDEST PUSH1 0x0 DUP3 ADD CALLDATALOAD PUSH8 0xFFFFFFFFFFFFFFFF DUP2 GT ISZERO PUSH2 0x37B JUMPI PUSH2 0x37A PUSH2 0x1FC JUMP JUMPDEST JUMPDEST PUSH2 0x387 DUP5 DUP3 DUP6 ADD PUSH2 0x319 JUMP JUMPDEST SWAP2 POP POP SWAP3 SWAP2 POP POP JUMP JUMPDEST PUSH1 0x0 DUP2 SWAP1 POP SWAP2 SWAP1 POP JUMP JUMPDEST PUSH2 0x3A3 DUP2 PUSH2 0x390 JUMP JUMPDEST DUP3 MSTORE POP POP JUMP JUMPDEST PUSH1 0x0 PUSH1 0x20 DUP3 ADD SWAP1 POP PUSH2 0x3BE PUSH1 0x0 DUP4 ADD DUP5 PUSH2 0x39A JUMP JUMPDEST SWAP3 SWAP2 POP POP JUMP JUMPDEST PUSH2 0x3CD DUP2 PUSH2 0x390 JUMP JUMPDEST DUP2 EQ PUSH2 0x3D8 JUMPI PUSH1 0x0 DUP1 REVERT JUMPDEST POP JUMP JUMPDEST PUSH1 0x0 DUP2 CALLDATALOAD SWAP1 POP PUSH2 0x3EA DUP2 PUSH2 0x3C4 JUMP JUMPDEST SWAP3 SWAP2 POP POP JUMP JUMPDEST PUSH1 0x0 PUSH1 0x20 DUP3 DUP5 SUB SLT ISZERO PUSH2 0x406 JUMPI PUSH2 0x405 PUSH2 0x1F7 JUMP JUMPDEST JUMPDEST PUSH1 0x0 PUSH2 0x414 DUP5 DUP3 DUP6 ADD PUSH2 0x3DB JUMP JUMPDEST SWAP2 POP POP SWAP3 SWAP2 POP POP JUMP JUMPDEST PUSH1 0x0 DUP2 MLOAD SWAP1 POP SWAP2 SWAP1 POP JUMP JUMPDEST PUSH1 0x0 DUP3 DUP3 MSTORE PUSH1 0x20 DUP3 ADD SWAP1 POP SWAP3 SWAP2 POP POP JUMP JUMPDEST PUSH1 0x0 JUMPDEST DUP4 DUP2 LT ISZERO PUSH2 0x457 JUMPI DUP1 DUP3 ADD MLOAD DUP2 DUP5 ADD MSTORE PUSH1 0x20 DUP2 ADD SWAP1 POP PUSH2 0x43C JUMP JUMPDEST PUSH1 0x0 DUP5 DUP5 ADD MSTORE POP POP POP POP JUMP JUMPDEST PUSH1 0x0 PUSH2 0x46E DUP3 PUSH2 0x41D JUMP JUMPDEST PUSH2 0x478 DUP2 DUP6 PUSH2 0x428 JUMP JUMPDEST SWAP4 POP PUSH2 0x488 DUP2 DUP6 PUSH1 0x20 DUP7 ADD PUSH2 0x439 JUMP JUMPDEST PUSH2 0x491 DUP2 PUSH2 0x20B JUMP JUMPDEST DUP5 ADD SWAP2 POP POP SWAP3 SWAP2 POP POP JUMP JUMPDEST PUSH1 0x0 PUSH1 0x20 DUP3 ADD SWAP1 POP DUP2 DUP2 SUB PUSH1 0x0 DUP4 ADD MSTORE PUSH2 0x4B6 DUP2 DUP5 PUSH2 0x463 JUMP JUMPDEST SWAP1 POP SWAP3 SWAP2 POP POP JUMP JUMPDEST PUSH1 0x0 PUSH20 0xFFFFFFFFFFFFFFFFFFFFFFFFFFFFFFFFFFFFFFFF DUP3 AND SWAP1 POP SWAP2 SWAP1 POP JUMP JUMPDEST PUSH1 0x0 PUSH2 0x4E9 DUP3 PUSH2 0x4BE JUMP JUMPDEST SWAP1 POP SWAP2 SWAP1 POP JUMP JUMPDEST PUSH2 0x4F9 DUP2 PUSH2 0x4DE JUMP JUMPDEST DUP2 EQ PUSH2 0x504 JUMPI PUSH1 0x0 DUP1 REVERT JUMPDEST POP JUMP JUMPDEST PUSH1 0x0 DUP2 CALLDATALOAD SWAP1 POP PUSH2 0x516 DUP2 PUSH2 0x4F0 JUMP JUMPDEST SWAP3 SWAP2 POP POP JUMP JUMPDEST PUSH1 0x0 DUP1 REVERT JUMPDEST PUSH1 0x0 DUP1 REVERT JUMPDEST PUSH1 0x0 DUP1 DUP4 PUSH1 0x1F DUP5 ADD SLT PUSH2 0x53C JUMPI PUSH2 0x53B PUSH2 0x201 JUMP JUMPDEST JUMPDEST DUP3 CALLDATALOAD SWAP1 POP PUSH8 0xFFFFFFFFFFFFFFFF DUP2 GT ISZERO PUSH2 0x559 JUMPI PUSH2 0x558 PUSH2 0x51C JUMP JUMPDEST JUMPDEST PUSH1 0x20 DUP4 ADD SWAP2 POP DUP4 PUSH1 0x1 DUP3 MUL DUP4 ADD GT ISZERO PUSH2 0x575 JUMPI PUSH2 0x574 PUSH2 0x521 JUMP JUMPDEST JUMPDEST SWAP3 POP SWAP3 SWAP1 POP JUMP JUMPDEST PUSH1 0x0 DUP1 PUSH1 0x0 PUSH1 0x40 DUP5 DUP7 SUB SLT ISZERO PUSH2 0x595 JUMPI PUSH2 0x594 PUSH2 0x1F7 JUMP JUMPDEST JUMPDEST PUSH1 0x0 PUSH2 0x5A3 DUP7 DUP3 DUP8 ADD PUSH2 0x507 JUMP JUMPDEST SWAP4 POP POP PUSH1 0x20 DUP5 ADD CALLDATALOAD PUSH8 0xFFFFFFFFFFFFFFFF DUP2 GT ISZERO PUSH2 0x5C4 JUMPI PUSH2 0x5C3 PUSH2 0x1FC JUMP JUMPDEST JUMPDEST PUSH2 0x5D0 DUP7 DUP3 DUP8 ADD PUSH2 0x526 JUMP JUMPDEST SWAP3 POP SWAP3 POP POP SWAP3 POP SWAP3 POP SWAP3 JUMP JUMPDEST PUSH1 0x0 DUP1 PUSH1 0x20 DUP4 DUP6 SUB SLT ISZERO PUSH2 0x5F3 JUMPI PUSH2 0x5F2 PUSH2 0x1F7 JUMP JUMPDEST JUMPDEST PUSH1 0x0 DUP4 ADD CALLDATALOAD PUSH8 0xFFFFFFFFFFFFFFFF DUP2 GT ISZERO PUSH2 0x611 JUMPI PUSH2 0x610 PUSH2 0x1FC JUMP JUMPDEST JUMPDEST PUSH2 0x61D DUP6 DUP3 DUP7 ADD PUSH2 0x526 JUMP JUMPDEST SWAP3 POP SWAP3 POP POP SWAP3 POP SWAP3 SWAP1 POP JUMP JUMPDEST PUSH1 0x0 DUP2 SWAP1 POP SWAP3 SWAP2 POP POP JUMP JUMPDEST PUSH1 0x0 PUSH2 0x63F DUP3 PUSH2 0x41D JUMP JUMPDEST PUSH2 0x649 DUP2 DUP6 PUSH2 0x629 JUMP JUMPDEST SWAP4 POP PUSH2 0x659 DUP2 DUP6 PUSH1 0x20 DUP7 ADD PUSH2 0x439 JUMP JUMPDEST DUP1 DUP5 ADD SWAP2 POP POP SWAP3 SWAP2 POP POP JUMP JUMPDEST PUSH1 0x0 DUP2 SWAP1 POP SWAP2 SWAP1 POP JUMP JUMPDEST PUSH1 0x0 DUP2 SWAP1 POP SWAP2 SWAP1 POP JUMP JUMPDEST PUSH2 0x68A PUSH2 0x685 DUP3 PUSH2 0x665 JUMP JUMPDEST PUSH2 0x66F JUMP JUMPDEST DUP3 MSTORE POP POP JUMP JUMPDEST PUSH1 0x0 PUSH2 0x69C DUP3 DUP6 PUSH2 0x634 JUMP JUMPDEST SWAP2 POP PUSH2 0x6A8 DUP3 DUP5 PUSH2 0x679 JUMP JUMPDEST PUSH1 0x20 DUP3 ADD SWAP2 POP DUP2 SWAP1 POP SWAP4 SWAP3 POP POP POP JUMP JUMPDEST PUSH32 0x4E487B7100000000000000000000000000000000000000000000000000000000 PUSH1 0x0 MSTORE PUSH1 0x22 PUSH1 0x4 MSTORE PUSH1 0x24 PUSH1 0x0 REVERT JUMPDEST PUSH1 0x0 PUSH1 0x2 DUP3 DIV SWAP1 POP PUSH1 0x1 DUP3 AND DUP1 PUSH2 0x6FF JUMPI PUSH1 0x7F DUP3 AND SWAP2 POP JUMPDEST PUSH1 0x20 DUP3 LT DUP2 SUB PUSH2 0x712 JUMPI PUSH2 0x711 PUSH2 0x6B8 JUMP JUMPDEST JUMPDEST POP SWAP2 SWAP1 POP JUMP JUMPDEST PUSH1 0x0 DUP2 SWAP1 POP DUP2 PUSH1 0x0 MSTORE PUSH1 0x20 PUSH1 0x0 KECCAK256 SWAP1 POP SWAP2 SWAP1 POP JUMP JUMPDEST PUSH1 0x0 PUSH1 0x20 PUSH1 0x1F DUP4 ADD DIV SWAP1 POP SWAP2 SWAP1 POP JUMP JUMPDEST PUSH1 0x0 DUP3 DUP3 SHL SWAP1 POP SWAP3 SWAP2 POP POP JUMP JUMPDEST PUSH1 0x0 PUSH1 0x8 DUP4 MUL PUSH2 0x77A PUSH32 0xFFFFFFFFFFFFFFFFFFFFFFFFFFFFFFFFFFFFFFFFFFFFFFFFFFFFFFFFFFFFFFFF DUP3 PUSH2 0x73D JUMP JUMPDEST PUSH2 0x784 DUP7 DUP4 PUSH2 0x73D JUMP JUMPDEST SWAP6 POP DUP1 NOT DUP5 AND SWAP4 POP DUP1 DUP7 AND DUP5 OR SWAP3 POP POP POP SWAP4 SWAP3 POP POP POP JUMP JUMPDEST PUSH1 0x0 DUP2 SWAP1 POP SWAP2 SWAP1 POP JUMP JUMPDEST PUSH1 0x0 PUSH2 0x7C1 PUSH2 0x7BC PUSH2 0x7B7 DUP5 PUSH2 0x665 JUMP JUMPDEST PUSH2 0x79C JUMP JUMPDEST PUSH2 0x665 JUMP JUMPDEST SWAP1 POP SWAP2 SWAP1 POP JUMP JUMPDEST PUSH1 0x0 DUP2 SWAP1 POP SWAP2 SWAP1 POP JUMP JUMPDEST PUSH2 0x7DB DUP4 PUSH2 0x7A6 JUMP JUMPDEST PUSH2 0x7EF PUSH2 0x7E7 DUP3 PUSH2 0x7C8 JUMP JUMPDEST DUP5 DUP5 SLOAD PUSH2 0x74A JUMP JUMPDEST DUP3 SSTORE POP POP POP POP JUMP JUMPDEST PUSH1 0x0 SWAP1 JUMP JUMPDEST PUSH2 0x804 PUSH2 0x7F7 JUMP JUMPDEST PUSH2 0x80F DUP2 DUP5 DUP5 PUSH2 0x7D2 JUMP JUMPDEST POP POP POP JUMP JUMPDEST JUMPDEST DUP2 DUP2 LT ISZERO PUSH2 0x833 JUMPI PUSH2 0x828 PUSH1 0x0 DUP3 PUSH2 0x7FC JUMP JUMPDEST PUSH1 0x1 DUP2 ADD SWAP1 POP PUSH2 0x815 JUMP JUMPDEST POP POP JUMP JUMPDEST PUSH1 0x1F DUP3 GT ISZERO PUSH2 0x878 JUMPI PUSH2 0x849 DUP2 PUSH2 0x718 JUMP JUMPDEST PUSH2 0x852 DUP5 PUSH2 0x72D JUMP JUMPDEST DUP2 ADD PUSH1 0x20 DUP6 LT ISZERO PUSH2 0x861 JUMPI DUP2 SWAP1 POP JUMPDEST PUSH2 0x875 PUSH2 0x86D DUP6 PUSH2 0x72D JUMP JUMPDEST DUP4 ADD DUP3 PUSH2 0x814 JUMP JUMPDEST POP POP JUMPDEST POP POP POP JUMP JUMPDEST PUSH1 0x0 DUP3 DUP3 SHR SWAP1 POP SWAP3 SWAP2 POP POP JUMP JUMPDEST PUSH1 0x0 PUSH2 0x89B PUSH1 0x0 NOT DUP5 PUSH1 0x8 MUL PUSH2 0x87D JUMP JUMPDEST NOT DUP1 DUP4 AND SWAP2 POP POP SWAP3 SWAP2 POP POP JUMP JUMPDEST PUSH1 0x0 PUSH2 0x8B4 DUP4 DUP4 PUSH2 0x88A JUMP JUMPDEST SWAP2 POP DUP3 PUSH1 0x2 MUL DUP3 OR SWAP1 POP SWAP3 SWAP2 POP POP JUMP JUMPDEST PUSH2 0x8CD DUP3 PUSH2 0x41D JUMP JUMPDEST PUSH8 0xFFFFFFFFFFFFFFFF DUP2 GT ISZERO PUSH2 0x8E6 JUMPI PUSH2 0x8E5 PUSH2 0x21C JUMP JUMPDEST JUMPDEST PUSH2 0x8F0 DUP3 SLOAD PUSH2 0x6E7 JUMP JUMPDEST PUSH2 0x8FB DUP3 DUP3 DUP6 PUSH2 0x837 JUMP JUMPDEST PUSH1 0x0 PUSH1 0x20 SWAP1 POP PUSH1 0x1F DUP4 GT PUSH1 0x1 DUP2 EQ PUSH2 0x92E JUMPI PUSH1 0x0 DUP5 ISZERO PUSH2 0x91C JUMPI DUP3 DUP8 ADD MLOAD SWAP1 POP JUMPDEST PUSH2 0x926 DUP6 DUP3 PUSH2 0x8A8 JUMP JUMPDEST DUP7 SSTORE POP PUSH2 0x98E JUMP JUMPDEST PUSH1 0x1F NOT DUP5 AND PUSH2 0x93C DUP7 PUSH2 0x718 JUMP JUMPDEST PUSH1 0x0 JUMPDEST DUP3 DUP2 LT ISZERO PUSH2 0x964 JUMPI DUP5 DUP10 ADD MLOAD DUP3 SSTORE PUSH1 0x1 DUP3 ADD SWAP2 POP PUSH1 0x20 DUP6 ADD SWAP5 POP PUSH1 0x20 DUP2 ADD SWAP1 POP PUSH2 0x93F JUMP JUMPDEST DUP7 DUP4 LT ISZERO PUSH2 0x981 JUMPI DUP5 DUP10 ADD MLOAD PUSH2 0x97D PUSH1 0x1F DUP10 AND DUP3 PUSH2 0x88A JUMP JUMPDEST DUP4 SSTORE POP JUMPDEST PUSH1 0x1 PUSH1 0x2 DUP9 MUL ADD DUP9 SSTORE POP POP POP JUMPDEST POP POP POP POP POP POP JUMP INVALID LOG2 PUSH5 0x6970667358 0x22 SLT KECCAK256 SELFBALANCE 0x27 DUP5 LOG1 RETURNDATASIZE EQ 0xB7 SLOAD PUSH32 0x382D73167A32A49EEB3CCCED60D6C5E098CA3E401C8D8964736F6C6343000810 STOP CALLER "
				},
				"gasEstimates": {
					"creation": {
						"codeDepositCost": "501600",
						"executionCost": "537",
						"totalCost": "502137"
					},
					"external": {
						"getResponse(bytes32)": "infinite",
						"receiveData(bytes)": "518",
						"request(string)": "infinite",
						"sendData(address,bytes)": "715"
					}
				},
				"methodIdentifiers": {
					"getResponse(bytes32)": "415a2bc1",
					"receiveData(bytes)": "b410f645",
					"request(string)": "2c199889",
					"sendData(address,bytes)": "8823d224"
				}
			},
			"storageLayout": {
				"storage": [
					{
						"astId": 8,
						"contract": "contracts/ChainlinkCCIPImplementation.sol:ChainlinkCCIPImplementation",
						"label": "responses",
						"offset": 0,
						"slot": "0",
						"type": "t_mapping(t_bytes32,t_string_storage)"
					}
				],
				"types": {
					"t_bytes32": {
						"encoding": "inplace",
						"label": "bytes32",
						"numberOfBytes": "32"
					},
					"t_mapping(t_bytes32,t_string_storage)": {
						"encoding": "mapping",
						"key": "t_bytes32",
						"label": "mapping(bytes32 => string)",
						"numberOfBytes": "32",
						"value": "t_string_storage"
					},
					"t_string_storage": {
						"encoding": "bytes",
						"label": "string",
						"numberOfBytes": "32"
					}
				}
			},
			"userdoc": {
				"kind": "user",
				"methods": {},
				"version": 1
			}
		}
	}
}