{
  "_format": "hh-sol-artifact-1",
  "contractName": "ChainlinkCCIPImplementation",
  "sourceName": "contracts/ChainlinkCCIPImplementation.sol",
  "abi": [
    {
      "inputs": [
        {
          "internalType": "bytes32",
          "name": "_requestId",
          "type": "bytes32"
        }
      ],
      "name": "getResponse",
      "outputs": [
        {
          "internalType": "string",
          "name": "",
          "type": "string"
        }
      ],
      "stateMutability": "view",
      "type": "function"
    },
    {
      "inputs": [
        {
          "internalType": "bytes",
          "name": "data",
          "type": "bytes"
        }
      ],
      "name": "receiveData",
      "outputs": [],
      "stateMutability": "nonpayable",
      "type": "function"
    },
    {
      "inputs": [
        {
          "internalType": "string",
          "name": "_data",
          "type": "string"
        }
      ],
      "name": "request",
      "outputs": [
        {
          "internalType": "bytes32",
          "name": "",
          "type": "bytes32"
        }
      ],
      "stateMutability": "nonpayable",
      "type": "function"
    },
    {
      "inputs": [
        {
          "internalType": "address",
          "name": "destinationChain",
          "type": "address"
        },
        {
          "internalType": "bytes",
          "name": "data",
          "type": "bytes"
        }
      ],
      "name": "sendData",
      "outputs": [],
      "stateMutability": "nonpayable",
      "type": "function"
    }
  ],
  "bytecode": "0x6080604052348015600f57600080fd5b506109cc8061001f6000396000f3fe608060405234801561001057600080fd5b506004361061004c5760003560e01c80632c19988914610051578063415a2bc1146100815780638823d224146100b1578063b410f645146100cd575b600080fd5b61006b60048036038101906100669190610347565b6100e9565b60405161007891906103a9565b60405180910390f35b61009b600480360381019061009691906103f0565b610140565b6040516100a8919061049c565b60405180910390f35b6100cb60048036038101906100c6919061057c565b6101e4565b005b6100e760048036038101906100e291906105dc565b6101e9565b005b60008082426040516020016100ff929190610690565b60405160208183030381529060405280519060200120905082600080838152602001908152602001600020908161013691906108c4565b5080915050919050565b6060600080838152602001908152602001600020805461015f906106e7565b80601f016020809104026020016040519081016040528092919081815260200182805461018b906106e7565b80156101d85780601f106101ad576101008083540402835291602001916101d8565b820191906000526020600020905b8154815290600101906020018083116101bb57829003601f168201915b50505050509050919050565b505050565b5050565b6000604051905090565b600080fd5b600080fd5b600080fd5b600080fd5b6000601f19601f8301169050919050565b7f4e487b7100000000000000000000000000000000000000000000000000000000600052604160045260246000fd5b6102548261020b565b810181811067ffffffffffffffff821117156102735761027261021c565b5b80604052505050565b60006102866101ed565b9050610292828261024b565b919050565b600067ffffffffffffffff8211156102b2576102b161021c565b5b6102bb8261020b565b9050602081019050919050565b82818337600083830152505050565b60006102ea6102e584610297565b61027c565b90508281526020810184848401111561030657610305610206565b5b6103118482856102c8565b509392505050565b600082601f83011261032e5761032d610201565b5b813561033e8482602086016102d7565b91505092915050565b60006020828403121561035d5761035c6101f7565b5b600082013567ffffffffffffffff81111561037b5761037a6101fc565b5b61038784828501610319565b91505092915050565b6000819050919050565b6103a381610390565b82525050565b60006020820190506103be600083018461039a565b92915050565b6103cd81610390565b81146103d857600080fd5b50565b6000813590506103ea816103c4565b92915050565b600060208284031215610406576104056101f7565b5b6000610414848285016103db565b91505092915050565b600081519050919050565b600082825260208201905092915050565b60005b8381101561045757808201518184015260208101905061043c565b60008484015250505050565b600061046e8261041d565b6104788185610428565b9350610488818560208601610439565b6104918161020b565b840191505092915050565b600060208201905081810360008301526104b68184610463565b905092915050565b600073ffffffffffffffffffffffffffffffffffffffff82169050919050565b60006104e9826104be565b9050919050565b6104f9816104de565b811461050457600080fd5b50565b600081359050610516816104f0565b92915050565b600080fd5b600080fd5b60008083601f84011261053c5761053b610201565b5b8235905067ffffffffffffffff8111156105595761055861051c565b5b60208301915083600182028301111561057557610574610521565b5b9250929050565b600080600060408486031215610595576105946101f7565b5b60006105a386828701610507565b935050602084013567ffffffffffffffff8111156105c4576105c36101fc565b5b6105d086828701610526565b92509250509250925092565b600080602083850312156105f3576105f26101f7565b5b600083013567ffffffffffffffff811115610611576106106101fc565b5b61061d85828601610526565b92509250509250929050565b600081905092915050565b600061063f8261041d565b6106498185610629565b9350610659818560208601610439565b80840191505092915050565b6000819050919050565b6000819050919050565b61068a61068582610665565b61066f565b82525050565b600061069c8285610634565b91506106a88284610679565b6020820191508190509392505050565b7f4e487b7100000000000000000000000000000000000000000000000000000000600052602260045260246000fd5b600060028204905060018216806106ff57607f821691505b602082108103610712576107116106b8565b5b50919050565b60008190508160005260206000209050919050565b60006020601f8301049050919050565b600082821b905092915050565b60006008830261077a7fffffffffffffffffffffffffffffffffffffffffffffffffffffffffffffffff8261073d565b610784868361073d565b95508019841693508086168417925050509392505050565b6000819050919050565b60006107c16107bc6107b784610665565b61079c565b610665565b9050919050565b6000819050919050565b6107db836107a6565b6107ef6107e7826107c8565b84845461074a565b825550505050565b600090565b6108046107f7565b61080f8184846107d2565b505050565b5b81811015610833576108286000826107fc565b600181019050610815565b5050565b601f8211156108785761084981610718565b6108528461072d565b81016020851015610861578190505b61087561086d8561072d565b830182610814565b50505b505050565b600082821c905092915050565b600061089b6000198460080261087d565b1980831691505092915050565b60006108b4838361088a565b9150826002028217905092915050565b6108cd8261041d565b67ffffffffffffffff8111156108e6576108e561021c565b5b6108f082546106e7565b6108fb828285610837565b600060209050601f83116001811461092e576000841561091c578287015190505b61092685826108a8565b86555061098e565b601f19841661093c86610718565b60005b828110156109645784890151825560018201915060208501945060208101905061093f565b86831015610981578489015161097d601f89168261088a565b8355505b6001600288020188555050505b50505050505056fea2646970667358221220646e1f063bef32339eba7513eaae8de9599f674bb21af703af6949d760dff4e764736f6c634300081a0033",
  "linkReferences": {},
  "deployedLinkReferences": {}
}