{
  "_format": "hh-sol-artifact-1",
  "contractName": "EASImplementation",
  "sourceName": "contracts/EASImplementation.sol",
  "abi": [
    {
      "inputs": [],
      "stateMutability": "nonpayable",
      "type": "constructor"
    },
    {
      "inputs": [
        {
          "internalType": "uint256",
          "name": "attestationId",
          "type": "uint256"
        },
        {
          "internalType": "bytes32",
          "name": "hash",
          "type": "bytes32"
        }
      ],
      "name": "verify",
      "outputs": [
        {
          "internalType": "bool",
          "name": "",
          "type": "bool"
        }
      ],
      "stateMutability": "view",
      "type": "function"
    }
  ],
  "bytecode": "0x608060405234801561001057600080fd5b50604051602001610020906100e5565b60405160208183030381529060405280519060200120600080600181526020019081526020016000208190555060405160200161005c90610146565b60405160208183030381529060405280519060200120600080600281526020019081526020016000208190555061015b565b600081905092915050565b7f6578616d706c6520686173682031000000000000000000000000000000000000600082015250565b60006100cf600e8361008e565b91506100da82610099565b600e82019050919050565b60006100f0826100c2565b9150819050919050565b7f6578616d706c6520686173682032000000000000000000000000000000000000600082015250565b6000610130600e8361008e565b915061013b826100fa565b600e82019050919050565b600061015182610123565b9150819050919050565b61019c8061016a6000396000f3fe608060405234801561001057600080fd5b506004361061002b5760003560e01c80631d97ce3114610030575b600080fd5b61004a600480360381019061004591906100f0565b610060565b604051610057919061014b565b60405180910390f35b6000816000808581526020019081526020016000205414905092915050565b600080fd5b6000819050919050565b61009781610084565b81146100a257600080fd5b50565b6000813590506100b48161008e565b92915050565b6000819050919050565b6100cd816100ba565b81146100d857600080fd5b50565b6000813590506100ea816100c4565b92915050565b600080604083850312156101075761010661007f565b5b6000610115858286016100a5565b9250506020610126858286016100db565b9150509250929050565b60008115159050919050565b61014581610130565b82525050565b6000602082019050610160600083018461013c565b9291505056fea26469706673582212206584352af5b1ff3eb5e136c10d0f7a01bdffc5f16ecd7b9503316952502b74ee64736f6c634300081a0033",
  "linkReferences": {},
  "deployedLinkReferences": {}
}