{
  "_format": "hh-sol-artifact-1",
  "contractName": "Diagnostic",
  "sourceName": "contracts/Diagnostic.sol",
  "abi": [
    {
      "inputs": [],
      "stateMutability": "nonpayable",
      "type": "constructor"
    },
    {
      "inputs": [
        {
          "internalType": "uint256",
          "name": "value",
          "type": "uint256"
        },
        {
          "internalType": "uint256",
          "name": "length",
          "type": "uint256"
        }
      ],
      "name": "StringsInsufficientHexLength",
      "type": "error"
    },
    {
      "anonymous": false,
      "inputs": [
        {
          "indexed": true,
          "internalType": "bytes32",
          "name": "role",
          "type": "bytes32"
        },
        {
          "indexed": true,
          "internalType": "bytes32",
          "name": "previousAdminRole",
          "type": "bytes32"
        },
        {
          "indexed": true,
          "internalType": "bytes32",
          "name": "newAdminRole",
          "type": "bytes32"
        }
      ],
      "name": "RoleAdminChanged",
      "type": "event"
    },
    {
      "anonymous": false,
      "inputs": [
        {
          "indexed": true,
          "internalType": "bytes32",
          "name": "role",
          "type": "bytes32"
        },
        {
          "indexed": true,
          "internalType": "address",
          "name": "account",
          "type": "address"
        },
        {
          "indexed": true,
          "internalType": "address",
          "name": "sender",
          "type": "address"
        }
      ],
      "name": "RoleGranted",
      "type": "event"
    },
    {
      "anonymous": false,
      "inputs": [
        {
          "indexed": true,
          "internalType": "bytes32",
          "name": "role",
          "type": "bytes32"
        },
        {
          "indexed": true,
          "internalType": "address",
          "name": "account",
          "type": "address"
        },
        {
          "indexed": true,
          "internalType": "address",
          "name": "sender",
          "type": "address"
        }
      ],
      "name": "RoleRevoked",
      "type": "event"
    },
    {
      "inputs": [],
      "name": "DEFAULT_ADMIN_ROLE",
      "outputs": [
        {
          "internalType": "bytes32",
          "name": "",
          "type": "bytes32"
        }
      ],
      "stateMutability": "view",
      "type": "function"
    },
    {
      "inputs": [
        {
          "internalType": "bytes32",
          "name": "role",
          "type": "bytes32"
        }
      ],
      "name": "getRoleAdmin",
      "outputs": [
        {
          "internalType": "bytes32",
          "name": "",
          "type": "bytes32"
        }
      ],
      "stateMutability": "view",
      "type": "function"
    },
    {
      "inputs": [
        {
          "internalType": "bytes32",
          "name": "role",
          "type": "bytes32"
        },
        {
          "internalType": "address",
          "name": "account",
          "type": "address"
        }
      ],
      "name": "grantRole",
      "outputs": [],
      "stateMutability": "nonpayable",
      "type": "function"
    },
    {
      "inputs": [
        {
          "internalType": "bytes32",
          "name": "role",
          "type": "bytes32"
        },
        {
          "internalType": "address",
          "name": "account",
          "type": "address"
        }
      ],
      "name": "hasRole",
      "outputs": [
        {
          "internalType": "bool",
          "name": "",
          "type": "bool"
        }
      ],
      "stateMutability": "view",
      "type": "function"
    },
    {
      "inputs": [
        {
          "internalType": "bytes32",
          "name": "role",
          "type": "bytes32"
        },
        {
          "internalType": "address",
          "name": "account",
          "type": "address"
        }
      ],
      "name": "renounceRole",
      "outputs": [],
      "stateMutability": "nonpayable",
      "type": "function"
    },
    {
      "inputs": [
        {
          "internalType": "bytes32",
          "name": "role",
          "type": "bytes32"
        },
        {
          "internalType": "address",
          "name": "account",
          "type": "address"
        }
      ],
      "name": "revokeRole",
      "outputs": [],
      "stateMutability": "nonpayable",
      "type": "function"
    },
    {
      "inputs": [
        {
          "internalType": "bytes4",
          "name": "interfaceId",
          "type": "bytes4"
        }
      ],
      "name": "supportsInterface",
      "outputs": [
        {
          "internalType": "bool",
          "name": "",
          "type": "bool"
        }
      ],
      "stateMutability": "view",
      "type": "function"
    }
  ],
  "bytecode": "0x608060405234801561001057600080fd5b506100316000801b61002661003660201b60201c565b61003e60201b60201c565b610194565b600033905090565b61004e828261012a60201b60201c565b61012657600160008084815260200190815260200160002060000160008373ffffffffffffffffffffffffffffffffffffffff1673ffffffffffffffffffffffffffffffffffffffff16815260200190815260200160002060006101000a81548160ff0219169083151502179055506100cb61003660201b60201c565b73ffffffffffffffffffffffffffffffffffffffff168173ffffffffffffffffffffffffffffffffffffffff16837f2f8788117e7eff1d82e926ec794901d17c78024a50270940304540a733656f0d60405160405180910390a45b5050565b600080600084815260200190815260200160002060000160008373ffffffffffffffffffffffffffffffffffffffff1673ffffffffffffffffffffffffffffffffffffffff16815260200190815260200160002060009054906101000a900460ff16905092915050565b610e73806101a36000396000f3fe608060405234801561001057600080fd5b506004361061007d5760003560e01c806336568abe1161005b57806336568abe146100fe57806391d148541461011a578063a217fddf1461014a578063d547741f146101685761007d565b806301ffc9a714610082578063248a9ca3146100b25780632f2ff15d146100e2575b600080fd5b61009c600480360381019061009791906108ef565b610184565b6040516100a99190610937565b60405180910390f35b6100cc60048036038101906100c79190610988565b6101fe565b6040516100d991906109c4565b60405180910390f35b6100fc60048036038101906100f79190610a3d565b61021d565b005b61011860048036038101906101139190610a3d565b61023e565b005b610134600480360381019061012f9190610a3d565b6102c1565b6040516101419190610937565b60405180910390f35b61015261032b565b60405161015f91906109c4565b60405180910390f35b610182600480360381019061017d9190610a3d565b610332565b005b60007f7965db0b000000000000000000000000000000000000000000000000000000007bffffffffffffffffffffffffffffffffffffffffffffffffffffffff1916827bffffffffffffffffffffffffffffffffffffffffffffffffffffffff191614806101f757506101f682610353565b5b9050919050565b6000806000838152602001908152602001600020600101549050919050565b610226826101fe565b61022f816103bd565b61023983836103d1565b505050565b6102466104b1565b73ffffffffffffffffffffffffffffffffffffffff168173ffffffffffffffffffffffffffffffffffffffff16146102b3576040517f08c379a00000000000000000000000000000000000000000000000000000000081526004016102aa90610b00565b60405180910390fd5b6102bd82826104b9565b5050565b600080600084815260200190815260200160002060000160008373ffffffffffffffffffffffffffffffffffffffff1673ffffffffffffffffffffffffffffffffffffffff16815260200190815260200160002060009054906101000a900460ff16905092915050565b6000801b81565b61033b826101fe565b610344816103bd565b61034e83836104b9565b505050565b60007f01ffc9a7000000000000000000000000000000000000000000000000000000007bffffffffffffffffffffffffffffffffffffffffffffffffffffffff1916827bffffffffffffffffffffffffffffffffffffffffffffffffffffffff1916149050919050565b6103ce816103c96104b1565b61059a565b50565b6103db82826102c1565b6104ad57600160008084815260200190815260200160002060000160008373ffffffffffffffffffffffffffffffffffffffff1673ffffffffffffffffffffffffffffffffffffffff16815260200190815260200160002060006101000a81548160ff0219169083151502179055506104526104b1565b73ffffffffffffffffffffffffffffffffffffffff168173ffffffffffffffffffffffffffffffffffffffff16837f2f8788117e7eff1d82e926ec794901d17c78024a50270940304540a733656f0d60405160405180910390a45b5050565b600033905090565b6104c382826102c1565b1561059657600080600084815260200190815260200160002060000160008373ffffffffffffffffffffffffffffffffffffffff1673ffffffffffffffffffffffffffffffffffffffff16815260200190815260200160002060006101000a81548160ff02191690831515021790555061053b6104b1565b73ffffffffffffffffffffffffffffffffffffffff168173ffffffffffffffffffffffffffffffffffffffff16837ff6391f5c32d9c69d2a47ea670b442974b53935d1edc7fd64eb21e047a839171b60405160405180910390a45b5050565b6105a482826102c1565b61061b576105b18161061f565b6105bf8360001c602061064c565b6040516020016105d0929190610c29565b6040516020818303038152906040526040517f08c379a00000000000000000000000000000000000000000000000000000000081526004016106129190610cad565b60405180910390fd5b5050565b60606106458273ffffffffffffffffffffffffffffffffffffffff16601460ff1661064c565b9050919050565b60606000839050600060028460026106649190610d08565b61066e9190610d4a565b67ffffffffffffffff81111561068757610686610d7e565b5b6040519080825280601f01601f1916602001820160405280156106b95781602001600182028036833780820191505090505b5090507f3000000000000000000000000000000000000000000000000000000000000000816000815181106106f1576106f0610dad565b5b60200101907effffffffffffffffffffffffffffffffffffffffffffffffffffffffffffff1916908160001a9053507f78000000000000000000000000000000000000000000000000000000000000008160018151811061075557610754610dad565b5b60200101907effffffffffffffffffffffffffffffffffffffffffffffffffffffffffffff1916908160001a905350600060018560026107959190610d08565b61079f9190610d4a565b90505b600181111561083f577f3031323334353637383961626364656600000000000000000000000000000000600f8416601081106107e1576107e0610dad565b5b1a60f81b8282815181106107f8576107f7610dad565b5b60200101907effffffffffffffffffffffffffffffffffffffffffffffffffffffffffffff1916908160001a905350600483901c92508061083890610ddc565b90506107a2565b50600082146108875784846040517fe22e27eb00000000000000000000000000000000000000000000000000000000815260040161087e929190610e14565b60405180910390fd5b809250505092915050565b600080fd5b60007fffffffff0000000000000000000000000000000000000000000000000000000082169050919050565b6108cc81610897565b81146108d757600080fd5b50565b6000813590506108e9816108c3565b92915050565b60006020828403121561090557610904610892565b5b6000610913848285016108da565b91505092915050565b60008115159050919050565b6109318161091c565b82525050565b600060208201905061094c6000830184610928565b92915050565b6000819050919050565b61096581610952565b811461097057600080fd5b50565b6000813590506109828161095c565b92915050565b60006020828403121561099e5761099d610892565b5b60006109ac84828501610973565b91505092915050565b6109be81610952565b82525050565b60006020820190506109d960008301846109b5565b92915050565b600073ffffffffffffffffffffffffffffffffffffffff82169050919050565b6000610a0a826109df565b9050919050565b610a1a816109ff565b8114610a2557600080fd5b50565b600081359050610a3781610a11565b92915050565b60008060408385031215610a5457610a53610892565b5b6000610a6285828601610973565b9250506020610a7385828601610a28565b9150509250929050565b600082825260208201905092915050565b7f416363657373436f6e74726f6c3a2063616e206f6e6c792072656e6f756e636560008201527f20726f6c657320666f722073656c660000000000000000000000000000000000602082015250565b6000610aea602f83610a7d565b9150610af582610a8e565b604082019050919050565b60006020820190508181036000830152610b1981610add565b9050919050565b600081905092915050565b7f416363657373436f6e74726f6c3a206163636f756e7420000000000000000000600082015250565b6000610b61601783610b20565b9150610b6c82610b2b565b601782019050919050565b600081519050919050565b60005b83811015610ba0578082015181840152602081019050610b85565b60008484015250505050565b6000610bb782610b77565b610bc18185610b20565b9350610bd1818560208601610b82565b80840191505092915050565b7f206973206d697373696e6720726f6c6520000000000000000000000000000000600082015250565b6000610c13601183610b20565b9150610c1e82610bdd565b601182019050919050565b6000610c3482610b54565b9150610c408285610bac565b9150610c4b82610c06565b9150610c578284610bac565b91508190509392505050565b6000601f19601f8301169050919050565b6000610c7f82610b77565b610c898185610a7d565b9350610c99818560208601610b82565b610ca281610c63565b840191505092915050565b60006020820190508181036000830152610cc78184610c74565b905092915050565b6000819050919050565b7f4e487b7100000000000000000000000000000000000000000000000000000000600052601160045260246000fd5b6000610d1382610ccf565b9150610d1e83610ccf565b9250828202610d2c81610ccf565b91508282048414831517610d4357610d42610cd9565b5b5092915050565b6000610d5582610ccf565b9150610d6083610ccf565b9250828201905080821115610d7857610d77610cd9565b5b92915050565b7f4e487b7100000000000000000000000000000000000000000000000000000000600052604160045260246000fd5b7f4e487b7100000000000000000000000000000000000000000000000000000000600052603260045260246000fd5b6000610de782610ccf565b915060008203610dfa57610df9610cd9565b5b600182039050919050565b610e0e81610ccf565b82525050565b6000604082019050610e296000830185610e05565b610e366020830184610e05565b939250505056fea2646970667358221220af69a130fa3c7769ad8348f9f8e83bc7433b73dd275e3e56da34e6de7adab72864736f6c634300081a0033",
  "linkReferences": {},
  "deployedLinkReferences": {}
}