{
  "_format": "hh-sol-artifact-1",
  "contractName": "CrossChainBridgeImplementation",
  "sourceName": "contracts/CrossChainBridgeImplementation.sol",
  "abi": [
    {
      "inputs": [
        {
          "internalType": "address",
          "name": "recipient",
          "type": "address"
        },
        {
          "internalType": "uint256",
          "name": "amount",
          "type": "uint256"
        }
      ],
      "name": "bridgeTransfer",
      "outputs": [],
      "stateMutability": "nonpayable",
      "type": "function"
    }
  ],
  "bytecode": "0x6080604052348015600f57600080fd5b5061015f8061001f6000396000f3fe608060405234801561001057600080fd5b506004361061002b5760003560e01c8063b35dcee014610030575b600080fd5b61004a600480360381019061004591906100e9565b61004c565b005b5050565b600080fd5b600073ffffffffffffffffffffffffffffffffffffffff82169050919050565b600061008082610055565b9050919050565b61009081610075565b811461009b57600080fd5b50565b6000813590506100ad81610087565b92915050565b6000819050919050565b6100c6816100b3565b81146100d157600080fd5b50565b6000813590506100e3816100bd565b92915050565b60008060408385031215610100576100ff610050565b5b600061010e8582860161009e565b925050602061011f858286016100d4565b915050925092905056fea2646970667358221220bbde9d2cbd02291e874a43a822c30976b3a3183c310f633b4ee78f8a186de61564736f6c634300081a0033",
  "linkReferences": {},
  "deployedLinkReferences": {}
}