{
  "_format": "hh-sol-artifact-1",
  "contractName": "AttestationManagerImplementation",
  "sourceName": "contracts/AttestationManagerImplementation.sol",
  "abi": [
    {
      "inputs": [
        {
          "internalType": "address",
          "name": "subject",
          "type": "address"
        }
      ],
      "name": "getAttestation",
      "outputs": [
        {
          "internalType": "bytes32",
          "name": "",
          "type": "bytes32"
        }
      ],
      "stateMutability": "view",
      "type": "function"
    },
    {
      "inputs": [
        {
          "internalType": "address",
          "name": "subject",
          "type": "address"
        },
        {
          "internalType": "bytes32",
          "name": "data",
          "type": "bytes32"
        }
      ],
      "name": "setAttestation",
      "outputs": [],
      "stateMutability": "nonpayable",
      "type": "function"
    }
  ],
  "bytecode": "0x6080604052348015600f57600080fd5b5061027c8061001f6000396000f3fe608060405234801561001057600080fd5b50600436106100365760003560e01c8063bbeebecc1461003b578063f9b7179714610057575b600080fd5b610055600480360381019061005091906101af565b610087565b005b610071600480360381019061006c91906101ef565b6100ce565b60405161007e919061022b565b60405180910390f35b806000808473ffffffffffffffffffffffffffffffffffffffff1673ffffffffffffffffffffffffffffffffffffffff168152602001908152602001600020819055505050565b60008060008373ffffffffffffffffffffffffffffffffffffffff1673ffffffffffffffffffffffffffffffffffffffff168152602001908152602001600020549050919050565b600080fd5b600073ffffffffffffffffffffffffffffffffffffffff82169050919050565b60006101468261011b565b9050919050565b6101568161013b565b811461016157600080fd5b50565b6000813590506101738161014d565b92915050565b6000819050919050565b61018c81610179565b811461019757600080fd5b50565b6000813590506101a981610183565b92915050565b600080604083850312156101c6576101c5610116565b5b60006101d485828601610164565b92505060206101e58582860161019a565b9150509250929050565b60006020828403121561020557610204610116565b5b600061021384828501610164565b91505092915050565b61022581610179565b82525050565b6000602082019050610240600083018461021c565b9291505056fea2646970667358221220bddda6eafb4f1c14b25927d06ead93ade448c95d4dd6ef5c6e5fde62cd00acfe64736f6c634300081a0033",
  "linkReferences": {},
  "deployedLinkReferences": {}
}