{
  "_format": "hh-sol-artifact-1",
  "contractName": "Registry",
  "sourceName": "contracts/Registry.sol",
  "abi": [
    {
      "inputs": [
        {
          "internalType": "address",
          "name": "attestationManagerAddress",
          "type": "address"
        }
      ],
      "stateMutability": "nonpayable",
      "type": "constructor"
    },
    {
      "inputs": [
        {
          "internalType": "uint256",
          "name": "value",
          "type": "uint256"
        },
        {
          "internalType": "uint256",
          "name": "length",
          "type": "uint256"
        }
      ],
      "name": "StringsInsufficientHexLength",
      "type": "error"
    },
    {
      "anonymous": false,
      "inputs": [
        {
          "indexed": true,
          "internalType": "address",
          "name": "previousOwner",
          "type": "address"
        },
        {
          "indexed": true,
          "internalType": "address",
          "name": "newOwner",
          "type": "address"
        }
      ],
      "name": "OwnershipTransferred",
      "type": "event"
    },
    {
      "anonymous": false,
      "inputs": [
        {
          "indexed": true,
          "internalType": "bytes32",
          "name": "hash",
          "type": "bytes32"
        },
        {
          "indexed": true,
          "internalType": "address",
          "name": "registrant",
          "type": "address"
        },
        {
          "indexed": false,
          "internalType": "bytes32",
          "name": "attestationHash",
          "type": "bytes32"
        }
      ],
      "name": "Registered",
      "type": "event"
    },
    {
      "anonymous": false,
      "inputs": [
        {
          "indexed": true,
          "internalType": "bytes32",
          "name": "role",
          "type": "bytes32"
        },
        {
          "indexed": true,
          "internalType": "bytes32",
          "name": "previousAdminRole",
          "type": "bytes32"
        },
        {
          "indexed": true,
          "internalType": "bytes32",
          "name": "newAdminRole",
          "type": "bytes32"
        }
      ],
      "name": "RoleAdminChanged",
      "type": "event"
    },
    {
      "anonymous": false,
      "inputs": [
        {
          "indexed": true,
          "internalType": "bytes32",
          "name": "role",
          "type": "bytes32"
        },
        {
          "indexed": true,
          "internalType": "address",
          "name": "account",
          "type": "address"
        },
        {
          "indexed": true,
          "internalType": "address",
          "name": "sender",
          "type": "address"
        }
      ],
      "name": "RoleGranted",
      "type": "event"
    },
    {
      "anonymous": false,
      "inputs": [
        {
          "indexed": true,
          "internalType": "bytes32",
          "name": "role",
          "type": "bytes32"
        },
        {
          "indexed": true,
          "internalType": "address",
          "name": "account",
          "type": "address"
        },
        {
          "indexed": true,
          "internalType": "address",
          "name": "sender",
          "type": "address"
        }
      ],
      "name": "RoleRevoked",
      "type": "event"
    },
    {
      "anonymous": false,
      "inputs": [
        {
          "indexed": true,
          "internalType": "bytes32",
          "name": "hash",
          "type": "bytes32"
        },
        {
          "indexed": true,
          "internalType": "address",
          "name": "unregistrant",
          "type": "address"
        }
      ],
      "name": "Unregistered",
      "type": "event"
    },
    {
      "inputs": [],
      "name": "ADMIN_ROLE",
      "outputs": [
        {
          "internalType": "bytes32",
          "name": "",
          "type": "bytes32"
        }
      ],
      "stateMutability": "view",
      "type": "function"
    },
    {
      "inputs": [],
      "name": "DEFAULT_ADMIN_ROLE",
      "outputs": [
        {
          "internalType": "bytes32",
          "name": "",
          "type": "bytes32"
        }
      ],
      "stateMutability": "view",
      "type": "function"
    },
    {
      "inputs": [],
      "name": "attestationManager",
      "outputs": [
        {
          "internalType": "contract AttestationManager",
          "name": "",
          "type": "address"
        }
      ],
      "stateMutability": "view",
      "type": "function"
    },
    {
      "inputs": [
        {
          "internalType": "bytes32",
          "name": "hash",
          "type": "bytes32"
        }
      ],
      "name": "getRegistration",
      "outputs": [
        {
          "internalType": "address",
          "name": "registrant",
          "type": "address"
        },
        {
          "internalType": "bytes32",
          "name": "attestationHash",
          "type": "bytes32"
        }
      ],
      "stateMutability": "view",
      "type": "function"
    },
    {
      "inputs": [
        {
          "internalType": "bytes32",
          "name": "role",
          "type": "bytes32"
        }
      ],
      "name": "getRoleAdmin",
      "outputs": [
        {
          "internalType": "bytes32",
          "name": "",
          "type": "bytes32"
        }
      ],
      "stateMutability": "view",
      "type": "function"
    },
    {
      "inputs": [
        {
          "internalType": "bytes32",
          "name": "role",
          "type": "bytes32"
        },
        {
          "internalType": "uint256",
          "name": "index",
          "type": "uint256"
        }
      ],
      "name": "getRoleMember",
      "outputs": [
        {
          "internalType": "address",
          "name": "",
          "type": "address"
        }
      ],
      "stateMutability": "view",
      "type": "function"
    },
    {
      "inputs": [
        {
          "internalType": "bytes32",
          "name": "role",
          "type": "bytes32"
        }
      ],
      "name": "getRoleMemberCount",
      "outputs": [
        {
          "internalType": "uint256",
          "name": "",
          "type": "uint256"
        }
      ],
      "stateMutability": "view",
      "type": "function"
    },
    {
      "inputs": [
        {
          "internalType": "bytes32",
          "name": "role",
          "type": "bytes32"
        },
        {
          "internalType": "address",
          "name": "account",
          "type": "address"
        }
      ],
      "name": "grantRole",
      "outputs": [],
      "stateMutability": "nonpayable",
      "type": "function"
    },
    {
      "inputs": [
        {
          "internalType": "bytes32",
          "name": "role",
          "type": "bytes32"
        },
        {
          "internalType": "address",
          "name": "account",
          "type": "address"
        }
      ],
      "name": "hasRole",
      "outputs": [
        {
          "internalType": "bool",
          "name": "",
          "type": "bool"
        }
      ],
      "stateMutability": "view",
      "type": "function"
    },
    {
      "inputs": [],
      "name": "owner",
      "outputs": [
        {
          "internalType": "address",
          "name": "",
          "type": "address"
        }
      ],
      "stateMutability": "view",
      "type": "function"
    },
    {
      "inputs": [
        {
          "internalType": "bytes32",
          "name": "hash",
          "type": "bytes32"
        },
        {
          "internalType": "bytes32",
          "name": "attestationHash",
          "type": "bytes32"
        }
      ],
      "name": "register",
      "outputs": [],
      "stateMutability": "nonpayable",
      "type": "function"
    },
    {
      "inputs": [],
      "name": "renounceOwnership",
      "outputs": [],
      "stateMutability": "nonpayable",
      "type": "function"
    },
    {
      "inputs": [
        {
          "internalType": "bytes32",
          "name": "role",
          "type": "bytes32"
        },
        {
          "internalType": "address",
          "name": "account",
          "type": "address"
        }
      ],
      "name": "renounceRole",
      "outputs": [],
      "stateMutability": "nonpayable",
      "type": "function"
    },
    {
      "inputs": [
        {
          "internalType": "bytes32",
          "name": "role",
          "type": "bytes32"
        },
        {
          "internalType": "address",
          "name": "account",
          "type": "address"
        }
      ],
      "name": "revokeRole",
      "outputs": [],
      "stateMutability": "nonpayable",
      "type": "function"
    },
    {
      "inputs": [
        {
          "internalType": "bytes4",
          "name": "interfaceId",
          "type": "bytes4"
        }
      ],
      "name": "supportsInterface",
      "outputs": [
        {
          "internalType": "bool",
          "name": "",
          "type": "bool"
        }
      ],
      "stateMutability": "view",
      "type": "function"
    },
    {
      "inputs": [
        {
          "internalType": "address",
          "name": "newOwner",
          "type": "address"
        }
      ],
      "name": "transferOwnership",
      "outputs": [],
      "stateMutability": "nonpayable",
      "type": "function"
    },
    {
      "inputs": [
        {
          "internalType": "bytes32",
          "name": "hash",
          "type": "bytes32"
        }
      ],
      "name": "unregister",
      "outputs": [],
      "stateMutability": "nonpayable",
      "type": "function"
    },
    {
      "inputs": [
        {
          "internalType": "address",
          "name": "newAttestationManager",
          "type": "address"
        }
      ],
      "name": "updateAttestationManager",
      "outputs": [],
      "stateMutability": "nonpayable",
      "type": "function"
    }
  ],
  "bytecode": "0x608060405234801561001057600080fd5b506040516124fd3803806124fd833981810160405281019061003291906104ec565b61004e6100436100db60201b60201c565b6100e360201b60201c565b80600460006101000a81548173ffffffffffffffffffffffffffffffffffffffff021916908373ffffffffffffffffffffffffffffffffffffffff1602179055506100a26000801b336101a760201b60201c565b6100d57fa49807205ce4d355092ef5a8a18f56e8913cf4a201fbe287825b095693c217756000801b6101e160201b60201c565b50610519565b600033905090565b60008060009054906101000a900473ffffffffffffffffffffffffffffffffffffffff169050816000806101000a81548173ffffffffffffffffffffffffffffffffffffffff021916908373ffffffffffffffffffffffffffffffffffffffff1602179055508173ffffffffffffffffffffffffffffffffffffffff168173ffffffffffffffffffffffffffffffffffffffff167f8be0079c531659141344cd1fd0a4f28419497f9722a3daafe3b4186f6b6457e060405160405180910390a35050565b6101b7828261024360201b60201c565b6101dc816002600085815260200190815260200160002061032f60201b90919060201c565b505050565b60006101f28361036560201b60201c565b90508160016000858152602001908152602001600020600101819055508181847fbd79b86ffe0ab8e8776151514217cd7cacd52c909f66475c3af44e129f0b00ff60405160405180910390a4505050565b610253828261038560201b60201c565b61032b57600180600084815260200190815260200160002060000160008373ffffffffffffffffffffffffffffffffffffffff1673ffffffffffffffffffffffffffffffffffffffff16815260200190815260200160002060006101000a81548160ff0219169083151502179055506102d06100db60201b60201c565b73ffffffffffffffffffffffffffffffffffffffff168173ffffffffffffffffffffffffffffffffffffffff16837f2f8788117e7eff1d82e926ec794901d17c78024a50270940304540a733656f0d60405160405180910390a45b5050565b600061035d836000018373ffffffffffffffffffffffffffffffffffffffff1660001b6103f060201b60201c565b905092915050565b600060016000838152602001908152602001600020600101549050919050565b60006001600084815260200190815260200160002060000160008373ffffffffffffffffffffffffffffffffffffffff1673ffffffffffffffffffffffffffffffffffffffff16815260200190815260200160002060009054906101000a900460ff16905092915050565b6000610402838361046660201b60201c565b61045b578260000182908060018154018082558091505060019003906000526020600020016000909190919091505582600001805490508360010160008481526020019081526020016000208190555060019050610460565b600090505b92915050565b600080836001016000848152602001908152602001600020541415905092915050565b600080fd5b600073ffffffffffffffffffffffffffffffffffffffff82169050919050565b60006104b98261048e565b9050919050565b6104c9816104ae565b81146104d457600080fd5b50565b6000815190506104e6816104c0565b92915050565b60006020828403121561050257610501610489565b5b6000610510848285016104d7565b91505092915050565b611fd5806105286000396000f3fe608060405234801561001057600080fd5b50600436106101165760003560e01c80638da5cb5b116100a2578063a217fddf11610071578063a217fddf146102de578063b1c16bf1146102fc578063ca15c8731461031a578063d547741f1461034a578063f2fde38b1461036657610116565b80638da5cb5b1461022f5780639010d07c1461024d57806391d148541461027d5780639dccc5bf146102ad57610116565b80632f926732116100e95780632f926732146101b357806336568abe146101cf5780633f94f00b146101eb578063715018a61461020757806375b238fc1461021157610116565b806301ffc9a71461011b5780631a0919dc1461014b578063248a9ca3146101675780632f2ff15d14610197575b600080fd5b610135600480360381019061013091906115eb565b610382565b6040516101429190611633565b60405180910390f35b61016560048036038101906101609190611684565b6103fc565b005b610181600480360381019061017c9190611684565b6105d2565b60405161018e91906116c0565b60405180910390f35b6101b160048036038101906101ac9190611739565b6105f2565b005b6101cd60048036038101906101c89190611779565b610613565b005b6101e960048036038101906101e49190611739565b610806565b005b610205600480360381019061020091906117b9565b610889565b005b61020f6108d5565b005b6102196108e9565b60405161022691906116c0565b60405180910390f35b61023761090d565b60405161024491906117f5565b60405180910390f35b61026760048036038101906102629190611846565b610936565b60405161027491906117f5565b60405180910390f35b61029760048036038101906102929190611739565b610965565b6040516102a49190611633565b60405180910390f35b6102c760048036038101906102c29190611684565b6109d0565b6040516102d5929190611886565b60405180910390f35b6102e6610ac3565b6040516102f391906116c0565b60405180910390f35b610304610aca565b604051610311919061190e565b60405180910390f35b610334600480360381019061032f9190611684565b610af0565b6040516103419190611938565b60405180910390f35b610364600480360381019061035f9190611739565b610b14565b005b610380600480360381019061037b91906117b9565b610b35565b005b60007f5a05180f000000000000000000000000000000000000000000000000000000007bffffffffffffffffffffffffffffffffffffffffffffffffffffffff1916827bffffffffffffffffffffffffffffffffffffffffffffffffffffffff191614806103f557506103f482610bb8565b5b9050919050565b6104267fa49807205ce4d355092ef5a8a18f56e8913cf4a201fbe287825b095693c2177533610965565b610465576040517f08c379a000000000000000000000000000000000000000000000000000000000815260040161045c906119b0565b60405180910390fd5b600073ffffffffffffffffffffffffffffffffffffffff166003600083815260200190815260200160002060000160009054906101000a900473ffffffffffffffffffffffffffffffffffffffff1673ffffffffffffffffffffffffffffffffffffffff160361050a576040517f08c379a000000000000000000000000000000000000000000000000000000000815260040161050190611a1c565b60405180910390fd5b60006003600083815260200190815260200160002060000160009054906101000a900473ffffffffffffffffffffffffffffffffffffffff16905060036000838152602001908152602001600020600080820160006101000a81549073ffffffffffffffffffffffffffffffffffffffff0219169055600182016000905550508073ffffffffffffffffffffffffffffffffffffffff16827f8ccd0c732628fd2356066fba88d1f3689e30b5cb6ddeede43ab8b5d93e02292260405160405180910390a35050565b600060016000838152602001908152602001600020600101549050919050565b6105fb826105d2565b61060481610c32565b61060e8383610c46565b505050565b61063d7fa49807205ce4d355092ef5a8a18f56e8913cf4a201fbe287825b095693c2177533610965565b61067c576040517f08c379a0000000000000000000000000000000000000000000000000000000008152600401610673906119b0565b60405180910390fd5b600073ffffffffffffffffffffffffffffffffffffffff166003600084815260200190815260200160002060000160009054906101000a900473ffffffffffffffffffffffffffffffffffffffff1673ffffffffffffffffffffffffffffffffffffffff1614610721576040517f08c379a000000000000000000000000000000000000000000000000000000000815260040161071890611a88565b60405180910390fd5b60405180604001604052803373ffffffffffffffffffffffffffffffffffffffff168152602001828152506003600084815260200190815260200160002060008201518160000160006101000a81548173ffffffffffffffffffffffffffffffffffffffff021916908373ffffffffffffffffffffffffffffffffffffffff160217905550602082015181600101559050503373ffffffffffffffffffffffffffffffffffffffff16827fd92db819e1489b1bc4fbd34e0f9138db597a142b11bcfa8b1e5c473505c02553836040516107fa91906116c0565b60405180910390a35050565b61080e610c7a565b73ffffffffffffffffffffffffffffffffffffffff168173ffffffffffffffffffffffffffffffffffffffff161461087b576040517f08c379a000000000000000000000000000000000000000000000000000000000815260040161087290611b1a565b60405180910390fd5b6108858282610c82565b5050565b610891610cb6565b80600460006101000a81548173ffffffffffffffffffffffffffffffffffffffff021916908373ffffffffffffffffffffffffffffffffffffffff16021790555050565b6108dd610cb6565b6108e76000610d34565b565b7fa49807205ce4d355092ef5a8a18f56e8913cf4a201fbe287825b095693c2177581565b60008060009054906101000a900473ffffffffffffffffffffffffffffffffffffffff16905090565b600061095d8260026000868152602001908152602001600020610df890919063ffffffff16565b905092915050565b60006001600084815260200190815260200160002060000160008373ffffffffffffffffffffffffffffffffffffffff1673ffffffffffffffffffffffffffffffffffffffff16815260200190815260200160002060009054906101000a900460ff16905092915050565b600080600073ffffffffffffffffffffffffffffffffffffffff166003600085815260200190815260200160002060000160009054906101000a900473ffffffffffffffffffffffffffffffffffffffff1673ffffffffffffffffffffffffffffffffffffffff1603610a78576040517f08c379a0000000000000000000000000000000000000000000000000000000008152600401610a6f90611a1c565b60405180910390fd5b60006003600085815260200190815260200160002090508060000160009054906101000a900473ffffffffffffffffffffffffffffffffffffffff1681600101549250925050915091565b6000801b81565b600460009054906101000a900473ffffffffffffffffffffffffffffffffffffffff1681565b6000610b0d60026000848152602001908152602001600020610e12565b9050919050565b610b1d826105d2565b610b2681610c32565b610b308383610c82565b505050565b610b3d610cb6565b600073ffffffffffffffffffffffffffffffffffffffff168173ffffffffffffffffffffffffffffffffffffffff1603610bac576040517f08c379a0000000000000000000000000000000000000000000000000000000008152600401610ba390611bac565b60405180910390fd5b610bb581610d34565b50565b60007f7965db0b000000000000000000000000000000000000000000000000000000007bffffffffffffffffffffffffffffffffffffffffffffffffffffffff1916827bffffffffffffffffffffffffffffffffffffffffffffffffffffffff19161480610c2b5750610c2a82610e27565b5b9050919050565b610c4381610c3e610c7a565b610e91565b50565b610c508282610f16565b610c758160026000858152602001908152602001600020610ff690919063ffffffff16565b505050565b600033905090565b610c8c8282611026565b610cb1816002600085815260200190815260200160002061110890919063ffffffff16565b505050565b610cbe610c7a565b73ffffffffffffffffffffffffffffffffffffffff16610cdc61090d565b73ffffffffffffffffffffffffffffffffffffffff1614610d32576040517f08c379a0000000000000000000000000000000000000000000000000000000008152600401610d2990611c18565b60405180910390fd5b565b60008060009054906101000a900473ffffffffffffffffffffffffffffffffffffffff169050816000806101000a81548173ffffffffffffffffffffffffffffffffffffffff021916908373ffffffffffffffffffffffffffffffffffffffff1602179055508173ffffffffffffffffffffffffffffffffffffffff168173ffffffffffffffffffffffffffffffffffffffff167f8be0079c531659141344cd1fd0a4f28419497f9722a3daafe3b4186f6b6457e060405160405180910390a35050565b6000610e078360000183611138565b60001c905092915050565b6000610e2082600001611163565b9050919050565b60007f01ffc9a7000000000000000000000000000000000000000000000000000000007bffffffffffffffffffffffffffffffffffffffffffffffffffffffff1916827bffffffffffffffffffffffffffffffffffffffffffffffffffffffff1916149050919050565b610e9b8282610965565b610f1257610ea881611174565b610eb68360001c60206111a1565b604051602001610ec7929190611d41565b6040516020818303038152906040526040517f08c379a0000000000000000000000000000000000000000000000000000000008152600401610f099190611dc5565b60405180910390fd5b5050565b610f208282610965565b610ff257600180600084815260200190815260200160002060000160008373ffffffffffffffffffffffffffffffffffffffff1673ffffffffffffffffffffffffffffffffffffffff16815260200190815260200160002060006101000a81548160ff021916908315150217905550610f97610c7a565b73ffffffffffffffffffffffffffffffffffffffff168173ffffffffffffffffffffffffffffffffffffffff16837f2f8788117e7eff1d82e926ec794901d17c78024a50270940304540a733656f0d60405160405180910390a45b5050565b600061101e836000018373ffffffffffffffffffffffffffffffffffffffff1660001b6113e7565b905092915050565b6110308282610965565b156111045760006001600084815260200190815260200160002060000160008373ffffffffffffffffffffffffffffffffffffffff1673ffffffffffffffffffffffffffffffffffffffff16815260200190815260200160002060006101000a81548160ff0219169083151502179055506110a9610c7a565b73ffffffffffffffffffffffffffffffffffffffff168173ffffffffffffffffffffffffffffffffffffffff16837ff6391f5c32d9c69d2a47ea670b442974b53935d1edc7fd64eb21e047a839171b60405160405180910390a45b5050565b6000611130836000018373ffffffffffffffffffffffffffffffffffffffff1660001b611457565b905092915050565b60008260000182815481106111505761114f611de7565b5b9060005260206000200154905092915050565b600081600001805490509050919050565b606061119a8273ffffffffffffffffffffffffffffffffffffffff16601460ff166111a1565b9050919050565b60606000839050600060028460026111b99190611e45565b6111c39190611e87565b67ffffffffffffffff8111156111dc576111db611ebb565b5b6040519080825280601f01601f19166020018201604052801561120e5781602001600182028036833780820191505090505b5090507f30000000000000000000000000000000000000000000000000000000000000008160008151811061124657611245611de7565b5b60200101907effffffffffffffffffffffffffffffffffffffffffffffffffffffffffffff1916908160001a9053507f7800000000000000000000000000000000000000000000000000000000000000816001815181106112aa576112a9611de7565b5b60200101907effffffffffffffffffffffffffffffffffffffffffffffffffffffffffffff1916908160001a905350600060018560026112ea9190611e45565b6112f49190611e87565b90505b6001811115611394577f3031323334353637383961626364656600000000000000000000000000000000600f84166010811061133657611335611de7565b5b1a60f81b82828151811061134d5761134c611de7565b5b60200101907effffffffffffffffffffffffffffffffffffffffffffffffffffffffffffff1916908160001a905350600483901c92508061138d90611eea565b90506112f7565b50600082146113dc5784846040517fe22e27eb0000000000000000000000000000000000000000000000000000000081526004016113d3929190611f13565b60405180910390fd5b809250505092915050565b60006113f3838361156b565b61144c578260000182908060018154018082558091505060019003906000526020600020016000909190919091505582600001805490508360010160008481526020019081526020016000208190555060019050611451565b600090505b92915050565b6000808360010160008481526020019081526020016000205490506000811461155f5760006001826114899190611f3c565b90506000600186600001805490506114a19190611f3c565b90508181146115105760008660000182815481106114c2576114c1611de7565b5b90600052602060002001549050808760000184815481106114e6576114e5611de7565b5b90600052602060002001819055508387600101600083815260200190815260200160002081905550505b8560000180548061152457611523611f70565b5b600190038181906000526020600020016000905590558560010160008681526020019081526020016000206000905560019350505050611565565b60009150505b92915050565b600080836001016000848152602001908152602001600020541415905092915050565b600080fd5b60007fffffffff0000000000000000000000000000000000000000000000000000000082169050919050565b6115c881611593565b81146115d357600080fd5b50565b6000813590506115e5816115bf565b92915050565b6000602082840312156116015761160061158e565b5b600061160f848285016115d6565b91505092915050565b60008115159050919050565b61162d81611618565b82525050565b60006020820190506116486000830184611624565b92915050565b6000819050919050565b6116618161164e565b811461166c57600080fd5b50565b60008135905061167e81611658565b92915050565b60006020828403121561169a5761169961158e565b5b60006116a88482850161166f565b91505092915050565b6116ba8161164e565b82525050565b60006020820190506116d560008301846116b1565b92915050565b600073ffffffffffffffffffffffffffffffffffffffff82169050919050565b6000611706826116db565b9050919050565b611716816116fb565b811461172157600080fd5b50565b6000813590506117338161170d565b92915050565b600080604083850312156117505761174f61158e565b5b600061175e8582860161166f565b925050602061176f85828601611724565b9150509250929050565b600080604083850312156117905761178f61158e565b5b600061179e8582860161166f565b92505060206117af8582860161166f565b9150509250929050565b6000602082840312156117cf576117ce61158e565b5b60006117dd84828501611724565b91505092915050565b6117ef816116fb565b82525050565b600060208201905061180a60008301846117e6565b92915050565b6000819050919050565b61182381611810565b811461182e57600080fd5b50565b6000813590506118408161181a565b92915050565b6000806040838503121561185d5761185c61158e565b5b600061186b8582860161166f565b925050602061187c85828601611831565b9150509250929050565b600060408201905061189b60008301856117e6565b6118a860208301846116b1565b9392505050565b6000819050919050565b60006118d46118cf6118ca846116db565b6118af565b6116db565b9050919050565b60006118e6826118b9565b9050919050565b60006118f8826118db565b9050919050565b611908816118ed565b82525050565b600060208201905061192360008301846118ff565b92915050565b61193281611810565b82525050565b600060208201905061194d6000830184611929565b92915050565b600082825260208201905092915050565b7f43616c6c6572206973206e6f7420616e2061646d696e00000000000000000000600082015250565b600061199a601683611953565b91506119a582611964565b602082019050919050565b600060208201905081810360008301526119c98161198d565b9050919050565b7f48617368206e6f74207265676973746572656400000000000000000000000000600082015250565b6000611a06601383611953565b9150611a11826119d0565b602082019050919050565b60006020820190508181036000830152611a35816119f9565b9050919050565b7f4861736820616c72656164792072656769737465726564000000000000000000600082015250565b6000611a72601783611953565b9150611a7d82611a3c565b602082019050919050565b60006020820190508181036000830152611aa181611a65565b9050919050565b7f416363657373436f6e74726f6c3a2063616e206f6e6c792072656e6f756e636560008201527f20726f6c657320666f722073656c660000000000000000000000000000000000602082015250565b6000611b04602f83611953565b9150611b0f82611aa8565b604082019050919050565b60006020820190508181036000830152611b3381611af7565b9050919050565b7f4f776e61626c653a206e6577206f776e657220697320746865207a65726f206160008201527f6464726573730000000000000000000000000000000000000000000000000000602082015250565b6000611b96602683611953565b9150611ba182611b3a565b604082019050919050565b60006020820190508181036000830152611bc581611b89565b9050919050565b7f4f776e61626c653a2063616c6c6572206973206e6f7420746865206f776e6572600082015250565b6000611c02602083611953565b9150611c0d82611bcc565b602082019050919050565b60006020820190508181036000830152611c3181611bf5565b9050919050565b600081905092915050565b7f416363657373436f6e74726f6c3a206163636f756e7420000000000000000000600082015250565b6000611c79601783611c38565b9150611c8482611c43565b601782019050919050565b600081519050919050565b60005b83811015611cb8578082015181840152602081019050611c9d565b60008484015250505050565b6000611ccf82611c8f565b611cd98185611c38565b9350611ce9818560208601611c9a565b80840191505092915050565b7f206973206d697373696e6720726f6c6520000000000000000000000000000000600082015250565b6000611d2b601183611c38565b9150611d3682611cf5565b601182019050919050565b6000611d4c82611c6c565b9150611d588285611cc4565b9150611d6382611d1e565b9150611d6f8284611cc4565b91508190509392505050565b6000601f19601f8301169050919050565b6000611d9782611c8f565b611da18185611953565b9350611db1818560208601611c9a565b611dba81611d7b565b840191505092915050565b60006020820190508181036000830152611ddf8184611d8c565b905092915050565b7f4e487b7100000000000000000000000000000000000000000000000000000000600052603260045260246000fd5b7f4e487b7100000000000000000000000000000000000000000000000000000000600052601160045260246000fd5b6000611e5082611810565b9150611e5b83611810565b9250828202611e6981611810565b91508282048414831517611e8057611e7f611e16565b5b5092915050565b6000611e9282611810565b9150611e9d83611810565b9250828201905080821115611eb557611eb4611e16565b5b92915050565b7f4e487b7100000000000000000000000000000000000000000000000000000000600052604160045260246000fd5b6000611ef582611810565b915060008203611f0857611f07611e16565b5b600182039050919050565b6000604082019050611f286000830185611929565b611f356020830184611929565b9392505050565b6000611f4782611810565b9150611f5283611810565b9250828203905081811115611f6a57611f69611e16565b5b92915050565b7f4e487b7100000000000000000000000000000000000000000000000000000000600052603160045260246000fdfea2646970667358221220b982c3fb508e93ade6fcff50d6fa6b0f4e58eac418d7cdc1f801d33469f65ff564736f6c634300081a0033",
  "linkReferences": {},
  "deployedLinkReferences": {}
}