{
  "_format": "hh-sol-artifact-1",
  "contractName": "TestTestAddressRegistry",
  "sourceName": "contracts/testContracts/AddressRegistry.sol",
  "abi": [
    {
      "anonymous": false,
      "inputs": [
        {
          "indexed": true,
          "internalType": "address",
          "name": "creator",
          "type": "address"
        },
        {
          "indexed": true,
          "internalType": "address",
          "name": "addr",
          "type": "address"
        },
        {
          "indexed": false,
          "internalType": "bool",
          "name": "isContract",
          "type": "bool"
        },
        {
          "indexed": false,
          "internalType": "bool",
          "name": "isProxy",
          "type": "bool"
        }
      ],
      "name": "AddressAdded",
      "type": "event"
    },
    {
      "anonymous": false,
      "inputs": [
        {
          "indexed": true,
          "internalType": "address",
          "name": "creator",
          "type": "address"
        },
        {
          "indexed": false,
          "internalType": "uint256",
          "name": "index",
          "type": "uint256"
        },
        {
          "indexed": true,
          "internalType": "address",
          "name": "addr",
          "type": "address"
        },
        {
          "indexed": false,
          "internalType": "bool",
          "name": "isContract",
          "type": "bool"
        },
        {
          "indexed": false,
          "internalType": "bool",
          "name": "isProxy",
          "type": "bool"
        }
      ],
      "name": "AddressUpdated",
      "type": "event"
    },
    {
      "anonymous": false,
      "inputs": [
        {
          "indexed": true,
          "internalType": "address",
          "name": "creator",
          "type": "address"
        }
      ],
      "name": "StructureCreated",
      "type": "event"
    },
    {
      "inputs": [
        {
          "internalType": "address",
          "name": "addr",
          "type": "address"
        },
        {
          "internalType": "bool",
          "name": "isContract",
          "type": "bool"
        },
        {
          "internalType": "bool",
          "name": "isProxy",
          "type": "bool"
        }
      ],
      "name": "addAddress",
      "outputs": [],
      "stateMutability": "nonpayable",
      "type": "function"
    },
    {
      "inputs": [],
      "name": "createStructure",
      "outputs": [],
      "stateMutability": "nonpayable",
      "type": "function"
    },
    {
      "inputs": [],
      "name": "finalizeStructure",
      "outputs": [],
      "stateMutability": "nonpayable",
      "type": "function"
    },
    {
      "inputs": [
        {
          "internalType": "address",
          "name": "creator",
          "type": "address"
        }
      ],
      "name": "getAddressStructure",
      "outputs": [
        {
          "components": [
            {
              "internalType": "address",
              "name": "addr",
              "type": "address"
            },
            {
              "internalType": "bool",
              "name": "isContract",
              "type": "bool"
            },
            {
              "internalType": "bool",
              "name": "isProxy",
              "type": "bool"
            }
          ],
          "internalType": "struct TestTestAddressRegistry.AddressInfo[]",
          "name": "",
          "type": "tuple[]"
        }
      ],
      "stateMutability": "view",
      "type": "function"
    },
    {
      "inputs": [
        {
          "internalType": "address",
          "name": "creator",
          "type": "address"
        }
      ],
      "name": "isEditable",
      "outputs": [
        {
          "internalType": "bool",
          "name": "",
          "type": "bool"
        }
      ],
      "stateMutability": "view",
      "type": "function"
    },
    {
      "inputs": [
        {
          "internalType": "uint256",
          "name": "index",
          "type": "uint256"
        },
        {
          "internalType": "address",
          "name": "addr",
          "type": "address"
        },
        {
          "internalType": "bool",
          "name": "isContract",
          "type": "bool"
        },
        {
          "internalType": "bool",
          "name": "isProxy",
          "type": "bool"
        }
      ],
      "name": "updateAddress",
      "outputs": [],
      "stateMutability": "nonpayable",
      "type": "function"
    }
  ],
  "bytecode": "0x6080604052348015600f57600080fd5b506112278061001f6000396000f3fe608060405234801561001057600080fd5b50600436106100625760003560e01c80634034e7861461006757806384ac378014610071578063a342980b146100a1578063a70e6b64146100ab578063cbbfd1c5146100db578063d3084a36146100f7575b600080fd5b61006f610113565b005b61008b60048036038101906100869190610ce2565b610296565b6040516100989190610d2a565b60405180910390f35b6100a961037a565b005b6100c560048036038101906100c09190610ce2565b6104f0565b6040516100d29190610e54565b60405180910390f35b6100f560048036038101906100f09190610ea2565b6106a4565b005b610111600480360381019061010c9190610f2b565b610954565b005b600160003373ffffffffffffffffffffffffffffffffffffffff1673ffffffffffffffffffffffffffffffffffffffff16815260200190815260200160002060009054906101000a900460ff16156101a0576040517f08c379a000000000000000000000000000000000000000000000000000000000815260040161019790610fef565b60405180910390fd5b60016000803373ffffffffffffffffffffffffffffffffffffffff1673ffffffffffffffffffffffffffffffffffffffff16815260200190815260200160002060010160006101000a81548160ff02191690831515021790555060018060003373ffffffffffffffffffffffffffffffffffffffff1673ffffffffffffffffffffffffffffffffffffffff16815260200190815260200160002060006101000a81548160ff0219169083151502179055503373ffffffffffffffffffffffffffffffffffffffff167fb7a1814f1b2a2cdfbeffae2404fdf415daead717e26a7dfbedff6ddf000b3f7b60405160405180910390a2565b6000600160008373ffffffffffffffffffffffffffffffffffffffff1673ffffffffffffffffffffffffffffffffffffffff16815260200190815260200160002060009054906101000a900460ff16610324576040517f08c379a000000000000000000000000000000000000000000000000000000000815260040161031b9061105b565b60405180910390fd5b6000808373ffffffffffffffffffffffffffffffffffffffff1673ffffffffffffffffffffffffffffffffffffffff16815260200190815260200160002060010160009054906101000a900460ff169050919050565b600160003373ffffffffffffffffffffffffffffffffffffffff1673ffffffffffffffffffffffffffffffffffffffff16815260200190815260200160002060009054906101000a900460ff16610406576040517f08c379a00000000000000000000000000000000000000000000000000000000081526004016103fd9061105b565b60405180910390fd5b6000803373ffffffffffffffffffffffffffffffffffffffff1673ffffffffffffffffffffffffffffffffffffffff16815260200190815260200160002060010160009054906101000a900460ff16610494576040517f08c379a000000000000000000000000000000000000000000000000000000000815260040161048b906110c7565b60405180910390fd5b60008060003373ffffffffffffffffffffffffffffffffffffffff1673ffffffffffffffffffffffffffffffffffffffff16815260200190815260200160002060010160006101000a81548160ff021916908315150217905550565b6060600160008373ffffffffffffffffffffffffffffffffffffffff1673ffffffffffffffffffffffffffffffffffffffff16815260200190815260200160002060009054906101000a900460ff1661057e576040517f08c379a00000000000000000000000000000000000000000000000000000000081526004016105759061105b565b60405180910390fd5b6000808373ffffffffffffffffffffffffffffffffffffffff1673ffffffffffffffffffffffffffffffffffffffff168152602001908152602001600020600001805480602002602001604051908101604052809291908181526020016000905b82821015610699578382906000526020600020016040518060600160405290816000820160009054906101000a900473ffffffffffffffffffffffffffffffffffffffff1673ffffffffffffffffffffffffffffffffffffffff1673ffffffffffffffffffffffffffffffffffffffff1681526020016000820160149054906101000a900460ff161515151581526020016000820160159054906101000a900460ff161515151581525050815260200190600101906105df565b505050509050919050565b600160003373ffffffffffffffffffffffffffffffffffffffff1673ffffffffffffffffffffffffffffffffffffffff16815260200190815260200160002060009054906101000a900460ff16610730576040517f08c379a00000000000000000000000000000000000000000000000000000000081526004016107279061105b565b60405180910390fd5b6000803373ffffffffffffffffffffffffffffffffffffffff1673ffffffffffffffffffffffffffffffffffffffff16815260200190815260200160002060010160009054906101000a900460ff166107be576040517f08c379a00000000000000000000000000000000000000000000000000000000081526004016107b5906110c7565b60405180910390fd5b600060405180606001604052808573ffffffffffffffffffffffffffffffffffffffff168152602001841515815260200183151581525090506000803373ffffffffffffffffffffffffffffffffffffffff1673ffffffffffffffffffffffffffffffffffffffff168152602001908152602001600020600001819080600181540180825580915050600190039060005260206000200160009091909190915060008201518160000160006101000a81548173ffffffffffffffffffffffffffffffffffffffff021916908373ffffffffffffffffffffffffffffffffffffffff16021790555060208201518160000160146101000a81548160ff02191690831515021790555060408201518160000160156101000a81548160ff02191690831515021790555050508373ffffffffffffffffffffffffffffffffffffffff163373ffffffffffffffffffffffffffffffffffffffff167f99fa9c54dc091b4104d26309a9af9280fdbbcb71f3943a8df44cdf52e764a35a85856040516109469291906110e7565b60405180910390a350505050565b600160003373ffffffffffffffffffffffffffffffffffffffff1673ffffffffffffffffffffffffffffffffffffffff16815260200190815260200160002060009054906101000a900460ff166109e0576040517f08c379a00000000000000000000000000000000000000000000000000000000081526004016109d79061105b565b60405180910390fd5b6000803373ffffffffffffffffffffffffffffffffffffffff1673ffffffffffffffffffffffffffffffffffffffff16815260200190815260200160002060010160009054906101000a900460ff16610a6e576040517f08c379a0000000000000000000000000000000000000000000000000000000008152600401610a65906110c7565b60405180910390fd5b6000803373ffffffffffffffffffffffffffffffffffffffff1673ffffffffffffffffffffffffffffffffffffffff168152602001908152602001600020600001805490508410610af4576040517f08c379a0000000000000000000000000000000000000000000000000000000008152600401610aeb9061115c565b60405180910390fd5b60405180606001604052808473ffffffffffffffffffffffffffffffffffffffff16815260200183151581526020018215158152506000803373ffffffffffffffffffffffffffffffffffffffff1673ffffffffffffffffffffffffffffffffffffffff1681526020019081526020016000206000018581548110610b7c57610b7b61117c565b5b9060005260206000200160008201518160000160006101000a81548173ffffffffffffffffffffffffffffffffffffffff021916908373ffffffffffffffffffffffffffffffffffffffff16021790555060208201518160000160146101000a81548160ff02191690831515021790555060408201518160000160156101000a81548160ff0219169083151502179055509050508273ffffffffffffffffffffffffffffffffffffffff163373ffffffffffffffffffffffffffffffffffffffff167feed0b55e03732793a51af783beb3dd208c41b63c3c3ecc7929ea00c172d5bc9d868585604051610c71939291906111ba565b60405180910390a350505050565b600080fd5b600073ffffffffffffffffffffffffffffffffffffffff82169050919050565b6000610caf82610c84565b9050919050565b610cbf81610ca4565b8114610cca57600080fd5b50565b600081359050610cdc81610cb6565b92915050565b600060208284031215610cf857610cf7610c7f565b5b6000610d0684828501610ccd565b91505092915050565b60008115159050919050565b610d2481610d0f565b82525050565b6000602082019050610d3f6000830184610d1b565b92915050565b600081519050919050565b600082825260208201905092915050565b6000819050602082019050919050565b610d7a81610ca4565b82525050565b610d8981610d0f565b82525050565b606082016000820151610da56000850182610d71565b506020820151610db86020850182610d80565b506040820151610dcb6040850182610d80565b50505050565b6000610ddd8383610d8f565b60608301905092915050565b6000602082019050919050565b6000610e0182610d45565b610e0b8185610d50565b9350610e1683610d61565b8060005b83811015610e47578151610e2e8882610dd1565b9750610e3983610de9565b925050600181019050610e1a565b5085935050505092915050565b60006020820190508181036000830152610e6e8184610df6565b905092915050565b610e7f81610d0f565b8114610e8a57600080fd5b50565b600081359050610e9c81610e76565b92915050565b600080600060608486031215610ebb57610eba610c7f565b5b6000610ec986828701610ccd565b9350506020610eda86828701610e8d565b9250506040610eeb86828701610e8d565b9150509250925092565b6000819050919050565b610f0881610ef5565b8114610f1357600080fd5b50565b600081359050610f2581610eff565b92915050565b60008060008060808587031215610f4557610f44610c7f565b5b6000610f5387828801610f16565b9450506020610f6487828801610ccd565b9350506040610f7587828801610e8d565b9250506060610f8687828801610e8d565b91505092959194509250565b600082825260208201905092915050565b7f53747275637475726520616c7265616479206578697374730000000000000000600082015250565b6000610fd9601883610f92565b9150610fe482610fa3565b602082019050919050565b6000602082019050818103600083015261100881610fcc565b9050919050565b7f53747275637475726520646f6573206e6f742065786973740000000000000000600082015250565b6000611045601883610f92565b91506110508261100f565b602082019050919050565b6000602082019050818103600083015261107481611038565b9050919050565b7f537472756374757265206973206e6f74206564697461626c6500000000000000600082015250565b60006110b1601983610f92565b91506110bc8261107b565b602082019050919050565b600060208201905081810360008301526110e0816110a4565b9050919050565b60006040820190506110fc6000830185610d1b565b6111096020830184610d1b565b9392505050565b7f496e76616c696420696e64657800000000000000000000000000000000000000600082015250565b6000611146600d83610f92565b915061115182611110565b602082019050919050565b6000602082019050818103600083015261117581611139565b9050919050565b7f4e487b7100000000000000000000000000000000000000000000000000000000600052603260045260246000fd5b6111b481610ef5565b82525050565b60006060820190506111cf60008301866111ab565b6111dc6020830185610d1b565b6111e96040830184610d1b565b94935050505056fea26469706673582212206d8be5105376701e77f8fedc42dfa6d0196a6922666435e98ff8388278e36bda64736f6c634300081a0033",
  "linkReferences": {},
  "deployedLinkReferences": {}
}