{
  "_format": "hh-sol-artifact-1",
  "contractName": "Governor",
  "sourceName": "contracts/Governor.sol",
  "abi": [
    {
      "inputs": [],
      "stateMutability": "nonpayable",
      "type": "constructor"
    },
    {
      "inputs": [
        {
          "internalType": "uint256",
          "name": "value",
          "type": "uint256"
        },
        {
          "internalType": "uint256",
          "name": "length",
          "type": "uint256"
        }
      ],
      "name": "StringsInsufficientHexLength",
      "type": "error"
    },
    {
      "anonymous": false,
      "inputs": [
        {
          "indexed": true,
          "internalType": "bytes32",
          "name": "role",
          "type": "bytes32"
        },
        {
          "indexed": true,
          "internalType": "bytes32",
          "name": "previousAdminRole",
          "type": "bytes32"
        },
        {
          "indexed": true,
          "internalType": "bytes32",
          "name": "newAdminRole",
          "type": "bytes32"
        }
      ],
      "name": "RoleAdminChanged",
      "type": "event"
    },
    {
      "anonymous": false,
      "inputs": [
        {
          "indexed": true,
          "internalType": "bytes32",
          "name": "role",
          "type": "bytes32"
        },
        {
          "indexed": true,
          "internalType": "address",
          "name": "account",
          "type": "address"
        },
        {
          "indexed": true,
          "internalType": "address",
          "name": "sender",
          "type": "address"
        }
      ],
      "name": "RoleGranted",
      "type": "event"
    },
    {
      "anonymous": false,
      "inputs": [
        {
          "indexed": true,
          "internalType": "bytes32",
          "name": "role",
          "type": "bytes32"
        },
        {
          "indexed": true,
          "internalType": "address",
          "name": "account",
          "type": "address"
        },
        {
          "indexed": true,
          "internalType": "address",
          "name": "sender",
          "type": "address"
        }
      ],
      "name": "RoleRevoked",
      "type": "event"
    },
    {
      "inputs": [],
      "name": "DEFAULT_ADMIN_ROLE",
      "outputs": [
        {
          "internalType": "bytes32",
          "name": "",
          "type": "bytes32"
        }
      ],
      "stateMutability": "view",
      "type": "function"
    },
    {
      "inputs": [],
      "name": "GOVERNOR_ROLE",
      "outputs": [
        {
          "internalType": "bytes32",
          "name": "",
          "type": "bytes32"
        }
      ],
      "stateMutability": "view",
      "type": "function"
    },
    {
      "inputs": [
        {
          "internalType": "bytes32",
          "name": "role",
          "type": "bytes32"
        }
      ],
      "name": "getRoleAdmin",
      "outputs": [
        {
          "internalType": "bytes32",
          "name": "",
          "type": "bytes32"
        }
      ],
      "stateMutability": "view",
      "type": "function"
    },
    {
      "inputs": [
        {
          "internalType": "bytes32",
          "name": "role",
          "type": "bytes32"
        },
        {
          "internalType": "address",
          "name": "account",
          "type": "address"
        }
      ],
      "name": "grantRole",
      "outputs": [],
      "stateMutability": "nonpayable",
      "type": "function"
    },
    {
      "inputs": [
        {
          "internalType": "bytes32",
          "name": "role",
          "type": "bytes32"
        },
        {
          "internalType": "address",
          "name": "account",
          "type": "address"
        }
      ],
      "name": "hasRole",
      "outputs": [
        {
          "internalType": "bool",
          "name": "",
          "type": "bool"
        }
      ],
      "stateMutability": "view",
      "type": "function"
    },
    {
      "inputs": [
        {
          "internalType": "bytes",
          "name": "proposal",
          "type": "bytes"
        }
      ],
      "name": "propose",
      "outputs": [],
      "stateMutability": "nonpayable",
      "type": "function"
    },
    {
      "inputs": [
        {
          "internalType": "bytes32",
          "name": "role",
          "type": "bytes32"
        },
        {
          "internalType": "address",
          "name": "account",
          "type": "address"
        }
      ],
      "name": "renounceRole",
      "outputs": [],
      "stateMutability": "nonpayable",
      "type": "function"
    },
    {
      "inputs": [
        {
          "internalType": "bytes32",
          "name": "role",
          "type": "bytes32"
        },
        {
          "internalType": "address",
          "name": "account",
          "type": "address"
        }
      ],
      "name": "revokeRole",
      "outputs": [],
      "stateMutability": "nonpayable",
      "type": "function"
    },
    {
      "inputs": [
        {
          "internalType": "bytes4",
          "name": "interfaceId",
          "type": "bytes4"
        }
      ],
      "name": "supportsInterface",
      "outputs": [
        {
          "internalType": "bool",
          "name": "",
          "type": "bool"
        }
      ],
      "stateMutability": "view",
      "type": "function"
    },
    {
      "inputs": [
        {
          "internalType": "uint256",
          "name": "proposalId",
          "type": "uint256"
        },
        {
          "internalType": "bool",
          "name": "support",
          "type": "bool"
        }
      ],
      "name": "vote",
      "outputs": [],
      "stateMutability": "nonpayable",
      "type": "function"
    }
  ],
  "bytecode": "0x608060405234801561001057600080fd5b506100246000801b3361005960201b60201c565b6100547f7935bd0ae54bc31f548c14dba4d37c5c64b3f8ca900cb468fb8abd54d5894f553361005960201b60201c565b6101cb565b610069828261006d60201b60201c565b5050565b61007d828261015960201b60201c565b61015557600160008084815260200190815260200160002060000160008373ffffffffffffffffffffffffffffffffffffffff1673ffffffffffffffffffffffffffffffffffffffff16815260200190815260200160002060006101000a81548160ff0219169083151502179055506100fa6101c360201b60201c565b73ffffffffffffffffffffffffffffffffffffffff168173ffffffffffffffffffffffffffffffffffffffff16837f2f8788117e7eff1d82e926ec794901d17c78024a50270940304540a733656f0d60405160405180910390a45b5050565b600080600084815260200190815260200160002060000160008373ffffffffffffffffffffffffffffffffffffffff1673ffffffffffffffffffffffffffffffffffffffff16815260200190815260200160002060009054906101000a900460ff16905092915050565b600033905090565b6110bb806101da6000396000f3fe608060405234801561001057600080fd5b506004361061009e5760003560e01c806391d148541161006657806391d1485414610157578063a217fddf14610187578063c9d27afe146101a5578063ccc57490146101c1578063d547741f146101df5761009e565b806301ffc9a7146100a3578063248a9ca3146100d35780632f2ff15d1461010357806336568abe1461011f57806337558af51461013b575b600080fd5b6100bd60048036038101906100b891906109ed565b6101fb565b6040516100ca9190610a35565b60405180910390f35b6100ed60048036038101906100e89190610a86565b610275565b6040516100fa9190610ac2565b60405180910390f35b61011d60048036038101906101189190610b3b565b610294565b005b61013960048036038101906101349190610b3b565b6102b5565b005b61015560048036038101906101509190610be0565b610338565b005b610171600480360381019061016c9190610b3b565b610367565b60405161017e9190610a35565b60405180910390f35b61018f6103d1565b60405161019c9190610ac2565b60405180910390f35b6101bf60048036038101906101ba9190610c8f565b6103d8565b005b6101c9610407565b6040516101d69190610ac2565b60405180910390f35b6101f960048036038101906101f49190610b3b565b61042b565b005b60007f7965db0b000000000000000000000000000000000000000000000000000000007bffffffffffffffffffffffffffffffffffffffffffffffffffffffff1916827bffffffffffffffffffffffffffffffffffffffffffffffffffffffff1916148061026e575061026d8261044c565b5b9050919050565b6000806000838152602001908152602001600020600101549050919050565b61029d82610275565b6102a6816104b6565b6102b083836104ca565b505050565b6102bd6105aa565b73ffffffffffffffffffffffffffffffffffffffff168173ffffffffffffffffffffffffffffffffffffffff161461032a576040517f08c379a000000000000000000000000000000000000000000000000000000000815260040161032190610d52565b60405180910390fd5b61033482826105b2565b5050565b7f7935bd0ae54bc31f548c14dba4d37c5c64b3f8ca900cb468fb8abd54d5894f55610362816104b6565b505050565b600080600084815260200190815260200160002060000160008373ffffffffffffffffffffffffffffffffffffffff1673ffffffffffffffffffffffffffffffffffffffff16815260200190815260200160002060009054906101000a900460ff16905092915050565b6000801b81565b7f7935bd0ae54bc31f548c14dba4d37c5c64b3f8ca900cb468fb8abd54d5894f55610402816104b6565b505050565b7f7935bd0ae54bc31f548c14dba4d37c5c64b3f8ca900cb468fb8abd54d5894f5581565b61043482610275565b61043d816104b6565b61044783836105b2565b505050565b60007f01ffc9a7000000000000000000000000000000000000000000000000000000007bffffffffffffffffffffffffffffffffffffffffffffffffffffffff1916827bffffffffffffffffffffffffffffffffffffffffffffffffffffffff1916149050919050565b6104c7816104c26105aa565b610693565b50565b6104d48282610367565b6105a657600160008084815260200190815260200160002060000160008373ffffffffffffffffffffffffffffffffffffffff1673ffffffffffffffffffffffffffffffffffffffff16815260200190815260200160002060006101000a81548160ff02191690831515021790555061054b6105aa565b73ffffffffffffffffffffffffffffffffffffffff168173ffffffffffffffffffffffffffffffffffffffff16837f2f8788117e7eff1d82e926ec794901d17c78024a50270940304540a733656f0d60405160405180910390a45b5050565b600033905090565b6105bc8282610367565b1561068f57600080600084815260200190815260200160002060000160008373ffffffffffffffffffffffffffffffffffffffff1673ffffffffffffffffffffffffffffffffffffffff16815260200190815260200160002060006101000a81548160ff0219169083151502179055506106346105aa565b73ffffffffffffffffffffffffffffffffffffffff168173ffffffffffffffffffffffffffffffffffffffff16837ff6391f5c32d9c69d2a47ea670b442974b53935d1edc7fd64eb21e047a839171b60405160405180910390a45b5050565b61069d8282610367565b610714576106aa81610718565b6106b88360001c6020610745565b6040516020016106c9929190610e7b565b6040516020818303038152906040526040517f08c379a000000000000000000000000000000000000000000000000000000000815260040161070b9190610eff565b60405180910390fd5b5050565b606061073e8273ffffffffffffffffffffffffffffffffffffffff16601460ff16610745565b9050919050565b606060008390506000600284600261075d9190610f50565b6107679190610f92565b67ffffffffffffffff8111156107805761077f610fc6565b5b6040519080825280601f01601f1916602001820160405280156107b25781602001600182028036833780820191505090505b5090507f3000000000000000000000000000000000000000000000000000000000000000816000815181106107ea576107e9610ff5565b5b60200101907effffffffffffffffffffffffffffffffffffffffffffffffffffffffffffff1916908160001a9053507f78000000000000000000000000000000000000000000000000000000000000008160018151811061084e5761084d610ff5565b5b60200101907effffffffffffffffffffffffffffffffffffffffffffffffffffffffffffff1916908160001a9053506000600185600261088e9190610f50565b6108989190610f92565b90505b6001811115610938577f3031323334353637383961626364656600000000000000000000000000000000600f8416601081106108da576108d9610ff5565b5b1a60f81b8282815181106108f1576108f0610ff5565b5b60200101907effffffffffffffffffffffffffffffffffffffffffffffffffffffffffffff1916908160001a905350600483901c92508061093190611024565b905061089b565b50600082146109805784846040517fe22e27eb00000000000000000000000000000000000000000000000000000000815260040161097792919061105c565b60405180910390fd5b809250505092915050565b600080fd5b600080fd5b60007fffffffff0000000000000000000000000000000000000000000000000000000082169050919050565b6109ca81610995565b81146109d557600080fd5b50565b6000813590506109e7816109c1565b92915050565b600060208284031215610a0357610a0261098b565b5b6000610a11848285016109d8565b91505092915050565b60008115159050919050565b610a2f81610a1a565b82525050565b6000602082019050610a4a6000830184610a26565b92915050565b6000819050919050565b610a6381610a50565b8114610a6e57600080fd5b50565b600081359050610a8081610a5a565b92915050565b600060208284031215610a9c57610a9b61098b565b5b6000610aaa84828501610a71565b91505092915050565b610abc81610a50565b82525050565b6000602082019050610ad76000830184610ab3565b92915050565b600073ffffffffffffffffffffffffffffffffffffffff82169050919050565b6000610b0882610add565b9050919050565b610b1881610afd565b8114610b2357600080fd5b50565b600081359050610b3581610b0f565b92915050565b60008060408385031215610b5257610b5161098b565b5b6000610b6085828601610a71565b9250506020610b7185828601610b26565b9150509250929050565b600080fd5b600080fd5b600080fd5b60008083601f840112610ba057610b9f610b7b565b5b8235905067ffffffffffffffff811115610bbd57610bbc610b80565b5b602083019150836001820283011115610bd957610bd8610b85565b5b9250929050565b60008060208385031215610bf757610bf661098b565b5b600083013567ffffffffffffffff811115610c1557610c14610990565b5b610c2185828601610b8a565b92509250509250929050565b6000819050919050565b610c4081610c2d565b8114610c4b57600080fd5b50565b600081359050610c5d81610c37565b92915050565b610c6c81610a1a565b8114610c7757600080fd5b50565b600081359050610c8981610c63565b92915050565b60008060408385031215610ca657610ca561098b565b5b6000610cb485828601610c4e565b9250506020610cc585828601610c7a565b9150509250929050565b600082825260208201905092915050565b7f416363657373436f6e74726f6c3a2063616e206f6e6c792072656e6f756e636560008201527f20726f6c657320666f722073656c660000000000000000000000000000000000602082015250565b6000610d3c602f83610ccf565b9150610d4782610ce0565b604082019050919050565b60006020820190508181036000830152610d6b81610d2f565b9050919050565b600081905092915050565b7f416363657373436f6e74726f6c3a206163636f756e7420000000000000000000600082015250565b6000610db3601783610d72565b9150610dbe82610d7d565b601782019050919050565b600081519050919050565b60005b83811015610df2578082015181840152602081019050610dd7565b60008484015250505050565b6000610e0982610dc9565b610e138185610d72565b9350610e23818560208601610dd4565b80840191505092915050565b7f206973206d697373696e6720726f6c6520000000000000000000000000000000600082015250565b6000610e65601183610d72565b9150610e7082610e2f565b601182019050919050565b6000610e8682610da6565b9150610e928285610dfe565b9150610e9d82610e58565b9150610ea98284610dfe565b91508190509392505050565b6000601f19601f8301169050919050565b6000610ed182610dc9565b610edb8185610ccf565b9350610eeb818560208601610dd4565b610ef481610eb5565b840191505092915050565b60006020820190508181036000830152610f198184610ec6565b905092915050565b7f4e487b7100000000000000000000000000000000000000000000000000000000600052601160045260246000fd5b6000610f5b82610c2d565b9150610f6683610c2d565b9250828202610f7481610c2d565b91508282048414831517610f8b57610f8a610f21565b5b5092915050565b6000610f9d82610c2d565b9150610fa883610c2d565b9250828201905080821115610fc057610fbf610f21565b5b92915050565b7f4e487b7100000000000000000000000000000000000000000000000000000000600052604160045260246000fd5b7f4e487b7100000000000000000000000000000000000000000000000000000000600052603260045260246000fd5b600061102f82610c2d565b91506000820361104257611041610f21565b5b600182039050919050565b61105681610c2d565b82525050565b6000604082019050611071600083018561104d565b61107e602083018461104d565b939250505056fea264697066735822122077dded2ffa4ac601c76bbe002131b9b12bd427c797a011dff325da5abede832264736f6c634300081a0033",
  "linkReferences": {},
  "deployedLinkReferences": {}
}