{
  "contractName": "AddressRegistry",
  "abi": [
    {
      "anonymous": false,
      "inputs": [
        {
          "indexed": true,
          "internalType": "address",
          "name": "creator",
          "type": "address"
        },
        {
          "indexed": true,
          "internalType": "address",
          "name": "addr",
          "type": "address"
        },
        {
          "indexed": false,
          "internalType": "bool",
          "name": "isContract",
          "type": "bool"
        },
        {
          "indexed": false,
          "internalType": "bool",
          "name": "isProxy",
          "type": "bool"
        }
      ],
      "name": "AddressAdded",
      "type": "event"
    },
    {
      "anonymous": false,
      "inputs": [
        {
          "indexed": true,
          "internalType": "address",
          "name": "creator",
          "type": "address"
        },
        {
          "indexed": false,
          "internalType": "uint256",
          "name": "index",
          "type": "uint256"
        },
        {
          "indexed": true,
          "internalType": "address",
          "name": "addr",
          "type": "address"
        },
        {
          "indexed": false,
          "internalType": "bool",
          "name": "isContract",
          "type": "bool"
        },
        {
          "indexed": false,
          "internalType": "bool",
          "name": "isProxy",
          "type": "bool"
        }
      ],
      "name": "AddressUpdated",
      "type": "event"
    },
    {
      "anonymous": false,
      "inputs": [
        {
          "indexed": true,
          "internalType": "address",
          "name": "creator",
          "type": "address"
        }
      ],
      "name": "StructureCreated",
      "type": "event"
    },
    {
      "inputs": [],
      "name": "createStructure",
      "outputs": [],
      "stateMutability": "nonpayable",
      "type": "function"
    },
    {
      "inputs": [
        {
          "internalType": "address",
          "name": "addr",
          "type": "address"
        },
        {
          "internalType": "bool",
          "name": "isContract",
          "type": "bool"
        },
        {
          "internalType": "bool",
          "name": "isProxy",
          "type": "bool"
        }
      ],
      "name": "addAddress",
      "outputs": [],
      "stateMutability": "nonpayable",
      "type": "function"
    },
    {
      "inputs": [
        {
          "internalType": "uint256",
          "name": "index",
          "type": "uint256"
        },
        {
          "internalType": "address",
          "name": "addr",
          "type": "address"
        },
        {
          "internalType": "bool",
          "name": "isContract",
          "type": "bool"
        },
        {
          "internalType": "bool",
          "name": "isProxy",
          "type": "bool"
        }
      ],
      "name": "updateAddress",
      "outputs": [],
      "stateMutability": "nonpayable",
      "type": "function"
    },
    {
      "inputs": [
        {
          "internalType": "address",
          "name": "creator",
          "type": "address"
        }
      ],
      "name": "getAddressStructure",
      "outputs": [
        {
          "components": [
            {
              "internalType": "address",
              "name": "addr",
              "type": "address"
            },
            {
              "internalType": "bool",
              "name": "isContract",
              "type": "bool"
            },
            {
              "internalType": "bool",
              "name": "isProxy",
              "type": "bool"
            }
          ],
          "internalType": "struct AddressRegistry.AddressInfo[]",
          "name": "",
          "type": "tuple[]"
        }
      ],
      "stateMutability": "view",
      "type": "function"
    },
    {
      "inputs": [],
      "name": "finalizeStructure",
      "outputs": [],
      "stateMutability": "nonpayable",
      "type": "function"
    },
    {
      "inputs": [
        {
          "internalType": "address",
          "name": "creator",
          "type": "address"
        }
      ],
      "name": "isEditable",
      "outputs": [
        {
          "internalType": "bool",
          "name": "",
          "type": "bool"
        }
      ],
      "stateMutability": "view",
      "type": "function"
    }
  ],
  "bytecode": "0x6080604052348015600f57600080fd5b506108cf8061001f6000396000f3fe608060405234801561001057600080fd5b50600436106100625760003560e01c80634034e7861461006757806384ac378014610071578063a342980b14610099578063a70e6b64146100a1578063cbbfd1c5146100c1578063d3084a36146100d4575b600080fd5b61006f6100e7565b005b61008461007f3660046106ea565b6101a5565b60405190151581526020015b60405180910390f35b61006f6101ff565b6100b46100af3660046106ea565b61027c565b604051610090919061070c565b61006f6100cf366004610785565b61034e565b61006f6100e23660046107c8565b6104dd565b3360009081526001602052604090205460ff161561014c5760405162461bcd60e51b815260206004820152601860248201527f53747275637475726520616c726561647920657869737473000000000000000060448201526064015b60405180910390fd5b336000818152602081815260408083206001908101805460ff19908116831790915592819052818420805490931617909155517fb7a1814f1b2a2cdfbeffae2404fdf415daead717e26a7dfbedff6ddf000b3f7b9190a2565b6001600160a01b03811660009081526001602052604081205460ff166101dd5760405162461bcd60e51b815260040161014390610815565b506001600160a01b031660009081526020819052604090206001015460ff1690565b3360009081526001602052604090205460ff1661022e5760405162461bcd60e51b815260040161014390610815565b3360009081526020819052604090206001015460ff166102605760405162461bcd60e51b81526004016101439061084c565b336000908152602081905260409020600101805460ff19169055565b6001600160a01b03811660009081526001602052604090205460609060ff166102b75760405162461bcd60e51b815260040161014390610815565b6001600160a01b03821660009081526020818152604080832080548251818502810185019093528083529193909284015b8282101561034357600084815260209081902060408051606081018252918501546001600160a01b038116835260ff600160a01b82048116151584860152600160a81b909104161515908201528252600190920191016102e8565b505050509050919050565b3360009081526001602052604090205460ff1661037d5760405162461bcd60e51b815260040161014390610815565b3360009081526020819052604090206001015460ff166103af5760405162461bcd60e51b81526004016101439061084c565b826001600160a01b0381166104065760405162461bcd60e51b815260206004820152601d60248201527f496e76616c696420616464726573733a207a65726f20616464726573730000006044820152606401610143565b604080516060810182526001600160a01b0380871680835286151560208085019182528715158587019081523360008181528084528881208054600181018255908252939020875193018054945192511515600160a81b0260ff60a81b19931515600160a01b026001600160a81b0319909616949097169390931793909317169390931790925592519192917f99fa9c54dc091b4104d26309a9af9280fdbbcb71f3943a8df44cdf52e764a35a906104ce908890889091151582521515602082015260400190565b60405180910390a35050505050565b3360009081526001602052604090205460ff1661050c5760405162461bcd60e51b815260040161014390610815565b3360009081526020819052604090206001015460ff1661053e5760405162461bcd60e51b81526004016101439061084c565b826001600160a01b0381166105955760405162461bcd60e51b815260206004820152601d60248201527f496e76616c696420616464726573733a207a65726f20616464726573730000006044820152606401610143565b3360009081526020819052604090205485106105e35760405162461bcd60e51b815260206004820152600d60248201526c092dcecc2d8d2c840d2dcc8caf609b1b6044820152606401610143565b604080516060810182526001600160a01b038616815284151560208083019190915284151582840152336000908152908190529190912080548790811061062c5761062c610883565b6000918252602091829020835191018054928401516040948501511515600160a81b0260ff60a81b19911515600160a01b026001600160a81b03199095166001600160a01b039485161794909417169290921790915590519085169033907feed0b55e03732793a51af783beb3dd208c41b63c3c3ecc7929ea00c172d5bc9d906104ce9089908890889092835290151560208301521515604082015260600190565b80356001600160a01b03811681146106e557600080fd5b919050565b6000602082840312156106fc57600080fd5b610705826106ce565b9392505050565b602080825282518282018190526000918401906040840190835b8181101561076a57835180516001600160a01b0316845260208082015115158186015260409182015115159185019190915290930192606090920191600101610726565b509095945050505050565b803580151581146106e557600080fd5b60008060006060848603121561079a57600080fd5b6107a3846106ce565b92506107b160208501610775565b91506107bf60408501610775565b90509250925092565b600080600080608085870312156107de57600080fd5b843593506107ee602086016106ce565b92506107fc60408601610775565b915061080a60608601610775565b905092959194509250565b60208082526018908201527f53747275637475726520646f6573206e6f742065786973740000000000000000604082015260600190565b60208082526019908201527f537472756374757265206973206e6f74206564697461626c6500000000000000604082015260600190565b634e487b7160e01b600052603260045260246000fdfea2646970667358221220a6cdd6c25faef2c8a6267771d2d9b8c8ae51ee25ff688b10a06e88d542f0d24464736f6c634300081a0033",
  "immutableReferences": {},
  "source": "// SPDX-License-Identifier: MIT\npragma solidity ^0.8.26;\n\ncontract AddressRegistry {\n    struct AddressInfo {\n        address addr;\n        bool isContract;\n        bool isProxy;\n    }\n\n    struct AddressStructure {\n        AddressInfo[] addresses;\n        bool isEditable;\n    }\n\n    mapping(address => AddressStructure) private structures;\n    mapping(address => bool) private structureExists;\n\n    event StructureCreated(address indexed creator);\n    event AddressAdded(address indexed creator, address indexed addr, bool isContract, bool isProxy);\n    event AddressUpdated(address indexed creator, uint256 index, address indexed addr, bool isContract, bool isProxy);\n\n    modifier onlyCreator() {\n        require(structureExists[msg.sender], \"Structure does not exist\");\n        require(structures[msg.sender].isEditable, \"Structure is not editable\");\n        _;\n    }\n\n    modifier validAddress(address addr) {\n        require(addr != address(0), \"Invalid address: zero address\");\n        _;\n    }\n\n    function createStructure() external {\n        require(!structureExists[msg.sender], \"Structure already exists\");\n        structures[msg.sender].isEditable = true;\n        structureExists[msg.sender] = true;\n        emit StructureCreated(msg.sender);\n    }\n\n    function addAddress(address addr, bool isContract, bool isProxy) external onlyCreator validAddress(addr) {\n        AddressInfo memory newAddressInfo = AddressInfo({\n            addr: addr,\n            isContract: isContract,\n            isProxy: isProxy\n        });\n        structures[msg.sender].addresses.push(newAddressInfo);\n        emit AddressAdded(msg.sender, addr, isContract, isProxy);\n    }\n\n    function updateAddress(uint256 index, address addr, bool isContract, bool isProxy) external onlyCreator validAddress(addr) {\n        require(index < structures[msg.sender].addresses.length, \"Invalid index\");\n        structures[msg.sender].addresses[index] = AddressInfo({\n            addr: addr,\n            isContract: isContract,\n            isProxy: isProxy\n        });\n        emit AddressUpdated(msg.sender, index, addr, isContract, isProxy);\n    }\n\n    function getAddressStructure(address creator) external view returns (AddressInfo[] memory) {\n        require(structureExists[creator], \"Structure does not exist\");\n        return structures[creator].addresses;\n    }\n\n    function finalizeStructure() external onlyCreator {\n        structures[msg.sender].isEditable = false;\n    }\n\n    function isEditable(address creator) external view returns (bool) {\n        require(structureExists[creator], \"Structure does not exist\");\n        return structures[creator].isEditable;\n    }\n}\n",
  "sourcePath": "/home/dot/attestation-manager-dist/contracts/AddressRegistry.sol",
  "compiler": {
    "name": "solc",
    "version": "0.8.26+commit.8a97fa7a.Emscripten.clang"
  },
  "schemaVersion": "3.4.16",
  "updatedAt": "2024-06-25T10:50:55.111Z",
  "devdoc": {
    "kind": "dev",
    "methods": {},
    "version": 1
  },
  "userdoc": {
    "kind": "user",
    "methods": {},
    "version": 1
  }
}