{
  "contractName": "AttestationManagerImplementation",
  "abi": [
    {
      "inputs": [],
      "stateMutability": "nonpayable",
      "type": "constructor"
    },
    {
      "anonymous": false,
      "inputs": [
        {
          "indexed": true,
          "internalType": "address",
          "name": "subject",
          "type": "address"
        },
        {
          "indexed": false,
          "internalType": "bytes32",
          "name": "data",
          "type": "bytes32"
        }
      ],
      "name": "AttestationCreated",
      "type": "event"
    },
    {
      "anonymous": false,
      "inputs": [
        {
          "indexed": true,
          "internalType": "address",
          "name": "subject",
          "type": "address"
        }
      ],
      "name": "AttestationRemoved",
      "type": "event"
    },
    {
      "anonymous": false,
      "inputs": [
        {
          "indexed": true,
          "internalType": "address",
          "name": "subject",
          "type": "address"
        },
        {
          "indexed": false,
          "internalType": "bytes32",
          "name": "data",
          "type": "bytes32"
        }
      ],
      "name": "AttestationUpdated",
      "type": "event"
    },
    {
      "anonymous": false,
      "inputs": [
        {
          "indexed": true,
          "internalType": "bytes32",
          "name": "role",
          "type": "bytes32"
        },
        {
          "indexed": true,
          "internalType": "bytes32",
          "name": "previousAdminRole",
          "type": "bytes32"
        },
        {
          "indexed": true,
          "internalType": "bytes32",
          "name": "newAdminRole",
          "type": "bytes32"
        }
      ],
      "name": "RoleAdminChanged",
      "type": "event"
    },
    {
      "anonymous": false,
      "inputs": [
        {
          "indexed": true,
          "internalType": "bytes32",
          "name": "role",
          "type": "bytes32"
        },
        {
          "indexed": true,
          "internalType": "address",
          "name": "account",
          "type": "address"
        },
        {
          "indexed": true,
          "internalType": "address",
          "name": "sender",
          "type": "address"
        }
      ],
      "name": "RoleGranted",
      "type": "event"
    },
    {
      "anonymous": false,
      "inputs": [
        {
          "indexed": true,
          "internalType": "bytes32",
          "name": "role",
          "type": "bytes32"
        },
        {
          "indexed": true,
          "internalType": "address",
          "name": "account",
          "type": "address"
        },
        {
          "indexed": true,
          "internalType": "address",
          "name": "sender",
          "type": "address"
        }
      ],
      "name": "RoleRevoked",
      "type": "event"
    },
    {
      "inputs": [],
      "name": "ATTESTOR_ROLE",
      "outputs": [
        {
          "internalType": "bytes32",
          "name": "",
          "type": "bytes32"
        }
      ],
      "stateMutability": "view",
      "type": "function"
    },
    {
      "inputs": [],
      "name": "DEFAULT_ADMIN_ROLE",
      "outputs": [
        {
          "internalType": "bytes32",
          "name": "",
          "type": "bytes32"
        }
      ],
      "stateMutability": "view",
      "type": "function"
    },
    {
      "inputs": [
        {
          "internalType": "bytes32",
          "name": "role",
          "type": "bytes32"
        }
      ],
      "name": "getRoleAdmin",
      "outputs": [
        {
          "internalType": "bytes32",
          "name": "",
          "type": "bytes32"
        }
      ],
      "stateMutability": "view",
      "type": "function"
    },
    {
      "inputs": [
        {
          "internalType": "bytes32",
          "name": "role",
          "type": "bytes32"
        },
        {
          "internalType": "address",
          "name": "account",
          "type": "address"
        }
      ],
      "name": "grantRole",
      "outputs": [],
      "stateMutability": "nonpayable",
      "type": "function"
    },
    {
      "inputs": [
        {
          "internalType": "bytes32",
          "name": "role",
          "type": "bytes32"
        },
        {
          "internalType": "address",
          "name": "account",
          "type": "address"
        }
      ],
      "name": "hasRole",
      "outputs": [
        {
          "internalType": "bool",
          "name": "",
          "type": "bool"
        }
      ],
      "stateMutability": "view",
      "type": "function"
    },
    {
      "inputs": [
        {
          "internalType": "bytes32",
          "name": "role",
          "type": "bytes32"
        },
        {
          "internalType": "address",
          "name": "account",
          "type": "address"
        }
      ],
      "name": "renounceRole",
      "outputs": [],
      "stateMutability": "nonpayable",
      "type": "function"
    },
    {
      "inputs": [
        {
          "internalType": "bytes32",
          "name": "role",
          "type": "bytes32"
        },
        {
          "internalType": "address",
          "name": "account",
          "type": "address"
        }
      ],
      "name": "revokeRole",
      "outputs": [],
      "stateMutability": "nonpayable",
      "type": "function"
    },
    {
      "inputs": [
        {
          "internalType": "bytes4",
          "name": "interfaceId",
          "type": "bytes4"
        }
      ],
      "name": "supportsInterface",
      "outputs": [
        {
          "internalType": "bool",
          "name": "",
          "type": "bool"
        }
      ],
      "stateMutability": "view",
      "type": "function"
    },
    {
      "inputs": [
        {
          "internalType": "address",
          "name": "subject",
          "type": "address"
        },
        {
          "internalType": "bytes32",
          "name": "data",
          "type": "bytes32"
        }
      ],
      "name": "createAttestation",
      "outputs": [],
      "stateMutability": "nonpayable",
      "type": "function"
    },
    {
      "inputs": [
        {
          "internalType": "address",
          "name": "subject",
          "type": "address"
        }
      ],
      "name": "getAttestation",
      "outputs": [
        {
          "components": [
            {
              "internalType": "address",
              "name": "subject",
              "type": "address"
            },
            {
              "internalType": "bytes32",
              "name": "data",
              "type": "bytes32"
            }
          ],
          "internalType": "struct AttestationManagerImplementation.Attestation",
          "name": "",
          "type": "tuple"
        }
      ],
      "stateMutability": "view",
      "type": "function"
    },
    {
      "inputs": [
        {
          "internalType": "address",
          "name": "subject",
          "type": "address"
        },
        {
          "internalType": "bytes32",
          "name": "data",
          "type": "bytes32"
        }
      ],
      "name": "updateAttestation",
      "outputs": [],
      "stateMutability": "nonpayable",
      "type": "function"
    },
    {
      "inputs": [
        {
          "internalType": "address",
          "name": "subject",
          "type": "address"
        }
      ],
      "name": "removeAttestation",
      "outputs": [],
      "stateMutability": "nonpayable",
      "type": "function"
    }
  ],
  "bytecode": "0x608060405234801561001057600080fd5b5061001c60003361004b565b6100467fa7e0cd0f2772b23ee4c329892293a6bd99d48c306b094d6d008c9a8bb8b731e43361004b565b6100f7565b6100558282610059565b5050565b6000828152602081815260408083206001600160a01b038516845290915290205460ff16610055576000828152602081815260408083206001600160a01b03851684529091529020805460ff191660011790556100b33390565b6001600160a01b0316816001600160a01b0316837f2f8788117e7eff1d82e926ec794901d17c78024a50270940304540a733656f0d60405160405180910390a45050565b610b14806101066000396000f3fe608060405234801561001057600080fd5b50600436106100b45760003560e01c80636272364411610071578063627236441461016057806391d1485414610175578063a217fddf14610188578063c60a143114610190578063d547741f146101a3578063f9b71797146101b657600080fd5b806301ffc9a7146100b95780630c831bfc146100e1578063248a9ca3146100f65780632f2ff15d1461012757806336568abe1461013a57806349fa991f1461014d575b600080fd5b6100cc6100c736600461089f565b610232565b60405190151581526020015b60405180910390f35b6100f46100ef3660046108e5565b610269565b005b61011961010436600461090f565b60009081526020819052604090206001015490565b6040519081526020016100d8565b6100f4610135366004610928565b61034b565b6100f4610148366004610928565b610376565b6100f461015b366004610954565b6103f4565b610119600080516020610abf83398151915281565b6100cc610183366004610928565b6104cc565b610119600081565b6100f461019e3660046108e5565b6104f5565b6100f46101b1366004610928565b610589565b61020e6101c4366004610954565b604080518082018252600080825260209182018190526001600160a01b03938416815260018083529083902083518085019094528054909416835292909201549181019190915290565b6040805182516001600160a01b0316815260209283015192810192909252016100d8565b60006001600160e01b03198216637965db0b60e01b148061026357506301ffc9a760e01b6001600160e01b03198316145b92915050565b600080516020610abf83398151915261028281336105af565b6001600160a01b03838116600090815260016020526040902054166102ee5760405162461bcd60e51b815260206004820152601a60248201527f4174746573746174696f6e20646f6573206e6f7420657869737400000000000060448201526064015b60405180910390fd5b6001600160a01b03831660008181526001602081905260409182902001849055517fcb7aab465e1fac5a10bd864cbb0ac8d0ca42b24c549d3901b653e518a9f714369061033e9085815260200190565b60405180910390a2505050565b60008281526020819052604090206001015461036781336105af565b6103718383610613565b505050565b6001600160a01b03811633146103e65760405162461bcd60e51b815260206004820152602f60248201527f416363657373436f6e74726f6c3a2063616e206f6e6c792072656e6f756e636560448201526e103937b632b9903337b91039b2b63360891b60648201526084016102e5565b6103f08282610697565b5050565b600080516020610abf83398151915261040d81336105af565b6001600160a01b03828116600090815260016020526040902054166104745760405162461bcd60e51b815260206004820152601a60248201527f4174746573746174696f6e20646f6573206e6f7420657869737400000000000060448201526064016102e5565b6001600160a01b038216600081815260016020819052604080832080546001600160a01b0319168155909101829055517f3ca81da75b1d06c93e61c336a57a31e9fde90ad357eca616d1c06d92e01b6f9c9190a25050565b6000918252602082815260408084206001600160a01b0393909316845291905290205460ff1690565b600080516020610abf83398151915261050e81336105af565b6040805180820182526001600160a01b0385811680835260208084018781526000838152600180845290879020955186546001600160a01b0319169516949094178555519390920192909255915184815290917f4b96bc345d3cccd937ef60214ae3dfe73b251aba2a68e23c2a4ac9334bf8f57b910161033e565b6000828152602081905260409020600101546105a581336105af565b6103718383610697565b6105b982826104cc565b6103f0576105d1816001600160a01b031660146106fc565b6105dc8360206106fc565b6040516020016105ed929190610993565b60408051601f198184030181529082905262461bcd60e51b82526102e591600401610a08565b61061d82826104cc565b6103f0576000828152602081815260408083206001600160a01b03851684529091529020805460ff191660011790556106533390565b6001600160a01b0316816001600160a01b0316837f2f8788117e7eff1d82e926ec794901d17c78024a50270940304540a733656f0d60405160405180910390a45050565b6106a182826104cc565b156103f0576000828152602081815260408083206001600160a01b0385168085529252808320805460ff1916905551339285917ff6391f5c32d9c69d2a47ea670b442974b53935d1edc7fd64eb21e047a839171b9190a45050565b6060600061070b836002610a51565b610716906002610a68565b67ffffffffffffffff81111561072e5761072e610a7b565b6040519080825280601f01601f191660200182016040528015610758576020820181803683370190505b509050600360fc1b8160008151811061077357610773610a91565b60200101906001600160f81b031916908160001a905350600f60fb1b816001815181106107a2576107a2610a91565b60200101906001600160f81b031916908160001a90535060006107c6846002610a51565b6107d1906001610a68565b90505b6001811115610849576f181899199a1a9b1b9c1cb0b131b232b360811b85600f166010811061080557610805610a91565b1a60f81b82828151811061081b5761081b610a91565b60200101906001600160f81b031916908160001a90535060049490941c9361084281610aa7565b90506107d4565b5083156108985760405162461bcd60e51b815260206004820181905260248201527f537472696e67733a20686578206c656e67746820696e73756666696369656e7460448201526064016102e5565b9392505050565b6000602082840312156108b157600080fd5b81356001600160e01b03198116811461089857600080fd5b80356001600160a01b03811681146108e057600080fd5b919050565b600080604083850312156108f857600080fd5b610901836108c9565b946020939093013593505050565b60006020828403121561092157600080fd5b5035919050565b6000806040838503121561093b57600080fd5b8235915061094b602084016108c9565b90509250929050565b60006020828403121561096657600080fd5b610898826108c9565b60005b8381101561098a578181015183820152602001610972565b50506000910152565b7f416363657373436f6e74726f6c3a206163636f756e74200000000000000000008152600083516109cb81601785016020880161096f565b7001034b99036b4b9b9b4b733903937b6329607d1b60179184019182015283516109fc81602884016020880161096f565b01602801949350505050565b6020815260008251806020840152610a2781604085016020870161096f565b601f01601f19169190910160400192915050565b634e487b7160e01b600052601160045260246000fd5b808202811582820484141761026357610263610a3b565b8082018082111561026357610263610a3b565b634e487b7160e01b600052604160045260246000fd5b634e487b7160e01b600052603260045260246000fd5b600081610ab657610ab6610a3b565b50600019019056fea7e0cd0f2772b23ee4c329892293a6bd99d48c306b094d6d008c9a8bb8b731e4a264697066735822122062fb8f06a01fbdfb16891968812666f6312c1c6eeb202b243b7c6b2eb87ddaa164736f6c634300081a0033",
  "immutableReferences": {},
  "source": "// SPDX-License-Identifier: MIT\npragma solidity ^0.8.0;\n\nimport \"@openzeppelin/contracts/access/AccessControl.sol\";\n\ncontract AttestationManagerImplementation is AccessControl {\n    bytes32 public constant ATTESTOR_ROLE = keccak256(\"ATTESTOR_ROLE\");\n\n    struct Attestation {\n        address subject;\n        bytes32 data;\n    }\n\n    mapping(address => Attestation) private attestations;\n\n    event AttestationCreated(address indexed subject, bytes32 data);\n    event AttestationUpdated(address indexed subject, bytes32 data);\n    event AttestationRemoved(address indexed subject);\n\n    constructor() {\n        _setupRole(DEFAULT_ADMIN_ROLE, msg.sender);\n        _setupRole(ATTESTOR_ROLE, msg.sender);\n    }\n\n    function createAttestation(address subject, bytes32 data) external onlyRole(ATTESTOR_ROLE) {\n        attestations[subject] = Attestation({ subject: subject, data: data });\n        emit AttestationCreated(subject, data);\n    }\n\n    function getAttestation(address subject) external view returns (Attestation memory) {\n        return attestations[subject];\n    }\n\n    function updateAttestation(address subject, bytes32 data) external onlyRole(ATTESTOR_ROLE) {\n        require(attestations[subject].subject != address(0), \"Attestation does not exist\");\n        attestations[subject].data = data;\n        emit AttestationUpdated(subject, data);\n    }\n\n    function removeAttestation(address subject) external onlyRole(ATTESTOR_ROLE) {\n        require(attestations[subject].subject != address(0), \"Attestation does not exist\");\n        delete attestations[subject];\n        emit AttestationRemoved(subject);\n    }\n}\n",
  "sourcePath": "/home/dot/attestation-manager-dist/contracts/AttestationManagerImplementation.sol",
  "compiler": {
    "name": "solc",
    "version": "0.8.26+commit.8a97fa7a.Emscripten.clang"
  },
  "schemaVersion": "3.4.16",
  "updatedAt": "2024-06-25T10:50:55.126Z",
  "devdoc": {
    "events": {
      "RoleAdminChanged(bytes32,bytes32,bytes32)": {
        "details": "Emitted when `newAdminRole` is set as ``role``'s admin role, replacing `previousAdminRole` `DEFAULT_ADMIN_ROLE` is the starting admin for all roles, despite {RoleAdminChanged} not being emitted signaling this. _Available since v3.1._"
      },
      "RoleGranted(bytes32,address,address)": {
        "details": "Emitted when `account` is granted `role`. `sender` is the account that originated the contract call, an admin role bearer except when using {AccessControl-_setupRole}."
      },
      "RoleRevoked(bytes32,address,address)": {
        "details": "Emitted when `account` is revoked `role`. `sender` is the account that originated the contract call:   - if using `revokeRole`, it is the admin role bearer   - if using `renounceRole`, it is the role bearer (i.e. `account`)"
      }
    },
    "kind": "dev",
    "methods": {
      "getRoleAdmin(bytes32)": {
        "details": "Returns the admin role that controls `role`. See {grantRole} and {revokeRole}. To change a role's admin, use {_setRoleAdmin}."
      },
      "grantRole(bytes32,address)": {
        "details": "Grants `role` to `account`. If `account` had not been already granted `role`, emits a {RoleGranted} event. Requirements: - the caller must have ``role``'s admin role."
      },
      "hasRole(bytes32,address)": {
        "details": "Returns `true` if `account` has been granted `role`."
      },
      "renounceRole(bytes32,address)": {
        "details": "Revokes `role` from the calling account. Roles are often managed via {grantRole} and {revokeRole}: this function's purpose is to provide a mechanism for accounts to lose their privileges if they are compromised (such as when a trusted device is misplaced). If the calling account had been revoked `role`, emits a {RoleRevoked} event. Requirements: - the caller must be `account`."
      },
      "revokeRole(bytes32,address)": {
        "details": "Revokes `role` from `account`. If `account` had been granted `role`, emits a {RoleRevoked} event. Requirements: - the caller must have ``role``'s admin role."
      },
      "supportsInterface(bytes4)": {
        "details": "See {IERC165-supportsInterface}."
      }
    },
    "version": 1
  },
  "userdoc": {
    "kind": "user",
    "methods": {},
    "version": 1
  }
}