{
  "contractName": "AttestationManager",
  "abi": [
    {
      "inputs": [
        {
          "internalType": "address",
          "name": "easAddress",
          "type": "address"
        },
        {
          "internalType": "uint256",
          "name": "fee",
          "type": "uint256"
        },
        {
          "internalType": "address",
          "name": "collector",
          "type": "address"
        }
      ],
      "stateMutability": "nonpayable",
      "type": "constructor"
    },
    {
      "anonymous": false,
      "inputs": [
        {
          "indexed": true,
          "internalType": "bytes32",
          "name": "hash",
          "type": "bytes32"
        },
        {
          "indexed": true,
          "internalType": "address",
          "name": "addedBy",
          "type": "address"
        },
        {
          "indexed": false,
          "internalType": "address",
          "name": "addr",
          "type": "address"
        }
      ],
      "name": "AddressAdded",
      "type": "event"
    },
    {
      "anonymous": false,
      "inputs": [
        {
          "indexed": true,
          "internalType": "bytes32",
          "name": "hash",
          "type": "bytes32"
        },
        {
          "indexed": true,
          "internalType": "address",
          "name": "removedBy",
          "type": "address"
        },
        {
          "indexed": false,
          "internalType": "address",
          "name": "addr",
          "type": "address"
        }
      ],
      "name": "AddressRemoved",
      "type": "event"
    },
    {
      "anonymous": false,
      "inputs": [
        {
          "indexed": true,
          "internalType": "bytes32",
          "name": "hash",
          "type": "bytes32"
        },
        {
          "indexed": true,
          "internalType": "address",
          "name": "pivot",
          "type": "address"
        }
      ],
      "name": "AttestationCreated",
      "type": "event"
    },
    {
      "anonymous": false,
      "inputs": [
        {
          "indexed": true,
          "internalType": "bytes32",
          "name": "hash",
          "type": "bytes32"
        },
        {
          "indexed": true,
          "internalType": "address",
          "name": "by",
          "type": "address"
        }
      ],
      "name": "EmergencyBreak",
      "type": "event"
    },
    {
      "anonymous": false,
      "inputs": [
        {
          "indexed": true,
          "internalType": "address",
          "name": "previousOwner",
          "type": "address"
        },
        {
          "indexed": true,
          "internalType": "address",
          "name": "newOwner",
          "type": "address"
        }
      ],
      "name": "OwnershipTransferred",
      "type": "event"
    },
    {
      "anonymous": false,
      "inputs": [
        {
          "indexed": false,
          "internalType": "address",
          "name": "account",
          "type": "address"
        }
      ],
      "name": "Paused",
      "type": "event"
    },
    {
      "anonymous": false,
      "inputs": [
        {
          "indexed": true,
          "internalType": "bytes32",
          "name": "role",
          "type": "bytes32"
        },
        {
          "indexed": true,
          "internalType": "bytes32",
          "name": "previousAdminRole",
          "type": "bytes32"
        },
        {
          "indexed": true,
          "internalType": "bytes32",
          "name": "newAdminRole",
          "type": "bytes32"
        }
      ],
      "name": "RoleAdminChanged",
      "type": "event"
    },
    {
      "anonymous": false,
      "inputs": [
        {
          "indexed": true,
          "internalType": "bytes32",
          "name": "role",
          "type": "bytes32"
        },
        {
          "indexed": true,
          "internalType": "address",
          "name": "account",
          "type": "address"
        },
        {
          "indexed": true,
          "internalType": "address",
          "name": "sender",
          "type": "address"
        }
      ],
      "name": "RoleGranted",
      "type": "event"
    },
    {
      "anonymous": false,
      "inputs": [
        {
          "indexed": true,
          "internalType": "bytes32",
          "name": "role",
          "type": "bytes32"
        },
        {
          "indexed": true,
          "internalType": "address",
          "name": "account",
          "type": "address"
        },
        {
          "indexed": true,
          "internalType": "address",
          "name": "sender",
          "type": "address"
        }
      ],
      "name": "RoleRevoked",
      "type": "event"
    },
    {
      "anonymous": false,
      "inputs": [
        {
          "indexed": false,
          "internalType": "address",
          "name": "account",
          "type": "address"
        }
      ],
      "name": "Unpaused",
      "type": "event"
    },
    {
      "inputs": [],
      "name": "DEFAULT_ADMIN_ROLE",
      "outputs": [
        {
          "internalType": "bytes32",
          "name": "",
          "type": "bytes32"
        }
      ],
      "stateMutability": "view",
      "type": "function"
    },
    {
      "inputs": [],
      "name": "EMERGENCY_ROLE",
      "outputs": [
        {
          "internalType": "bytes32",
          "name": "",
          "type": "bytes32"
        }
      ],
      "stateMutability": "view",
      "type": "function"
    },
    {
      "inputs": [],
      "name": "PIVOT_ROLE",
      "outputs": [
        {
          "internalType": "bytes32",
          "name": "",
          "type": "bytes32"
        }
      ],
      "stateMutability": "view",
      "type": "function"
    },
    {
      "inputs": [],
      "name": "eas",
      "outputs": [
        {
          "internalType": "contract IEASInterface",
          "name": "",
          "type": "address"
        }
      ],
      "stateMutability": "view",
      "type": "function"
    },
    {
      "inputs": [],
      "name": "feeCollector",
      "outputs": [
        {
          "internalType": "address",
          "name": "",
          "type": "address"
        }
      ],
      "stateMutability": "view",
      "type": "function"
    },
    {
      "inputs": [
        {
          "internalType": "bytes32",
          "name": "role",
          "type": "bytes32"
        }
      ],
      "name": "getRoleAdmin",
      "outputs": [
        {
          "internalType": "bytes32",
          "name": "",
          "type": "bytes32"
        }
      ],
      "stateMutability": "view",
      "type": "function"
    },
    {
      "inputs": [
        {
          "internalType": "bytes32",
          "name": "role",
          "type": "bytes32"
        },
        {
          "internalType": "uint256",
          "name": "index",
          "type": "uint256"
        }
      ],
      "name": "getRoleMember",
      "outputs": [
        {
          "internalType": "address",
          "name": "",
          "type": "address"
        }
      ],
      "stateMutability": "view",
      "type": "function"
    },
    {
      "inputs": [
        {
          "internalType": "bytes32",
          "name": "role",
          "type": "bytes32"
        }
      ],
      "name": "getRoleMemberCount",
      "outputs": [
        {
          "internalType": "uint256",
          "name": "",
          "type": "uint256"
        }
      ],
      "stateMutability": "view",
      "type": "function"
    },
    {
      "inputs": [
        {
          "internalType": "bytes32",
          "name": "role",
          "type": "bytes32"
        },
        {
          "internalType": "address",
          "name": "account",
          "type": "address"
        }
      ],
      "name": "grantRole",
      "outputs": [],
      "stateMutability": "nonpayable",
      "type": "function"
    },
    {
      "inputs": [
        {
          "internalType": "bytes32",
          "name": "role",
          "type": "bytes32"
        },
        {
          "internalType": "address",
          "name": "account",
          "type": "address"
        }
      ],
      "name": "hasRole",
      "outputs": [
        {
          "internalType": "bool",
          "name": "",
          "type": "bool"
        }
      ],
      "stateMutability": "view",
      "type": "function"
    },
    {
      "inputs": [],
      "name": "owner",
      "outputs": [
        {
          "internalType": "address",
          "name": "",
          "type": "address"
        }
      ],
      "stateMutability": "view",
      "type": "function"
    },
    {
      "inputs": [],
      "name": "paused",
      "outputs": [
        {
          "internalType": "bool",
          "name": "",
          "type": "bool"
        }
      ],
      "stateMutability": "view",
      "type": "function"
    },
    {
      "inputs": [],
      "name": "registrationFee",
      "outputs": [
        {
          "internalType": "uint256",
          "name": "",
          "type": "uint256"
        }
      ],
      "stateMutability": "view",
      "type": "function"
    },
    {
      "inputs": [],
      "name": "renounceOwnership",
      "outputs": [],
      "stateMutability": "nonpayable",
      "type": "function"
    },
    {
      "inputs": [
        {
          "internalType": "bytes32",
          "name": "role",
          "type": "bytes32"
        },
        {
          "internalType": "address",
          "name": "account",
          "type": "address"
        }
      ],
      "name": "renounceRole",
      "outputs": [],
      "stateMutability": "nonpayable",
      "type": "function"
    },
    {
      "inputs": [
        {
          "internalType": "bytes32",
          "name": "role",
          "type": "bytes32"
        },
        {
          "internalType": "address",
          "name": "account",
          "type": "address"
        }
      ],
      "name": "revokeRole",
      "outputs": [],
      "stateMutability": "nonpayable",
      "type": "function"
    },
    {
      "inputs": [
        {
          "internalType": "bytes4",
          "name": "interfaceId",
          "type": "bytes4"
        }
      ],
      "name": "supportsInterface",
      "outputs": [
        {
          "internalType": "bool",
          "name": "",
          "type": "bool"
        }
      ],
      "stateMutability": "view",
      "type": "function"
    },
    {
      "inputs": [
        {
          "internalType": "address",
          "name": "newOwner",
          "type": "address"
        }
      ],
      "name": "transferOwnership",
      "outputs": [],
      "stateMutability": "nonpayable",
      "type": "function"
    },
    {
      "inputs": [
        {
          "internalType": "bytes32",
          "name": "hash",
          "type": "bytes32"
        },
        {
          "internalType": "address[]",
          "name": "initialAddresses",
          "type": "address[]"
        },
        {
          "internalType": "string[]",
          "name": "details",
          "type": "string[]"
        }
      ],
      "name": "createAttestation",
      "outputs": [],
      "stateMutability": "payable",
      "type": "function"
    },
    {
      "inputs": [
        {
          "internalType": "bytes32",
          "name": "hash",
          "type": "bytes32"
        },
        {
          "internalType": "address",
          "name": "addr",
          "type": "address"
        },
        {
          "internalType": "string",
          "name": "detail",
          "type": "string"
        }
      ],
      "name": "addAddress",
      "outputs": [],
      "stateMutability": "nonpayable",
      "type": "function"
    },
    {
      "inputs": [
        {
          "internalType": "bytes32",
          "name": "hash",
          "type": "bytes32"
        },
        {
          "internalType": "address",
          "name": "addr",
          "type": "address"
        }
      ],
      "name": "removeAddress",
      "outputs": [],
      "stateMutability": "nonpayable",
      "type": "function"
    },
    {
      "inputs": [
        {
          "internalType": "bytes32",
          "name": "hash",
          "type": "bytes32"
        }
      ],
      "name": "triggerEmergencyBreak",
      "outputs": [],
      "stateMutability": "nonpayable",
      "type": "function"
    },
    {
      "inputs": [
        {
          "internalType": "bytes32",
          "name": "hash",
          "type": "bytes32"
        }
      ],
      "name": "getAddresses",
      "outputs": [
        {
          "internalType": "address[]",
          "name": "",
          "type": "address[]"
        }
      ],
      "stateMutability": "view",
      "type": "function"
    },
    {
      "inputs": [
        {
          "internalType": "bytes32",
          "name": "hash",
          "type": "bytes32"
        },
        {
          "internalType": "address",
          "name": "addr",
          "type": "address"
        }
      ],
      "name": "getDetails",
      "outputs": [
        {
          "internalType": "string",
          "name": "",
          "type": "string"
        }
      ],
      "stateMutability": "view",
      "type": "function"
    },
    {
      "inputs": [
        {
          "internalType": "bytes32",
          "name": "attestationId",
          "type": "bytes32"
        },
        {
          "internalType": "bytes32",
          "name": "hash",
          "type": "bytes32"
        }
      ],
      "name": "verifyAttestation",
      "outputs": [
        {
          "internalType": "bool",
          "name": "",
          "type": "bool"
        }
      ],
      "stateMutability": "view",
      "type": "function"
    },
    {
      "inputs": [
        {
          "internalType": "uint256",
          "name": "newFee",
          "type": "uint256"
        }
      ],
      "name": "updateRegistrationFee",
      "outputs": [],
      "stateMutability": "nonpayable",
      "type": "function"
    },
    {
      "inputs": [
        {
          "internalType": "address",
          "name": "newCollector",
          "type": "address"
        }
      ],
      "name": "updateFeeCollector",
      "outputs": [],
      "stateMutability": "nonpayable",
      "type": "function"
    }
  ],
  "bytecode": "0x608060405234801561001057600080fd5b5060405161219338038061219383398101604081905261002f916102ca565b610038336100e8565b6000805460ff60a01b19168155600380546001600160a01b038087166001600160a01b0319928316179092556004859055600580549285169290911691909117905561008a906100853390565b610138565b6100b57feae4d044bebeef470e7d5177ea0b8c8c9c77ddc3a573d8675dc2c38af8f7bca46000610146565b6100e07fbf233dd2aafeb4d50879c4aa5c81e96d92f6e6945c906a58f9f2d1c1631b4b266000610146565b505050610306565b600080546001600160a01b038381166001600160a01b0319831681178455604051919092169283917f8be0079c531659141344cd1fd0a4f28419497f9722a3daafe3b4186f6b6457e09190a35050565b6101428282610193565b5050565b6000828152600160208190526040808320909101805490849055905190918391839186917fbd79b86ffe0ab8e8776151514217cd7cacd52c909f66475c3af44e129f0b00ff9190a4505050565b61019d82826101ba565b60008281526002602052604090206101b59082610241565b505050565b60008281526001602090815260408083206001600160a01b038516845290915290205460ff166101425760008281526001602081815260408084206001600160a01b0386168086529252808420805460ff19169093179092559051339285917f2f8788117e7eff1d82e926ec794901d17c78024a50270940304540a733656f0d9190a45050565b6000610256836001600160a01b03841661025f565b90505b92915050565b60008181526001830160205260408120546102a657508154600181810184556000848152602080822090930184905584548482528286019093526040902091909155610259565b506000610259565b80516001600160a01b03811681146102c557600080fd5b919050565b6000806000606084860312156102df57600080fd5b6102e8846102ae565b9250602084015191506102fd604085016102ae565b90509250925092565b611e7e806103156000396000f3fe60806040526004361061019c5760003560e01c80636fccb581116100ec578063af582c6b1161008a578063d2c35ce811610064578063d2c35ce8146104cd578063d547741f146104ed578063f2fde38b1461050d578063fd4541731461052d57600080fd5b8063af582c6b1461046d578063c415b95c1461048d578063ca15c873146104ad57600080fd5b80638da5cb5b116100c65780638da5cb5b146103fa5780639010d07c1461041857806391d1485414610438578063a217fddf1461045857600080fd5b80636fccb5811461038d578063715018a6146103ad5780638150864d146103c257600080fd5b8063317c0dae116101595780635c975abb116101335780635c975abb1461030e57806361fdb6951461032d57806366720c681461035a57806369721d411461036d57600080fd5b8063317c0dae146102a157806336568abe146102c15780633fdada7a146102e157600080fd5b806301ffc9a7146101a157806311e8a025146101d657806314c44e09146101f857806320df43591461021c578063248a9ca3146102505780632f2ff15d14610281575b600080fd5b3480156101ad57600080fd5b506101c16101bc36600461165e565b61054f565b60405190151581526020015b60405180910390f35b3480156101e257600080fd5b506101f66101f1366004611688565b61057a565b005b34801561020457600080fd5b5061020e60045481565b6040519081526020016101cd565b34801561022857600080fd5b5061020e7fbf233dd2aafeb4d50879c4aa5c81e96d92f6e6945c906a58f9f2d1c1631b4b2681565b34801561025c57600080fd5b5061020e61026b366004611688565b6000908152600160208190526040909120015490565b34801561028d57600080fd5b506101f661029c3660046116bd565b610661565b3480156102ad57600080fd5b506101f66102bc3660046117a0565b61068d565b3480156102cd57600080fd5b506101f66102dc3660046116bd565b610815565b3480156102ed57600080fd5b506103016102fc366004611688565b610893565b6040516101cd919061183c565b34801561031a57600080fd5b50600054600160a01b900460ff166101c1565b34801561033957600080fd5b5061034d6103483660046116bd565b610976565b6040516101cd919061189f565b6101f6610368366004611968565b610a5b565b34801561037957600080fd5b506101f66103883660046116bd565b610d37565b34801561039957600080fd5b506101c16103a8366004611a30565b610dfc565b3480156103b957600080fd5b506101f6610e77565b3480156103ce57600080fd5b506003546103e2906001600160a01b031681565b6040516001600160a01b0390911681526020016101cd565b34801561040657600080fd5b506000546001600160a01b03166103e2565b34801561042457600080fd5b506103e2610433366004611a30565b610ead565b34801561044457600080fd5b506101c16104533660046116bd565b610ec5565b34801561046457600080fd5b5061020e600081565b34801561047957600080fd5b506101f6610488366004611688565b610ef0565b34801561049957600080fd5b506005546103e2906001600160a01b031681565b3480156104b957600080fd5b5061020e6104c8366004611688565b610f1f565b3480156104d957600080fd5b506101f66104e8366004611a52565b610f36565b3480156104f957600080fd5b506101f66105083660046116bd565b610f82565b34801561051957600080fd5b506101f6610528366004611a52565b610fa9565b34801561053957600080fd5b5061020e600080516020611e2983398151915281565b60006001600160e01b03198216635a05180f60e01b1480610574575061057482611044565b92915050565b7fbf233dd2aafeb4d50879c4aa5c81e96d92f6e6945c906a58f9f2d1c1631b4b266105a58133611079565b600082815260066020526040902080546001600160a01b03166105e35760405162461bcd60e51b81526004016105da90611a6d565b60405180910390fd5b6105eb6110dd565b600083815260066020526040812080546001600160a01b03191681559060018201818181610619828261162c565b5050505050506106263390565b6001600160a01b0316837f1986000d141f4eae8d52d88c421b4c917fac0e4107e7b253430b12a8c862a80b60405160405180910390a3505050565b6000828152600160208190526040909120015461067e8133611079565b6106888383611182565b505050565b600080516020611e298339815191526106a68133611079565b600084815260066020526040902080546001600160a01b031633146106fe5760405162461bcd60e51b815260206004820152600e60248201526d139bdd08185d5d1a1bdc9a5e995960921b60448201526064016105da565b61070b60018201856111a0565b506001600160a01b038416600090815260038201602052604090206107308482611b1b565b5060008484604051602001610746929190611bda565b60408051601f1981840301815290829052600354633815cef760e11b83529092506001600160a01b03169063702b9dee906107899033908a908690600401611c06565b6020604051808303816000875af11580156107a8573d6000803e3d6000fd5b505050506040513d601f19601f820116820180604052508101906107cc9190611c36565b506040516001600160a01b0386168152339087907f6bf497467d2c5e2dce3ea836ecdf3e14fceae672f679b33c878dd79a6df992429060200160405180910390a3505050505050565b6001600160a01b03811633146108855760405162461bcd60e51b815260206004820152602f60248201527f416363657373436f6e74726f6c3a2063616e206f6e6c792072656e6f756e636560448201526e103937b632b9903337b91039b2b63360891b60648201526084016105da565b61088f82826111b5565b5050565b60008181526006602052604090208054606091906001600160a01b03166108cc5760405162461bcd60e51b81526004016105da90611a6d565b60006108da826001016111d7565b905060008167ffffffffffffffff8111156108f7576108f76116e9565b604051908082528060200260200182016040528015610920578160200160208202803683370190505b50905060005b8281101561096d5761093b60018501826111e1565b82828151811061094d5761094d611c4f565b6001600160a01b0390921660209283029190910190910152600101610926565b50949350505050565b60008281526006602052604090208054606091906001600160a01b03166109af5760405162461bcd60e51b81526004016105da90611a6d565b6001600160a01b0383166000908152600382016020526040902080546109d490611a9a565b80601f0160208091040260200160405190810160405280929190818152602001828054610a0090611a9a565b8015610a4d5780601f10610a2257610100808354040283529160200191610a4d565b820191906000526020600020905b815481529060010190602001808311610a3057829003601f168201915b505050505091505092915050565b600080516020611e29833981519152610a748133611079565b600454341015610ab95760405162461bcd60e51b815260206004820152601060248201526f496e73756666696369656e742066656560801b60448201526064016105da565b6000848152600660205260409020546001600160a01b031615610b1e5760405162461bcd60e51b815260206004820152601a60248201527f4174746573746174696f6e20616c72656164792065786973747300000000000060448201526064016105da565b8151835114610b635760405162461bcd60e51b81526020600482015260116024820152704d69736d61746368656420696e7075747360781b60448201526064016105da565b600084815260066020526040812080546001600160a01b03191633178155905b8451811015610c2b57610bbb858281518110610ba157610ba1611c4f565b6020026020010151836001016111a090919063ffffffff16565b50838181518110610bce57610bce611c4f565b6020026020010151826003016000878481518110610bee57610bee611c4f565b60200260200101516001600160a01b03166001600160a01b031681526020019081526020016000209081610c229190611b1b565b50600101610b83565b5060008484604051602001610c41929190611c65565b60408051601f1981840301815290829052600354633815cef760e11b83529092506001600160a01b03169063702b9dee90610c849033908a908690600401611c06565b6020604051808303816000875af1158015610ca3573d6000803e3d6000fd5b505050506040513d601f19601f82011682018060405250810190610cc79190611c36565b50604051339087907f96dfc1748567038daaef0eda9527958031c6bcd44d9d881b0b864f5afc2d0ece90600090a350506005546040516001600160a01b03909116903480156108fc02916000818181858888f19350505050158015610d30573d6000803e3d6000fd5b5050505050565b600080516020611e29833981519152610d508133611079565b600083815260066020526040902080546001600160a01b03163314610da85760405162461bcd60e51b815260206004820152600e60248201526d139bdd08185d5d1a1bdc9a5e995960921b60448201526064016105da565b610db560018201846111ed565b506040516001600160a01b0384168152339085907f80cc86a72804b8a053ad729822ef25e98d9d58c6c42881acb240784a42debb179060200160405180910390a350505050565b600354604051622747f760e91b815260048101849052602481018390526000916001600160a01b031690634e8fee0090604401602060405180830381865afa158015610e4c573d6000803e3d6000fd5b505050506040513d601f19601f82011682018060405250810190610e709190611cdc565b9392505050565b6000546001600160a01b03163314610ea15760405162461bcd60e51b81526004016105da90611cfe565b610eab6000611202565b565b6000828152600260205260408120610e7090836111e1565b60009182526001602090815260408084206001600160a01b0393909316845291905290205460ff1690565b6000546001600160a01b03163314610f1a5760405162461bcd60e51b81526004016105da90611cfe565b600455565b6000818152600260205260408120610574906111d7565b6000546001600160a01b03163314610f605760405162461bcd60e51b81526004016105da90611cfe565b600580546001600160a01b0319166001600160a01b0392909216919091179055565b60008281526001602081905260409091200154610f9f8133611079565b61068883836111b5565b6000546001600160a01b03163314610fd35760405162461bcd60e51b81526004016105da90611cfe565b6001600160a01b0381166110385760405162461bcd60e51b815260206004820152602660248201527f4f776e61626c653a206e6577206f776e657220697320746865207a65726f206160448201526564647265737360d01b60648201526084016105da565b61104181611202565b50565b60006001600160e01b03198216637965db0b60e01b148061057457506301ffc9a760e01b6001600160e01b0319831614610574565b6110838282610ec5565b61088f5761109b816001600160a01b03166014611252565b6110a6836020611252565b6040516020016110b7929190611d33565b60408051601f198184030181529082905262461bcd60e51b82526105da9160040161189f565b600054600160a01b900460ff161561112a5760405162461bcd60e51b815260206004820152601060248201526f14185d5cd8589b194e881c185d5cd95960821b60448201526064016105da565b6000805460ff60a01b1916600160a01b1790557f62e78cea01bee320cd4e420270b5ea74000d11b0c9f74754ebdbfc544b05a2586111653390565b6040516001600160a01b03909116815260200160405180910390a1565b61118c82826113ee565b600082815260026020526040902061068890825b6000610e70836001600160a01b038416611459565b6111bf82826114a8565b600082815260026020526040902061068890826111ed565b6000610574825490565b6000610e70838361150f565b6000610e70836001600160a01b038416611539565b600080546001600160a01b038381166001600160a01b0319831681178455604051919092169283917f8be0079c531659141344cd1fd0a4f28419497f9722a3daafe3b4186f6b6457e09190a35050565b60606000611261836002611dbe565b61126c906002611dd5565b67ffffffffffffffff811115611284576112846116e9565b6040519080825280601f01601f1916602001820160405280156112ae576020820181803683370190505b509050600360fc1b816000815181106112c9576112c9611c4f565b60200101906001600160f81b031916908160001a905350600f60fb1b816001815181106112f8576112f8611c4f565b60200101906001600160f81b031916908160001a905350600061131c846002611dbe565b611327906001611dd5565b90505b600181111561139f576f181899199a1a9b1b9c1cb0b131b232b360811b85600f166010811061135b5761135b611c4f565b1a60f81b82828151811061137157611371611c4f565b60200101906001600160f81b031916908160001a90535060049490941c9361139881611de8565b905061132a565b508315610e705760405162461bcd60e51b815260206004820181905260248201527f537472696e67733a20686578206c656e67746820696e73756666696369656e7460448201526064016105da565b6113f88282610ec5565b61088f5760008281526001602081815260408084206001600160a01b0386168086529252808420805460ff19169093179092559051339285917f2f8788117e7eff1d82e926ec794901d17c78024a50270940304540a733656f0d9190a45050565b60008181526001830160205260408120546114a057508154600181810184556000848152602080822090930184905584548482528286019093526040902091909155610574565b506000610574565b6114b28282610ec5565b1561088f5760008281526001602090815260408083206001600160a01b0385168085529252808320805460ff1916905551339285917ff6391f5c32d9c69d2a47ea670b442974b53935d1edc7fd64eb21e047a839171b9190a45050565b600082600001828154811061152657611526611c4f565b9060005260206000200154905092915050565b6000818152600183016020526040812054801561162257600061155d600183611dff565b855490915060009061157190600190611dff565b90508181146115d657600086600001828154811061159157611591611c4f565b90600052602060002001549050808760000184815481106115b4576115b4611c4f565b6000918252602080832090910192909255918252600188019052604090208390555b85548690806115e7576115e7611e12565b600190038181906000526020600020016000905590558560010160008681526020019081526020016000206000905560019350505050610574565b6000915050610574565b508054600082559060005260206000209081019061104191905b8082111561165a5760008155600101611646565b5090565b60006020828403121561167057600080fd5b81356001600160e01b031981168114610e7057600080fd5b60006020828403121561169a57600080fd5b5035919050565b80356001600160a01b03811681146116b857600080fd5b919050565b600080604083850312156116d057600080fd5b823591506116e0602084016116a1565b90509250929050565b634e487b7160e01b600052604160045260246000fd5b604051601f8201601f1916810167ffffffffffffffff81118282101715611728576117286116e9565b604052919050565b600082601f83011261174157600080fd5b813567ffffffffffffffff81111561175b5761175b6116e9565b61176e601f8201601f19166020016116ff565b81815284602083860101111561178357600080fd5b816020850160208301376000918101602001919091529392505050565b6000806000606084860312156117b557600080fd5b833592506117c5602085016116a1565b9150604084013567ffffffffffffffff8111156117e157600080fd5b6117ed86828701611730565b9150509250925092565b600081518084526020840193506020830160005b828110156118325781516001600160a01b031686526020958601959091019060010161180b565b5093949350505050565b602081526000610e7060208301846117f7565b60005b8381101561186a578181015183820152602001611852565b50506000910152565b6000815180845261188b81602086016020860161184f565b601f01601f19169290920160200192915050565b602081526000610e706020830184611873565b600067ffffffffffffffff8211156118cc576118cc6116e9565b5060051b60200190565b600082601f8301126118e757600080fd5b81356118fa6118f5826118b2565b6116ff565b8082825260208201915060208360051b86010192508583111561191c57600080fd5b602085015b8381101561195e57803567ffffffffffffffff81111561194057600080fd5b61194f886020838a0101611730565b84525060209283019201611921565b5095945050505050565b60008060006060848603121561197d57600080fd5b83359250602084013567ffffffffffffffff81111561199b57600080fd5b8401601f810186136119ac57600080fd5b80356119ba6118f5826118b2565b8082825260208201915060208360051b8501019250888311156119dc57600080fd5b6020840193505b82841015611a05576119f4846116a1565b8252602093840193909101906119e3565b9450505050604084013567ffffffffffffffff811115611a2457600080fd5b6117ed868287016118d6565b60008060408385031215611a4357600080fd5b50508035926020909101359150565b600060208284031215611a6457600080fd5b610e70826116a1565b60208082526013908201527224b73b30b634b21030ba3a32b9ba30ba34b7b760691b604082015260600190565b600181811c90821680611aae57607f821691505b602082108103611ace57634e487b7160e01b600052602260045260246000fd5b50919050565b601f82111561068857806000526020600020601f840160051c81016020851015611afb5750805b601f840160051c820191505b81811015610d305760008155600101611b07565b815167ffffffffffffffff811115611b3557611b356116e9565b611b4981611b438454611a9a565b84611ad4565b6020601f821160018114611b7d5760008315611b655750848201515b600019600385901b1c1916600184901b178455610d30565b600084815260208120601f198516915b82811015611bad5787850151825560209485019460019092019101611b8d565b5084821015611bcb5786840151600019600387901b60f8161c191681555b50505050600190811b01905550565b6001600160a01b0383168152604060208201819052600090611bfe90830184611873565b949350505050565b60018060a01b0384168152826020820152606060408201526000611c2d6060830184611873565b95945050505050565b600060208284031215611c4857600080fd5b5051919050565b634e487b7160e01b600052603260045260246000fd5b604081526000611c7860408301856117f7565b828103602084015280845180835260208301915060208160051b8401016020870160005b83811015611cce57601f19868403018552611cb8838351611873565b6020958601959093509190910190600101611c9c565b509098975050505050505050565b600060208284031215611cee57600080fd5b81518015158114610e7057600080fd5b6020808252818101527f4f776e61626c653a2063616c6c6572206973206e6f7420746865206f776e6572604082015260600190565b7f416363657373436f6e74726f6c3a206163636f756e7420000000000000000000815260008351611d6b81601785016020880161184f565b7001034b99036b4b9b9b4b733903937b6329607d1b6017918401918201528351611d9c81602884016020880161184f565b01602801949350505050565b634e487b7160e01b600052601160045260246000fd5b808202811582820484141761057457610574611da8565b8082018082111561057457610574611da8565b600081611df757611df7611da8565b506000190190565b8181038181111561057457610574611da8565b634e487b7160e01b600052603160045260246000fdfeeae4d044bebeef470e7d5177ea0b8c8c9c77ddc3a573d8675dc2c38af8f7bca4a26469706673582212200e56d6c348d03da3e30380f02a952039b1318003a4a47bb92c9b258d810d901a64736f6c634300081a0033",
  "immutableReferences": {},
  "source": "// SPDX-License-Identifier: MIT\npragma solidity ^0.8.0;\n\nimport \"@openzeppelin/contracts/access/Ownable.sol\";\nimport \"@openzeppelin/contracts/utils/structs/EnumerableSet.sol\";\nimport \"@openzeppelin/contracts/security/Pausable.sol\";\nimport \"@openzeppelin/contracts/access/AccessControl.sol\";\nimport \"@openzeppelin/contracts/access/AccessControlEnumerable.sol\";\n\ninterface IEASInterface {\n    function attest(address attester, bytes32 hash, bytes memory data) external returns (bytes32);\n    function verify(bytes32 attestationId, bytes32 hash) external view returns (bool);\n}\n\ncontract AttestationManager is Ownable, Pausable, AccessControlEnumerable {\n    using EnumerableSet for EnumerableSet.AddressSet;\n\n    bytes32 public constant PIVOT_ROLE = keccak256(\"PIVOT_ROLE\");\n    bytes32 public constant EMERGENCY_ROLE = keccak256(\"EMERGENCY_ROLE\");\n\n    IEASInterface public eas;\n    uint256 public registrationFee;\n    address public feeCollector;\n\n    struct Attestation {\n        address pivot;\n        EnumerableSet.AddressSet addresses;\n        mapping(address => string) details;\n    }\n\n    mapping(bytes32 => Attestation) private attestations;\n\n    event AttestationCreated(bytes32 indexed hash, address indexed pivot);\n    event AddressAdded(bytes32 indexed hash, address indexed addedBy, address addr);\n    event AddressRemoved(bytes32 indexed hash, address indexed removedBy, address addr);\n    event EmergencyBreak(bytes32 indexed hash, address indexed by);\n\n    constructor(address easAddress, uint256 fee, address collector) {\n        eas = IEASInterface(easAddress);\n        registrationFee = fee;\n        feeCollector = collector;\n        _setupRole(DEFAULT_ADMIN_ROLE, _msgSender());\n        _setRoleAdmin(PIVOT_ROLE, DEFAULT_ADMIN_ROLE);\n        _setRoleAdmin(EMERGENCY_ROLE, DEFAULT_ADMIN_ROLE);\n    }\n\n    modifier collectFee() {\n        require(msg.value >= registrationFee, \"Insufficient fee\");\n        _;\n        payable(feeCollector).transfer(msg.value);\n    }\n\n    function createAttestation(bytes32 hash, address[] memory initialAddresses, string[] memory details) external payable onlyRole(PIVOT_ROLE) collectFee {\n        require(attestations[hash].pivot == address(0), \"Attestation already exists\");\n        require(initialAddresses.length == details.length, \"Mismatched inputs\");\n\n        Attestation storage attestation = attestations[hash];\n        attestation.pivot = _msgSender();\n\n        for (uint256 i = 0; i < initialAddresses.length; i++) {\n            attestation.addresses.add(initialAddresses[i]);\n            attestation.details[initialAddresses[i]] = details[i];\n        }\n\n        bytes memory data = abi.encode(initialAddresses, details);\n        eas.attest(_msgSender(), hash, data);\n\n        emit AttestationCreated(hash, _msgSender());\n    }\n\n    function addAddress(bytes32 hash, address addr, string memory detail) external onlyRole(PIVOT_ROLE) {\n        Attestation storage attestation = attestations[hash];\n        require(attestation.pivot == _msgSender(), \"Not authorized\");\n\n        attestation.addresses.add(addr);\n        attestation.details[addr] = detail;\n\n        bytes memory data = abi.encode(addr, detail);\n        eas.attest(_msgSender(), hash, data);\n\n        emit AddressAdded(hash, _msgSender(), addr);\n    }\n\n    function removeAddress(bytes32 hash, address addr) external onlyRole(PIVOT_ROLE) {\n        Attestation storage attestation = attestations[hash];\n        require(attestation.pivot == _msgSender(), \"Not authorized\");\n\n        attestation.addresses.remove(addr);\n\n        emit AddressRemoved(hash, _msgSender(), addr);\n    }\n\n    function triggerEmergencyBreak(bytes32 hash) external onlyRole(EMERGENCY_ROLE) {\n        Attestation storage attestation = attestations[hash];\n        require(attestation.pivot != address(0), \"Invalid attestation\");\n\n        _pause();\n        delete attestations[hash];\n\n        emit EmergencyBreak(hash, _msgSender());\n    }\n\n    function getAddresses(bytes32 hash) external view returns (address[] memory) {\n        Attestation storage attestation = attestations[hash];\n        require(attestation.pivot != address(0), \"Invalid attestation\");\n\n        uint256 length = attestation.addresses.length();\n        address[] memory addresses = new address[](length);\n        for (uint256 i = 0; i < length; i++) {\n            addresses[i] = attestation.addresses.at(i);\n        }\n        return addresses;\n    }\n\n    function getDetails(bytes32 hash, address addr) external view returns (string memory) {\n        Attestation storage attestation = attestations[hash];\n        require(attestation.pivot != address(0), \"Invalid attestation\");\n\n        return attestation.details[addr];\n    }\n\n    function verifyAttestation(bytes32 attestationId, bytes32 hash) external view returns (bool) {\n        return eas.verify(attestationId, hash);\n    }\n\n    function updateRegistrationFee(uint256 newFee) external onlyOwner {\n        registrationFee = newFee;\n    }\n\n    function updateFeeCollector(address newCollector) external onlyOwner {\n        feeCollector = newCollector;\n    }\n}\n",
  "sourcePath": "/home/dot/attestation-manager-dist/contracts/AttestationManager.sol",
  "compiler": {
    "name": "solc",
    "version": "0.8.26+commit.8a97fa7a.Emscripten.clang"
  },
  "schemaVersion": "3.4.16",
  "updatedAt": "2024-06-25T10:50:55.117Z",
  "devdoc": {
    "events": {
      "Paused(address)": {
        "details": "Emitted when the pause is triggered by `account`."
      },
      "RoleAdminChanged(bytes32,bytes32,bytes32)": {
        "details": "Emitted when `newAdminRole` is set as ``role``'s admin role, replacing `previousAdminRole` `DEFAULT_ADMIN_ROLE` is the starting admin for all roles, despite {RoleAdminChanged} not being emitted signaling this. _Available since v3.1._"
      },
      "RoleGranted(bytes32,address,address)": {
        "details": "Emitted when `account` is granted `role`. `sender` is the account that originated the contract call, an admin role bearer except when using {AccessControl-_setupRole}."
      },
      "RoleRevoked(bytes32,address,address)": {
        "details": "Emitted when `account` is revoked `role`. `sender` is the account that originated the contract call:   - if using `revokeRole`, it is the admin role bearer   - if using `renounceRole`, it is the role bearer (i.e. `account`)"
      },
      "Unpaused(address)": {
        "details": "Emitted when the pause is lifted by `account`."
      }
    },
    "kind": "dev",
    "methods": {
      "getRoleAdmin(bytes32)": {
        "details": "Returns the admin role that controls `role`. See {grantRole} and {revokeRole}. To change a role's admin, use {_setRoleAdmin}."
      },
      "getRoleMember(bytes32,uint256)": {
        "details": "Returns one of the accounts that have `role`. `index` must be a value between 0 and {getRoleMemberCount}, non-inclusive. Role bearers are not sorted in any particular way, and their ordering may change at any point. WARNING: When using {getRoleMember} and {getRoleMemberCount}, make sure you perform all queries on the same block. See the following https://forum.openzeppelin.com/t/iterating-over-elements-on-enumerableset-in-openzeppelin-contracts/2296[forum post] for more information."
      },
      "getRoleMemberCount(bytes32)": {
        "details": "Returns the number of accounts that have `role`. Can be used together with {getRoleMember} to enumerate all bearers of a role."
      },
      "grantRole(bytes32,address)": {
        "details": "Grants `role` to `account`. If `account` had not been already granted `role`, emits a {RoleGranted} event. Requirements: - the caller must have ``role``'s admin role."
      },
      "hasRole(bytes32,address)": {
        "details": "Returns `true` if `account` has been granted `role`."
      },
      "owner()": {
        "details": "Returns the address of the current owner."
      },
      "paused()": {
        "details": "Returns true if the contract is paused, and false otherwise."
      },
      "renounceOwnership()": {
        "details": "Leaves the contract without owner. It will not be possible to call `onlyOwner` functions anymore. Can only be called by the current owner. NOTE: Renouncing ownership will leave the contract without an owner, thereby removing any functionality that is only available to the owner."
      },
      "renounceRole(bytes32,address)": {
        "details": "Revokes `role` from the calling account. Roles are often managed via {grantRole} and {revokeRole}: this function's purpose is to provide a mechanism for accounts to lose their privileges if they are compromised (such as when a trusted device is misplaced). If the calling account had been revoked `role`, emits a {RoleRevoked} event. Requirements: - the caller must be `account`."
      },
      "revokeRole(bytes32,address)": {
        "details": "Revokes `role` from `account`. If `account` had been granted `role`, emits a {RoleRevoked} event. Requirements: - the caller must have ``role``'s admin role."
      },
      "supportsInterface(bytes4)": {
        "details": "See {IERC165-supportsInterface}."
      },
      "transferOwnership(address)": {
        "details": "Transfers ownership of the contract to a new account (`newOwner`). Can only be called by the current owner."
      }
    },
    "version": 1
  },
  "userdoc": {
    "kind": "user",
    "methods": {},
    "version": 1
  }
}