{
  "contractName": "CCIPCrossChainBridge",
  "abi": [
    {
      "anonymous": false,
      "inputs": [
        {
          "indexed": true,
          "internalType": "address",
          "name": "destinationChain",
          "type": "address"
        },
        {
          "indexed": false,
          "internalType": "address",
          "name": "bridgeAddress",
          "type": "address"
        }
      ],
      "name": "BridgeAddressSet",
      "type": "event"
    },
    {
      "anonymous": false,
      "inputs": [
        {
          "indexed": true,
          "internalType": "address",
          "name": "destinationChain",
          "type": "address"
        },
        {
          "indexed": false,
          "internalType": "uint256",
          "name": "fee",
          "type": "uint256"
        }
      ],
      "name": "BridgeFeeSet",
      "type": "event"
    },
    {
      "anonymous": false,
      "inputs": [
        {
          "indexed": true,
          "internalType": "address",
          "name": "sourceChain",
          "type": "address"
        },
        {
          "indexed": false,
          "internalType": "bytes",
          "name": "data",
          "type": "bytes"
        }
      ],
      "name": "DataReceived",
      "type": "event"
    },
    {
      "anonymous": false,
      "inputs": [
        {
          "indexed": true,
          "internalType": "address",
          "name": "destinationChain",
          "type": "address"
        },
        {
          "indexed": false,
          "internalType": "bytes",
          "name": "data",
          "type": "bytes"
        }
      ],
      "name": "DataSent",
      "type": "event"
    },
    {
      "anonymous": false,
      "inputs": [
        {
          "indexed": true,
          "internalType": "address",
          "name": "destinationChain",
          "type": "address"
        },
        {
          "indexed": false,
          "internalType": "address",
          "name": "externalBridgeContract",
          "type": "address"
        }
      ],
      "name": "ExternalBridgeContractSet",
      "type": "event"
    },
    {
      "anonymous": false,
      "inputs": [
        {
          "indexed": true,
          "internalType": "bytes32",
          "name": "role",
          "type": "bytes32"
        },
        {
          "indexed": true,
          "internalType": "bytes32",
          "name": "previousAdminRole",
          "type": "bytes32"
        },
        {
          "indexed": true,
          "internalType": "bytes32",
          "name": "newAdminRole",
          "type": "bytes32"
        }
      ],
      "name": "RoleAdminChanged",
      "type": "event"
    },
    {
      "anonymous": false,
      "inputs": [
        {
          "indexed": true,
          "internalType": "bytes32",
          "name": "role",
          "type": "bytes32"
        },
        {
          "indexed": true,
          "internalType": "address",
          "name": "account",
          "type": "address"
        },
        {
          "indexed": true,
          "internalType": "address",
          "name": "sender",
          "type": "address"
        }
      ],
      "name": "RoleGranted",
      "type": "event"
    },
    {
      "anonymous": false,
      "inputs": [
        {
          "indexed": true,
          "internalType": "bytes32",
          "name": "role",
          "type": "bytes32"
        },
        {
          "indexed": true,
          "internalType": "address",
          "name": "account",
          "type": "address"
        },
        {
          "indexed": true,
          "internalType": "address",
          "name": "sender",
          "type": "address"
        }
      ],
      "name": "RoleRevoked",
      "type": "event"
    },
    {
      "anonymous": false,
      "inputs": [
        {
          "indexed": true,
          "internalType": "address",
          "name": "destinationChain",
          "type": "address"
        },
        {
          "indexed": false,
          "internalType": "address",
          "name": "tokenAddress",
          "type": "address"
        }
      ],
      "name": "SupportedTokenAdded",
      "type": "event"
    },
    {
      "anonymous": false,
      "inputs": [
        {
          "indexed": true,
          "internalType": "uint256",
          "name": "transferId",
          "type": "uint256"
        }
      ],
      "name": "TransferCompleted",
      "type": "event"
    },
    {
      "inputs": [],
      "name": "BRIDGE_ADMIN_ROLE",
      "outputs": [
        {
          "internalType": "bytes32",
          "name": "",
          "type": "bytes32"
        }
      ],
      "stateMutability": "view",
      "type": "function"
    },
    {
      "inputs": [],
      "name": "BRIDGE_OPERATOR_ROLE",
      "outputs": [
        {
          "internalType": "bytes32",
          "name": "",
          "type": "bytes32"
        }
      ],
      "stateMutability": "view",
      "type": "function"
    },
    {
      "inputs": [],
      "name": "DEFAULT_ADMIN_ROLE",
      "outputs": [
        {
          "internalType": "bytes32",
          "name": "",
          "type": "bytes32"
        }
      ],
      "stateMutability": "view",
      "type": "function"
    },
    {
      "inputs": [
        {
          "internalType": "address",
          "name": "",
          "type": "address"
        }
      ],
      "name": "bridgeAddresses",
      "outputs": [
        {
          "internalType": "address",
          "name": "",
          "type": "address"
        }
      ],
      "stateMutability": "view",
      "type": "function"
    },
    {
      "inputs": [
        {
          "internalType": "address",
          "name": "",
          "type": "address"
        }
      ],
      "name": "bridgeFees",
      "outputs": [
        {
          "internalType": "uint256",
          "name": "",
          "type": "uint256"
        }
      ],
      "stateMutability": "view",
      "type": "function"
    },
    {
      "inputs": [],
      "name": "chainlink",
      "outputs": [
        {
          "internalType": "contract IChainlinkCCIP",
          "name": "",
          "type": "address"
        }
      ],
      "stateMutability": "view",
      "type": "function"
    },
    {
      "inputs": [
        {
          "internalType": "address",
          "name": "",
          "type": "address"
        }
      ],
      "name": "externalBridgeContracts",
      "outputs": [
        {
          "internalType": "contract IExternalBridge",
          "name": "",
          "type": "address"
        }
      ],
      "stateMutability": "view",
      "type": "function"
    },
    {
      "inputs": [
        {
          "internalType": "bytes32",
          "name": "role",
          "type": "bytes32"
        }
      ],
      "name": "getRoleAdmin",
      "outputs": [
        {
          "internalType": "bytes32",
          "name": "",
          "type": "bytes32"
        }
      ],
      "stateMutability": "view",
      "type": "function"
    },
    {
      "inputs": [
        {
          "internalType": "bytes32",
          "name": "role",
          "type": "bytes32"
        },
        {
          "internalType": "address",
          "name": "account",
          "type": "address"
        }
      ],
      "name": "grantRole",
      "outputs": [],
      "stateMutability": "nonpayable",
      "type": "function"
    },
    {
      "inputs": [
        {
          "internalType": "bytes32",
          "name": "role",
          "type": "bytes32"
        },
        {
          "internalType": "address",
          "name": "account",
          "type": "address"
        }
      ],
      "name": "hasRole",
      "outputs": [
        {
          "internalType": "bool",
          "name": "",
          "type": "bool"
        }
      ],
      "stateMutability": "view",
      "type": "function"
    },
    {
      "inputs": [
        {
          "internalType": "address",
          "name": "",
          "type": "address"
        },
        {
          "internalType": "address",
          "name": "",
          "type": "address"
        }
      ],
      "name": "maxTransferAmounts",
      "outputs": [
        {
          "internalType": "uint256",
          "name": "",
          "type": "uint256"
        }
      ],
      "stateMutability": "view",
      "type": "function"
    },
    {
      "inputs": [
        {
          "internalType": "bytes32",
          "name": "role",
          "type": "bytes32"
        },
        {
          "internalType": "address",
          "name": "account",
          "type": "address"
        }
      ],
      "name": "renounceRole",
      "outputs": [],
      "stateMutability": "nonpayable",
      "type": "function"
    },
    {
      "inputs": [
        {
          "internalType": "bytes32",
          "name": "role",
          "type": "bytes32"
        },
        {
          "internalType": "address",
          "name": "account",
          "type": "address"
        }
      ],
      "name": "revokeRole",
      "outputs": [],
      "stateMutability": "nonpayable",
      "type": "function"
    },
    {
      "inputs": [
        {
          "internalType": "address",
          "name": "",
          "type": "address"
        },
        {
          "internalType": "uint256",
          "name": "",
          "type": "uint256"
        }
      ],
      "name": "supportedTokens",
      "outputs": [
        {
          "internalType": "address",
          "name": "",
          "type": "address"
        }
      ],
      "stateMutability": "view",
      "type": "function"
    },
    {
      "inputs": [
        {
          "internalType": "bytes4",
          "name": "interfaceId",
          "type": "bytes4"
        }
      ],
      "name": "supportsInterface",
      "outputs": [
        {
          "internalType": "bool",
          "name": "",
          "type": "bool"
        }
      ],
      "stateMutability": "view",
      "type": "function"
    },
    {
      "inputs": [
        {
          "internalType": "address",
          "name": "",
          "type": "address"
        },
        {
          "internalType": "uint256",
          "name": "",
          "type": "uint256"
        }
      ],
      "name": "transferHistory",
      "outputs": [
        {
          "internalType": "uint256",
          "name": "transferId",
          "type": "uint256"
        },
        {
          "internalType": "address",
          "name": "sender",
          "type": "address"
        },
        {
          "internalType": "address",
          "name": "destinationChain",
          "type": "address"
        },
        {
          "internalType": "address",
          "name": "token",
          "type": "address"
        },
        {
          "internalType": "uint256",
          "name": "amount",
          "type": "uint256"
        },
        {
          "internalType": "bytes",
          "name": "data",
          "type": "bytes"
        },
        {
          "internalType": "bool",
          "name": "completed",
          "type": "bool"
        }
      ],
      "stateMutability": "view",
      "type": "function"
    },
    {
      "inputs": [
        {
          "internalType": "address",
          "name": "token",
          "type": "address"
        },
        {
          "internalType": "uint256",
          "name": "amount",
          "type": "uint256"
        },
        {
          "internalType": "address",
          "name": "recipient",
          "type": "address"
        },
        {
          "internalType": "uint256",
          "name": "destinationChainId",
          "type": "uint256"
        }
      ],
      "name": "bridgeTokens",
      "outputs": [],
      "stateMutability": "nonpayable",
      "type": "function"
    }
  ],
  "bytecode": "0x60a0604052348015600f57600080fd5b5060018055608051610bd561002f60003960006102d30152610bd56000f3fe608060405234801561001057600080fd5b506004361061010b5760003560e01c806358db2eef116100a257806391d148541161007157806391d14854146102bb5780639c3feeb7146102ce578063a217fddf146102f5578063d1fb4454146102fd578063d547741f1461032357600080fd5b806358db2eef1461021e578063635102df1461023e57806372066df3146102695780638389222a1461029257600080fd5b80632f99492f116100de5780632f99492f146101a55780633081e06f146101b957806336568abe146101e45780634be40fd1146101f757600080fd5b806301ffc9a714610110578063118c38c714610138578063248a9ca31461016d5780632f2ff15d14610190575b600080fd5b61012361011e366004610875565b610336565b60405190151581526020015b60405180910390f35b61015f7f751b795d24b92e3d92d1d0d8f2885f4e9c9c269da350af36ae6b49069babf4bf81565b60405190815260200161012f565b61015f61017b36600461089f565b60009081526020819052604090206001015490565b6101a361019e3660046108d4565b61036d565b005b6101a36101b3366004610900565b50505050565b6101cc6101c7366004610944565b610398565b6040516001600160a01b03909116815260200161012f565b6101a36101f23660046108d4565b6103d0565b61015f7f7045adfe67d5f94dbfddcdb901e44bef55baacabb398c7cddda1bfd7620b156881565b61015f61022c36600461096e565b60046020526000908152604090205481565b61015f61024c366004610989565b600660209081526000928352604080842090915290825290205481565b6101cc61027736600461096e565b6002602052600090815260409020546001600160a01b031681565b6101cc6102a036600461096e565b6003602052600090815260409020546001600160a01b031681565b6101236102c93660046108d4565b610453565b6101cc7f000000000000000000000000000000000000000000000000000000000000000081565b61015f600081565b61031061030b366004610944565b61047c565b60405161012f9796959493929190610a03565b6101a36103313660046108d4565b61055f565b60006001600160e01b03198216637965db0b60e01b148061036757506301ffc9a760e01b6001600160e01b03198316145b92915050565b6000828152602081905260409020600101546103898133610585565b61039383836105e9565b505050565b600560205281600052604060002081815481106103b457600080fd5b6000918252602090912001546001600160a01b03169150829050565b6001600160a01b03811633146104455760405162461bcd60e51b815260206004820152602f60248201527f416363657373436f6e74726f6c3a2063616e206f6e6c792072656e6f756e636560448201526e103937b632b9903337b91039b2b63360891b60648201526084015b60405180910390fd5b61044f828261066d565b5050565b6000918252602082815260408084206001600160a01b0393909316845291905290205460ff1690565b600760209081526000928352604080842090915290825290208054600182015460028301546003840154600485015460058601805495966001600160a01b039586169694861695909316939192916104d390610a5a565b80601f01602080910402602001604051908101604052809291908181526020018280546104ff90610a5a565b801561054c5780601f106105215761010080835404028352916020019161054c565b820191906000526020600020905b81548152906001019060200180831161052f57829003601f168201915b5050506006909301549192505060ff1687565b60008281526020819052604090206001015461057b8133610585565b610393838361066d565b61058f8282610453565b61044f576105a7816001600160a01b031660146106d2565b6105b28360206106d2565b6040516020016105c3929190610a94565b60408051601f198184030181529082905262461bcd60e51b825261043c91600401610b09565b6105f38282610453565b61044f576000828152602081815260408083206001600160a01b03851684529091529020805460ff191660011790556106293390565b6001600160a01b0316816001600160a01b0316837f2f8788117e7eff1d82e926ec794901d17c78024a50270940304540a733656f0d60405160405180910390a45050565b6106778282610453565b1561044f576000828152602081815260408083206001600160a01b0385168085529252808320805460ff1916905551339285917ff6391f5c32d9c69d2a47ea670b442974b53935d1edc7fd64eb21e047a839171b9190a45050565b606060006106e1836002610b32565b6106ec906002610b49565b67ffffffffffffffff81111561070457610704610b5c565b6040519080825280601f01601f19166020018201604052801561072e576020820181803683370190505b509050600360fc1b8160008151811061074957610749610b72565b60200101906001600160f81b031916908160001a905350600f60fb1b8160018151811061077857610778610b72565b60200101906001600160f81b031916908160001a905350600061079c846002610b32565b6107a7906001610b49565b90505b600181111561081f576f181899199a1a9b1b9c1cb0b131b232b360811b85600f16601081106107db576107db610b72565b1a60f81b8282815181106107f1576107f1610b72565b60200101906001600160f81b031916908160001a90535060049490941c9361081881610b88565b90506107aa565b50831561086e5760405162461bcd60e51b815260206004820181905260248201527f537472696e67733a20686578206c656e67746820696e73756666696369656e74604482015260640161043c565b9392505050565b60006020828403121561088757600080fd5b81356001600160e01b03198116811461086e57600080fd5b6000602082840312156108b157600080fd5b5035919050565b80356001600160a01b03811681146108cf57600080fd5b919050565b600080604083850312156108e757600080fd5b823591506108f7602084016108b8565b90509250929050565b6000806000806080858703121561091657600080fd5b61091f856108b8565b935060208501359250610934604086016108b8565b9396929550929360600135925050565b6000806040838503121561095757600080fd5b610960836108b8565b946020939093013593505050565b60006020828403121561098057600080fd5b61086e826108b8565b6000806040838503121561099c57600080fd5b6109a5836108b8565b91506108f7602084016108b8565b60005b838110156109ce5781810151838201526020016109b6565b50506000910152565b600081518084526109ef8160208601602086016109b3565b601f01601f19169290920160200192915050565b8781526001600160a01b0387811660208301528681166040830152851660608201526080810184905260e060a08201819052600090610a44908301856109d7565b905082151560c083015298975050505050505050565b600181811c90821680610a6e57607f821691505b602082108103610a8e57634e487b7160e01b600052602260045260246000fd5b50919050565b7f416363657373436f6e74726f6c3a206163636f756e7420000000000000000000815260008351610acc8160178501602088016109b3565b7001034b99036b4b9b9b4b733903937b6329607d1b6017918401918201528351610afd8160288401602088016109b3565b01602801949350505050565b60208152600061086e60208301846109d7565b634e487b7160e01b600052601160045260246000fd5b808202811582820484141761036757610367610b1c565b8082018082111561036757610367610b1c565b634e487b7160e01b600052604160045260246000fd5b634e487b7160e01b600052603260045260246000fd5b600081610b9757610b97610b1c565b50600019019056fea2646970667358221220414fec92c130eba1978915d4bab2c00e07d4d349d6db0fef36014841c889c32364736f6c634300081a0033",
  "immutableReferences": {
    "2840": [
      {
        "length": 32,
        "start": 723
      }
    ]
  },
  "source": "// SPDX-License-Identifier: MIT\npragma solidity ^0.8.26;\n\nimport \"@openzeppelin/contracts/access/AccessControl.sol\";\nimport \"@openzeppelin/contracts/security/ReentrancyGuard.sol\";\nimport \"@openzeppelin/contracts/token/ERC20/IERC20.sol\";\nimport \"@openzeppelin/contracts/utils/Counters.sol\";\nimport \"./ICrossChainBridge.sol\";\nimport \"./IChainlinkCCIP.sol\";\nimport \"./IExternalBridge.sol\";\n\ncontract CCIPCrossChainBridge is ICrossChainBridge, AccessControl, ReentrancyGuard {\n    using Counters for Counters.Counter;\n\n    bytes32 public constant BRIDGE_ADMIN_ROLE = keccak256(\"BRIDGE_ADMIN_ROLE\");\n    bytes32 public constant BRIDGE_OPERATOR_ROLE = keccak256(\"BRIDGE_OPERATOR_ROLE\");\n\n    mapping(address => address) public bridgeAddresses;\n    mapping(address => IExternalBridge) public externalBridgeContracts;\n    mapping(address => uint256) public bridgeFees;\n    mapping(address => address[]) public supportedTokens;\n    mapping(address => mapping(address => uint256)) public maxTransferAmounts;\n    mapping(address => mapping(uint256 => TransferHistory)) public transferHistory;\n\n    Counters.Counter private transferIdCounter;\n    IChainlinkCCIP public immutable chainlink;\n\n    struct TransferHistory {\n        uint256 transferId;\n        address sender;\n        address destinationChain;\n        address token;\n        uint256 amount;\n        bytes data;\n        bool completed;\n    }\n\n    event DataSent(address indexed destinationChain, bytes data);\n    event DataReceived(address indexed sourceChain, bytes data);\n    event BridgeAddressSet(address indexed destinationChain, address bridgeAddress);\n    event ExternalBridgeContractSet(address indexed destinationChain, address externalBridgeContract);\n    event BridgeFeeSet(address indexed destinationChain, uint256 fee);\n    event SupportedTokenAdded(address indexed destinationChain, address tokenAddress);\n    event TransferCompleted(uint256 indexed transferId);\n\n    function validateTransfer(address destinationChain, address token, uint256 amount, bytes memory customData) internal {\n        require(destinationChain != address(0), \"Invalid destination chain\");\n        require(token == token, \"Invalid token\");\n        require(amount == amount, \"Invalid amount\");\n\n        uint256 transferId = transferIdCounter.current();\n        TransferHistory storage transfer = transferHistory[destinationChain][transferId];\n\n        bytes memory customDataDecoded = abi.decode(customData, (bytes));\n        require(keccak256(transfer.data) == keccak256(customDataDecoded), \"Invalid custom data\");\n        transfer.completed = true;\n        emit TransferCompleted(transferId);\n    }\n\n    function bridgeTokens(address token, uint256 amount, address recipient, uint256 destinationChainId) external override {\n        // Implement function body based on specific project requirements\n    }\n}\n\n",
  "sourcePath": "/home/dot/attestation-manager-dist/contracts/CCIPCrossChainBridge.sol",
  "compiler": {
    "name": "solc",
    "version": "0.8.26+commit.8a97fa7a.Emscripten.clang"
  },
  "schemaVersion": "3.4.16",
  "updatedAt": "2024-06-25T10:50:55.129Z",
  "devdoc": {
    "events": {
      "RoleAdminChanged(bytes32,bytes32,bytes32)": {
        "details": "Emitted when `newAdminRole` is set as ``role``'s admin role, replacing `previousAdminRole` `DEFAULT_ADMIN_ROLE` is the starting admin for all roles, despite {RoleAdminChanged} not being emitted signaling this. _Available since v3.1._"
      },
      "RoleGranted(bytes32,address,address)": {
        "details": "Emitted when `account` is granted `role`. `sender` is the account that originated the contract call, an admin role bearer except when using {AccessControl-_setupRole}."
      },
      "RoleRevoked(bytes32,address,address)": {
        "details": "Emitted when `account` is revoked `role`. `sender` is the account that originated the contract call:   - if using `revokeRole`, it is the admin role bearer   - if using `renounceRole`, it is the role bearer (i.e. `account`)"
      }
    },
    "kind": "dev",
    "methods": {
      "getRoleAdmin(bytes32)": {
        "details": "Returns the admin role that controls `role`. See {grantRole} and {revokeRole}. To change a role's admin, use {_setRoleAdmin}."
      },
      "grantRole(bytes32,address)": {
        "details": "Grants `role` to `account`. If `account` had not been already granted `role`, emits a {RoleGranted} event. Requirements: - the caller must have ``role``'s admin role."
      },
      "hasRole(bytes32,address)": {
        "details": "Returns `true` if `account` has been granted `role`."
      },
      "renounceRole(bytes32,address)": {
        "details": "Revokes `role` from the calling account. Roles are often managed via {grantRole} and {revokeRole}: this function's purpose is to provide a mechanism for accounts to lose their privileges if they are compromised (such as when a trusted device is misplaced). If the calling account had been revoked `role`, emits a {RoleRevoked} event. Requirements: - the caller must be `account`."
      },
      "revokeRole(bytes32,address)": {
        "details": "Revokes `role` from `account`. If `account` had been granted `role`, emits a {RoleRevoked} event. Requirements: - the caller must have ``role``'s admin role."
      },
      "supportsInterface(bytes4)": {
        "details": "See {IERC165-supportsInterface}."
      }
    },
    "version": 1
  },
  "userdoc": {
    "kind": "user",
    "methods": {},
    "version": 1
  }
}