{
  "contractName": "Diagnostic",
  "abi": [
    {
      "inputs": [],
      "stateMutability": "nonpayable",
      "type": "constructor"
    },
    {
      "anonymous": false,
      "inputs": [
        {
          "indexed": true,
          "internalType": "bytes32",
          "name": "role",
          "type": "bytes32"
        },
        {
          "indexed": true,
          "internalType": "bytes32",
          "name": "previousAdminRole",
          "type": "bytes32"
        },
        {
          "indexed": true,
          "internalType": "bytes32",
          "name": "newAdminRole",
          "type": "bytes32"
        }
      ],
      "name": "RoleAdminChanged",
      "type": "event"
    },
    {
      "anonymous": false,
      "inputs": [
        {
          "indexed": true,
          "internalType": "bytes32",
          "name": "role",
          "type": "bytes32"
        },
        {
          "indexed": true,
          "internalType": "address",
          "name": "account",
          "type": "address"
        },
        {
          "indexed": true,
          "internalType": "address",
          "name": "sender",
          "type": "address"
        }
      ],
      "name": "RoleGranted",
      "type": "event"
    },
    {
      "anonymous": false,
      "inputs": [
        {
          "indexed": true,
          "internalType": "bytes32",
          "name": "role",
          "type": "bytes32"
        },
        {
          "indexed": true,
          "internalType": "address",
          "name": "account",
          "type": "address"
        },
        {
          "indexed": true,
          "internalType": "address",
          "name": "sender",
          "type": "address"
        }
      ],
      "name": "RoleRevoked",
      "type": "event"
    },
    {
      "inputs": [],
      "name": "DEFAULT_ADMIN_ROLE",
      "outputs": [
        {
          "internalType": "bytes32",
          "name": "",
          "type": "bytes32"
        }
      ],
      "stateMutability": "view",
      "type": "function"
    },
    {
      "inputs": [
        {
          "internalType": "bytes32",
          "name": "role",
          "type": "bytes32"
        }
      ],
      "name": "getRoleAdmin",
      "outputs": [
        {
          "internalType": "bytes32",
          "name": "",
          "type": "bytes32"
        }
      ],
      "stateMutability": "view",
      "type": "function"
    },
    {
      "inputs": [
        {
          "internalType": "bytes32",
          "name": "role",
          "type": "bytes32"
        },
        {
          "internalType": "address",
          "name": "account",
          "type": "address"
        }
      ],
      "name": "grantRole",
      "outputs": [],
      "stateMutability": "nonpayable",
      "type": "function"
    },
    {
      "inputs": [
        {
          "internalType": "bytes32",
          "name": "role",
          "type": "bytes32"
        },
        {
          "internalType": "address",
          "name": "account",
          "type": "address"
        }
      ],
      "name": "hasRole",
      "outputs": [
        {
          "internalType": "bool",
          "name": "",
          "type": "bool"
        }
      ],
      "stateMutability": "view",
      "type": "function"
    },
    {
      "inputs": [
        {
          "internalType": "bytes32",
          "name": "role",
          "type": "bytes32"
        },
        {
          "internalType": "address",
          "name": "account",
          "type": "address"
        }
      ],
      "name": "renounceRole",
      "outputs": [],
      "stateMutability": "nonpayable",
      "type": "function"
    },
    {
      "inputs": [
        {
          "internalType": "bytes32",
          "name": "role",
          "type": "bytes32"
        },
        {
          "internalType": "address",
          "name": "account",
          "type": "address"
        }
      ],
      "name": "revokeRole",
      "outputs": [],
      "stateMutability": "nonpayable",
      "type": "function"
    },
    {
      "inputs": [
        {
          "internalType": "bytes4",
          "name": "interfaceId",
          "type": "bytes4"
        }
      ],
      "name": "supportsInterface",
      "outputs": [
        {
          "internalType": "bool",
          "name": "",
          "type": "bool"
        }
      ],
      "stateMutability": "view",
      "type": "function"
    }
  ],
  "bytecode": "0x6080604052348015600f57600080fd5b506019600033601d565b60ba565b6000828152602081815260408083206001600160a01b038516845290915290205460ff1660b6576000828152602081815260408083206001600160a01b03851684529091529020805460ff1916600117905560753390565b6001600160a01b0316816001600160a01b0316837f2f8788117e7eff1d82e926ec794901d17c78024a50270940304540a733656f0d60405160405180910390a45b5050565b610759806100c96000396000f3fe608060405234801561001057600080fd5b506004361061007d5760003560e01c806336568abe1161005b57806336568abe146100f057806391d1485414610103578063a217fddf14610116578063d547741f1461011e57600080fd5b806301ffc9a714610082578063248a9ca3146100aa5780632f2ff15d146100db575b600080fd5b610095610090366004610555565b610131565b60405190151581526020015b60405180910390f35b6100cd6100b836600461057f565b60009081526020819052604090206001015490565b6040519081526020016100a1565b6100ee6100e9366004610598565b610168565b005b6100ee6100fe366004610598565b610193565b610095610111366004610598565b610216565b6100cd600081565b6100ee61012c366004610598565b61023f565b60006001600160e01b03198216637965db0b60e01b148061016257506301ffc9a760e01b6001600160e01b03198316145b92915050565b6000828152602081905260409020600101546101848133610265565b61018e83836102c9565b505050565b6001600160a01b03811633146102085760405162461bcd60e51b815260206004820152602f60248201527f416363657373436f6e74726f6c3a2063616e206f6e6c792072656e6f756e636560448201526e103937b632b9903337b91039b2b63360891b60648201526084015b60405180910390fd5b610212828261034d565b5050565b6000918252602082815260408084206001600160a01b0393909316845291905290205460ff1690565b60008281526020819052604090206001015461025b8133610265565b61018e838361034d565b61026f8282610216565b61021257610287816001600160a01b031660146103b2565b6102928360206103b2565b6040516020016102a39291906105f8565b60408051601f198184030181529082905262461bcd60e51b82526101ff9160040161066d565b6102d38282610216565b610212576000828152602081815260408083206001600160a01b03851684529091529020805460ff191660011790556103093390565b6001600160a01b0316816001600160a01b0316837f2f8788117e7eff1d82e926ec794901d17c78024a50270940304540a733656f0d60405160405180910390a45050565b6103578282610216565b15610212576000828152602081815260408083206001600160a01b0385168085529252808320805460ff1916905551339285917ff6391f5c32d9c69d2a47ea670b442974b53935d1edc7fd64eb21e047a839171b9190a45050565b606060006103c18360026106b6565b6103cc9060026106cd565b67ffffffffffffffff8111156103e4576103e46106e0565b6040519080825280601f01601f19166020018201604052801561040e576020820181803683370190505b509050600360fc1b81600081518110610429576104296106f6565b60200101906001600160f81b031916908160001a905350600f60fb1b81600181518110610458576104586106f6565b60200101906001600160f81b031916908160001a905350600061047c8460026106b6565b6104879060016106cd565b90505b60018111156104ff576f181899199a1a9b1b9c1cb0b131b232b360811b85600f16601081106104bb576104bb6106f6565b1a60f81b8282815181106104d1576104d16106f6565b60200101906001600160f81b031916908160001a90535060049490941c936104f88161070c565b905061048a565b50831561054e5760405162461bcd60e51b815260206004820181905260248201527f537472696e67733a20686578206c656e67746820696e73756666696369656e7460448201526064016101ff565b9392505050565b60006020828403121561056757600080fd5b81356001600160e01b03198116811461054e57600080fd5b60006020828403121561059157600080fd5b5035919050565b600080604083850312156105ab57600080fd5b8235915060208301356001600160a01b03811681146105c957600080fd5b809150509250929050565b60005b838110156105ef5781810151838201526020016105d7565b50506000910152565b7f416363657373436f6e74726f6c3a206163636f756e74200000000000000000008152600083516106308160178501602088016105d4565b7001034b99036b4b9b9b4b733903937b6329607d1b60179184019182015283516106618160288401602088016105d4565b01602801949350505050565b602081526000825180602084015261068c8160408501602087016105d4565b601f01601f19169190910160400192915050565b634e487b7160e01b600052601160045260246000fd5b8082028115828204841417610162576101626106a0565b80820180821115610162576101626106a0565b634e487b7160e01b600052604160045260246000fd5b634e487b7160e01b600052603260045260246000fd5b60008161071b5761071b6106a0565b50600019019056fea26469706673582212201af414b90bb057c2e1b9e59074c8c21ca6ebe50664443511a0f27678a80dd0df64736f6c634300081a0033",
  "immutableReferences": {},
  "source": "\n// SPDX-License-Identifier: MIT\npragma solidity ^0.8.0;\n\nimport \"@openzeppelin/contracts/access/AccessControl.sol\";\n\ncontract Diagnostic is AccessControl {\n    constructor() {\n        _grantRole(DEFAULT_ADMIN_ROLE, _msgSender());\n    }\n\n    // Other functions relevant to Diagnostic\n}\n",
  "sourcePath": "/home/dot/attestation-manager-dist/contracts/Diagnostic.sol",
  "compiler": {
    "name": "solc",
    "version": "0.8.26+commit.8a97fa7a.Emscripten.clang"
  },
  "schemaVersion": "3.4.16",
  "updatedAt": "2024-06-25T10:50:55.132Z",
  "devdoc": {
    "events": {
      "RoleAdminChanged(bytes32,bytes32,bytes32)": {
        "details": "Emitted when `newAdminRole` is set as ``role``'s admin role, replacing `previousAdminRole` `DEFAULT_ADMIN_ROLE` is the starting admin for all roles, despite {RoleAdminChanged} not being emitted signaling this. _Available since v3.1._"
      },
      "RoleGranted(bytes32,address,address)": {
        "details": "Emitted when `account` is granted `role`. `sender` is the account that originated the contract call, an admin role bearer except when using {AccessControl-_setupRole}."
      },
      "RoleRevoked(bytes32,address,address)": {
        "details": "Emitted when `account` is revoked `role`. `sender` is the account that originated the contract call:   - if using `revokeRole`, it is the admin role bearer   - if using `renounceRole`, it is the role bearer (i.e. `account`)"
      }
    },
    "kind": "dev",
    "methods": {
      "getRoleAdmin(bytes32)": {
        "details": "Returns the admin role that controls `role`. See {grantRole} and {revokeRole}. To change a role's admin, use {_setRoleAdmin}."
      },
      "grantRole(bytes32,address)": {
        "details": "Grants `role` to `account`. If `account` had not been already granted `role`, emits a {RoleGranted} event. Requirements: - the caller must have ``role``'s admin role."
      },
      "hasRole(bytes32,address)": {
        "details": "Returns `true` if `account` has been granted `role`."
      },
      "renounceRole(bytes32,address)": {
        "details": "Revokes `role` from the calling account. Roles are often managed via {grantRole} and {revokeRole}: this function's purpose is to provide a mechanism for accounts to lose their privileges if they are compromised (such as when a trusted device is misplaced). If the calling account had been revoked `role`, emits a {RoleRevoked} event. Requirements: - the caller must be `account`."
      },
      "revokeRole(bytes32,address)": {
        "details": "Revokes `role` from `account`. If `account` had been granted `role`, emits a {RoleRevoked} event. Requirements: - the caller must have ``role``'s admin role."
      },
      "supportsInterface(bytes4)": {
        "details": "See {IERC165-supportsInterface}."
      }
    },
    "version": 1
  },
  "userdoc": {
    "kind": "user",
    "methods": {},
    "version": 1
  }
}