{
  "contractName": "Resolver",
  "abi": [
    {
      "inputs": [],
      "stateMutability": "nonpayable",
      "type": "constructor"
    },
    {
      "anonymous": false,
      "inputs": [
        {
          "indexed": true,
          "internalType": "bytes32",
          "name": "role",
          "type": "bytes32"
        },
        {
          "indexed": true,
          "internalType": "bytes32",
          "name": "previousAdminRole",
          "type": "bytes32"
        },
        {
          "indexed": true,
          "internalType": "bytes32",
          "name": "newAdminRole",
          "type": "bytes32"
        }
      ],
      "name": "RoleAdminChanged",
      "type": "event"
    },
    {
      "anonymous": false,
      "inputs": [
        {
          "indexed": true,
          "internalType": "bytes32",
          "name": "role",
          "type": "bytes32"
        },
        {
          "indexed": true,
          "internalType": "address",
          "name": "account",
          "type": "address"
        },
        {
          "indexed": true,
          "internalType": "address",
          "name": "sender",
          "type": "address"
        }
      ],
      "name": "RoleGranted",
      "type": "event"
    },
    {
      "anonymous": false,
      "inputs": [
        {
          "indexed": true,
          "internalType": "bytes32",
          "name": "role",
          "type": "bytes32"
        },
        {
          "indexed": true,
          "internalType": "address",
          "name": "account",
          "type": "address"
        },
        {
          "indexed": true,
          "internalType": "address",
          "name": "sender",
          "type": "address"
        }
      ],
      "name": "RoleRevoked",
      "type": "event"
    },
    {
      "inputs": [],
      "name": "DEFAULT_ADMIN_ROLE",
      "outputs": [
        {
          "internalType": "bytes32",
          "name": "",
          "type": "bytes32"
        }
      ],
      "stateMutability": "view",
      "type": "function"
    },
    {
      "inputs": [],
      "name": "RESOLVER_ROLE",
      "outputs": [
        {
          "internalType": "bytes32",
          "name": "",
          "type": "bytes32"
        }
      ],
      "stateMutability": "view",
      "type": "function"
    },
    {
      "inputs": [
        {
          "internalType": "bytes32",
          "name": "role",
          "type": "bytes32"
        }
      ],
      "name": "getRoleAdmin",
      "outputs": [
        {
          "internalType": "bytes32",
          "name": "",
          "type": "bytes32"
        }
      ],
      "stateMutability": "view",
      "type": "function"
    },
    {
      "inputs": [
        {
          "internalType": "bytes32",
          "name": "role",
          "type": "bytes32"
        },
        {
          "internalType": "address",
          "name": "account",
          "type": "address"
        }
      ],
      "name": "grantRole",
      "outputs": [],
      "stateMutability": "nonpayable",
      "type": "function"
    },
    {
      "inputs": [
        {
          "internalType": "bytes32",
          "name": "role",
          "type": "bytes32"
        },
        {
          "internalType": "address",
          "name": "account",
          "type": "address"
        }
      ],
      "name": "hasRole",
      "outputs": [
        {
          "internalType": "bool",
          "name": "",
          "type": "bool"
        }
      ],
      "stateMutability": "view",
      "type": "function"
    },
    {
      "inputs": [
        {
          "internalType": "bytes32",
          "name": "role",
          "type": "bytes32"
        },
        {
          "internalType": "address",
          "name": "account",
          "type": "address"
        }
      ],
      "name": "renounceRole",
      "outputs": [],
      "stateMutability": "nonpayable",
      "type": "function"
    },
    {
      "inputs": [
        {
          "internalType": "bytes32",
          "name": "role",
          "type": "bytes32"
        },
        {
          "internalType": "address",
          "name": "account",
          "type": "address"
        }
      ],
      "name": "revokeRole",
      "outputs": [],
      "stateMutability": "nonpayable",
      "type": "function"
    },
    {
      "inputs": [
        {
          "internalType": "bytes4",
          "name": "interfaceId",
          "type": "bytes4"
        }
      ],
      "name": "supportsInterface",
      "outputs": [
        {
          "internalType": "bool",
          "name": "",
          "type": "bool"
        }
      ],
      "stateMutability": "view",
      "type": "function"
    },
    {
      "inputs": [
        {
          "internalType": "bytes32",
          "name": "name",
          "type": "bytes32"
        },
        {
          "internalType": "address",
          "name": "addr",
          "type": "address"
        }
      ],
      "name": "setAddress",
      "outputs": [],
      "stateMutability": "nonpayable",
      "type": "function"
    },
    {
      "inputs": [
        {
          "internalType": "bytes32",
          "name": "name",
          "type": "bytes32"
        }
      ],
      "name": "getAddress",
      "outputs": [
        {
          "internalType": "address",
          "name": "",
          "type": "address"
        }
      ],
      "stateMutability": "view",
      "type": "function"
    }
  ],
  "bytecode": "0x608060405234801561001057600080fd5b5061001c60003361004b565b6100467f92a19c77d2ea87c7f81d50c74403cb2f401780f3ad919571121efe2bdb427eb13361004b565b6100f7565b6100558282610059565b5050565b6000828152602081815260408083206001600160a01b038516845290915290205460ff16610055576000828152602081815260408083206001600160a01b03851684529091529020805460ff191660011790556100b33390565b6001600160a01b0316816001600160a01b0316837f2f8788117e7eff1d82e926ec794901d17c78024a50270940304540a733656f0d60405160405180910390a45050565b61084f806101066000396000f3fe608060405234801561001057600080fd5b506004361061009e5760003560e01c806378fab2601161006657806378fab2601461016557806391d148541461018c578063a217fddf1461019f578063ca446dd9146101a7578063d547741f146101ba57600080fd5b806301ffc9a7146100a357806321f8a721146100cb578063248a9ca31461010c5780632f2ff15d1461013d57806336568abe14610152575b600080fd5b6100b66100b136600461064b565b6101cd565b60405190151581526020015b60405180910390f35b6100f46100d9366004610675565b6000908152600160205260409020546001600160a01b031690565b6040516001600160a01b0390911681526020016100c2565b61012f61011a366004610675565b60009081526020819052604090206001015490565b6040519081526020016100c2565b61015061014b36600461068e565b610204565b005b61015061016036600461068e565b61022f565b61012f7f92a19c77d2ea87c7f81d50c74403cb2f401780f3ad919571121efe2bdb427eb181565b6100b661019a36600461068e565b6102b2565b61012f600081565b6101506101b536600461068e565b6102db565b6101506101c836600461068e565b610335565b60006001600160e01b03198216637965db0b60e01b14806101fe57506301ffc9a760e01b6001600160e01b03198316145b92915050565b600082815260208190526040902060010154610220813361035b565b61022a83836103bf565b505050565b6001600160a01b03811633146102a45760405162461bcd60e51b815260206004820152602f60248201527f416363657373436f6e74726f6c3a2063616e206f6e6c792072656e6f756e636560448201526e103937b632b9903337b91039b2b63360891b60648201526084015b60405180910390fd5b6102ae8282610443565b5050565b6000918252602082815260408084206001600160a01b0393909316845291905290205460ff1690565b7f92a19c77d2ea87c7f81d50c74403cb2f401780f3ad919571121efe2bdb427eb1610306813361035b565b5060009182526001602052604090912080546001600160a01b0319166001600160a01b03909216919091179055565b600082815260208190526040902060010154610351813361035b565b61022a8383610443565b61036582826102b2565b6102ae5761037d816001600160a01b031660146104a8565b6103888360206104a8565b6040516020016103999291906106ee565b60408051601f198184030181529082905262461bcd60e51b825261029b91600401610763565b6103c982826102b2565b6102ae576000828152602081815260408083206001600160a01b03851684529091529020805460ff191660011790556103ff3390565b6001600160a01b0316816001600160a01b0316837f2f8788117e7eff1d82e926ec794901d17c78024a50270940304540a733656f0d60405160405180910390a45050565b61044d82826102b2565b156102ae576000828152602081815260408083206001600160a01b0385168085529252808320805460ff1916905551339285917ff6391f5c32d9c69d2a47ea670b442974b53935d1edc7fd64eb21e047a839171b9190a45050565b606060006104b78360026107ac565b6104c29060026107c3565b67ffffffffffffffff8111156104da576104da6107d6565b6040519080825280601f01601f191660200182016040528015610504576020820181803683370190505b509050600360fc1b8160008151811061051f5761051f6107ec565b60200101906001600160f81b031916908160001a905350600f60fb1b8160018151811061054e5761054e6107ec565b60200101906001600160f81b031916908160001a90535060006105728460026107ac565b61057d9060016107c3565b90505b60018111156105f5576f181899199a1a9b1b9c1cb0b131b232b360811b85600f16601081106105b1576105b16107ec565b1a60f81b8282815181106105c7576105c76107ec565b60200101906001600160f81b031916908160001a90535060049490941c936105ee81610802565b9050610580565b5083156106445760405162461bcd60e51b815260206004820181905260248201527f537472696e67733a20686578206c656e67746820696e73756666696369656e74604482015260640161029b565b9392505050565b60006020828403121561065d57600080fd5b81356001600160e01b03198116811461064457600080fd5b60006020828403121561068757600080fd5b5035919050565b600080604083850312156106a157600080fd5b8235915060208301356001600160a01b03811681146106bf57600080fd5b809150509250929050565b60005b838110156106e55781810151838201526020016106cd565b50506000910152565b7f416363657373436f6e74726f6c3a206163636f756e74200000000000000000008152600083516107268160178501602088016106ca565b7001034b99036b4b9b9b4b733903937b6329607d1b60179184019182015283516107578160288401602088016106ca565b01602801949350505050565b60208152600082518060208401526107828160408501602087016106ca565b601f01601f19169190910160400192915050565b634e487b7160e01b600052601160045260246000fd5b80820281158282048414176101fe576101fe610796565b808201808211156101fe576101fe610796565b634e487b7160e01b600052604160045260246000fd5b634e487b7160e01b600052603260045260246000fd5b60008161081157610811610796565b50600019019056fea2646970667358221220ebda271f842a09be16f9036fbebcf0ea2e35ab4dd9193355648787b079c384c064736f6c634300081a0033",
  "immutableReferences": {},
  "source": "// SPDX-License-Identifier: MIT\npragma solidity ^0.8.0;\n\nimport \"@openzeppelin/contracts/access/AccessControl.sol\";\n\ncontract Resolver is AccessControl {\n    bytes32 public constant RESOLVER_ROLE = keccak256(\"RESOLVER_ROLE\");\n\n    mapping(bytes32 => address) private addresses;\n\n    constructor() {\n        _setupRole(DEFAULT_ADMIN_ROLE, msg.sender);\n        _setupRole(RESOLVER_ROLE, msg.sender);\n    }\n\n    function setAddress(bytes32 name, address addr) external onlyRole(RESOLVER_ROLE) {\n        addresses[name] = addr;\n    }\n\n    function getAddress(bytes32 name) external view returns (address) {\n        return addresses[name];\n    }\n}\n",
  "sourcePath": "/home/dot/attestation-manager-dist/contracts/Resolver.sol",
  "compiler": {
    "name": "solc",
    "version": "0.8.26+commit.8a97fa7a.Emscripten.clang"
  },
  "schemaVersion": "3.4.16",
  "updatedAt": "2024-06-25T10:50:55.200Z",
  "devdoc": {
    "events": {
      "RoleAdminChanged(bytes32,bytes32,bytes32)": {
        "details": "Emitted when `newAdminRole` is set as ``role``'s admin role, replacing `previousAdminRole` `DEFAULT_ADMIN_ROLE` is the starting admin for all roles, despite {RoleAdminChanged} not being emitted signaling this. _Available since v3.1._"
      },
      "RoleGranted(bytes32,address,address)": {
        "details": "Emitted when `account` is granted `role`. `sender` is the account that originated the contract call, an admin role bearer except when using {AccessControl-_setupRole}."
      },
      "RoleRevoked(bytes32,address,address)": {
        "details": "Emitted when `account` is revoked `role`. `sender` is the account that originated the contract call:   - if using `revokeRole`, it is the admin role bearer   - if using `renounceRole`, it is the role bearer (i.e. `account`)"
      }
    },
    "kind": "dev",
    "methods": {
      "getRoleAdmin(bytes32)": {
        "details": "Returns the admin role that controls `role`. See {grantRole} and {revokeRole}. To change a role's admin, use {_setRoleAdmin}."
      },
      "grantRole(bytes32,address)": {
        "details": "Grants `role` to `account`. If `account` had not been already granted `role`, emits a {RoleGranted} event. Requirements: - the caller must have ``role``'s admin role."
      },
      "hasRole(bytes32,address)": {
        "details": "Returns `true` if `account` has been granted `role`."
      },
      "renounceRole(bytes32,address)": {
        "details": "Revokes `role` from the calling account. Roles are often managed via {grantRole} and {revokeRole}: this function's purpose is to provide a mechanism for accounts to lose their privileges if they are compromised (such as when a trusted device is misplaced). If the calling account had been revoked `role`, emits a {RoleRevoked} event. Requirements: - the caller must be `account`."
      },
      "revokeRole(bytes32,address)": {
        "details": "Revokes `role` from `account`. If `account` had been granted `role`, emits a {RoleRevoked} event. Requirements: - the caller must have ``role``'s admin role."
      },
      "supportsInterface(bytes4)": {
        "details": "See {IERC165-supportsInterface}."
      }
    },
    "version": 1
  },
  "userdoc": {
    "kind": "user",
    "methods": {},
    "version": 1
  }
}