{
  "contractName": "SchemaRegistry",
  "abi": [
    {
      "inputs": [],
      "stateMutability": "nonpayable",
      "type": "constructor"
    },
    {
      "anonymous": false,
      "inputs": [
        {
          "indexed": true,
          "internalType": "bytes32",
          "name": "role",
          "type": "bytes32"
        },
        {
          "indexed": true,
          "internalType": "bytes32",
          "name": "previousAdminRole",
          "type": "bytes32"
        },
        {
          "indexed": true,
          "internalType": "bytes32",
          "name": "newAdminRole",
          "type": "bytes32"
        }
      ],
      "name": "RoleAdminChanged",
      "type": "event"
    },
    {
      "anonymous": false,
      "inputs": [
        {
          "indexed": true,
          "internalType": "bytes32",
          "name": "role",
          "type": "bytes32"
        },
        {
          "indexed": true,
          "internalType": "address",
          "name": "account",
          "type": "address"
        },
        {
          "indexed": true,
          "internalType": "address",
          "name": "sender",
          "type": "address"
        }
      ],
      "name": "RoleGranted",
      "type": "event"
    },
    {
      "anonymous": false,
      "inputs": [
        {
          "indexed": true,
          "internalType": "bytes32",
          "name": "role",
          "type": "bytes32"
        },
        {
          "indexed": true,
          "internalType": "address",
          "name": "account",
          "type": "address"
        },
        {
          "indexed": true,
          "internalType": "address",
          "name": "sender",
          "type": "address"
        }
      ],
      "name": "RoleRevoked",
      "type": "event"
    },
    {
      "inputs": [],
      "name": "DEFAULT_ADMIN_ROLE",
      "outputs": [
        {
          "internalType": "bytes32",
          "name": "",
          "type": "bytes32"
        }
      ],
      "stateMutability": "view",
      "type": "function"
    },
    {
      "inputs": [],
      "name": "REGISTRAR_ROLE",
      "outputs": [
        {
          "internalType": "bytes32",
          "name": "",
          "type": "bytes32"
        }
      ],
      "stateMutability": "view",
      "type": "function"
    },
    {
      "inputs": [
        {
          "internalType": "bytes32",
          "name": "role",
          "type": "bytes32"
        }
      ],
      "name": "getRoleAdmin",
      "outputs": [
        {
          "internalType": "bytes32",
          "name": "",
          "type": "bytes32"
        }
      ],
      "stateMutability": "view",
      "type": "function"
    },
    {
      "inputs": [
        {
          "internalType": "bytes32",
          "name": "role",
          "type": "bytes32"
        },
        {
          "internalType": "address",
          "name": "account",
          "type": "address"
        }
      ],
      "name": "grantRole",
      "outputs": [],
      "stateMutability": "nonpayable",
      "type": "function"
    },
    {
      "inputs": [
        {
          "internalType": "bytes32",
          "name": "role",
          "type": "bytes32"
        },
        {
          "internalType": "address",
          "name": "account",
          "type": "address"
        }
      ],
      "name": "hasRole",
      "outputs": [
        {
          "internalType": "bool",
          "name": "",
          "type": "bool"
        }
      ],
      "stateMutability": "view",
      "type": "function"
    },
    {
      "inputs": [
        {
          "internalType": "bytes32",
          "name": "role",
          "type": "bytes32"
        },
        {
          "internalType": "address",
          "name": "account",
          "type": "address"
        }
      ],
      "name": "renounceRole",
      "outputs": [],
      "stateMutability": "nonpayable",
      "type": "function"
    },
    {
      "inputs": [
        {
          "internalType": "bytes32",
          "name": "role",
          "type": "bytes32"
        },
        {
          "internalType": "address",
          "name": "account",
          "type": "address"
        }
      ],
      "name": "revokeRole",
      "outputs": [],
      "stateMutability": "nonpayable",
      "type": "function"
    },
    {
      "inputs": [
        {
          "internalType": "bytes4",
          "name": "interfaceId",
          "type": "bytes4"
        }
      ],
      "name": "supportsInterface",
      "outputs": [
        {
          "internalType": "bool",
          "name": "",
          "type": "bool"
        }
      ],
      "stateMutability": "view",
      "type": "function"
    },
    {
      "inputs": [
        {
          "internalType": "bytes32",
          "name": "name",
          "type": "bytes32"
        },
        {
          "internalType": "string",
          "name": "schema",
          "type": "string"
        }
      ],
      "name": "registerSchema",
      "outputs": [],
      "stateMutability": "nonpayable",
      "type": "function"
    },
    {
      "inputs": [
        {
          "internalType": "bytes32",
          "name": "name",
          "type": "bytes32"
        }
      ],
      "name": "getSchema",
      "outputs": [
        {
          "components": [
            {
              "internalType": "bytes32",
              "name": "name",
              "type": "bytes32"
            },
            {
              "internalType": "string",
              "name": "schema",
              "type": "string"
            }
          ],
          "internalType": "struct SchemaRegistry.Schema",
          "name": "",
          "type": "tuple"
        }
      ],
      "stateMutability": "view",
      "type": "function"
    }
  ],
  "bytecode": "0x608060405234801561001057600080fd5b5061001c60003361004b565b6100467fedcc084d3dcd65a1f7f23c65c46722faca6953d28e43150a467cf43e5c3092383361004b565b6100f7565b6100558282610059565b5050565b6000828152602081815260408083206001600160a01b038516845290915290205460ff16610055576000828152602081815260408083206001600160a01b03851684529091529020805460ff191660011790556100b33390565b6001600160a01b0316816001600160a01b0316837f2f8788117e7eff1d82e926ec794901d17c78024a50270940304540a733656f0d60405160405180910390a45050565b610b52806101066000396000f3fe608060405234801561001057600080fd5b506004361061009e5760003560e01c806391d148541161006657806391d1485414610137578063a217fddf1461014a578063a2ea7c6e14610152578063d547741f14610172578063f68e95531461018557600080fd5b806301ffc9a7146100a3578063248a9ca3146100cb5780632f2ff15d146100fc57806336568abe1461011157806342952fa614610124575b600080fd5b6100b66100b136600461070b565b6101ac565b60405190151581526020015b60405180910390f35b6100ee6100d9366004610735565b60009081526020819052604090206001015490565b6040519081526020016100c2565b61010f61010a36600461074e565b6101e3565b005b61010f61011f36600461074e565b61020e565b61010f6101323660046107a0565b610291565b6100b661014536600461074e565b6102fe565b6100ee600081565b610165610160366004610735565b610327565b6040516100c291906108b3565b61010f61018036600461074e565b6103f5565b6100ee7fedcc084d3dcd65a1f7f23c65c46722faca6953d28e43150a467cf43e5c30923881565b60006001600160e01b03198216637965db0b60e01b14806101dd57506301ffc9a760e01b6001600160e01b03198316145b92915050565b6000828152602081905260409020600101546101ff813361041b565b610209838361047f565b505050565b6001600160a01b03811633146102835760405162461bcd60e51b815260206004820152602f60248201527f416363657373436f6e74726f6c3a2063616e206f6e6c792072656e6f756e636560448201526e103937b632b9903337b91039b2b63360891b60648201526084015b60405180910390fd5b61028d8282610503565b5050565b7fedcc084d3dcd65a1f7f23c65c46722faca6953d28e43150a467cf43e5c3092386102bc813361041b565b6040805180820182528481526020808201858152600087815260019283905293909320825181559251919291908201906102f69082610968565b505050505050565b6000918252602082815260408084206001600160a01b0393909316845291905290205460ff1690565b60408051808201909152600081526060602082015260008281526001602081815260409283902083518085019094528054845291820180549184019161036c906108e0565b80601f0160208091040260200160405190810160405280929190818152602001828054610398906108e0565b80156103e55780601f106103ba576101008083540402835291602001916103e5565b820191906000526020600020905b8154815290600101906020018083116103c857829003601f168201915b5050505050815250509050919050565b600082815260208190526040902060010154610411813361041b565b6102098383610503565b61042582826102fe565b61028d5761043d816001600160a01b03166014610568565b610448836020610568565b604051602001610459929190610a27565b60408051601f198184030181529082905262461bcd60e51b825261027a91600401610a9c565b61048982826102fe565b61028d576000828152602081815260408083206001600160a01b03851684529091529020805460ff191660011790556104bf3390565b6001600160a01b0316816001600160a01b0316837f2f8788117e7eff1d82e926ec794901d17c78024a50270940304540a733656f0d60405160405180910390a45050565b61050d82826102fe565b1561028d576000828152602081815260408083206001600160a01b0385168085529252808320805460ff1916905551339285917ff6391f5c32d9c69d2a47ea670b442974b53935d1edc7fd64eb21e047a839171b9190a45050565b60606000610577836002610ac5565b610582906002610adc565b67ffffffffffffffff81111561059a5761059a61078a565b6040519080825280601f01601f1916602001820160405280156105c4576020820181803683370190505b509050600360fc1b816000815181106105df576105df610aef565b60200101906001600160f81b031916908160001a905350600f60fb1b8160018151811061060e5761060e610aef565b60200101906001600160f81b031916908160001a9053506000610632846002610ac5565b61063d906001610adc565b90505b60018111156106b5576f181899199a1a9b1b9c1cb0b131b232b360811b85600f166010811061067157610671610aef565b1a60f81b82828151811061068757610687610aef565b60200101906001600160f81b031916908160001a90535060049490941c936106ae81610b05565b9050610640565b5083156107045760405162461bcd60e51b815260206004820181905260248201527f537472696e67733a20686578206c656e67746820696e73756666696369656e74604482015260640161027a565b9392505050565b60006020828403121561071d57600080fd5b81356001600160e01b03198116811461070457600080fd5b60006020828403121561074757600080fd5b5035919050565b6000806040838503121561076157600080fd5b8235915060208301356001600160a01b038116811461077f57600080fd5b809150509250929050565b634e487b7160e01b600052604160045260246000fd5b600080604083850312156107b357600080fd5b82359150602083013567ffffffffffffffff8111156107d157600080fd5b8301601f810185136107e257600080fd5b803567ffffffffffffffff8111156107fc576107fc61078a565b604051601f8201601f19908116603f0116810167ffffffffffffffff8111828210171561082b5761082b61078a565b60405281815282820160200187101561084357600080fd5b816020840160208301376000602083830101528093505050509250929050565b60005b8381101561087e578181015183820152602001610866565b50506000910152565b6000815180845261089f816020860160208601610863565b601f01601f19169290920160200192915050565b6020815281516020820152600060208301516040808401526108d86060840182610887565b949350505050565b600181811c908216806108f457607f821691505b60208210810361091457634e487b7160e01b600052602260045260246000fd5b50919050565b601f82111561020957806000526020600020601f840160051c810160208510156109415750805b601f840160051c820191505b81811015610961576000815560010161094d565b5050505050565b815167ffffffffffffffff8111156109825761098261078a565b6109968161099084546108e0565b8461091a565b6020601f8211600181146109ca57600083156109b25750848201515b600019600385901b1c1916600184901b178455610961565b600084815260208120601f198516915b828110156109fa57878501518255602094850194600190920191016109da565b5084821015610a185786840151600019600387901b60f8161c191681555b50505050600190811b01905550565b7f416363657373436f6e74726f6c3a206163636f756e7420000000000000000000815260008351610a5f816017850160208801610863565b7001034b99036b4b9b9b4b733903937b6329607d1b6017918401918201528351610a90816028840160208801610863565b01602801949350505050565b6020815260006107046020830184610887565b634e487b7160e01b600052601160045260246000fd5b80820281158282048414176101dd576101dd610aaf565b808201808211156101dd576101dd610aaf565b634e487b7160e01b600052603260045260246000fd5b600081610b1457610b14610aaf565b50600019019056fea2646970667358221220337c5e5629ac6998fdbc4ae35ba839ee80e84b4c6509bcbfd5afeaf059217e7964736f6c634300081a0033",
  "immutableReferences": {},
  "source": "// SPDX-License-Identifier: MIT\npragma solidity ^0.8.0;\n\nimport \"@openzeppelin/contracts/access/AccessControl.sol\";\n\ncontract SchemaRegistry is AccessControl {\n    bytes32 public constant REGISTRAR_ROLE = keccak256(\"REGISTRAR_ROLE\");\n\n    struct Schema {\n        bytes32 name;\n        string schema;\n    }\n\n    mapping(bytes32 => Schema) private schemas;\n\n    constructor() {\n        _setupRole(DEFAULT_ADMIN_ROLE, msg.sender);\n        _setupRole(REGISTRAR_ROLE, msg.sender);\n    }\n\n    function registerSchema(bytes32 name, string memory schema) external onlyRole(REGISTRAR_ROLE) {\n        schemas[name] = Schema({ name: name, schema: schema });\n    }\n\n    function getSchema(bytes32 name) external view returns (Schema memory) {\n        return schemas[name];\n    }\n}\n",
  "sourcePath": "/home/dot/attestation-manager-dist/contracts/SchemaRegistry.sol",
  "compiler": {
    "name": "solc",
    "version": "0.8.26+commit.8a97fa7a.Emscripten.clang"
  },
  "schemaVersion": "3.4.16",
  "updatedAt": "2024-06-25T10:50:55.205Z",
  "devdoc": {
    "events": {
      "RoleAdminChanged(bytes32,bytes32,bytes32)": {
        "details": "Emitted when `newAdminRole` is set as ``role``'s admin role, replacing `previousAdminRole` `DEFAULT_ADMIN_ROLE` is the starting admin for all roles, despite {RoleAdminChanged} not being emitted signaling this. _Available since v3.1._"
      },
      "RoleGranted(bytes32,address,address)": {
        "details": "Emitted when `account` is granted `role`. `sender` is the account that originated the contract call, an admin role bearer except when using {AccessControl-_setupRole}."
      },
      "RoleRevoked(bytes32,address,address)": {
        "details": "Emitted when `account` is revoked `role`. `sender` is the account that originated the contract call:   - if using `revokeRole`, it is the admin role bearer   - if using `renounceRole`, it is the role bearer (i.e. `account`)"
      }
    },
    "kind": "dev",
    "methods": {
      "getRoleAdmin(bytes32)": {
        "details": "Returns the admin role that controls `role`. See {grantRole} and {revokeRole}. To change a role's admin, use {_setRoleAdmin}."
      },
      "grantRole(bytes32,address)": {
        "details": "Grants `role` to `account`. If `account` had not been already granted `role`, emits a {RoleGranted} event. Requirements: - the caller must have ``role``'s admin role."
      },
      "hasRole(bytes32,address)": {
        "details": "Returns `true` if `account` has been granted `role`."
      },
      "renounceRole(bytes32,address)": {
        "details": "Revokes `role` from the calling account. Roles are often managed via {grantRole} and {revokeRole}: this function's purpose is to provide a mechanism for accounts to lose their privileges if they are compromised (such as when a trusted device is misplaced). If the calling account had been revoked `role`, emits a {RoleRevoked} event. Requirements: - the caller must be `account`."
      },
      "revokeRole(bytes32,address)": {
        "details": "Revokes `role` from `account`. If `account` had been granted `role`, emits a {RoleRevoked} event. Requirements: - the caller must have ``role``'s admin role."
      },
      "supportsInterface(bytes4)": {
        "details": "See {IERC165-supportsInterface}."
      }
    },
    "version": 1
  },
  "userdoc": {
    "kind": "user",
    "methods": {},
    "version": 1
  }
}