{
  "_format": "hh-sol-artifact-1",
  "contractName": "SimpleDiagnostic",
  "sourceName": "contracts/SimpleDiagnostic.sol",
  "abi": [
    {
      "inputs": [],
      "stateMutability": "nonpayable",
      "type": "constructor"
    },
    {
      "inputs": [
        {
          "internalType": "uint256",
          "name": "value",
          "type": "uint256"
        },
        {
          "internalType": "uint256",
          "name": "length",
          "type": "uint256"
        }
      ],
      "name": "StringsInsufficientHexLength",
      "type": "error"
    },
    {
      "anonymous": false,
      "inputs": [
        {
          "indexed": true,
          "internalType": "bytes32",
          "name": "role",
          "type": "bytes32"
        },
        {
          "indexed": true,
          "internalType": "bytes32",
          "name": "previousAdminRole",
          "type": "bytes32"
        },
        {
          "indexed": true,
          "internalType": "bytes32",
          "name": "newAdminRole",
          "type": "bytes32"
        }
      ],
      "name": "RoleAdminChanged",
      "type": "event"
    },
    {
      "anonymous": false,
      "inputs": [
        {
          "indexed": true,
          "internalType": "bytes32",
          "name": "role",
          "type": "bytes32"
        },
        {
          "indexed": true,
          "internalType": "address",
          "name": "account",
          "type": "address"
        },
        {
          "indexed": true,
          "internalType": "address",
          "name": "sender",
          "type": "address"
        }
      ],
      "name": "RoleGranted",
      "type": "event"
    },
    {
      "anonymous": false,
      "inputs": [
        {
          "indexed": true,
          "internalType": "bytes32",
          "name": "role",
          "type": "bytes32"
        },
        {
          "indexed": true,
          "internalType": "address",
          "name": "account",
          "type": "address"
        },
        {
          "indexed": true,
          "internalType": "address",
          "name": "sender",
          "type": "address"
        }
      ],
      "name": "RoleRevoked",
      "type": "event"
    },
    {
      "inputs": [],
      "name": "DEFAULT_ADMIN_ROLE",
      "outputs": [
        {
          "internalType": "bytes32",
          "name": "",
          "type": "bytes32"
        }
      ],
      "stateMutability": "view",
      "type": "function"
    },
    {
      "inputs": [],
      "name": "DIAGNOSTIC_ROLE",
      "outputs": [
        {
          "internalType": "bytes32",
          "name": "",
          "type": "bytes32"
        }
      ],
      "stateMutability": "view",
      "type": "function"
    },
    {
      "inputs": [
        {
          "internalType": "bytes32",
          "name": "role",
          "type": "bytes32"
        }
      ],
      "name": "getRoleAdmin",
      "outputs": [
        {
          "internalType": "bytes32",
          "name": "",
          "type": "bytes32"
        }
      ],
      "stateMutability": "view",
      "type": "function"
    },
    {
      "inputs": [
        {
          "internalType": "bytes32",
          "name": "role",
          "type": "bytes32"
        },
        {
          "internalType": "address",
          "name": "account",
          "type": "address"
        }
      ],
      "name": "grantRole",
      "outputs": [],
      "stateMutability": "nonpayable",
      "type": "function"
    },
    {
      "inputs": [
        {
          "internalType": "bytes32",
          "name": "role",
          "type": "bytes32"
        },
        {
          "internalType": "address",
          "name": "account",
          "type": "address"
        }
      ],
      "name": "hasRole",
      "outputs": [
        {
          "internalType": "bool",
          "name": "",
          "type": "bool"
        }
      ],
      "stateMutability": "view",
      "type": "function"
    },
    {
      "inputs": [
        {
          "internalType": "bytes32",
          "name": "role",
          "type": "bytes32"
        },
        {
          "internalType": "address",
          "name": "account",
          "type": "address"
        }
      ],
      "name": "renounceRole",
      "outputs": [],
      "stateMutability": "nonpayable",
      "type": "function"
    },
    {
      "inputs": [
        {
          "internalType": "bytes32",
          "name": "role",
          "type": "bytes32"
        },
        {
          "internalType": "address",
          "name": "account",
          "type": "address"
        }
      ],
      "name": "revokeRole",
      "outputs": [],
      "stateMutability": "nonpayable",
      "type": "function"
    },
    {
      "inputs": [
        {
          "internalType": "bytes4",
          "name": "interfaceId",
          "type": "bytes4"
        }
      ],
      "name": "supportsInterface",
      "outputs": [
        {
          "internalType": "bool",
          "name": "",
          "type": "bool"
        }
      ],
      "stateMutability": "view",
      "type": "function"
    }
  ],
  "bytecode": "0x608060405234801561001057600080fd5b506100316000801b61002661007360201b60201c565b61007b60201b60201c565b61006e7f365427a77302f6c15e25fbb39b2016b6cfdc7982b9e30691e61947a1d364ea9061006361007360201b60201c565b61007b60201b60201c565b6101d1565b600033905090565b61008b828261016760201b60201c565b61016357600160008084815260200190815260200160002060000160008373ffffffffffffffffffffffffffffffffffffffff1673ffffffffffffffffffffffffffffffffffffffff16815260200190815260200160002060006101000a81548160ff02191690831515021790555061010861007360201b60201c565b73ffffffffffffffffffffffffffffffffffffffff168173ffffffffffffffffffffffffffffffffffffffff16837f2f8788117e7eff1d82e926ec794901d17c78024a50270940304540a733656f0d60405160405180910390a45b5050565b600080600084815260200190815260200160002060000160008373ffffffffffffffffffffffffffffffffffffffff1673ffffffffffffffffffffffffffffffffffffffff16815260200190815260200160002060009054906101000a900460ff16905092915050565b610ec0806101e06000396000f3fe608060405234801561001057600080fd5b50600436106100885760003560e01c806391d148541161005b57806391d1485414610125578063a217fddf14610155578063c7cdf5af14610173578063d547741f1461019157610088565b806301ffc9a71461008d578063248a9ca3146100bd5780632f2ff15d146100ed57806336568abe14610109575b600080fd5b6100a760048036038101906100a2919061093c565b6101ad565b6040516100b49190610984565b60405180910390f35b6100d760048036038101906100d291906109d5565b610227565b6040516100e49190610a11565b60405180910390f35b61010760048036038101906101029190610a8a565b610246565b005b610123600480360381019061011e9190610a8a565b610267565b005b61013f600480360381019061013a9190610a8a565b6102ea565b60405161014c9190610984565b60405180910390f35b61015d610354565b60405161016a9190610a11565b60405180910390f35b61017b61035b565b6040516101889190610a11565b60405180910390f35b6101ab60048036038101906101a69190610a8a565b61037f565b005b60007f7965db0b000000000000000000000000000000000000000000000000000000007bffffffffffffffffffffffffffffffffffffffffffffffffffffffff1916827bffffffffffffffffffffffffffffffffffffffffffffffffffffffff19161480610220575061021f826103a0565b5b9050919050565b6000806000838152602001908152602001600020600101549050919050565b61024f82610227565b6102588161040a565b610262838361041e565b505050565b61026f6104fe565b73ffffffffffffffffffffffffffffffffffffffff168173ffffffffffffffffffffffffffffffffffffffff16146102dc576040517f08c379a00000000000000000000000000000000000000000000000000000000081526004016102d390610b4d565b60405180910390fd5b6102e68282610506565b5050565b600080600084815260200190815260200160002060000160008373ffffffffffffffffffffffffffffffffffffffff1673ffffffffffffffffffffffffffffffffffffffff16815260200190815260200160002060009054906101000a900460ff16905092915050565b6000801b81565b7f365427a77302f6c15e25fbb39b2016b6cfdc7982b9e30691e61947a1d364ea9081565b61038882610227565b6103918161040a565b61039b8383610506565b505050565b60007f01ffc9a7000000000000000000000000000000000000000000000000000000007bffffffffffffffffffffffffffffffffffffffffffffffffffffffff1916827bffffffffffffffffffffffffffffffffffffffffffffffffffffffff1916149050919050565b61041b816104166104fe565b6105e7565b50565b61042882826102ea565b6104fa57600160008084815260200190815260200160002060000160008373ffffffffffffffffffffffffffffffffffffffff1673ffffffffffffffffffffffffffffffffffffffff16815260200190815260200160002060006101000a81548160ff02191690831515021790555061049f6104fe565b73ffffffffffffffffffffffffffffffffffffffff168173ffffffffffffffffffffffffffffffffffffffff16837f2f8788117e7eff1d82e926ec794901d17c78024a50270940304540a733656f0d60405160405180910390a45b5050565b600033905090565b61051082826102ea565b156105e357600080600084815260200190815260200160002060000160008373ffffffffffffffffffffffffffffffffffffffff1673ffffffffffffffffffffffffffffffffffffffff16815260200190815260200160002060006101000a81548160ff0219169083151502179055506105886104fe565b73ffffffffffffffffffffffffffffffffffffffff168173ffffffffffffffffffffffffffffffffffffffff16837ff6391f5c32d9c69d2a47ea670b442974b53935d1edc7fd64eb21e047a839171b60405160405180910390a45b5050565b6105f182826102ea565b610668576105fe8161066c565b61060c8360001c6020610699565b60405160200161061d929190610c76565b6040516020818303038152906040526040517f08c379a000000000000000000000000000000000000000000000000000000000815260040161065f9190610cfa565b60405180910390fd5b5050565b60606106928273ffffffffffffffffffffffffffffffffffffffff16601460ff16610699565b9050919050565b60606000839050600060028460026106b19190610d55565b6106bb9190610d97565b67ffffffffffffffff8111156106d4576106d3610dcb565b5b6040519080825280601f01601f1916602001820160405280156107065781602001600182028036833780820191505090505b5090507f30000000000000000000000000000000000000000000000000000000000000008160008151811061073e5761073d610dfa565b5b60200101907effffffffffffffffffffffffffffffffffffffffffffffffffffffffffffff1916908160001a9053507f7800000000000000000000000000000000000000000000000000000000000000816001815181106107a2576107a1610dfa565b5b60200101907effffffffffffffffffffffffffffffffffffffffffffffffffffffffffffff1916908160001a905350600060018560026107e29190610d55565b6107ec9190610d97565b90505b600181111561088c577f3031323334353637383961626364656600000000000000000000000000000000600f84166010811061082e5761082d610dfa565b5b1a60f81b82828151811061084557610844610dfa565b5b60200101907effffffffffffffffffffffffffffffffffffffffffffffffffffffffffffff1916908160001a905350600483901c92508061088590610e29565b90506107ef565b50600082146108d45784846040517fe22e27eb0000000000000000000000000000000000000000000000000000000081526004016108cb929190610e61565b60405180910390fd5b809250505092915050565b600080fd5b60007fffffffff0000000000000000000000000000000000000000000000000000000082169050919050565b610919816108e4565b811461092457600080fd5b50565b60008135905061093681610910565b92915050565b600060208284031215610952576109516108df565b5b600061096084828501610927565b91505092915050565b60008115159050919050565b61097e81610969565b82525050565b60006020820190506109996000830184610975565b92915050565b6000819050919050565b6109b28161099f565b81146109bd57600080fd5b50565b6000813590506109cf816109a9565b92915050565b6000602082840312156109eb576109ea6108df565b5b60006109f9848285016109c0565b91505092915050565b610a0b8161099f565b82525050565b6000602082019050610a266000830184610a02565b92915050565b600073ffffffffffffffffffffffffffffffffffffffff82169050919050565b6000610a5782610a2c565b9050919050565b610a6781610a4c565b8114610a7257600080fd5b50565b600081359050610a8481610a5e565b92915050565b60008060408385031215610aa157610aa06108df565b5b6000610aaf858286016109c0565b9250506020610ac085828601610a75565b9150509250929050565b600082825260208201905092915050565b7f416363657373436f6e74726f6c3a2063616e206f6e6c792072656e6f756e636560008201527f20726f6c657320666f722073656c660000000000000000000000000000000000602082015250565b6000610b37602f83610aca565b9150610b4282610adb565b604082019050919050565b60006020820190508181036000830152610b6681610b2a565b9050919050565b600081905092915050565b7f416363657373436f6e74726f6c3a206163636f756e7420000000000000000000600082015250565b6000610bae601783610b6d565b9150610bb982610b78565b601782019050919050565b600081519050919050565b60005b83811015610bed578082015181840152602081019050610bd2565b60008484015250505050565b6000610c0482610bc4565b610c0e8185610b6d565b9350610c1e818560208601610bcf565b80840191505092915050565b7f206973206d697373696e6720726f6c6520000000000000000000000000000000600082015250565b6000610c60601183610b6d565b9150610c6b82610c2a565b601182019050919050565b6000610c8182610ba1565b9150610c8d8285610bf9565b9150610c9882610c53565b9150610ca48284610bf9565b91508190509392505050565b6000601f19601f8301169050919050565b6000610ccc82610bc4565b610cd68185610aca565b9350610ce6818560208601610bcf565b610cef81610cb0565b840191505092915050565b60006020820190508181036000830152610d148184610cc1565b905092915050565b6000819050919050565b7f4e487b7100000000000000000000000000000000000000000000000000000000600052601160045260246000fd5b6000610d6082610d1c565b9150610d6b83610d1c565b9250828202610d7981610d1c565b91508282048414831517610d9057610d8f610d26565b5b5092915050565b6000610da282610d1c565b9150610dad83610d1c565b9250828201905080821115610dc557610dc4610d26565b5b92915050565b7f4e487b7100000000000000000000000000000000000000000000000000000000600052604160045260246000fd5b7f4e487b7100000000000000000000000000000000000000000000000000000000600052603260045260246000fd5b6000610e3482610d1c565b915060008203610e4757610e46610d26565b5b600182039050919050565b610e5b81610d1c565b82525050565b6000604082019050610e766000830185610e52565b610e836020830184610e52565b939250505056fea2646970667358221220b1d8c2051972b0237e35b64b7f37c98c968ae6c186c4469698ef46586284655664736f6c634300081a0033",
  "linkReferences": {},
  "deployedLinkReferences": {}
}